ARM GAS  C:\Users\ADMINI~1\AppData\Local\Temp\ccKP3Yqr.s 			page 1


   1              		.cpu cortex-m0
   2              		.fpu softvfp
   3              		.eabi_attribute 20, 1
   4              		.eabi_attribute 21, 1
   5              		.eabi_attribute 23, 3
   6              		.eabi_attribute 24, 1
   7              		.eabi_attribute 25, 1
   8              		.eabi_attribute 26, 1
   9              		.eabi_attribute 30, 6
  10              		.eabi_attribute 34, 0
  11              		.eabi_attribute 18, 4
  12              		.code	16
  13              		.file	"main.c"
  14              		.text
  15              	.Ltext0:
  16              		.cfi_sections	.debug_frame
  17              		.section	.text.main,"ax",%progbits
  18              		.align	2
  19              		.global	main
  20              		.code	16
  21              		.thumb_func
  22              		.type	main, %function
  23              	main:
  24              	.LFB37:
  25              		.file 1 ".\\main.c"
   1:.\main.c      **** /*******************************************************************************
   2:.\main.c      **** * File Name: main.c
   3:.\main.c      **** *
   4:.\main.c      **** * Version: 1.0
   5:.\main.c      **** *
   6:.\main.c      **** * Description:
   7:.\main.c      **** *  BLE example project that works as a BLE to UART bridge, using 
   8:.\main.c      **** *  Cypress's BLE component APIs and application layer callback. 
   9:.\main.c      **** *  This project demostrates a custom service usage for BLE to UART  
  10:.\main.c      **** *  bridge in a CENTRAL role.
  11:.\main.c      **** *
  12:.\main.c      **** * References:
  13:.\main.c      **** *  BLUETOOTH SPECIFICATION Version 4.1
  14:.\main.c      **** *
  15:.\main.c      **** * Hardware Dependency:
  16:.\main.c      **** *  (1) CY8CKIT-042 BLE
  17:.\main.c      **** *  (2) An external UART transciever (if flow control is enabled) 
  18:.\main.c      **** *
  19:.\main.c      **** ********************************************************************************
  20:.\main.c      **** * Copyright 2015, Cypress Semiconductor Corporation.  All rights reserved.
  21:.\main.c      **** * You may use this file only in accordance with the license, terms, conditions,
  22:.\main.c      **** * disclaimers, and limitations in the end user license agreement accompanying
  23:.\main.c      **** * the software package with which this file was provided.
  24:.\main.c      **** *******************************************************************************/
  25:.\main.c      **** 
  26:.\main.c      **** #include "main.h"
  27:.\main.c      **** 
  28:.\main.c      **** int main()
  29:.\main.c      **** {
  26              		.loc 1 29 0
  27              		.cfi_startproc
  28 0000 90B5     		push	{r4, r7, lr}
ARM GAS  C:\Users\ADMINI~1\AppData\Local\Temp\ccKP3Yqr.s 			page 2


  29              		.cfi_def_cfa_offset 12
  30              		.cfi_offset 4, -12
  31              		.cfi_offset 7, -8
  32              		.cfi_offset 14, -4
  33 0002 83B0     		sub	sp, sp, #12
  34              		.cfi_def_cfa_offset 24
  35 0004 00AF     		add	r7, sp, #0
  36              		.cfi_def_cfa_register 7
  30:.\main.c      ****     CYBLE_LP_MODE_T         lpMode;
  31:.\main.c      ****     CYBLE_BLESS_STATE_T     blessState;
  32:.\main.c      ****     CYBLE_API_RESULT_T      bleApiResult;
  33:.\main.c      ****    
  34:.\main.c      ****     CyGlobalIntEnable; 
  37              		.loc 1 34 0
  38              	@ 34 ".\main.c" 1
  39 0006 62B6     		CPSIE   i
  40              	@ 0 "" 2
  35:.\main.c      ****     
  36:.\main.c      ****     /* Start UART and BLE component and display project information */
  37:.\main.c      ****     UART_Start();   
  41              		.loc 1 37 0
  42              		.code	16
  43 0008 FFF7FEFF 		bl	UART_Start
  38:.\main.c      ****     bleApiResult = CyBle_Start(AppCallBack); 
  44              		.loc 1 38 0
  45 000c BC1D     		add	r4, r7, #6
  46 000e 0A4B     		ldr	r3, .L5
  47 0010 181C     		mov	r0, r3
  48 0012 FFF7FEFF 		bl	CyBle_Start
  49 0016 031C     		mov	r3, r0
  50 0018 2380     		strh	r3, [r4]
  39:.\main.c      ****     
  40:.\main.c      ****     if(bleApiResult == CYBLE_ERROR_OK)
  51              		.loc 1 40 0
  52 001a BB1D     		add	r3, r7, #6
  53 001c 1B88     		ldrh	r3, [r3]
  54 001e 002B     		cmp	r3, #0
  55 0020 03D0     		beq	.L2
  41:.\main.c      ****     {
  42:.\main.c      ****         #ifdef PRINT_MESSEGE_LOG
  43:.\main.c      ****             UART_UartPutString("\n\r************************************************************");
  44:.\main.c      ****             UART_UartPutString("\n\r***************** BLE UART example project *****************");
  45:.\main.c      ****             UART_UartPutString("\n\r************************************************************\n\
  46:.\main.c      ****             UART_UartPutString("\n\rDevice role \t: CENTRAL");
  47:.\main.c      ****             
  48:.\main.c      ****             #ifdef LOW_POWER_MODE
  49:.\main.c      ****                 UART_UartPutString("\n\rLow Power Mode \t: ENABLED");
  50:.\main.c      ****             #else
  51:.\main.c      ****                 UART_UartPutString("\n\rLow Power Mode \t: DISABLED");
  52:.\main.c      ****             #endif
  53:.\main.c      ****             
  54:.\main.c      ****             #ifdef FLOW_CONTROL
  55:.\main.c      ****                 UART_UartPutString("\n\rFlow Control \t: ENABLED");  
  56:.\main.c      ****             #else
  57:.\main.c      ****                 UART_UartPutString("\n\rFlow Control \t: DISABLED");
  58:.\main.c      ****             #endif
  59:.\main.c      ****             
ARM GAS  C:\Users\ADMINI~1\AppData\Local\Temp\ccKP3Yqr.s 			page 3


  60:.\main.c      ****         #endif
  61:.\main.c      ****     }
  62:.\main.c      ****     else
  63:.\main.c      ****     {
  64:.\main.c      ****         #ifdef PRINT_MESSEGE_LOG   
  65:.\main.c      ****             UART_UartPutString("\n\r\t\tCyBle stack initilization FAILED!!! \n\r ");
  66:.\main.c      ****         #endif
  67:.\main.c      ****         
  68:.\main.c      ****         /* Enter infinite loop */
  69:.\main.c      ****         Conn_LED_Write(LED_OFF);
  56              		.loc 1 69 0
  57 0022 0120     		mov	r0, #1
  58 0024 FFF7FEFF 		bl	Conn_LED_Write
  59              	.L3:
  70:.\main.c      ****         while(1);
  60              		.loc 1 70 0 discriminator 1
  61 0028 FEE7     		b	.L3
  62              	.L2:
  71:.\main.c      ****     }
  72:.\main.c      ****     
  73:.\main.c      ****     CyBle_ProcessEvents();
  63              		.loc 1 73 0
  64 002a FFF7FEFF 		bl	CyBle_ProcessEvents
  65              	.L4:
  74:.\main.c      ****     
  75:.\main.c      ****     /***************************************************************************
  76:.\main.c      ****     * Main polling loop
  77:.\main.c      ****     ***************************************************************************/
  78:.\main.c      ****     while(1)
  79:.\main.c      ****     {               
  80:.\main.c      ****         #ifdef LOW_POWER_MODE
  81:.\main.c      ****             
  82:.\main.c      ****             if((CyBle_GetState() != CYBLE_STATE_INITIALIZING) && (CyBle_GetState() != CYBLE_STATE_D
  83:.\main.c      ****             {
  84:.\main.c      ****                 /* Enter DeepSleep mode between connection intervals */
  85:.\main.c      ****                 
  86:.\main.c      ****                 lpMode = CyBle_EnterLPM(CYBLE_BLESS_DEEPSLEEP);
  87:.\main.c      ****                 CyGlobalIntDisable;
  88:.\main.c      ****                 blessState = CyBle_GetBleSsState();
  89:.\main.c      **** 
  90:.\main.c      ****                 if(lpMode == CYBLE_BLESS_DEEPSLEEP) 
  91:.\main.c      ****                 {   
  92:.\main.c      ****                     if((blessState == CYBLE_BLESS_STATE_ECO_ON || blessState == CYBLE_BLESS_STATE_D
  93:.\main.c      ****                             (UART_SpiUartGetTxBufferSize() + UART_GET_TX_FIFO_SR_VALID) == 0u)
  94:.\main.c      ****                     {
  95:.\main.c      ****                         UART_EnableInt();
  96:.\main.c      ****                         CySysPmSleep();
  97:.\main.c      ****                         UART_DisableInt();
  98:.\main.c      ****                     }
  99:.\main.c      ****                 }
 100:.\main.c      ****                 else
 101:.\main.c      ****                 {
 102:.\main.c      ****                     if((blessState != CYBLE_BLESS_STATE_EVENT_CLOSE) && \
 103:.\main.c      ****                             (UART_SpiUartGetTxBufferSize() + UART_GET_TX_FIFO_SR_VALID) == 0u)
 104:.\main.c      ****                     {
 105:.\main.c      ****                         UART_EnableInt();
 106:.\main.c      ****                         CySysPmSleep();
ARM GAS  C:\Users\ADMINI~1\AppData\Local\Temp\ccKP3Yqr.s 			page 4


 107:.\main.c      ****                         UART_DisableInt();
 108:.\main.c      ****                     }
 109:.\main.c      ****                 }
 110:.\main.c      ****                 CyGlobalIntEnable;
 111:.\main.c      ****                 
 112:.\main.c      ****                 /* Handle advertising led blinking */
 113:.\main.c      ****                 HandleLeds();
 114:.\main.c      ****             }
 115:.\main.c      ****             
 116:.\main.c      ****         #else
 117:.\main.c      ****             HandleLeds();
  66              		.loc 1 117 0 discriminator 1
  67 002e FFF7FEFF 		bl	HandleLeds
 118:.\main.c      ****         #endif
 119:.\main.c      ****         
 120:.\main.c      ****         /*******************************************************************
 121:.\main.c      ****         *  Process all pending BLE events in the stack
 122:.\main.c      ****         *******************************************************************/      
 123:.\main.c      ****         //HandleBleProcessing();
 124:.\main.c      ****         CyBle_ProcessEvents();
  68              		.loc 1 124 0 discriminator 1
  69 0032 FFF7FEFF 		bl	CyBle_ProcessEvents
 125:.\main.c      ****     }
  70              		.loc 1 125 0 discriminator 1
  71 0036 FAE7     		b	.L4
  72              	.L6:
  73              		.align	2
  74              	.L5:
  75 0038 00000000 		.word	AppCallBack
  76              		.cfi_endproc
  77              	.LFE37:
  78              		.size	main, .-main
  79              		.text
  80              	.Letext0:
  81              		.file 2 "Generated_Source\\PSoC4/BLE_Stack.h"
