ARM GAS  C:\Users\ADMINI~1\AppData\Local\Temp\ccfM3azw.s 			page 1


   1              		.cpu cortex-m0
   2              		.fpu softvfp
   3              		.eabi_attribute 20, 1
   4              		.eabi_attribute 21, 1
   5              		.eabi_attribute 23, 3
   6              		.eabi_attribute 24, 1
   7              		.eabi_attribute 25, 1
   8              		.eabi_attribute 26, 1
   9              		.eabi_attribute 30, 6
  10              		.eabi_attribute 34, 0
  11              		.eabi_attribute 18, 4
  12              		.code	16
  13              		.file	"UART_SPI_UART_INT.c"
  14              		.text
  15              	.Ltext0:
  16              		.cfi_sections	.debug_frame
  17              		.section	.text.UART_SPI_UART_ISR,"ax",%progbits
  18              		.align	2
  19              		.global	UART_SPI_UART_ISR
  20              		.code	16
  21              		.thumb_func
  22              		.type	UART_SPI_UART_ISR, %function
  23              	UART_SPI_UART_ISR:
  24              	.LFB2:
  25              		.file 1 ".\\Generated_Source\\PSoC4\\UART_SPI_UART_INT.c"
   1:.\Generated_Source\PSoC4/UART_SPI_UART_INT.c **** /***************************************************************************//**
   2:.\Generated_Source\PSoC4/UART_SPI_UART_INT.c **** * \file UART_SPI_UART_INT.c
   3:.\Generated_Source\PSoC4/UART_SPI_UART_INT.c **** * \version 3.20
   4:.\Generated_Source\PSoC4/UART_SPI_UART_INT.c **** *
   5:.\Generated_Source\PSoC4/UART_SPI_UART_INT.c **** * \brief
   6:.\Generated_Source\PSoC4/UART_SPI_UART_INT.c **** *  This file provides the source code to the Interrupt Service Routine for
   7:.\Generated_Source\PSoC4/UART_SPI_UART_INT.c **** *  the SCB Component in SPI and UART modes.
   8:.\Generated_Source\PSoC4/UART_SPI_UART_INT.c **** *
   9:.\Generated_Source\PSoC4/UART_SPI_UART_INT.c **** * Note:
  10:.\Generated_Source\PSoC4/UART_SPI_UART_INT.c **** *
  11:.\Generated_Source\PSoC4/UART_SPI_UART_INT.c **** ********************************************************************************
  12:.\Generated_Source\PSoC4/UART_SPI_UART_INT.c **** * \copyright
  13:.\Generated_Source\PSoC4/UART_SPI_UART_INT.c **** * Copyright 2013-2016, Cypress Semiconductor Corporation.  All rights reserved.
  14:.\Generated_Source\PSoC4/UART_SPI_UART_INT.c **** * You may use this file only in accordance with the license, terms, conditions,
  15:.\Generated_Source\PSoC4/UART_SPI_UART_INT.c **** * disclaimers, and limitations in the end user license agreement accompanying
  16:.\Generated_Source\PSoC4/UART_SPI_UART_INT.c **** * the software package with which this file was provided.
  17:.\Generated_Source\PSoC4/UART_SPI_UART_INT.c **** *******************************************************************************/
  18:.\Generated_Source\PSoC4/UART_SPI_UART_INT.c **** 
  19:.\Generated_Source\PSoC4/UART_SPI_UART_INT.c **** #include "UART_PVT.h"
  20:.\Generated_Source\PSoC4/UART_SPI_UART_INT.c **** #include "UART_SPI_UART_PVT.h"
  21:.\Generated_Source\PSoC4/UART_SPI_UART_INT.c **** 
  22:.\Generated_Source\PSoC4/UART_SPI_UART_INT.c **** 
  23:.\Generated_Source\PSoC4/UART_SPI_UART_INT.c **** #if (UART_SCB_IRQ_INTERNAL)
  24:.\Generated_Source\PSoC4/UART_SPI_UART_INT.c **** /*******************************************************************************
  25:.\Generated_Source\PSoC4/UART_SPI_UART_INT.c **** * Function Name: UART_SPI_UART_ISR
  26:.\Generated_Source\PSoC4/UART_SPI_UART_INT.c **** ****************************************************************************//**
  27:.\Generated_Source\PSoC4/UART_SPI_UART_INT.c **** *
  28:.\Generated_Source\PSoC4/UART_SPI_UART_INT.c **** *  Handles the Interrupt Service Routine for the SCB SPI or UART modes.
  29:.\Generated_Source\PSoC4/UART_SPI_UART_INT.c **** *
  30:.\Generated_Source\PSoC4/UART_SPI_UART_INT.c **** *******************************************************************************/
  31:.\Generated_Source\PSoC4/UART_SPI_UART_INT.c **** CY_ISR(UART_SPI_UART_ISR)
  32:.\Generated_Source\PSoC4/UART_SPI_UART_INT.c **** {
ARM GAS  C:\Users\ADMINI~1\AppData\Local\Temp\ccfM3azw.s 			page 2


  26              		.loc 1 32 0
  27              		.cfi_startproc
  28 0000 80B5     		push	{r7, lr}
  29              		.cfi_def_cfa_offset 8
  30              		.cfi_offset 7, -8
  31              		.cfi_offset 14, -4
  32 0002 82B0     		sub	sp, sp, #8
  33              		.cfi_def_cfa_offset 16
  34 0004 00AF     		add	r7, sp, #0
  35              		.cfi_def_cfa_register 7
  33:.\Generated_Source\PSoC4/UART_SPI_UART_INT.c **** #if (UART_INTERNAL_RX_SW_BUFFER_CONST)
  34:.\Generated_Source\PSoC4/UART_SPI_UART_INT.c ****     uint32 locHead;
  35:.\Generated_Source\PSoC4/UART_SPI_UART_INT.c **** #endif /* (UART_INTERNAL_RX_SW_BUFFER_CONST) */
  36:.\Generated_Source\PSoC4/UART_SPI_UART_INT.c **** 
  37:.\Generated_Source\PSoC4/UART_SPI_UART_INT.c **** #if (UART_INTERNAL_TX_SW_BUFFER_CONST)
  38:.\Generated_Source\PSoC4/UART_SPI_UART_INT.c ****     uint32 locTail;
  39:.\Generated_Source\PSoC4/UART_SPI_UART_INT.c **** #endif /* (UART_INTERNAL_TX_SW_BUFFER_CONST) */
  40:.\Generated_Source\PSoC4/UART_SPI_UART_INT.c **** 
  41:.\Generated_Source\PSoC4/UART_SPI_UART_INT.c **** #ifdef UART_SPI_UART_ISR_ENTRY_CALLBACK
  42:.\Generated_Source\PSoC4/UART_SPI_UART_INT.c ****     UART_SPI_UART_ISR_EntryCallback();
  43:.\Generated_Source\PSoC4/UART_SPI_UART_INT.c **** #endif /* UART_SPI_UART_ISR_ENTRY_CALLBACK */
  44:.\Generated_Source\PSoC4/UART_SPI_UART_INT.c **** 
  45:.\Generated_Source\PSoC4/UART_SPI_UART_INT.c ****     if (NULL != UART_customIntrHandler)
  36              		.loc 1 45 0
  37 0006 344B     		ldr	r3, .L15
  38 0008 1B68     		ldr	r3, [r3]
  39 000a 002B     		cmp	r3, #0
  40 000c 02D0     		beq	.L2
  46:.\Generated_Source\PSoC4/UART_SPI_UART_INT.c ****     {
  47:.\Generated_Source\PSoC4/UART_SPI_UART_INT.c ****         UART_customIntrHandler();
  41              		.loc 1 47 0
  42 000e 324B     		ldr	r3, .L15
  43 0010 1B68     		ldr	r3, [r3]
  44 0012 9847     		blx	r3
  45              	.L2:
  48:.\Generated_Source\PSoC4/UART_SPI_UART_INT.c ****     }
  49:.\Generated_Source\PSoC4/UART_SPI_UART_INT.c **** 
  50:.\Generated_Source\PSoC4/UART_SPI_UART_INT.c ****     #if(UART_CHECK_SPI_WAKE_ENABLE)
  51:.\Generated_Source\PSoC4/UART_SPI_UART_INT.c ****     {
  52:.\Generated_Source\PSoC4/UART_SPI_UART_INT.c ****         /* Clear SPI wakeup source */
  53:.\Generated_Source\PSoC4/UART_SPI_UART_INT.c ****         UART_ClearSpiExtClkInterruptSource(UART_INTR_SPI_EC_WAKE_UP);
  54:.\Generated_Source\PSoC4/UART_SPI_UART_INT.c ****     }
  55:.\Generated_Source\PSoC4/UART_SPI_UART_INT.c ****     #endif
  56:.\Generated_Source\PSoC4/UART_SPI_UART_INT.c **** 
  57:.\Generated_Source\PSoC4/UART_SPI_UART_INT.c ****     #if (UART_CHECK_RX_SW_BUFFER)
  58:.\Generated_Source\PSoC4/UART_SPI_UART_INT.c ****     {
  59:.\Generated_Source\PSoC4/UART_SPI_UART_INT.c ****         if (UART_CHECK_INTR_RX_MASKED(UART_INTR_RX_NOT_EMPTY))
  46              		.loc 1 59 0
  47 0014 314B     		ldr	r3, .L15+4
  48 0016 1B68     		ldr	r3, [r3]
  49 0018 0422     		mov	r2, #4
  50 001a 1340     		and	r3, r2
  51 001c 27D0     		beq	.L3
  52              	.L7:
  60:.\Generated_Source\PSoC4/UART_SPI_UART_INT.c ****         {
  61:.\Generated_Source\PSoC4/UART_SPI_UART_INT.c ****             do
  62:.\Generated_Source\PSoC4/UART_SPI_UART_INT.c ****             {
ARM GAS  C:\Users\ADMINI~1\AppData\Local\Temp\ccfM3azw.s 			page 3


  63:.\Generated_Source\PSoC4/UART_SPI_UART_INT.c ****                 /* Move local head index */
  64:.\Generated_Source\PSoC4/UART_SPI_UART_INT.c ****                 locHead = (UART_rxBufferHead + 1u);
  53              		.loc 1 64 0
  54 001e 304B     		ldr	r3, .L15+8
  55 0020 1B68     		ldr	r3, [r3]
  56 0022 0133     		add	r3, r3, #1
  57 0024 7B60     		str	r3, [r7, #4]
  65:.\Generated_Source\PSoC4/UART_SPI_UART_INT.c **** 
  66:.\Generated_Source\PSoC4/UART_SPI_UART_INT.c ****                 /* Adjust local head index */
  67:.\Generated_Source\PSoC4/UART_SPI_UART_INT.c ****                 if (UART_INTERNAL_RX_BUFFER_SIZE == locHead)
  58              		.loc 1 67 0
  59 0026 7B68     		ldr	r3, [r7, #4]
  60 0028 2E4A     		ldr	r2, .L15+12
  61 002a 9342     		cmp	r3, r2
  62 002c 01D1     		bne	.L4
  68:.\Generated_Source\PSoC4/UART_SPI_UART_INT.c ****                 {
  69:.\Generated_Source\PSoC4/UART_SPI_UART_INT.c ****                     locHead = 0u;
  63              		.loc 1 69 0
  64 002e 0023     		mov	r3, #0
  65 0030 7B60     		str	r3, [r7, #4]
  66              	.L4:
  70:.\Generated_Source\PSoC4/UART_SPI_UART_INT.c ****                 }
  71:.\Generated_Source\PSoC4/UART_SPI_UART_INT.c **** 
  72:.\Generated_Source\PSoC4/UART_SPI_UART_INT.c ****                 if (locHead == UART_rxBufferTail)
  67              		.loc 1 72 0
  68 0032 2D4B     		ldr	r3, .L15+16
  69 0034 1B68     		ldr	r3, [r3]
  70 0036 7A68     		ldr	r2, [r7, #4]
  71 0038 9A42     		cmp	r2, r3
  72 003a 05D1     		bne	.L5
  73:.\Generated_Source\PSoC4/UART_SPI_UART_INT.c ****                 {
  74:.\Generated_Source\PSoC4/UART_SPI_UART_INT.c ****                     #if (UART_CHECK_UART_RTS_CONTROL_FLOW)
  75:.\Generated_Source\PSoC4/UART_SPI_UART_INT.c ****                     {
  76:.\Generated_Source\PSoC4/UART_SPI_UART_INT.c ****                         /* There is no space in the software buffer - disable the
  77:.\Generated_Source\PSoC4/UART_SPI_UART_INT.c ****                         * RX Not Empty interrupt source. The data elements are
  78:.\Generated_Source\PSoC4/UART_SPI_UART_INT.c ****                         * still being received into the RX FIFO until the RTS signal
  79:.\Generated_Source\PSoC4/UART_SPI_UART_INT.c ****                         * stops the transmitter. After the data element is read from the
  80:.\Generated_Source\PSoC4/UART_SPI_UART_INT.c ****                         * buffer, the RX Not Empty interrupt source is enabled to
  81:.\Generated_Source\PSoC4/UART_SPI_UART_INT.c ****                         * move the next data element in the software buffer.
  82:.\Generated_Source\PSoC4/UART_SPI_UART_INT.c ****                         */
  83:.\Generated_Source\PSoC4/UART_SPI_UART_INT.c ****                         UART_INTR_RX_MASK_REG &= ~UART_INTR_RX_NOT_EMPTY;
  84:.\Generated_Source\PSoC4/UART_SPI_UART_INT.c ****                         break;
  85:.\Generated_Source\PSoC4/UART_SPI_UART_INT.c ****                     }
  86:.\Generated_Source\PSoC4/UART_SPI_UART_INT.c ****                     #else
  87:.\Generated_Source\PSoC4/UART_SPI_UART_INT.c ****                     {
  88:.\Generated_Source\PSoC4/UART_SPI_UART_INT.c ****                         /* Overflow: through away received data element */
  89:.\Generated_Source\PSoC4/UART_SPI_UART_INT.c ****                         (void) UART_RX_FIFO_RD_REG;
  73              		.loc 1 89 0
  74 003c 2B4B     		ldr	r3, .L15+20
  75 003e 1B68     		ldr	r3, [r3]
  90:.\Generated_Source\PSoC4/UART_SPI_UART_INT.c ****                         UART_rxBufferOverflow = (uint8) UART_INTR_RX_OVERFLOW;
  76              		.loc 1 90 0
  77 0040 2B4B     		ldr	r3, .L15+24
  78 0042 2022     		mov	r2, #32
  79 0044 1A70     		strb	r2, [r3]
  80 0046 0AE0     		b	.L6
  81              	.L5:
ARM GAS  C:\Users\ADMINI~1\AppData\Local\Temp\ccfM3azw.s 			page 4


  91:.\Generated_Source\PSoC4/UART_SPI_UART_INT.c ****                     }
  92:.\Generated_Source\PSoC4/UART_SPI_UART_INT.c ****                     #endif
  93:.\Generated_Source\PSoC4/UART_SPI_UART_INT.c ****                 }
  94:.\Generated_Source\PSoC4/UART_SPI_UART_INT.c ****                 else
  95:.\Generated_Source\PSoC4/UART_SPI_UART_INT.c ****                 {
  96:.\Generated_Source\PSoC4/UART_SPI_UART_INT.c ****                     /* Store received data */
  97:.\Generated_Source\PSoC4/UART_SPI_UART_INT.c ****                     UART_PutWordInRxBuffer(locHead, UART_RX_FIFO_RD_REG);
  82              		.loc 1 97 0
  83 0048 284B     		ldr	r3, .L15+20
  84 004a 1B68     		ldr	r3, [r3]
  85 004c D9B2     		uxtb	r1, r3
  86 004e 294A     		ldr	r2, .L15+28
  87 0050 7B68     		ldr	r3, [r7, #4]
  88 0052 D318     		add	r3, r2, r3
  89 0054 0A1C     		add	r2, r1, #0
  90 0056 1A70     		strb	r2, [r3]
  98:.\Generated_Source\PSoC4/UART_SPI_UART_INT.c **** 
  99:.\Generated_Source\PSoC4/UART_SPI_UART_INT.c ****                     /* Move head index */
 100:.\Generated_Source\PSoC4/UART_SPI_UART_INT.c ****                     UART_rxBufferHead = locHead;
  91              		.loc 1 100 0
  92 0058 214B     		ldr	r3, .L15+8
  93 005a 7A68     		ldr	r2, [r7, #4]
  94 005c 1A60     		str	r2, [r3]
  95              	.L6:
 101:.\Generated_Source\PSoC4/UART_SPI_UART_INT.c ****                 }
 102:.\Generated_Source\PSoC4/UART_SPI_UART_INT.c ****             }
 103:.\Generated_Source\PSoC4/UART_SPI_UART_INT.c ****             while(0u != UART_GET_RX_FIFO_ENTRIES);
  96              		.loc 1 103 0
  97 005e 264B     		ldr	r3, .L15+32
  98 0060 1B68     		ldr	r3, [r3]
  99 0062 1F22     		mov	r2, #31
 100 0064 1340     		and	r3, r2
 101 0066 DAD1     		bne	.L7
 104:.\Generated_Source\PSoC4/UART_SPI_UART_INT.c **** 
 105:.\Generated_Source\PSoC4/UART_SPI_UART_INT.c ****             UART_ClearRxInterruptSource(UART_INTR_RX_NOT_EMPTY);
 102              		.loc 1 105 0
 103 0068 244B     		ldr	r3, .L15+36
 104 006a 0422     		mov	r2, #4
 105 006c 1A60     		str	r2, [r3]
 106              	.L3:
 106:.\Generated_Source\PSoC4/UART_SPI_UART_INT.c ****         }
 107:.\Generated_Source\PSoC4/UART_SPI_UART_INT.c ****     }
 108:.\Generated_Source\PSoC4/UART_SPI_UART_INT.c ****     #endif
 109:.\Generated_Source\PSoC4/UART_SPI_UART_INT.c **** 
 110:.\Generated_Source\PSoC4/UART_SPI_UART_INT.c **** 
 111:.\Generated_Source\PSoC4/UART_SPI_UART_INT.c ****     #if (UART_CHECK_TX_SW_BUFFER)
 112:.\Generated_Source\PSoC4/UART_SPI_UART_INT.c ****     {
 113:.\Generated_Source\PSoC4/UART_SPI_UART_INT.c ****         if (UART_CHECK_INTR_TX_MASKED(UART_INTR_TX_NOT_FULL))
 107              		.loc 1 113 0
 108 006e 244B     		ldr	r3, .L15+40
 109 0070 1B68     		ldr	r3, [r3]
 110 0072 0222     		mov	r2, #2
 111 0074 1340     		and	r3, r2
 112 0076 2BD0     		beq	.L1
 113              	.L13:
 114:.\Generated_Source\PSoC4/UART_SPI_UART_INT.c ****         {
 115:.\Generated_Source\PSoC4/UART_SPI_UART_INT.c ****             do
ARM GAS  C:\Users\ADMINI~1\AppData\Local\Temp\ccfM3azw.s 			page 5


 116:.\Generated_Source\PSoC4/UART_SPI_UART_INT.c ****             {
 117:.\Generated_Source\PSoC4/UART_SPI_UART_INT.c ****                 /* Check for room in TX software buffer */
 118:.\Generated_Source\PSoC4/UART_SPI_UART_INT.c ****                 if (UART_txBufferHead != UART_txBufferTail)
 114              		.loc 1 118 0
 115 0078 224B     		ldr	r3, .L15+44
 116 007a 1A68     		ldr	r2, [r3]
 117 007c 224B     		ldr	r3, .L15+48
 118 007e 1B68     		ldr	r3, [r3]
 119 0080 9A42     		cmp	r2, r3
 120 0082 15D0     		beq	.L9
 119:.\Generated_Source\PSoC4/UART_SPI_UART_INT.c ****                 {
 120:.\Generated_Source\PSoC4/UART_SPI_UART_INT.c ****                     /* Move local tail index */
 121:.\Generated_Source\PSoC4/UART_SPI_UART_INT.c ****                     locTail = (UART_txBufferTail + 1u);
 121              		.loc 1 121 0
 122 0084 204B     		ldr	r3, .L15+48
 123 0086 1B68     		ldr	r3, [r3]
 124 0088 0133     		add	r3, r3, #1
 125 008a 3B60     		str	r3, [r7]
 122:.\Generated_Source\PSoC4/UART_SPI_UART_INT.c **** 
 123:.\Generated_Source\PSoC4/UART_SPI_UART_INT.c ****                     /* Adjust local tail index */
 124:.\Generated_Source\PSoC4/UART_SPI_UART_INT.c ****                     if (UART_TX_BUFFER_SIZE == locTail)
 126              		.loc 1 124 0
 127 008c 3A68     		ldr	r2, [r7]
 128 008e 8023     		mov	r3, #128
 129 0090 DB00     		lsl	r3, r3, #3
 130 0092 9A42     		cmp	r2, r3
 131 0094 01D1     		bne	.L10
 125:.\Generated_Source\PSoC4/UART_SPI_UART_INT.c ****                     {
 126:.\Generated_Source\PSoC4/UART_SPI_UART_INT.c ****                         locTail = 0u;
 132              		.loc 1 126 0
 133 0096 0023     		mov	r3, #0
 134 0098 3B60     		str	r3, [r7]
 135              	.L10:
 127:.\Generated_Source\PSoC4/UART_SPI_UART_INT.c ****                     }
 128:.\Generated_Source\PSoC4/UART_SPI_UART_INT.c **** 
 129:.\Generated_Source\PSoC4/UART_SPI_UART_INT.c ****                     /* Put data into TX FIFO */
 130:.\Generated_Source\PSoC4/UART_SPI_UART_INT.c ****                     UART_TX_FIFO_WR_REG = UART_GetWordFromTxBuffer(locTail);
 136              		.loc 1 130 0
 137 009a 1C4B     		ldr	r3, .L15+52
 138 009c 1C49     		ldr	r1, .L15+56
 139 009e 3A68     		ldr	r2, [r7]
 140 00a0 8A18     		add	r2, r1, r2
 141 00a2 1278     		ldrb	r2, [r2]
 142 00a4 D2B2     		uxtb	r2, r2
 143 00a6 1A60     		str	r2, [r3]
 131:.\Generated_Source\PSoC4/UART_SPI_UART_INT.c **** 
 132:.\Generated_Source\PSoC4/UART_SPI_UART_INT.c ****                     /* Move tail index */
 133:.\Generated_Source\PSoC4/UART_SPI_UART_INT.c ****                     UART_txBufferTail = locTail;
 144              		.loc 1 133 0
 145 00a8 174B     		ldr	r3, .L15+48
 146 00aa 3A68     		ldr	r2, [r7]
 147 00ac 1A60     		str	r2, [r3]
 148 00ae 06E0     		b	.L14
 149              	.L9:
 134:.\Generated_Source\PSoC4/UART_SPI_UART_INT.c ****                 }
 135:.\Generated_Source\PSoC4/UART_SPI_UART_INT.c ****                 else
 136:.\Generated_Source\PSoC4/UART_SPI_UART_INT.c ****                 {
ARM GAS  C:\Users\ADMINI~1\AppData\Local\Temp\ccfM3azw.s 			page 6


 137:.\Generated_Source\PSoC4/UART_SPI_UART_INT.c ****                     /* TX software buffer is empty: complete transfer */
 138:.\Generated_Source\PSoC4/UART_SPI_UART_INT.c ****                     UART_DISABLE_INTR_TX(UART_INTR_TX_NOT_FULL);
 150              		.loc 1 138 0
 151 00b0 184B     		ldr	r3, .L15+60
 152 00b2 184A     		ldr	r2, .L15+60
 153 00b4 1268     		ldr	r2, [r2]
 154 00b6 0221     		mov	r1, #2
 155 00b8 8A43     		bic	r2, r1
 156 00ba 1A60     		str	r2, [r3]
 139:.\Generated_Source\PSoC4/UART_SPI_UART_INT.c ****                     break;
 157              		.loc 1 139 0
 158 00bc 05E0     		b	.L12
 159              	.L14:
 140:.\Generated_Source\PSoC4/UART_SPI_UART_INT.c ****                 }
 141:.\Generated_Source\PSoC4/UART_SPI_UART_INT.c ****             }
 142:.\Generated_Source\PSoC4/UART_SPI_UART_INT.c ****             while (UART_SPI_UART_FIFO_SIZE != UART_GET_TX_FIFO_ENTRIES);
 160              		.loc 1 142 0
 161 00be 164B     		ldr	r3, .L15+64
 162 00c0 1B68     		ldr	r3, [r3]
 163 00c2 1F22     		mov	r2, #31
 164 00c4 1340     		and	r3, r2
 165 00c6 082B     		cmp	r3, #8
 166 00c8 D6D1     		bne	.L13
 167              	.L12:
 143:.\Generated_Source\PSoC4/UART_SPI_UART_INT.c **** 
 144:.\Generated_Source\PSoC4/UART_SPI_UART_INT.c ****             UART_ClearTxInterruptSource(UART_INTR_TX_NOT_FULL);
 168              		.loc 1 144 0
 169 00ca 144B     		ldr	r3, .L15+68
 170 00cc 0222     		mov	r2, #2
 171 00ce 1A60     		str	r2, [r3]
 172              	.L1:
 145:.\Generated_Source\PSoC4/UART_SPI_UART_INT.c ****         }
 146:.\Generated_Source\PSoC4/UART_SPI_UART_INT.c ****     }
 147:.\Generated_Source\PSoC4/UART_SPI_UART_INT.c ****     #endif
 148:.\Generated_Source\PSoC4/UART_SPI_UART_INT.c **** 
 149:.\Generated_Source\PSoC4/UART_SPI_UART_INT.c **** #ifdef UART_SPI_UART_ISR_EXIT_CALLBACK
 150:.\Generated_Source\PSoC4/UART_SPI_UART_INT.c ****     UART_SPI_UART_ISR_ExitCallback();
 151:.\Generated_Source\PSoC4/UART_SPI_UART_INT.c **** #endif /* UART_SPI_UART_ISR_EXIT_CALLBACK */
 152:.\Generated_Source\PSoC4/UART_SPI_UART_INT.c **** 
 153:.\Generated_Source\PSoC4/UART_SPI_UART_INT.c **** }
 173              		.loc 1 153 0
 174 00d0 BD46     		mov	sp, r7
 175 00d2 02B0     		add	sp, sp, #8
 176              		@ sp needed
 177 00d4 80BD     		pop	{r7, pc}
 178              	.L16:
 179 00d6 C046     		.align	2
 180              	.L15:
 181 00d8 00000000 		.word	UART_customIntrHandler
 182 00dc CC0F2440 		.word	1076105164
 183 00e0 00000000 		.word	UART_rxBufferHead
 184 00e4 01040000 		.word	1025
 185 00e8 00000000 		.word	UART_rxBufferTail
 186 00ec 40032440 		.word	1076101952
 187 00f0 00000000 		.word	UART_rxBufferOverflow
 188 00f4 00000000 		.word	UART_rxBufferInternal
 189 00f8 08032440 		.word	1076101896
ARM GAS  C:\Users\ADMINI~1\AppData\Local\Temp\ccfM3azw.s 			page 7


 190 00fc C00F2440 		.word	1076105152
 191 0100 8C0F2440 		.word	1076105100
 192 0104 00000000 		.word	UART_txBufferHead
 193 0108 00000000 		.word	UART_txBufferTail
 194 010c 40022440 		.word	1076101696
 195 0110 00000000 		.word	UART_txBufferInternal
 196 0114 880F2440 		.word	1076105096
 197 0118 08022440 		.word	1076101640
 198 011c 800F2440 		.word	1076105088
 199              		.cfi_endproc
 200              	.LFE2:
 201              		.size	UART_SPI_UART_ISR, .-UART_SPI_UART_ISR
 202              		.text
 203              	.Letext0:
 204              		.file 2 "Generated_Source\\PSoC4/cytypes.h"
 205              		.file 3 ".\\Generated_Source\\PSoC4\\UART_PVT.h"
 206              		.file 4 ".\\Generated_Source\\PSoC4\\UART_SPI_UART_PVT.h"
