ARM GAS  C:\Users\ADMINI~1\AppData\Local\Temp\ccJUBmf3.s 			page 1


   1              		.cpu cortex-m0
   2              		.fpu softvfp
   3              		.eabi_attribute 20, 1
   4              		.eabi_attribute 21, 1
   5              		.eabi_attribute 23, 3
   6              		.eabi_attribute 24, 1
   7              		.eabi_attribute 25, 1
   8              		.eabi_attribute 26, 1
   9              		.eabi_attribute 30, 6
  10              		.eabi_attribute 34, 0
  11              		.eabi_attribute 18, 4
  12              		.code	16
  13              		.file	"BLE_eventHandler.c"
  14              		.text
  15              	.Ltext0:
  16              		.cfi_sections	.debug_frame
  17              		.comm	cyBle_connHandle,2,4
  18              		.comm	cyBle_eventHandlerFlag,1,1
  19              		.comm	cyBle_busyStatus,1,1
  20              		.comm	cyBle_scanningIntervalType,1,1
  21              		.comm	cyBle_disCount,1,1
  22              		.bss
  23              		.align	1
  24              	cyBle_charEndHandle:
  25 0000 0000     		.space	2
  26              		.global	cyBle_serverInfo
  27              		.data
  28              		.align	2
  29              		.type	cyBle_serverInfo, %object
  30              		.size	cyBle_serverInfo, 12
  31              	cyBle_serverInfo:
  32 0000 0000     		.short	0
  33 0002 0000     		.short	0
  34 0004 0018     		.short	6144
  35 0006 0000     		.short	0
  36 0008 0000     		.short	0
  37 000a 0118     		.short	6145
  38              		.comm	cyBle_gapc,10,4
  39              		.global	cyBle_authInfo
  40              		.align	2
  41              		.type	cyBle_authInfo, %object
  42              		.size	cyBle_authInfo, 4
  43              	cyBle_authInfo:
  44 000c 10       		.byte	16
  45 000d 00       		.byte	0
  46 000e 10       		.byte	16
  47 000f 00       		.byte	0
  48              		.section	.text.CyBle_GattcWriteResponseEventHandler,"ax",%progbits
  49              		.align	2
  50              		.code	16
  51              		.thumb_func
  52              		.type	CyBle_GattcWriteResponseEventHandler, %function
  53              	CyBle_GattcWriteResponseEventHandler:
  54              	.LFB2:
  55              		.file 1 ".\\Generated_Source\\PSoC4\\BLE_eventHandler.c"
   1:.\Generated_Source\PSoC4/BLE_eventHandler.c **** /*******************************************************************************
   2:.\Generated_Source\PSoC4/BLE_eventHandler.c **** File Name: CYBLE_eventHandler.c
ARM GAS  C:\Users\ADMINI~1\AppData\Local\Temp\ccJUBmf3.s 			page 2


   3:.\Generated_Source\PSoC4/BLE_eventHandler.c **** Version 1.20
   4:.\Generated_Source\PSoC4/BLE_eventHandler.c **** 
   5:.\Generated_Source\PSoC4/BLE_eventHandler.c **** Description:
   6:.\Generated_Source\PSoC4/BLE_eventHandler.c ****  This file contains the source code for the Event Handler State Machine
   7:.\Generated_Source\PSoC4/BLE_eventHandler.c ****  of the BLE Component.
   8:.\Generated_Source\PSoC4/BLE_eventHandler.c **** 
   9:.\Generated_Source\PSoC4/BLE_eventHandler.c **** ********************************************************************************
  10:.\Generated_Source\PSoC4/BLE_eventHandler.c **** Copyright 2014-2015, Cypress Semiconductor Corporation.  All rights reserved.
  11:.\Generated_Source\PSoC4/BLE_eventHandler.c **** You may use this file only in accordance with the license, terms, conditions,
  12:.\Generated_Source\PSoC4/BLE_eventHandler.c **** disclaimers, and limitations in the end user license agreement accompanying
  13:.\Generated_Source\PSoC4/BLE_eventHandler.c **** the software package with which this file was provided.
  14:.\Generated_Source\PSoC4/BLE_eventHandler.c **** *******************************************************************************/
  15:.\Generated_Source\PSoC4/BLE_eventHandler.c **** 
  16:.\Generated_Source\PSoC4/BLE_eventHandler.c **** #include "BLE_eventHandler.h"
  17:.\Generated_Source\PSoC4/BLE_eventHandler.c **** 
  18:.\Generated_Source\PSoC4/BLE_eventHandler.c **** 
  19:.\Generated_Source\PSoC4/BLE_eventHandler.c **** /***************************************
  20:.\Generated_Source\PSoC4/BLE_eventHandler.c **** ##Private Function Prototypes
  21:.\Generated_Source\PSoC4/BLE_eventHandler.c **** ***************************************/
  22:.\Generated_Source\PSoC4/BLE_eventHandler.c **** 
  23:.\Generated_Source\PSoC4/BLE_eventHandler.c **** #if (CYBLE_GATT_ROLE_SERVER || CYBLE_GATT_ROLE_CLIENT)
  24:.\Generated_Source\PSoC4/BLE_eventHandler.c **** 
  25:.\Generated_Source\PSoC4/BLE_eventHandler.c **** static uint8 CyBle_IsDeviceAddressValid(const CYBLE_GAP_BD_ADDR_T *sflashDeviceAddress);
  26:.\Generated_Source\PSoC4/BLE_eventHandler.c **** 
  27:.\Generated_Source\PSoC4/BLE_eventHandler.c **** #endif /* CYBLE_GATT_ROLE_SERVER || CYBLE_GATT_ROLE_CLIENT */
  28:.\Generated_Source\PSoC4/BLE_eventHandler.c **** 
  29:.\Generated_Source\PSoC4/BLE_eventHandler.c **** static void CyBle_GattDisconnectEventHandler(void);
  30:.\Generated_Source\PSoC4/BLE_eventHandler.c **** static void CyBle_TimeOutEventHandler(const CYBLE_TO_REASON_CODE_T *eventParam);
  31:.\Generated_Source\PSoC4/BLE_eventHandler.c **** static void CyBle_GattConnectReqHandler(void);
  32:.\Generated_Source\PSoC4/BLE_eventHandler.c **** static void CyBle_L2Cap_ConnParamUpdateRspEventHandler(uint16 response);
  33:.\Generated_Source\PSoC4/BLE_eventHandler.c **** static void CyBle_GapConnUpdateCompleteEventHandler(const CYBLE_GAP_CONN_PARAM_UPDATED_IN_CONTROLLE
  34:.\Generated_Source\PSoC4/BLE_eventHandler.c **** 
  35:.\Generated_Source\PSoC4/BLE_eventHandler.c **** 
  36:.\Generated_Source\PSoC4/BLE_eventHandler.c **** #if (CYBLE_GATT_ROLE_SERVER)
  37:.\Generated_Source\PSoC4/BLE_eventHandler.c **** 
  38:.\Generated_Source\PSoC4/BLE_eventHandler.c **** static void CyBle_WriteReqHandler(CYBLE_GATTS_WRITE_REQ_PARAM_T *eventParam);
  39:.\Generated_Source\PSoC4/BLE_eventHandler.c **** static void CyBle_ValueConfirmation(const CYBLE_CONN_HANDLE_T *eventParam);
  40:.\Generated_Source\PSoC4/BLE_eventHandler.c **** 
  41:.\Generated_Source\PSoC4/BLE_eventHandler.c **** #endif /* CYBLE_GATT_ROLE_SERVER */
  42:.\Generated_Source\PSoC4/BLE_eventHandler.c **** 
  43:.\Generated_Source\PSoC4/BLE_eventHandler.c **** #if (CYBLE_GATT_ROLE_CLIENT)
  44:.\Generated_Source\PSoC4/BLE_eventHandler.c **** 
  45:.\Generated_Source\PSoC4/BLE_eventHandler.c **** static void CyBle_GapcDiscoverCharacteristicsEventHandler(CYBLE_DISC_CHAR_INFO_T *discCharInfo);
  46:.\Generated_Source\PSoC4/BLE_eventHandler.c **** static CYBLE_GATT_ATTR_HANDLE_RANGE_T CyBle_GetCharRange(void);
  47:.\Generated_Source\PSoC4/BLE_eventHandler.c **** static void CyBle_GattcWriteResponseEventHandler(const CYBLE_CONN_HANDLE_T *eventParam);
  48:.\Generated_Source\PSoC4/BLE_eventHandler.c **** static void CyBle_NotificationEventHandler(CYBLE_GATTC_HANDLE_VALUE_NTF_PARAM_T *eventParam);
  49:.\Generated_Source\PSoC4/BLE_eventHandler.c **** static void CyBle_IndicationEventHandler(CYBLE_GATTC_HANDLE_VALUE_IND_PARAM_T *eventParam);
  50:.\Generated_Source\PSoC4/BLE_eventHandler.c **** static void CyBle_ReadResponseEventHandler(CYBLE_GATTC_READ_RSP_PARAM_T *eventParam);
  51:.\Generated_Source\PSoC4/BLE_eventHandler.c **** 
  52:.\Generated_Source\PSoC4/BLE_eventHandler.c **** #endif /* CYBLE_GATT_ROLE_CLIENT */
  53:.\Generated_Source\PSoC4/BLE_eventHandler.c **** 
  54:.\Generated_Source\PSoC4/BLE_eventHandler.c **** 
  55:.\Generated_Source\PSoC4/BLE_eventHandler.c **** /***************************************
  56:.\Generated_Source\PSoC4/BLE_eventHandler.c **** ##Global Variables
  57:.\Generated_Source\PSoC4/BLE_eventHandler.c **** ***************************************/
  58:.\Generated_Source\PSoC4/BLE_eventHandler.c **** 
  59:.\Generated_Source\PSoC4/BLE_eventHandler.c **** /* This global variable is initialized after connection with peer device, 
ARM GAS  C:\Users\ADMINI~1\AppData\Local\Temp\ccJUBmf3.s 			page 3


  60:.\Generated_Source\PSoC4/BLE_eventHandler.c ****    after CYBLE_EVT_GATT_CONNECT_IND event, and could be used by application code
  61:.\Generated_Source\PSoC4/BLE_eventHandler.c ****    to send data to peer device. 
  62:.\Generated_Source\PSoC4/BLE_eventHandler.c **** */
  63:.\Generated_Source\PSoC4/BLE_eventHandler.c **** CYBLE_CONN_HANDLE_T cyBle_connHandle;
  64:.\Generated_Source\PSoC4/BLE_eventHandler.c **** 
  65:.\Generated_Source\PSoC4/BLE_eventHandler.c **** volatile uint8 cyBle_eventHandlerFlag;
  66:.\Generated_Source\PSoC4/BLE_eventHandler.c **** volatile uint8 cyBle_busyStatus;
  67:.\Generated_Source\PSoC4/BLE_eventHandler.c **** 
  68:.\Generated_Source\PSoC4/BLE_eventHandler.c **** #if(CYBLE_GAP_ROLE_PERIPHERAL || CYBLE_GAP_ROLE_BROADCASTER) 
  69:.\Generated_Source\PSoC4/BLE_eventHandler.c ****     uint8 cyBle_advertisingIntervalType;
  70:.\Generated_Source\PSoC4/BLE_eventHandler.c **** #endif /* CYBLE_GAP_ROLE_PERIPHERAL || CYBLE_GAP_ROLE_BROADCASTER) */
  71:.\Generated_Source\PSoC4/BLE_eventHandler.c **** 
  72:.\Generated_Source\PSoC4/BLE_eventHandler.c **** #if(CYBLE_GAP_ROLE_CENTRAL || CYBLE_GAP_ROLE_OBSERVER) 
  73:.\Generated_Source\PSoC4/BLE_eventHandler.c ****     uint8 cyBle_scanningIntervalType;
  74:.\Generated_Source\PSoC4/BLE_eventHandler.c **** #endif /* CYBLE_GAP_ROLE_CENTRAL || CYBLE_GAP_ROLE_OBSERVER */
  75:.\Generated_Source\PSoC4/BLE_eventHandler.c **** 
  76:.\Generated_Source\PSoC4/BLE_eventHandler.c **** #if(CYBLE_GATT_ROLE_CLIENT)
  77:.\Generated_Source\PSoC4/BLE_eventHandler.c **** uint8 cyBle_disCount; /* Counter for discovery procedures */
  78:.\Generated_Source\PSoC4/BLE_eventHandler.c **** static CYBLE_GATT_DB_ATTR_HANDLE_T cyBle_charEndHandle;
  79:.\Generated_Source\PSoC4/BLE_eventHandler.c **** #ifdef CYBLE_HIDS_CLIENT
  80:.\Generated_Source\PSoC4/BLE_eventHandler.c ****     static uint8 disServiceIndex;      /* To discovery descriptors for multiple HID service instanc
  81:.\Generated_Source\PSoC4/BLE_eventHandler.c **** #endif /* CYBLE_HIDS_CLIENT */
  82:.\Generated_Source\PSoC4/BLE_eventHandler.c **** 
  83:.\Generated_Source\PSoC4/BLE_eventHandler.c **** CYBLE_DISC_SRVC_INFO_T cyBle_serverInfo[CYBLE_SRVI_COUNT] = /*3*/
  84:.\Generated_Source\PSoC4/BLE_eventHandler.c **** {
  85:.\Generated_Source\PSoC4/BLE_eventHandler.c ****     {{CYBLE_GATT_INVALID_ATTR_HANDLE_VALUE, CYBLE_GATT_INVALID_ATTR_HANDLE_VALUE}, CYBLE_UUID_GAP_S
  86:.\Generated_Source\PSoC4/BLE_eventHandler.c ****     {{CYBLE_GATT_INVALID_ATTR_HANDLE_VALUE, CYBLE_GATT_INVALID_ATTR_HANDLE_VALUE}, CYBLE_UUID_GATT_
  87:.\Generated_Source\PSoC4/BLE_eventHandler.c **** #ifdef CYBLE_ANS_CLIENT
  88:.\Generated_Source\PSoC4/BLE_eventHandler.c ****     {{CYBLE_GATT_INVALID_ATTR_HANDLE_VALUE, CYBLE_GATT_INVALID_ATTR_HANDLE_VALUE}, CYBLE_UUID_ALERT
  89:.\Generated_Source\PSoC4/BLE_eventHandler.c **** #endif /* CYBLE_ANS_CLIENT */
  90:.\Generated_Source\PSoC4/BLE_eventHandler.c **** #ifdef CYBLE_BAS_CLIENT
  91:.\Generated_Source\PSoC4/BLE_eventHandler.c ****     {{CYBLE_GATT_INVALID_ATTR_HANDLE_VALUE, CYBLE_GATT_INVALID_ATTR_HANDLE_VALUE}, CYBLE_UUID_BAS_S
  92:.\Generated_Source\PSoC4/BLE_eventHandler.c ****     #if(CYBLE_BASC_SERVICE_COUNT > 1u) /* Generate it by GUI */
  93:.\Generated_Source\PSoC4/BLE_eventHandler.c ****         
  94:.\Generated_Source\PSoC4/BLE_eventHandler.c ****     #endif /* CYBLE_BASC_SERVICE_COUNT > 1u */
  95:.\Generated_Source\PSoC4/BLE_eventHandler.c **** #endif /* CYBLE_BAS_CLIENT */
  96:.\Generated_Source\PSoC4/BLE_eventHandler.c **** #ifdef CYBLE_BLS_CLIENT
  97:.\Generated_Source\PSoC4/BLE_eventHandler.c ****     {{CYBLE_GATT_INVALID_ATTR_HANDLE_VALUE, CYBLE_GATT_INVALID_ATTR_HANDLE_VALUE}, CYBLE_UUID_BLOOD
  98:.\Generated_Source\PSoC4/BLE_eventHandler.c **** #endif /* CYBLE_BLS_CLIENT */
  99:.\Generated_Source\PSoC4/BLE_eventHandler.c **** #ifdef CYBLE_CGMS_CLIENT
 100:.\Generated_Source\PSoC4/BLE_eventHandler.c ****     {{CYBLE_GATT_INVALID_ATTR_HANDLE_VALUE, CYBLE_GATT_INVALID_ATTR_HANDLE_VALUE}, CYBLE_UUID_CGM_S
 101:.\Generated_Source\PSoC4/BLE_eventHandler.c **** #endif /* CYBLE_CGMS_CLIENT */
 102:.\Generated_Source\PSoC4/BLE_eventHandler.c **** #ifdef CYBLE_CPS_CLIENT
 103:.\Generated_Source\PSoC4/BLE_eventHandler.c ****     {{CYBLE_GATT_INVALID_ATTR_HANDLE_VALUE, CYBLE_GATT_INVALID_ATTR_HANDLE_VALUE}, CYBLE_UUID_CPS_S
 104:.\Generated_Source\PSoC4/BLE_eventHandler.c **** #endif /* CYBLE_CPS_CLIENT */
 105:.\Generated_Source\PSoC4/BLE_eventHandler.c **** #ifdef CYBLE_CSCS_CLIENT
 106:.\Generated_Source\PSoC4/BLE_eventHandler.c ****     {{CYBLE_GATT_INVALID_ATTR_HANDLE_VALUE, CYBLE_GATT_INVALID_ATTR_HANDLE_VALUE}, CYBLE_UUID_CYCLI
 107:.\Generated_Source\PSoC4/BLE_eventHandler.c **** #endif /* CYBLE_CSCS_CLIENT */
 108:.\Generated_Source\PSoC4/BLE_eventHandler.c **** #ifdef CYBLE_CTS_CLIENT
 109:.\Generated_Source\PSoC4/BLE_eventHandler.c ****     {{CYBLE_GATT_INVALID_ATTR_HANDLE_VALUE, CYBLE_GATT_INVALID_ATTR_HANDLE_VALUE}, CYBLE_UUID_CURRE
 110:.\Generated_Source\PSoC4/BLE_eventHandler.c **** #endif /* CYBLE_CTS_CLIENT */
 111:.\Generated_Source\PSoC4/BLE_eventHandler.c **** #ifdef CYBLE_DIS_CLIENT
 112:.\Generated_Source\PSoC4/BLE_eventHandler.c ****     {{CYBLE_GATT_INVALID_ATTR_HANDLE_VALUE, CYBLE_GATT_INVALID_ATTR_HANDLE_VALUE}, CYBLE_UUID_DEVIC
 113:.\Generated_Source\PSoC4/BLE_eventHandler.c **** #endif /* CYBLE_DIS_CLIENT */
 114:.\Generated_Source\PSoC4/BLE_eventHandler.c **** #ifdef CYBLE_GLS_CLIENT
 115:.\Generated_Source\PSoC4/BLE_eventHandler.c ****     {{CYBLE_GATT_INVALID_ATTR_HANDLE_VALUE, CYBLE_GATT_INVALID_ATTR_HANDLE_VALUE}, CYBLE_UUID_GLUCO
 116:.\Generated_Source\PSoC4/BLE_eventHandler.c **** #endif /* CYBLE_GLS_CLIENT */
ARM GAS  C:\Users\ADMINI~1\AppData\Local\Temp\ccJUBmf3.s 			page 4


 117:.\Generated_Source\PSoC4/BLE_eventHandler.c **** #ifdef CYBLE_HIDS_CLIENT
 118:.\Generated_Source\PSoC4/BLE_eventHandler.c ****     {{CYBLE_GATT_INVALID_ATTR_HANDLE_VALUE, CYBLE_GATT_INVALID_ATTR_HANDLE_VALUE}, CYBLE_UUID_HIDS_
 119:.\Generated_Source\PSoC4/BLE_eventHandler.c ****     #if(CYBLE_HIDSC_SERVICE_COUNT > 1u) /* Generate it by GUI */
 120:.\Generated_Source\PSoC4/BLE_eventHandler.c ****         
 121:.\Generated_Source\PSoC4/BLE_eventHandler.c ****     #endif /* CYBLE_HIDSC_SERVICE_COUNT > 1u */
 122:.\Generated_Source\PSoC4/BLE_eventHandler.c **** #endif /* CYBLE_HIDS_CLIENT */
 123:.\Generated_Source\PSoC4/BLE_eventHandler.c **** #ifdef CYBLE_HRS_CLIENT
 124:.\Generated_Source\PSoC4/BLE_eventHandler.c ****     {{CYBLE_GATT_INVALID_ATTR_HANDLE_VALUE, CYBLE_GATT_INVALID_ATTR_HANDLE_VALUE}, CYBLE_UUID_HEART
 125:.\Generated_Source\PSoC4/BLE_eventHandler.c **** #endif /* CYBLE_HRS_CLIENT */
 126:.\Generated_Source\PSoC4/BLE_eventHandler.c **** #ifdef CYBLE_HTS_CLIENT
 127:.\Generated_Source\PSoC4/BLE_eventHandler.c ****     {{CYBLE_GATT_INVALID_ATTR_HANDLE_VALUE, CYBLE_GATT_INVALID_ATTR_HANDLE_VALUE}, CYBLE_UUID_HEALT
 128:.\Generated_Source\PSoC4/BLE_eventHandler.c **** #endif /* CYBLE_HTS_CLIENT */
 129:.\Generated_Source\PSoC4/BLE_eventHandler.c **** #ifdef CYBLE_IAS_CLIENT
 130:.\Generated_Source\PSoC4/BLE_eventHandler.c ****     {{CYBLE_GATT_INVALID_ATTR_HANDLE_VALUE, CYBLE_GATT_INVALID_ATTR_HANDLE_VALUE}, CYBLE_UUID_IMMED
 131:.\Generated_Source\PSoC4/BLE_eventHandler.c **** #endif /* CYBLE_IAS_CLIENT */
 132:.\Generated_Source\PSoC4/BLE_eventHandler.c **** #ifdef CYBLE_LLS_CLIENT
 133:.\Generated_Source\PSoC4/BLE_eventHandler.c ****     {{CYBLE_GATT_INVALID_ATTR_HANDLE_VALUE, CYBLE_GATT_INVALID_ATTR_HANDLE_VALUE}, CYBLE_UUID_LINK_
 134:.\Generated_Source\PSoC4/BLE_eventHandler.c **** #endif /* CYBLE_LLS_CLIENT */
 135:.\Generated_Source\PSoC4/BLE_eventHandler.c **** #ifdef CYBLE_LNS_CLIENT
 136:.\Generated_Source\PSoC4/BLE_eventHandler.c ****     {{CYBLE_GATT_INVALID_ATTR_HANDLE_VALUE, CYBLE_GATT_INVALID_ATTR_HANDLE_VALUE}, CYBLE_UUID_LOCAT
 137:.\Generated_Source\PSoC4/BLE_eventHandler.c **** #endif /* CYBLE_LNS_CLIENT */
 138:.\Generated_Source\PSoC4/BLE_eventHandler.c **** #ifdef CYBLE_NDCS_CLIENT
 139:.\Generated_Source\PSoC4/BLE_eventHandler.c ****     {{CYBLE_GATT_INVALID_ATTR_HANDLE_VALUE, CYBLE_GATT_INVALID_ATTR_HANDLE_VALUE}, CYBLE_UUID_NEXT_
 140:.\Generated_Source\PSoC4/BLE_eventHandler.c **** #endif /* CYBLE_NDCS_CLIENT */
 141:.\Generated_Source\PSoC4/BLE_eventHandler.c **** #ifdef CYBLE_PASS_CLIENT
 142:.\Generated_Source\PSoC4/BLE_eventHandler.c ****     {{CYBLE_GATT_INVALID_ATTR_HANDLE_VALUE, CYBLE_GATT_INVALID_ATTR_HANDLE_VALUE}, CYBLE_UUID_PHONE
 143:.\Generated_Source\PSoC4/BLE_eventHandler.c **** #endif /* CYBLE_PASS_CLIENT */
 144:.\Generated_Source\PSoC4/BLE_eventHandler.c **** #ifdef CYBLE_RSCS_CLIENT
 145:.\Generated_Source\PSoC4/BLE_eventHandler.c ****     {{CYBLE_GATT_INVALID_ATTR_HANDLE_VALUE, CYBLE_GATT_INVALID_ATTR_HANDLE_VALUE}, CYBLE_UUID_RUNNI
 146:.\Generated_Source\PSoC4/BLE_eventHandler.c **** #endif /* CYBLE_RSCS_CLIENT */
 147:.\Generated_Source\PSoC4/BLE_eventHandler.c **** #ifdef CYBLE_RTUS_CLIENT
 148:.\Generated_Source\PSoC4/BLE_eventHandler.c ****     {{CYBLE_GATT_INVALID_ATTR_HANDLE_VALUE, CYBLE_GATT_INVALID_ATTR_HANDLE_VALUE}, CYBLE_UUID_REF_T
 149:.\Generated_Source\PSoC4/BLE_eventHandler.c **** #endif /* CYBLE_RTUS_CLIENT */
 150:.\Generated_Source\PSoC4/BLE_eventHandler.c **** #ifdef CYBLE_SCPS_CLIENT
 151:.\Generated_Source\PSoC4/BLE_eventHandler.c ****     {{CYBLE_GATT_INVALID_ATTR_HANDLE_VALUE, CYBLE_GATT_INVALID_ATTR_HANDLE_VALUE}, CYBLE_UUID_SCAN_
 152:.\Generated_Source\PSoC4/BLE_eventHandler.c **** #endif /* CYBLE_SCPS_CLIENT */
 153:.\Generated_Source\PSoC4/BLE_eventHandler.c **** #ifdef CYBLE_TPS_CLIENT
 154:.\Generated_Source\PSoC4/BLE_eventHandler.c ****     {{CYBLE_GATT_INVALID_ATTR_HANDLE_VALUE, CYBLE_GATT_INVALID_ATTR_HANDLE_VALUE}, CYBLE_UUID_TX_PO
 155:.\Generated_Source\PSoC4/BLE_eventHandler.c **** #endif /* CYBLE_TPS_CLIENT */
 156:.\Generated_Source\PSoC4/BLE_eventHandler.c **** #ifdef CYBLE_UDS_CLIENT
 157:.\Generated_Source\PSoC4/BLE_eventHandler.c ****     {{CYBLE_GATT_INVALID_ATTR_HANDLE_VALUE, CYBLE_GATT_INVALID_ATTR_HANDLE_VALUE}, CYBLE_UUID_USER_
 158:.\Generated_Source\PSoC4/BLE_eventHandler.c **** #endif /* CYBLE_UDS_CLIENT */
 159:.\Generated_Source\PSoC4/BLE_eventHandler.c **** 
 160:.\Generated_Source\PSoC4/BLE_eventHandler.c **** };
 161:.\Generated_Source\PSoC4/BLE_eventHandler.c **** 
 162:.\Generated_Source\PSoC4/BLE_eventHandler.c **** CYBLE_GAPC_T cyBle_gapc;
 163:.\Generated_Source\PSoC4/BLE_eventHandler.c **** 
 164:.\Generated_Source\PSoC4/BLE_eventHandler.c **** #endif /* CYBLE_GATT_ROLE_CLIENT */
 165:.\Generated_Source\PSoC4/BLE_eventHandler.c **** 
 166:.\Generated_Source\PSoC4/BLE_eventHandler.c **** /* Default device security */
 167:.\Generated_Source\PSoC4/BLE_eventHandler.c **** CYBLE_GAP_AUTH_INFO_T cyBle_authInfo =
 168:.\Generated_Source\PSoC4/BLE_eventHandler.c **** {
 169:.\Generated_Source\PSoC4/BLE_eventHandler.c ****     (CYBLE_GAP_SEC_MODE_1 | CYBLE_GAP_SEC_LEVEL_1 ), /* uint8 security */
 170:.\Generated_Source\PSoC4/BLE_eventHandler.c ****     CYBLE_GAP_BONDING_NONE, /* uint8 bonding */
 171:.\Generated_Source\PSoC4/BLE_eventHandler.c ****     0x10u,      /* uint8 ekeySize */
 172:.\Generated_Source\PSoC4/BLE_eventHandler.c ****     CYBLE_GAP_AUTH_ERROR_NONE, /* CYBLE_AUTH_FAILED_REASON_T authErr */
 173:.\Generated_Source\PSoC4/BLE_eventHandler.c **** };
ARM GAS  C:\Users\ADMINI~1\AppData\Local\Temp\ccJUBmf3.s 			page 5


 174:.\Generated_Source\PSoC4/BLE_eventHandler.c **** 
 175:.\Generated_Source\PSoC4/BLE_eventHandler.c **** #if(CYBLE_GATT_ROLE_SERVER)
 176:.\Generated_Source\PSoC4/BLE_eventHandler.c **** 
 177:.\Generated_Source\PSoC4/BLE_eventHandler.c **** 
 178:.\Generated_Source\PSoC4/BLE_eventHandler.c **** /******************************************************************************    
 179:.\Generated_Source\PSoC4/BLE_eventHandler.c **** ##Function Name: CyBle_WriteReqHandler
 180:.\Generated_Source\PSoC4/BLE_eventHandler.c **** *******************************************************************************
 181:.\Generated_Source\PSoC4/BLE_eventHandler.c **** 
 182:.\Generated_Source\PSoC4/BLE_eventHandler.c **** Summary:
 183:.\Generated_Source\PSoC4/BLE_eventHandler.c ****  Handles the Write Request event from BLE stack.
 184:.\Generated_Source\PSoC4/BLE_eventHandler.c **** 
 185:.\Generated_Source\PSoC4/BLE_eventHandler.c **** Parameters:
 186:.\Generated_Source\PSoC4/BLE_eventHandler.c ****  CYBLE_GATTS_WRITE_REQ_PARAM_T * eventParam - event parameter
 187:.\Generated_Source\PSoC4/BLE_eventHandler.c **** 
 188:.\Generated_Source\PSoC4/BLE_eventHandler.c **** Return:
 189:.\Generated_Source\PSoC4/BLE_eventHandler.c ****  None
 190:.\Generated_Source\PSoC4/BLE_eventHandler.c **** 
 191:.\Generated_Source\PSoC4/BLE_eventHandler.c **** ******************************************************************************/
 192:.\Generated_Source\PSoC4/BLE_eventHandler.c **** static void CyBle_WriteReqHandler(CYBLE_GATTS_WRITE_REQ_PARAM_T *eventParam)
 193:.\Generated_Source\PSoC4/BLE_eventHandler.c **** {
 194:.\Generated_Source\PSoC4/BLE_eventHandler.c ****     CYBLE_GATT_ERR_CODE_T gattErr;
 195:.\Generated_Source\PSoC4/BLE_eventHandler.c ****     
 196:.\Generated_Source\PSoC4/BLE_eventHandler.c ****     gattErr = CyBle_GattsWriteEventHandler(eventParam);
 197:.\Generated_Source\PSoC4/BLE_eventHandler.c **** #ifdef CYBLE_ANS_SERVER
 198:.\Generated_Source\PSoC4/BLE_eventHandler.c ****     if((CYBLE_GATT_ERR_NONE == gattErr) && ((cyBle_eventHandlerFlag & CYBLE_CALLBACK) != 0u))
 199:.\Generated_Source\PSoC4/BLE_eventHandler.c ****     {
 200:.\Generated_Source\PSoC4/BLE_eventHandler.c ****         gattErr = CyBle_AnssWriteEventHandler(eventParam);
 201:.\Generated_Source\PSoC4/BLE_eventHandler.c ****     }
 202:.\Generated_Source\PSoC4/BLE_eventHandler.c **** #endif /* CYBLE_ANS_SERVER */
 203:.\Generated_Source\PSoC4/BLE_eventHandler.c **** #ifdef CYBLE_BAS_SERVER
 204:.\Generated_Source\PSoC4/BLE_eventHandler.c ****     if((CYBLE_GATT_ERR_NONE == gattErr) && ((cyBle_eventHandlerFlag & CYBLE_CALLBACK) != 0u))
 205:.\Generated_Source\PSoC4/BLE_eventHandler.c ****     {
 206:.\Generated_Source\PSoC4/BLE_eventHandler.c ****         gattErr = CyBle_BassWriteEventHandler(eventParam);
 207:.\Generated_Source\PSoC4/BLE_eventHandler.c ****     }
 208:.\Generated_Source\PSoC4/BLE_eventHandler.c **** #endif /* CYBLE_BAS_SERVER */
 209:.\Generated_Source\PSoC4/BLE_eventHandler.c **** #ifdef CYBLE_BLS_SERVER
 210:.\Generated_Source\PSoC4/BLE_eventHandler.c ****     if((CYBLE_GATT_ERR_NONE == gattErr) && ((cyBle_eventHandlerFlag & CYBLE_CALLBACK) != 0u))
 211:.\Generated_Source\PSoC4/BLE_eventHandler.c ****     {
 212:.\Generated_Source\PSoC4/BLE_eventHandler.c ****         gattErr = CyBle_BlssWriteEventHandler(eventParam);
 213:.\Generated_Source\PSoC4/BLE_eventHandler.c ****     }
 214:.\Generated_Source\PSoC4/BLE_eventHandler.c **** #endif /* CYBLE_BLS_SERVER */
 215:.\Generated_Source\PSoC4/BLE_eventHandler.c **** #ifdef CYBLE_CPS_SERVER
 216:.\Generated_Source\PSoC4/BLE_eventHandler.c ****     if((CYBLE_GATT_ERR_NONE == gattErr) && ((cyBle_eventHandlerFlag & CYBLE_CALLBACK) != 0u))
 217:.\Generated_Source\PSoC4/BLE_eventHandler.c ****     {
 218:.\Generated_Source\PSoC4/BLE_eventHandler.c ****         gattErr = CyBle_CpssWriteEventHandler(eventParam);
 219:.\Generated_Source\PSoC4/BLE_eventHandler.c ****     }
 220:.\Generated_Source\PSoC4/BLE_eventHandler.c **** #endif /* CYBLE_CPS_SERVER */
 221:.\Generated_Source\PSoC4/BLE_eventHandler.c **** #ifdef CYBLE_CSCS_SERVER
 222:.\Generated_Source\PSoC4/BLE_eventHandler.c ****     if((CYBLE_GATT_ERR_NONE == gattErr) && ((cyBle_eventHandlerFlag & CYBLE_CALLBACK) != 0u))
 223:.\Generated_Source\PSoC4/BLE_eventHandler.c ****     {
 224:.\Generated_Source\PSoC4/BLE_eventHandler.c ****         gattErr = CyBle_CscssWriteEventHandler(eventParam);
 225:.\Generated_Source\PSoC4/BLE_eventHandler.c ****     }
 226:.\Generated_Source\PSoC4/BLE_eventHandler.c **** #endif /* CYBLE_CSCS_SERVER */
 227:.\Generated_Source\PSoC4/BLE_eventHandler.c **** #ifdef CYBLE_CTS_SERVER
 228:.\Generated_Source\PSoC4/BLE_eventHandler.c ****     if((CYBLE_GATT_ERR_NONE == gattErr) && ((cyBle_eventHandlerFlag & CYBLE_CALLBACK) != 0u))
 229:.\Generated_Source\PSoC4/BLE_eventHandler.c ****     {
 230:.\Generated_Source\PSoC4/BLE_eventHandler.c ****         gattErr = CyBle_CtssWriteEventHandler(eventParam);
ARM GAS  C:\Users\ADMINI~1\AppData\Local\Temp\ccJUBmf3.s 			page 6


 231:.\Generated_Source\PSoC4/BLE_eventHandler.c ****     }
 232:.\Generated_Source\PSoC4/BLE_eventHandler.c **** #endif /* CYBLE_CTS_SERVER */
 233:.\Generated_Source\PSoC4/BLE_eventHandler.c **** #ifdef CYBLE_GLS_SERVER
 234:.\Generated_Source\PSoC4/BLE_eventHandler.c ****     if((CYBLE_GATT_ERR_NONE == gattErr) && ((cyBle_eventHandlerFlag & CYBLE_CALLBACK) != 0u))
 235:.\Generated_Source\PSoC4/BLE_eventHandler.c ****     {
 236:.\Generated_Source\PSoC4/BLE_eventHandler.c ****         gattErr = CyBle_GlssWriteEventHandler(eventParam);
 237:.\Generated_Source\PSoC4/BLE_eventHandler.c ****     }
 238:.\Generated_Source\PSoC4/BLE_eventHandler.c **** #endif /* CYBLE_GLS_SERVER */
 239:.\Generated_Source\PSoC4/BLE_eventHandler.c **** #ifdef CYBLE_HIDS_SERVER
 240:.\Generated_Source\PSoC4/BLE_eventHandler.c ****     if((CYBLE_GATT_ERR_NONE == gattErr) && ((cyBle_eventHandlerFlag & CYBLE_CALLBACK) != 0u))
 241:.\Generated_Source\PSoC4/BLE_eventHandler.c ****     {
 242:.\Generated_Source\PSoC4/BLE_eventHandler.c ****         gattErr = CyBle_HidssWriteEventHandler(eventParam);
 243:.\Generated_Source\PSoC4/BLE_eventHandler.c ****     }
 244:.\Generated_Source\PSoC4/BLE_eventHandler.c **** #endif /* CYBLE_HIDS_SERVER */
 245:.\Generated_Source\PSoC4/BLE_eventHandler.c **** #ifdef CYBLE_HRS_SERVER
 246:.\Generated_Source\PSoC4/BLE_eventHandler.c ****     if((CYBLE_GATT_ERR_NONE == gattErr) && ((cyBle_eventHandlerFlag & CYBLE_CALLBACK) != 0u))
 247:.\Generated_Source\PSoC4/BLE_eventHandler.c ****     {
 248:.\Generated_Source\PSoC4/BLE_eventHandler.c ****         gattErr = CyBle_HrssWriteEventHandler(eventParam);
 249:.\Generated_Source\PSoC4/BLE_eventHandler.c ****     }
 250:.\Generated_Source\PSoC4/BLE_eventHandler.c **** #endif /* CYBLE_HRS_SERVER */
 251:.\Generated_Source\PSoC4/BLE_eventHandler.c **** #ifdef CYBLE_HTS_SERVER
 252:.\Generated_Source\PSoC4/BLE_eventHandler.c ****     if((CYBLE_GATT_ERR_NONE == gattErr) && ((cyBle_eventHandlerFlag & CYBLE_CALLBACK) != 0u))
 253:.\Generated_Source\PSoC4/BLE_eventHandler.c ****     {
 254:.\Generated_Source\PSoC4/BLE_eventHandler.c ****         gattErr = CyBle_HtssWriteEventHandler(eventParam);
 255:.\Generated_Source\PSoC4/BLE_eventHandler.c ****     }
 256:.\Generated_Source\PSoC4/BLE_eventHandler.c **** #endif /* CYBLE_HTS_SERVER */
 257:.\Generated_Source\PSoC4/BLE_eventHandler.c **** #ifdef CYBLE_LLS_SERVER
 258:.\Generated_Source\PSoC4/BLE_eventHandler.c ****     if((CYBLE_GATT_ERR_NONE == gattErr) && ((cyBle_eventHandlerFlag & CYBLE_CALLBACK) != 0u))
 259:.\Generated_Source\PSoC4/BLE_eventHandler.c ****     {
 260:.\Generated_Source\PSoC4/BLE_eventHandler.c ****         gattErr = CyBle_LlssWriteEventHandler(eventParam);
 261:.\Generated_Source\PSoC4/BLE_eventHandler.c ****     }
 262:.\Generated_Source\PSoC4/BLE_eventHandler.c **** #endif /* CYBLE_LLS_SERVER */
 263:.\Generated_Source\PSoC4/BLE_eventHandler.c **** #ifdef CYBLE_LNS_SERVER
 264:.\Generated_Source\PSoC4/BLE_eventHandler.c ****     if((CYBLE_GATT_ERR_NONE == gattErr) && ((cyBle_eventHandlerFlag & CYBLE_CALLBACK) != 0u))
 265:.\Generated_Source\PSoC4/BLE_eventHandler.c ****     {
 266:.\Generated_Source\PSoC4/BLE_eventHandler.c ****         gattErr = CyBle_LnssWriteEventHandler(eventParam);
 267:.\Generated_Source\PSoC4/BLE_eventHandler.c ****     }
 268:.\Generated_Source\PSoC4/BLE_eventHandler.c **** #endif /* CYBLE_LNS_SERVER */
 269:.\Generated_Source\PSoC4/BLE_eventHandler.c **** #ifdef CYBLE_PASS_SERVER
 270:.\Generated_Source\PSoC4/BLE_eventHandler.c ****     if((CYBLE_GATT_ERR_NONE == gattErr) && ((cyBle_eventHandlerFlag & CYBLE_CALLBACK) != 0u))
 271:.\Generated_Source\PSoC4/BLE_eventHandler.c ****     {
 272:.\Generated_Source\PSoC4/BLE_eventHandler.c ****         gattErr = CyBle_PasssWriteEventHandler(eventParam);
 273:.\Generated_Source\PSoC4/BLE_eventHandler.c ****     }
 274:.\Generated_Source\PSoC4/BLE_eventHandler.c **** #endif /* CYBLE_PASS_SERVER */
 275:.\Generated_Source\PSoC4/BLE_eventHandler.c **** #ifdef CYBLE_RSCS_SERVER
 276:.\Generated_Source\PSoC4/BLE_eventHandler.c ****     if((CYBLE_GATT_ERR_NONE == gattErr) && ((cyBle_eventHandlerFlag & CYBLE_CALLBACK) != 0u))
 277:.\Generated_Source\PSoC4/BLE_eventHandler.c ****     {
 278:.\Generated_Source\PSoC4/BLE_eventHandler.c ****         gattErr = CyBle_RscssWriteEventHandler(eventParam);
 279:.\Generated_Source\PSoC4/BLE_eventHandler.c ****     }
 280:.\Generated_Source\PSoC4/BLE_eventHandler.c **** #endif /* CYBLE_RSCS_SERVER */
 281:.\Generated_Source\PSoC4/BLE_eventHandler.c **** #ifdef CYBLE_SCPS_SERVER
 282:.\Generated_Source\PSoC4/BLE_eventHandler.c ****     if((CYBLE_GATT_ERR_NONE == gattErr) && ((cyBle_eventHandlerFlag & CYBLE_CALLBACK) != 0u))
 283:.\Generated_Source\PSoC4/BLE_eventHandler.c ****     {
 284:.\Generated_Source\PSoC4/BLE_eventHandler.c ****         gattErr = CyBle_ScpssWriteEventHandler(eventParam);
 285:.\Generated_Source\PSoC4/BLE_eventHandler.c ****     }
 286:.\Generated_Source\PSoC4/BLE_eventHandler.c **** #endif /* CYBLE_SCPS_SERVER */
 287:.\Generated_Source\PSoC4/BLE_eventHandler.c **** #ifdef CYBLE_TPS_SERVER
ARM GAS  C:\Users\ADMINI~1\AppData\Local\Temp\ccJUBmf3.s 			page 7


 288:.\Generated_Source\PSoC4/BLE_eventHandler.c ****     if((CYBLE_GATT_ERR_NONE == gattErr) && ((cyBle_eventHandlerFlag & CYBLE_CALLBACK) != 0u))
 289:.\Generated_Source\PSoC4/BLE_eventHandler.c ****     {
 290:.\Generated_Source\PSoC4/BLE_eventHandler.c ****         gattErr = CyBle_TpssWriteEventHandler(eventParam);
 291:.\Generated_Source\PSoC4/BLE_eventHandler.c ****     }
 292:.\Generated_Source\PSoC4/BLE_eventHandler.c **** #endif /* CYBLE_TPS_SERVER */
 293:.\Generated_Source\PSoC4/BLE_eventHandler.c **** #ifdef CYBLE_UDS_SERVER
 294:.\Generated_Source\PSoC4/BLE_eventHandler.c ****     if((CYBLE_GATT_ERR_NONE == gattErr) && ((cyBle_eventHandlerFlag & CYBLE_CALLBACK) != 0u))
 295:.\Generated_Source\PSoC4/BLE_eventHandler.c ****     {
 296:.\Generated_Source\PSoC4/BLE_eventHandler.c ****         gattErr = CyBle_UdssWriteEventHandler(eventParam);
 297:.\Generated_Source\PSoC4/BLE_eventHandler.c ****     }
 298:.\Generated_Source\PSoC4/BLE_eventHandler.c **** #endif /* CYBLE_UDS_SERVER */
 299:.\Generated_Source\PSoC4/BLE_eventHandler.c **** 
 300:.\Generated_Source\PSoC4/BLE_eventHandler.c ****     /* Send response when event was handled by service */
 301:.\Generated_Source\PSoC4/BLE_eventHandler.c ****     if((cyBle_eventHandlerFlag & CYBLE_CALLBACK) == 0u)
 302:.\Generated_Source\PSoC4/BLE_eventHandler.c ****     {
 303:.\Generated_Source\PSoC4/BLE_eventHandler.c ****         if(CYBLE_GATT_ERR_NONE != gattErr)
 304:.\Generated_Source\PSoC4/BLE_eventHandler.c ****         {
 305:.\Generated_Source\PSoC4/BLE_eventHandler.c ****             CYBLE_GATTS_ERR_PARAM_T err_param;
 306:.\Generated_Source\PSoC4/BLE_eventHandler.c ****             
 307:.\Generated_Source\PSoC4/BLE_eventHandler.c ****             err_param.opcode = (uint8) CYBLE_GATT_WRITE_REQ;
 308:.\Generated_Source\PSoC4/BLE_eventHandler.c ****             err_param.attrHandle = eventParam->handleValPair.attrHandle;
 309:.\Generated_Source\PSoC4/BLE_eventHandler.c ****             err_param.errorCode = gattErr;
 310:.\Generated_Source\PSoC4/BLE_eventHandler.c **** 
 311:.\Generated_Source\PSoC4/BLE_eventHandler.c ****             /* Send Error Response */
 312:.\Generated_Source\PSoC4/BLE_eventHandler.c ****             (void)CyBle_GattsErrorRsp(eventParam->connHandle, &err_param);
 313:.\Generated_Source\PSoC4/BLE_eventHandler.c ****         }
 314:.\Generated_Source\PSoC4/BLE_eventHandler.c ****         else
 315:.\Generated_Source\PSoC4/BLE_eventHandler.c ****         {
 316:.\Generated_Source\PSoC4/BLE_eventHandler.c ****             (void)CyBle_GattsWriteRsp(eventParam->connHandle);
 317:.\Generated_Source\PSoC4/BLE_eventHandler.c ****         }
 318:.\Generated_Source\PSoC4/BLE_eventHandler.c ****     }
 319:.\Generated_Source\PSoC4/BLE_eventHandler.c **** }
 320:.\Generated_Source\PSoC4/BLE_eventHandler.c **** 
 321:.\Generated_Source\PSoC4/BLE_eventHandler.c **** 
 322:.\Generated_Source\PSoC4/BLE_eventHandler.c **** /****************************************************************************** 
 323:.\Generated_Source\PSoC4/BLE_eventHandler.c **** ##Function Name: CyBle_ValueConfirmation
 324:.\Generated_Source\PSoC4/BLE_eventHandler.c **** *******************************************************************************
 325:.\Generated_Source\PSoC4/BLE_eventHandler.c **** 
 326:.\Generated_Source\PSoC4/BLE_eventHandler.c **** Summary:
 327:.\Generated_Source\PSoC4/BLE_eventHandler.c ****  Handles the Value Confirmation request event from the BLE stack.
 328:.\Generated_Source\PSoC4/BLE_eventHandler.c **** 
 329:.\Generated_Source\PSoC4/BLE_eventHandler.c **** Parameters:
 330:.\Generated_Source\PSoC4/BLE_eventHandler.c ****  CYBLE_CONN_HANDLE_T *eventParam - Pointer to a structure
 331:.\Generated_Source\PSoC4/BLE_eventHandler.c ****     of type 'CYBLE_CONN_HANDLE_T'
 332:.\Generated_Source\PSoC4/BLE_eventHandler.c **** 
 333:.\Generated_Source\PSoC4/BLE_eventHandler.c **** Return:
 334:.\Generated_Source\PSoC4/BLE_eventHandler.c ****  None
 335:.\Generated_Source\PSoC4/BLE_eventHandler.c **** 
 336:.\Generated_Source\PSoC4/BLE_eventHandler.c **** ******************************************************************************/
 337:.\Generated_Source\PSoC4/BLE_eventHandler.c **** static void CyBle_ValueConfirmation(const CYBLE_CONN_HANDLE_T *eventParam)
 338:.\Generated_Source\PSoC4/BLE_eventHandler.c **** {
 339:.\Generated_Source\PSoC4/BLE_eventHandler.c ****     if(eventParam != NULL)
 340:.\Generated_Source\PSoC4/BLE_eventHandler.c ****     {
 341:.\Generated_Source\PSoC4/BLE_eventHandler.c ****     #ifdef CYBLE_BLS_SERVER
 342:.\Generated_Source\PSoC4/BLE_eventHandler.c ****         CyBle_BlssConfirmationEventHandler(eventParam);
 343:.\Generated_Source\PSoC4/BLE_eventHandler.c ****     #endif /* CYBLE_BLS_SERVER */
 344:.\Generated_Source\PSoC4/BLE_eventHandler.c ****     
ARM GAS  C:\Users\ADMINI~1\AppData\Local\Temp\ccJUBmf3.s 			page 8


 345:.\Generated_Source\PSoC4/BLE_eventHandler.c ****     #ifdef CYBLE_CPS_SERVER
 346:.\Generated_Source\PSoC4/BLE_eventHandler.c ****         if((cyBle_eventHandlerFlag & CYBLE_CALLBACK) != 0u)
 347:.\Generated_Source\PSoC4/BLE_eventHandler.c ****         {
 348:.\Generated_Source\PSoC4/BLE_eventHandler.c ****             CyBle_CpssConfirmationEventHandler(eventParam);
 349:.\Generated_Source\PSoC4/BLE_eventHandler.c ****         }
 350:.\Generated_Source\PSoC4/BLE_eventHandler.c ****     #endif /* CYBLE_CPS_SERVER */
 351:.\Generated_Source\PSoC4/BLE_eventHandler.c ****     
 352:.\Generated_Source\PSoC4/BLE_eventHandler.c ****     #ifdef CYBLE_CSCS_SERVER
 353:.\Generated_Source\PSoC4/BLE_eventHandler.c ****         if((cyBle_eventHandlerFlag & CYBLE_CALLBACK) != 0u)
 354:.\Generated_Source\PSoC4/BLE_eventHandler.c ****         {
 355:.\Generated_Source\PSoC4/BLE_eventHandler.c ****             CyBle_CscssConfirmationEventHandler(eventParam);
 356:.\Generated_Source\PSoC4/BLE_eventHandler.c ****         }
 357:.\Generated_Source\PSoC4/BLE_eventHandler.c ****     #endif /* CYBLE_CSCS_SERVER */
 358:.\Generated_Source\PSoC4/BLE_eventHandler.c ****     
 359:.\Generated_Source\PSoC4/BLE_eventHandler.c ****     #ifdef CYBLE_GLS_SERVER
 360:.\Generated_Source\PSoC4/BLE_eventHandler.c ****         if((cyBle_eventHandlerFlag & CYBLE_CALLBACK) != 0u)
 361:.\Generated_Source\PSoC4/BLE_eventHandler.c ****         {
 362:.\Generated_Source\PSoC4/BLE_eventHandler.c ****             CyBle_GlssConfirmationEventHandler(eventParam);
 363:.\Generated_Source\PSoC4/BLE_eventHandler.c ****         }
 364:.\Generated_Source\PSoC4/BLE_eventHandler.c ****     #endif /* CYBLE_GLS_SERVER */
 365:.\Generated_Source\PSoC4/BLE_eventHandler.c ****     
 366:.\Generated_Source\PSoC4/BLE_eventHandler.c ****     #ifdef CYBLE_HTS_SERVER
 367:.\Generated_Source\PSoC4/BLE_eventHandler.c ****         if((cyBle_eventHandlerFlag & CYBLE_CALLBACK) != 0u)
 368:.\Generated_Source\PSoC4/BLE_eventHandler.c ****         {
 369:.\Generated_Source\PSoC4/BLE_eventHandler.c ****             CyBle_HtssConfirmationEventHandler(eventParam);
 370:.\Generated_Source\PSoC4/BLE_eventHandler.c ****         }
 371:.\Generated_Source\PSoC4/BLE_eventHandler.c ****     #endif /* CYBLE_HTS_SERVER */
 372:.\Generated_Source\PSoC4/BLE_eventHandler.c **** 
 373:.\Generated_Source\PSoC4/BLE_eventHandler.c ****     #ifdef CYBLE_LNS_SERVER
 374:.\Generated_Source\PSoC4/BLE_eventHandler.c ****         if((cyBle_eventHandlerFlag & CYBLE_CALLBACK) != 0u)
 375:.\Generated_Source\PSoC4/BLE_eventHandler.c ****         {
 376:.\Generated_Source\PSoC4/BLE_eventHandler.c ****             CyBle_LnssConfirmationEventHandler(eventParam);
 377:.\Generated_Source\PSoC4/BLE_eventHandler.c ****         }
 378:.\Generated_Source\PSoC4/BLE_eventHandler.c ****     #endif /* CYBLE_LNS_SERVER */
 379:.\Generated_Source\PSoC4/BLE_eventHandler.c ****     
 380:.\Generated_Source\PSoC4/BLE_eventHandler.c ****     #ifdef CYBLE_RSCS_SERVER
 381:.\Generated_Source\PSoC4/BLE_eventHandler.c ****         if((cyBle_eventHandlerFlag & CYBLE_CALLBACK) != 0u)
 382:.\Generated_Source\PSoC4/BLE_eventHandler.c ****         {
 383:.\Generated_Source\PSoC4/BLE_eventHandler.c ****             CyBle_RscssConfirmationEventHandler(eventParam);
 384:.\Generated_Source\PSoC4/BLE_eventHandler.c ****         }
 385:.\Generated_Source\PSoC4/BLE_eventHandler.c ****     #endif /* CYBLE_RSCS_SERVER */
 386:.\Generated_Source\PSoC4/BLE_eventHandler.c ****     
 387:.\Generated_Source\PSoC4/BLE_eventHandler.c ****     #ifdef CYBLE_UDS_SERVER
 388:.\Generated_Source\PSoC4/BLE_eventHandler.c ****         if((cyBle_eventHandlerFlag & CYBLE_CALLBACK) != 0u)
 389:.\Generated_Source\PSoC4/BLE_eventHandler.c ****         {
 390:.\Generated_Source\PSoC4/BLE_eventHandler.c ****             CyBle_UdssConfirmationEventHandler(eventParam);
 391:.\Generated_Source\PSoC4/BLE_eventHandler.c ****         }
 392:.\Generated_Source\PSoC4/BLE_eventHandler.c ****     #endif /* CYBLE_UDS_SERVER */
 393:.\Generated_Source\PSoC4/BLE_eventHandler.c ****     }
 394:.\Generated_Source\PSoC4/BLE_eventHandler.c **** }
 395:.\Generated_Source\PSoC4/BLE_eventHandler.c **** 
 396:.\Generated_Source\PSoC4/BLE_eventHandler.c **** #endif /* CYBLE_GATT_ROLE_SERVER */
 397:.\Generated_Source\PSoC4/BLE_eventHandler.c **** 
 398:.\Generated_Source\PSoC4/BLE_eventHandler.c **** 
 399:.\Generated_Source\PSoC4/BLE_eventHandler.c **** #if (CYBLE_GATT_ROLE_CLIENT)
 400:.\Generated_Source\PSoC4/BLE_eventHandler.c **** 
 401:.\Generated_Source\PSoC4/BLE_eventHandler.c **** /****************************************************************************** 
ARM GAS  C:\Users\ADMINI~1\AppData\Local\Temp\ccJUBmf3.s 			page 9


 402:.\Generated_Source\PSoC4/BLE_eventHandler.c **** ##Function Name: CyBle_GattcWriteResponseEventHandler
 403:.\Generated_Source\PSoC4/BLE_eventHandler.c **** *******************************************************************************
 404:.\Generated_Source\PSoC4/BLE_eventHandler.c **** 
 405:.\Generated_Source\PSoC4/BLE_eventHandler.c **** Summary:
 406:.\Generated_Source\PSoC4/BLE_eventHandler.c ****  Handles the Write response event from the BLE stack.
 407:.\Generated_Source\PSoC4/BLE_eventHandler.c **** 
 408:.\Generated_Source\PSoC4/BLE_eventHandler.c **** Parameters:
 409:.\Generated_Source\PSoC4/BLE_eventHandler.c ****  CYBLE_CONN_HANDLE_T *eventParam - Pointer to a structure
 410:.\Generated_Source\PSoC4/BLE_eventHandler.c ****     of type 'CYBLE_CONN_HANDLE_T'
 411:.\Generated_Source\PSoC4/BLE_eventHandler.c **** 
 412:.\Generated_Source\PSoC4/BLE_eventHandler.c **** Return:
 413:.\Generated_Source\PSoC4/BLE_eventHandler.c ****  None
 414:.\Generated_Source\PSoC4/BLE_eventHandler.c **** 
 415:.\Generated_Source\PSoC4/BLE_eventHandler.c **** ******************************************************************************/
 416:.\Generated_Source\PSoC4/BLE_eventHandler.c **** static void CyBle_GattcWriteResponseEventHandler(const CYBLE_CONN_HANDLE_T *eventParam)
 417:.\Generated_Source\PSoC4/BLE_eventHandler.c **** {
  56              		.loc 1 417 0
  57              		.cfi_startproc
  58 0000 80B5     		push	{r7, lr}
  59              		.cfi_def_cfa_offset 8
  60              		.cfi_offset 7, -8
  61              		.cfi_offset 14, -4
  62 0002 82B0     		sub	sp, sp, #8
  63              		.cfi_def_cfa_offset 16
  64 0004 00AF     		add	r7, sp, #0
  65              		.cfi_def_cfa_register 7
  66 0006 7860     		str	r0, [r7, #4]
 418:.\Generated_Source\PSoC4/BLE_eventHandler.c **** #ifdef CYBLE_ANS_CLIENT
 419:.\Generated_Source\PSoC4/BLE_eventHandler.c ****     CyBle_AnscWriteResponseEventHandler(eventParam);
 420:.\Generated_Source\PSoC4/BLE_eventHandler.c **** #endif /* CYBLE_ANS_CLIENT */
 421:.\Generated_Source\PSoC4/BLE_eventHandler.c **** 
 422:.\Generated_Source\PSoC4/BLE_eventHandler.c **** #ifdef CYBLE_BAS_CLIENT
 423:.\Generated_Source\PSoC4/BLE_eventHandler.c ****     if((cyBle_eventHandlerFlag & CYBLE_CALLBACK) != 0u)
 424:.\Generated_Source\PSoC4/BLE_eventHandler.c ****     {
 425:.\Generated_Source\PSoC4/BLE_eventHandler.c ****         CyBle_BascWriteResponseEventHandler(eventParam);
 426:.\Generated_Source\PSoC4/BLE_eventHandler.c ****     }
 427:.\Generated_Source\PSoC4/BLE_eventHandler.c **** #endif /* CYBLE_BAS_CLIENT */
 428:.\Generated_Source\PSoC4/BLE_eventHandler.c **** 
 429:.\Generated_Source\PSoC4/BLE_eventHandler.c **** #ifdef CYBLE_BLS_CLIENT
 430:.\Generated_Source\PSoC4/BLE_eventHandler.c ****     if((cyBle_eventHandlerFlag & CYBLE_CALLBACK) != 0u)
 431:.\Generated_Source\PSoC4/BLE_eventHandler.c ****     {
 432:.\Generated_Source\PSoC4/BLE_eventHandler.c ****         CyBle_BlscWriteResponseEventHandler(eventParam);
 433:.\Generated_Source\PSoC4/BLE_eventHandler.c ****     }
 434:.\Generated_Source\PSoC4/BLE_eventHandler.c **** #endif /* CYBLE_BLS_CLIENT */
 435:.\Generated_Source\PSoC4/BLE_eventHandler.c **** 
 436:.\Generated_Source\PSoC4/BLE_eventHandler.c **** #ifdef CYBLE_CGMS_CLIENT
 437:.\Generated_Source\PSoC4/BLE_eventHandler.c ****     if((cyBle_eventHandlerFlag & CYBLE_CALLBACK) != 0u)
 438:.\Generated_Source\PSoC4/BLE_eventHandler.c ****     {
 439:.\Generated_Source\PSoC4/BLE_eventHandler.c ****         CyBle_CgmscWriteResponseEventHandler(eventParam);
 440:.\Generated_Source\PSoC4/BLE_eventHandler.c ****     }
 441:.\Generated_Source\PSoC4/BLE_eventHandler.c **** #endif /* CYBLE_CGMS_CLIENT */
 442:.\Generated_Source\PSoC4/BLE_eventHandler.c **** 
 443:.\Generated_Source\PSoC4/BLE_eventHandler.c **** #ifdef CYBLE_CPS_CLIENT
 444:.\Generated_Source\PSoC4/BLE_eventHandler.c ****     if((cyBle_eventHandlerFlag & CYBLE_CALLBACK) != 0u)
 445:.\Generated_Source\PSoC4/BLE_eventHandler.c ****     {
 446:.\Generated_Source\PSoC4/BLE_eventHandler.c ****         CyBle_CpscWriteResponseEventHandler(eventParam);
 447:.\Generated_Source\PSoC4/BLE_eventHandler.c ****     }
ARM GAS  C:\Users\ADMINI~1\AppData\Local\Temp\ccJUBmf3.s 			page 10


 448:.\Generated_Source\PSoC4/BLE_eventHandler.c **** #endif /* CYBLE_CPS_CLIENT */
 449:.\Generated_Source\PSoC4/BLE_eventHandler.c **** 
 450:.\Generated_Source\PSoC4/BLE_eventHandler.c **** #ifdef CYBLE_CSCS_CLIENT
 451:.\Generated_Source\PSoC4/BLE_eventHandler.c ****     if((cyBle_eventHandlerFlag & CYBLE_CALLBACK) != 0u)
 452:.\Generated_Source\PSoC4/BLE_eventHandler.c ****     {
 453:.\Generated_Source\PSoC4/BLE_eventHandler.c ****         CyBle_CscscWriteResponseEventHandler(eventParam);
 454:.\Generated_Source\PSoC4/BLE_eventHandler.c ****     }
 455:.\Generated_Source\PSoC4/BLE_eventHandler.c **** #endif /* CYBLE_CSCS_CLIENT */
 456:.\Generated_Source\PSoC4/BLE_eventHandler.c **** 
 457:.\Generated_Source\PSoC4/BLE_eventHandler.c **** #ifdef CYBLE_CTS_CLIENT
 458:.\Generated_Source\PSoC4/BLE_eventHandler.c ****     if((cyBle_eventHandlerFlag & CYBLE_CALLBACK) != 0u)
 459:.\Generated_Source\PSoC4/BLE_eventHandler.c ****     {
 460:.\Generated_Source\PSoC4/BLE_eventHandler.c ****         CyBle_CtscWriteResponseEventHandler(eventParam);
 461:.\Generated_Source\PSoC4/BLE_eventHandler.c ****     }
 462:.\Generated_Source\PSoC4/BLE_eventHandler.c **** #endif /* CYBLE_CTS_CLIENT */
 463:.\Generated_Source\PSoC4/BLE_eventHandler.c **** 
 464:.\Generated_Source\PSoC4/BLE_eventHandler.c **** #ifdef CYBLE_GLS_CLIENT
 465:.\Generated_Source\PSoC4/BLE_eventHandler.c ****     if((cyBle_eventHandlerFlag & CYBLE_CALLBACK) != 0u)
 466:.\Generated_Source\PSoC4/BLE_eventHandler.c ****     {
 467:.\Generated_Source\PSoC4/BLE_eventHandler.c ****         CyBle_GlscWriteResponseEventHandler(eventParam);
 468:.\Generated_Source\PSoC4/BLE_eventHandler.c ****     }
 469:.\Generated_Source\PSoC4/BLE_eventHandler.c **** #endif /* CYBLE_GLS_CLIENT */
 470:.\Generated_Source\PSoC4/BLE_eventHandler.c **** 
 471:.\Generated_Source\PSoC4/BLE_eventHandler.c **** #ifdef CYBLE_HIDS_CLIENT
 472:.\Generated_Source\PSoC4/BLE_eventHandler.c ****     if((cyBle_eventHandlerFlag & CYBLE_CALLBACK) != 0u)
 473:.\Generated_Source\PSoC4/BLE_eventHandler.c ****     {
 474:.\Generated_Source\PSoC4/BLE_eventHandler.c ****         CyBle_HidscWriteResponseEventHandler(eventParam);
 475:.\Generated_Source\PSoC4/BLE_eventHandler.c ****     }
 476:.\Generated_Source\PSoC4/BLE_eventHandler.c **** #endif /* CYBLE_HIDS_CLIENT */
 477:.\Generated_Source\PSoC4/BLE_eventHandler.c **** 
 478:.\Generated_Source\PSoC4/BLE_eventHandler.c **** #ifdef CYBLE_HRS_CLIENT
 479:.\Generated_Source\PSoC4/BLE_eventHandler.c ****     if((cyBle_eventHandlerFlag & CYBLE_CALLBACK) != 0u)
 480:.\Generated_Source\PSoC4/BLE_eventHandler.c ****     {
 481:.\Generated_Source\PSoC4/BLE_eventHandler.c ****         CyBle_HrscWriteResponseEventHandler(eventParam);
 482:.\Generated_Source\PSoC4/BLE_eventHandler.c ****     }
 483:.\Generated_Source\PSoC4/BLE_eventHandler.c **** #endif /* CYBLE_HRS_CLIENT */
 484:.\Generated_Source\PSoC4/BLE_eventHandler.c **** 
 485:.\Generated_Source\PSoC4/BLE_eventHandler.c **** #ifdef CYBLE_HTS_CLIENT
 486:.\Generated_Source\PSoC4/BLE_eventHandler.c ****     if((cyBle_eventHandlerFlag & CYBLE_CALLBACK) != 0u)
 487:.\Generated_Source\PSoC4/BLE_eventHandler.c ****     {
 488:.\Generated_Source\PSoC4/BLE_eventHandler.c ****         CyBle_HtscWriteResponseEventHandler(eventParam);
 489:.\Generated_Source\PSoC4/BLE_eventHandler.c ****     }
 490:.\Generated_Source\PSoC4/BLE_eventHandler.c **** #endif /* CYBLE_HTS_CLIENT */
 491:.\Generated_Source\PSoC4/BLE_eventHandler.c **** 
 492:.\Generated_Source\PSoC4/BLE_eventHandler.c **** #ifdef CYBLE_LLS_CLIENT
 493:.\Generated_Source\PSoC4/BLE_eventHandler.c ****     if((cyBle_eventHandlerFlag & CYBLE_CALLBACK) != 0u)
 494:.\Generated_Source\PSoC4/BLE_eventHandler.c ****     {
 495:.\Generated_Source\PSoC4/BLE_eventHandler.c ****         CyBle_LlscWriteResponseEventHandler(eventParam);
 496:.\Generated_Source\PSoC4/BLE_eventHandler.c ****     }
 497:.\Generated_Source\PSoC4/BLE_eventHandler.c **** #endif /* CYBLE_LLS_CLIENT */
 498:.\Generated_Source\PSoC4/BLE_eventHandler.c **** 
 499:.\Generated_Source\PSoC4/BLE_eventHandler.c **** #ifdef CYBLE_LNS_CLIENT
 500:.\Generated_Source\PSoC4/BLE_eventHandler.c ****     if((cyBle_eventHandlerFlag & CYBLE_CALLBACK) != 0u)
 501:.\Generated_Source\PSoC4/BLE_eventHandler.c ****     {
 502:.\Generated_Source\PSoC4/BLE_eventHandler.c ****         CyBle_LnscWriteResponseEventHandler(eventParam);
 503:.\Generated_Source\PSoC4/BLE_eventHandler.c ****     }
 504:.\Generated_Source\PSoC4/BLE_eventHandler.c **** #endif /* CYBLE_LNS_CLIENT */
ARM GAS  C:\Users\ADMINI~1\AppData\Local\Temp\ccJUBmf3.s 			page 11


 505:.\Generated_Source\PSoC4/BLE_eventHandler.c **** 
 506:.\Generated_Source\PSoC4/BLE_eventHandler.c **** #ifdef CYBLE_PASS_CLIENT
 507:.\Generated_Source\PSoC4/BLE_eventHandler.c ****     if((cyBle_eventHandlerFlag & CYBLE_CALLBACK) != 0u)
 508:.\Generated_Source\PSoC4/BLE_eventHandler.c ****     {
 509:.\Generated_Source\PSoC4/BLE_eventHandler.c ****         CyBle_PasscWriteResponseEventHandler(eventParam);
 510:.\Generated_Source\PSoC4/BLE_eventHandler.c ****     }
 511:.\Generated_Source\PSoC4/BLE_eventHandler.c **** #endif /* CYBLE_PASS_CLIENT */
 512:.\Generated_Source\PSoC4/BLE_eventHandler.c **** 
 513:.\Generated_Source\PSoC4/BLE_eventHandler.c **** #ifdef CYBLE_RSCS_CLIENT
 514:.\Generated_Source\PSoC4/BLE_eventHandler.c ****     if((cyBle_eventHandlerFlag & CYBLE_CALLBACK) != 0u)
 515:.\Generated_Source\PSoC4/BLE_eventHandler.c ****     {
 516:.\Generated_Source\PSoC4/BLE_eventHandler.c ****         CyBle_RscscWriteResponseEventHandler(eventParam);
 517:.\Generated_Source\PSoC4/BLE_eventHandler.c ****     }
 518:.\Generated_Source\PSoC4/BLE_eventHandler.c **** #endif /* CYBLE_RSCS_CLIENT */
 519:.\Generated_Source\PSoC4/BLE_eventHandler.c **** 
 520:.\Generated_Source\PSoC4/BLE_eventHandler.c **** #ifdef CYBLE_SCPS_CLIENT
 521:.\Generated_Source\PSoC4/BLE_eventHandler.c ****     if((cyBle_eventHandlerFlag & CYBLE_CALLBACK) != 0u)
 522:.\Generated_Source\PSoC4/BLE_eventHandler.c ****     {
 523:.\Generated_Source\PSoC4/BLE_eventHandler.c ****         CyBle_ScpscWriteResponseEventHandler(eventParam);
 524:.\Generated_Source\PSoC4/BLE_eventHandler.c ****     }
 525:.\Generated_Source\PSoC4/BLE_eventHandler.c **** #endif /* CYBLE_SCPS_CLIENT */
 526:.\Generated_Source\PSoC4/BLE_eventHandler.c **** 
 527:.\Generated_Source\PSoC4/BLE_eventHandler.c **** #ifdef CYBLE_TPS_CLIENT
 528:.\Generated_Source\PSoC4/BLE_eventHandler.c ****     if((cyBle_eventHandlerFlag & CYBLE_CALLBACK) != 0u)
 529:.\Generated_Source\PSoC4/BLE_eventHandler.c ****     {
 530:.\Generated_Source\PSoC4/BLE_eventHandler.c ****         CyBle_TpscWriteResponseEventHandler(eventParam);
 531:.\Generated_Source\PSoC4/BLE_eventHandler.c ****     }
 532:.\Generated_Source\PSoC4/BLE_eventHandler.c **** #endif /* CYBLE_TPS_CLIENT */
 533:.\Generated_Source\PSoC4/BLE_eventHandler.c **** 
 534:.\Generated_Source\PSoC4/BLE_eventHandler.c **** #ifdef CYBLE_UDS_CLIENT
 535:.\Generated_Source\PSoC4/BLE_eventHandler.c ****     if((cyBle_eventHandlerFlag & CYBLE_CALLBACK) != 0u)
 536:.\Generated_Source\PSoC4/BLE_eventHandler.c ****     {
 537:.\Generated_Source\PSoC4/BLE_eventHandler.c ****         CyBle_UdscWriteResponseEventHandler(eventParam);
 538:.\Generated_Source\PSoC4/BLE_eventHandler.c ****     }
 539:.\Generated_Source\PSoC4/BLE_eventHandler.c **** #endif /* CYBLE_UDS_CLIENT */
 540:.\Generated_Source\PSoC4/BLE_eventHandler.c **** }
  67              		.loc 1 540 0
  68 0008 BD46     		mov	sp, r7
  69 000a 02B0     		add	sp, sp, #8
  70              		@ sp needed
  71 000c 80BD     		pop	{r7, pc}
  72              		.cfi_endproc
  73              	.LFE2:
  74              		.size	CyBle_GattcWriteResponseEventHandler, .-CyBle_GattcWriteResponseEventHandler
  75 000e C046     		.section	.text.CyBle_NotificationEventHandler,"ax",%progbits
  76              		.align	2
  77              		.code	16
  78              		.thumb_func
  79              		.type	CyBle_NotificationEventHandler, %function
  80              	CyBle_NotificationEventHandler:
  81              	.LFB3:
 541:.\Generated_Source\PSoC4/BLE_eventHandler.c **** 
 542:.\Generated_Source\PSoC4/BLE_eventHandler.c **** 
 543:.\Generated_Source\PSoC4/BLE_eventHandler.c **** /******************************************************************************    
 544:.\Generated_Source\PSoC4/BLE_eventHandler.c **** ##Function Name: CyBle_NotificationEventHandler
 545:.\Generated_Source\PSoC4/BLE_eventHandler.c **** *******************************************************************************
 546:.\Generated_Source\PSoC4/BLE_eventHandler.c **** 
ARM GAS  C:\Users\ADMINI~1\AppData\Local\Temp\ccJUBmf3.s 			page 12


 547:.\Generated_Source\PSoC4/BLE_eventHandler.c **** Summary:
 548:.\Generated_Source\PSoC4/BLE_eventHandler.c ****  Handles the Notification event from BLE stack.
 549:.\Generated_Source\PSoC4/BLE_eventHandler.c **** 
 550:.\Generated_Source\PSoC4/BLE_eventHandler.c **** Parameters:
 551:.\Generated_Source\PSoC4/BLE_eventHandler.c ****  CYBLE_GATTC_HANDLE_VALUE_NTF_PARAM_T * eventParam - event parameter
 552:.\Generated_Source\PSoC4/BLE_eventHandler.c **** 
 553:.\Generated_Source\PSoC4/BLE_eventHandler.c **** Return:
 554:.\Generated_Source\PSoC4/BLE_eventHandler.c ****  None
 555:.\Generated_Source\PSoC4/BLE_eventHandler.c **** 
 556:.\Generated_Source\PSoC4/BLE_eventHandler.c **** ******************************************************************************/
 557:.\Generated_Source\PSoC4/BLE_eventHandler.c **** static void CyBle_NotificationEventHandler(CYBLE_GATTC_HANDLE_VALUE_NTF_PARAM_T *eventParam)
 558:.\Generated_Source\PSoC4/BLE_eventHandler.c **** {
  82              		.loc 1 558 0
  83              		.cfi_startproc
  84 0000 80B5     		push	{r7, lr}
  85              		.cfi_def_cfa_offset 8
  86              		.cfi_offset 7, -8
  87              		.cfi_offset 14, -4
  88 0002 82B0     		sub	sp, sp, #8
  89              		.cfi_def_cfa_offset 16
  90 0004 00AF     		add	r7, sp, #0
  91              		.cfi_def_cfa_register 7
  92 0006 7860     		str	r0, [r7, #4]
 559:.\Generated_Source\PSoC4/BLE_eventHandler.c **** #ifdef CYBLE_ANS_CLIENT
 560:.\Generated_Source\PSoC4/BLE_eventHandler.c ****     CyBle_AnscNotificationEventHandler(eventParam);
 561:.\Generated_Source\PSoC4/BLE_eventHandler.c **** #endif /* CYBLE_ANS_CLIENT */
 562:.\Generated_Source\PSoC4/BLE_eventHandler.c **** #ifdef CYBLE_BAS_CLIENT
 563:.\Generated_Source\PSoC4/BLE_eventHandler.c ****     if((cyBle_eventHandlerFlag & CYBLE_CALLBACK) != 0u)
 564:.\Generated_Source\PSoC4/BLE_eventHandler.c ****     {
 565:.\Generated_Source\PSoC4/BLE_eventHandler.c ****         CyBle_BascNotificationEventHandler(eventParam);
 566:.\Generated_Source\PSoC4/BLE_eventHandler.c ****     }
 567:.\Generated_Source\PSoC4/BLE_eventHandler.c **** #endif /* CYBLE_BAS_CLIENT */
 568:.\Generated_Source\PSoC4/BLE_eventHandler.c **** #ifdef CYBLE_BLS_CLIENT
 569:.\Generated_Source\PSoC4/BLE_eventHandler.c ****     if((cyBle_eventHandlerFlag & CYBLE_CALLBACK) != 0u)
 570:.\Generated_Source\PSoC4/BLE_eventHandler.c ****     {
 571:.\Generated_Source\PSoC4/BLE_eventHandler.c ****         CyBle_BlscNotificationEventHandler(eventParam);
 572:.\Generated_Source\PSoC4/BLE_eventHandler.c ****     }
 573:.\Generated_Source\PSoC4/BLE_eventHandler.c **** #endif /* CYBLE_BLS_CLIENT */
 574:.\Generated_Source\PSoC4/BLE_eventHandler.c **** #ifdef CYBLE_CGMS_CLIENT
 575:.\Generated_Source\PSoC4/BLE_eventHandler.c ****     if((cyBle_eventHandlerFlag & CYBLE_CALLBACK) != 0u)
 576:.\Generated_Source\PSoC4/BLE_eventHandler.c ****     {
 577:.\Generated_Source\PSoC4/BLE_eventHandler.c ****         CyBle_CgmscNotificationEventHandler(eventParam);
 578:.\Generated_Source\PSoC4/BLE_eventHandler.c ****     }
 579:.\Generated_Source\PSoC4/BLE_eventHandler.c **** #endif /* CYBLE_CGMS_CLIENT */
 580:.\Generated_Source\PSoC4/BLE_eventHandler.c **** #ifdef CYBLE_CPS_CLIENT
 581:.\Generated_Source\PSoC4/BLE_eventHandler.c ****     if((cyBle_eventHandlerFlag & CYBLE_CALLBACK) != 0u)
 582:.\Generated_Source\PSoC4/BLE_eventHandler.c ****     {
 583:.\Generated_Source\PSoC4/BLE_eventHandler.c ****         CyBle_CpscNotificationEventHandler(eventParam);
 584:.\Generated_Source\PSoC4/BLE_eventHandler.c ****     }
 585:.\Generated_Source\PSoC4/BLE_eventHandler.c **** #endif /* CYBLE_CPS_CLIENT */
 586:.\Generated_Source\PSoC4/BLE_eventHandler.c **** #ifdef CYBLE_CSCS_CLIENT
 587:.\Generated_Source\PSoC4/BLE_eventHandler.c ****     if((cyBle_eventHandlerFlag & CYBLE_CALLBACK) != 0u)
 588:.\Generated_Source\PSoC4/BLE_eventHandler.c ****     {
 589:.\Generated_Source\PSoC4/BLE_eventHandler.c ****         CyBle_CscscNotificationEventHandler(eventParam);
 590:.\Generated_Source\PSoC4/BLE_eventHandler.c ****     }
 591:.\Generated_Source\PSoC4/BLE_eventHandler.c **** #endif /* CYBLE_CSCS_CLIENT */
 592:.\Generated_Source\PSoC4/BLE_eventHandler.c **** #ifdef CYBLE_CTS_CLIENT
ARM GAS  C:\Users\ADMINI~1\AppData\Local\Temp\ccJUBmf3.s 			page 13


 593:.\Generated_Source\PSoC4/BLE_eventHandler.c ****     if((cyBle_eventHandlerFlag & CYBLE_CALLBACK) != 0u)
 594:.\Generated_Source\PSoC4/BLE_eventHandler.c ****     {
 595:.\Generated_Source\PSoC4/BLE_eventHandler.c ****         CyBle_CtscNotificationEventHandler(eventParam);
 596:.\Generated_Source\PSoC4/BLE_eventHandler.c ****     }
 597:.\Generated_Source\PSoC4/BLE_eventHandler.c **** #endif /* CYBLE_CTS_CLIENT */
 598:.\Generated_Source\PSoC4/BLE_eventHandler.c **** #ifdef CYBLE_GLS_CLIENT
 599:.\Generated_Source\PSoC4/BLE_eventHandler.c ****     if((cyBle_eventHandlerFlag & CYBLE_CALLBACK) != 0u)
 600:.\Generated_Source\PSoC4/BLE_eventHandler.c ****     {
 601:.\Generated_Source\PSoC4/BLE_eventHandler.c ****         CyBle_GlscNotificationEventHandler(eventParam);
 602:.\Generated_Source\PSoC4/BLE_eventHandler.c ****     }
 603:.\Generated_Source\PSoC4/BLE_eventHandler.c **** #endif /* CYBLE_GLS_CLIENT */
 604:.\Generated_Source\PSoC4/BLE_eventHandler.c **** #ifdef CYBLE_HIDS_CLIENT
 605:.\Generated_Source\PSoC4/BLE_eventHandler.c ****     if((cyBle_eventHandlerFlag & CYBLE_CALLBACK) != 0u)
 606:.\Generated_Source\PSoC4/BLE_eventHandler.c ****     {
 607:.\Generated_Source\PSoC4/BLE_eventHandler.c ****         CyBle_HidscNotificationEventHandler(eventParam);
 608:.\Generated_Source\PSoC4/BLE_eventHandler.c ****     }
 609:.\Generated_Source\PSoC4/BLE_eventHandler.c **** #endif /* CYBLE_HIDS_CLIENT */
 610:.\Generated_Source\PSoC4/BLE_eventHandler.c **** #ifdef CYBLE_HRS_CLIENT
 611:.\Generated_Source\PSoC4/BLE_eventHandler.c ****     if((cyBle_eventHandlerFlag & CYBLE_CALLBACK) != 0u)
 612:.\Generated_Source\PSoC4/BLE_eventHandler.c ****     {
 613:.\Generated_Source\PSoC4/BLE_eventHandler.c ****         CyBle_HrscNotificationEventHandler(eventParam);
 614:.\Generated_Source\PSoC4/BLE_eventHandler.c ****     }
 615:.\Generated_Source\PSoC4/BLE_eventHandler.c **** #endif /* CYBLE_HRS_CLIENT */
 616:.\Generated_Source\PSoC4/BLE_eventHandler.c **** #ifdef CYBLE_HTS_CLIENT
 617:.\Generated_Source\PSoC4/BLE_eventHandler.c ****     if((cyBle_eventHandlerFlag & CYBLE_CALLBACK) != 0u)
 618:.\Generated_Source\PSoC4/BLE_eventHandler.c ****     {
 619:.\Generated_Source\PSoC4/BLE_eventHandler.c ****         CyBle_HtscNotificationEventHandler(eventParam);
 620:.\Generated_Source\PSoC4/BLE_eventHandler.c ****     }
 621:.\Generated_Source\PSoC4/BLE_eventHandler.c **** #endif /* CYBLE_HTS_CLIENT */
 622:.\Generated_Source\PSoC4/BLE_eventHandler.c **** #ifdef CYBLE_LNS_CLIENT
 623:.\Generated_Source\PSoC4/BLE_eventHandler.c ****     if((cyBle_eventHandlerFlag & CYBLE_CALLBACK) != 0u)
 624:.\Generated_Source\PSoC4/BLE_eventHandler.c ****     {
 625:.\Generated_Source\PSoC4/BLE_eventHandler.c ****         CyBle_LnscNotificationEventHandler(eventParam);
 626:.\Generated_Source\PSoC4/BLE_eventHandler.c ****     }
 627:.\Generated_Source\PSoC4/BLE_eventHandler.c **** #endif /* CYBLE_LNS_CLIENT */
 628:.\Generated_Source\PSoC4/BLE_eventHandler.c **** #ifdef CYBLE_PASS_CLIENT
 629:.\Generated_Source\PSoC4/BLE_eventHandler.c ****     if((cyBle_eventHandlerFlag & CYBLE_CALLBACK) != 0u)
 630:.\Generated_Source\PSoC4/BLE_eventHandler.c ****     {
 631:.\Generated_Source\PSoC4/BLE_eventHandler.c ****         CyBle_PasscNotificationEventHandler(eventParam);
 632:.\Generated_Source\PSoC4/BLE_eventHandler.c ****     }
 633:.\Generated_Source\PSoC4/BLE_eventHandler.c **** #endif /* CYBLE_PASS_CLIENT */
 634:.\Generated_Source\PSoC4/BLE_eventHandler.c **** #ifdef CYBLE_RSCS_CLIENT
 635:.\Generated_Source\PSoC4/BLE_eventHandler.c ****     if((cyBle_eventHandlerFlag & CYBLE_CALLBACK) != 0u)
 636:.\Generated_Source\PSoC4/BLE_eventHandler.c ****     {
 637:.\Generated_Source\PSoC4/BLE_eventHandler.c ****         CyBle_RscscNotificationEventHandler(eventParam);
 638:.\Generated_Source\PSoC4/BLE_eventHandler.c ****     }
 639:.\Generated_Source\PSoC4/BLE_eventHandler.c **** #endif /* CYBLE_RSCS_CLIENT */
 640:.\Generated_Source\PSoC4/BLE_eventHandler.c **** #ifdef CYBLE_SCPS_CLIENT
 641:.\Generated_Source\PSoC4/BLE_eventHandler.c ****     if((cyBle_eventHandlerFlag & CYBLE_CALLBACK) != 0u)
 642:.\Generated_Source\PSoC4/BLE_eventHandler.c ****     {
 643:.\Generated_Source\PSoC4/BLE_eventHandler.c ****         CyBle_ScpscNotificationEventHandler(eventParam);
 644:.\Generated_Source\PSoC4/BLE_eventHandler.c ****     }
 645:.\Generated_Source\PSoC4/BLE_eventHandler.c **** #endif /* CYBLE_SCPS_CLIENT */
 646:.\Generated_Source\PSoC4/BLE_eventHandler.c **** #ifdef CYBLE_TPS_CLIENT
 647:.\Generated_Source\PSoC4/BLE_eventHandler.c ****     if((cyBle_eventHandlerFlag & CYBLE_CALLBACK) != 0u)
 648:.\Generated_Source\PSoC4/BLE_eventHandler.c ****     {
 649:.\Generated_Source\PSoC4/BLE_eventHandler.c ****         CyBle_TpscNotificationEventHandler(eventParam);
ARM GAS  C:\Users\ADMINI~1\AppData\Local\Temp\ccJUBmf3.s 			page 14


 650:.\Generated_Source\PSoC4/BLE_eventHandler.c ****     }
 651:.\Generated_Source\PSoC4/BLE_eventHandler.c **** #endif /* CYBLE_TPS_CLIENT */
 652:.\Generated_Source\PSoC4/BLE_eventHandler.c **** #ifdef CYBLE_UDS_CLIENT
 653:.\Generated_Source\PSoC4/BLE_eventHandler.c ****     if((cyBle_eventHandlerFlag & CYBLE_CALLBACK) != 0u)
 654:.\Generated_Source\PSoC4/BLE_eventHandler.c ****     {
 655:.\Generated_Source\PSoC4/BLE_eventHandler.c ****         CyBle_UdscNotificationEventHandler(eventParam);
 656:.\Generated_Source\PSoC4/BLE_eventHandler.c ****     }
 657:.\Generated_Source\PSoC4/BLE_eventHandler.c **** #endif /* CYBLE_UDS_CLIENT */
 658:.\Generated_Source\PSoC4/BLE_eventHandler.c **** }
  93              		.loc 1 658 0
  94 0008 BD46     		mov	sp, r7
  95 000a 02B0     		add	sp, sp, #8
  96              		@ sp needed
  97 000c 80BD     		pop	{r7, pc}
  98              		.cfi_endproc
  99              	.LFE3:
 100              		.size	CyBle_NotificationEventHandler, .-CyBle_NotificationEventHandler
 101              		.section	.text.CyBle_IndicationEventHandler,"ax",%progbits
 102              		.align	2
 103              		.code	16
 104              		.thumb_func
 105              		.type	CyBle_IndicationEventHandler, %function
 106              	CyBle_IndicationEventHandler:
 107              	.LFB4:
 659:.\Generated_Source\PSoC4/BLE_eventHandler.c **** 
 660:.\Generated_Source\PSoC4/BLE_eventHandler.c **** 
 661:.\Generated_Source\PSoC4/BLE_eventHandler.c **** /******************************************************************************    
 662:.\Generated_Source\PSoC4/BLE_eventHandler.c **** ##Function Name: CyBle_IndicationEventHandler
 663:.\Generated_Source\PSoC4/BLE_eventHandler.c **** *******************************************************************************
 664:.\Generated_Source\PSoC4/BLE_eventHandler.c **** 
 665:.\Generated_Source\PSoC4/BLE_eventHandler.c **** Summary:
 666:.\Generated_Source\PSoC4/BLE_eventHandler.c ****  Handles the Indication event from BLE stack.
 667:.\Generated_Source\PSoC4/BLE_eventHandler.c **** 
 668:.\Generated_Source\PSoC4/BLE_eventHandler.c **** Parameters:
 669:.\Generated_Source\PSoC4/BLE_eventHandler.c ****  CYBLE_GATTC_HANDLE_VALUE_IND_PARAM_T * eventParam - event parameter
 670:.\Generated_Source\PSoC4/BLE_eventHandler.c **** 
 671:.\Generated_Source\PSoC4/BLE_eventHandler.c **** Return:
 672:.\Generated_Source\PSoC4/BLE_eventHandler.c ****  None
 673:.\Generated_Source\PSoC4/BLE_eventHandler.c **** 
 674:.\Generated_Source\PSoC4/BLE_eventHandler.c **** ******************************************************************************/
 675:.\Generated_Source\PSoC4/BLE_eventHandler.c **** static void CyBle_IndicationEventHandler(CYBLE_GATTC_HANDLE_VALUE_IND_PARAM_T *eventParam)
 676:.\Generated_Source\PSoC4/BLE_eventHandler.c **** {
 108              		.loc 1 676 0
 109              		.cfi_startproc
 110 0000 80B5     		push	{r7, lr}
 111              		.cfi_def_cfa_offset 8
 112              		.cfi_offset 7, -8
 113              		.cfi_offset 14, -4
 114 0002 82B0     		sub	sp, sp, #8
 115              		.cfi_def_cfa_offset 16
 116 0004 00AF     		add	r7, sp, #0
 117              		.cfi_def_cfa_register 7
 118 0006 7860     		str	r0, [r7, #4]
 677:.\Generated_Source\PSoC4/BLE_eventHandler.c **** #ifdef CYBLE_BLS_CLIENT
 678:.\Generated_Source\PSoC4/BLE_eventHandler.c ****     if((cyBle_eventHandlerFlag & CYBLE_CALLBACK) != 0u)
 679:.\Generated_Source\PSoC4/BLE_eventHandler.c ****     {
 680:.\Generated_Source\PSoC4/BLE_eventHandler.c ****         CyBle_BlscIndicationEventHandler(eventParam);
ARM GAS  C:\Users\ADMINI~1\AppData\Local\Temp\ccJUBmf3.s 			page 15


 681:.\Generated_Source\PSoC4/BLE_eventHandler.c ****     }
 682:.\Generated_Source\PSoC4/BLE_eventHandler.c **** #endif /* CYBLE_BLS_CLIENT */
 683:.\Generated_Source\PSoC4/BLE_eventHandler.c **** #ifdef CYBLE_CGMS_CLIENT
 684:.\Generated_Source\PSoC4/BLE_eventHandler.c ****     if((cyBle_eventHandlerFlag & CYBLE_CALLBACK) != 0u)
 685:.\Generated_Source\PSoC4/BLE_eventHandler.c ****     {
 686:.\Generated_Source\PSoC4/BLE_eventHandler.c ****         CyBle_CgmscIndicationEventHandler(eventParam);
 687:.\Generated_Source\PSoC4/BLE_eventHandler.c ****     }
 688:.\Generated_Source\PSoC4/BLE_eventHandler.c **** #endif /* CYBLE_CGMS_CLIENT */
 689:.\Generated_Source\PSoC4/BLE_eventHandler.c **** #ifdef CYBLE_CPS_CLIENT
 690:.\Generated_Source\PSoC4/BLE_eventHandler.c ****     if((cyBle_eventHandlerFlag & CYBLE_CALLBACK) != 0u)
 691:.\Generated_Source\PSoC4/BLE_eventHandler.c ****     {
 692:.\Generated_Source\PSoC4/BLE_eventHandler.c ****         CyBle_CpscIndicationEventHandler(eventParam);
 693:.\Generated_Source\PSoC4/BLE_eventHandler.c ****     }
 694:.\Generated_Source\PSoC4/BLE_eventHandler.c **** #endif /* CYBLE_CPS_CLIENT */
 695:.\Generated_Source\PSoC4/BLE_eventHandler.c **** #ifdef CYBLE_CSCS_CLIENT
 696:.\Generated_Source\PSoC4/BLE_eventHandler.c ****     if((cyBle_eventHandlerFlag & CYBLE_CALLBACK) != 0u)
 697:.\Generated_Source\PSoC4/BLE_eventHandler.c ****     {
 698:.\Generated_Source\PSoC4/BLE_eventHandler.c ****         CyBle_CscscIndicationEventHandler(eventParam);
 699:.\Generated_Source\PSoC4/BLE_eventHandler.c ****     }
 700:.\Generated_Source\PSoC4/BLE_eventHandler.c **** #endif /* CYBLE_CSCS_CLIENT */
 701:.\Generated_Source\PSoC4/BLE_eventHandler.c **** #ifdef CYBLE_GLS_CLIENT
 702:.\Generated_Source\PSoC4/BLE_eventHandler.c ****     if((cyBle_eventHandlerFlag & CYBLE_CALLBACK) != 0u)
 703:.\Generated_Source\PSoC4/BLE_eventHandler.c ****     {
 704:.\Generated_Source\PSoC4/BLE_eventHandler.c ****         CyBle_GlscIndicationEventHandler(eventParam);
 705:.\Generated_Source\PSoC4/BLE_eventHandler.c ****     }
 706:.\Generated_Source\PSoC4/BLE_eventHandler.c **** #endif /* CYBLE_GLS_CLIENT */
 707:.\Generated_Source\PSoC4/BLE_eventHandler.c **** #ifdef CYBLE_HTS_CLIENT
 708:.\Generated_Source\PSoC4/BLE_eventHandler.c ****     if((cyBle_eventHandlerFlag & CYBLE_CALLBACK) != 0u)
 709:.\Generated_Source\PSoC4/BLE_eventHandler.c ****     {
 710:.\Generated_Source\PSoC4/BLE_eventHandler.c ****         CyBle_HtscIndicationEventHandler(eventParam);
 711:.\Generated_Source\PSoC4/BLE_eventHandler.c ****     }
 712:.\Generated_Source\PSoC4/BLE_eventHandler.c **** #endif /* CYBLE_HTS_CLIENT */
 713:.\Generated_Source\PSoC4/BLE_eventHandler.c **** #ifdef CYBLE_LNS_CLIENT
 714:.\Generated_Source\PSoC4/BLE_eventHandler.c ****     if((cyBle_eventHandlerFlag & CYBLE_CALLBACK) != 0u)
 715:.\Generated_Source\PSoC4/BLE_eventHandler.c ****     {
 716:.\Generated_Source\PSoC4/BLE_eventHandler.c ****         CyBle_LnscIndicationEventHandler(eventParam);
 717:.\Generated_Source\PSoC4/BLE_eventHandler.c ****     }
 718:.\Generated_Source\PSoC4/BLE_eventHandler.c **** #endif /* CYBLE_LNS_CLIENT */
 719:.\Generated_Source\PSoC4/BLE_eventHandler.c **** #ifdef CYBLE_RSCS_CLIENT
 720:.\Generated_Source\PSoC4/BLE_eventHandler.c ****     if((cyBle_eventHandlerFlag & CYBLE_CALLBACK) != 0u)
 721:.\Generated_Source\PSoC4/BLE_eventHandler.c ****     {
 722:.\Generated_Source\PSoC4/BLE_eventHandler.c ****         CyBle_RscscIndicationEventHandler(eventParam);
 723:.\Generated_Source\PSoC4/BLE_eventHandler.c ****     }
 724:.\Generated_Source\PSoC4/BLE_eventHandler.c **** #endif /* CYBLE_RSCS_CLIENT */
 725:.\Generated_Source\PSoC4/BLE_eventHandler.c **** #ifdef CYBLE_UDS_CLIENT
 726:.\Generated_Source\PSoC4/BLE_eventHandler.c ****     if((cyBle_eventHandlerFlag & CYBLE_CALLBACK) != 0u)
 727:.\Generated_Source\PSoC4/BLE_eventHandler.c ****     {
 728:.\Generated_Source\PSoC4/BLE_eventHandler.c ****         CyBle_UdscIndicationEventHandler(eventParam);
 729:.\Generated_Source\PSoC4/BLE_eventHandler.c ****     }
 730:.\Generated_Source\PSoC4/BLE_eventHandler.c **** #endif /* CYBLE_UDS_CLIENT */
 731:.\Generated_Source\PSoC4/BLE_eventHandler.c **** }
 119              		.loc 1 731 0
 120 0008 BD46     		mov	sp, r7
 121 000a 02B0     		add	sp, sp, #8
 122              		@ sp needed
 123 000c 80BD     		pop	{r7, pc}
 124              		.cfi_endproc
ARM GAS  C:\Users\ADMINI~1\AppData\Local\Temp\ccJUBmf3.s 			page 16


 125              	.LFE4:
 126              		.size	CyBle_IndicationEventHandler, .-CyBle_IndicationEventHandler
 127              		.section	.text.CyBle_ReadResponseEventHandler,"ax",%progbits
 128              		.align	2
 129              		.code	16
 130              		.thumb_func
 131              		.type	CyBle_ReadResponseEventHandler, %function
 132              	CyBle_ReadResponseEventHandler:
 133              	.LFB5:
 732:.\Generated_Source\PSoC4/BLE_eventHandler.c **** 
 733:.\Generated_Source\PSoC4/BLE_eventHandler.c **** 
 734:.\Generated_Source\PSoC4/BLE_eventHandler.c **** 
 735:.\Generated_Source\PSoC4/BLE_eventHandler.c **** /******************************************************************************    
 736:.\Generated_Source\PSoC4/BLE_eventHandler.c **** ##Function Name: CyBle_ReadResponseEventHandler
 737:.\Generated_Source\PSoC4/BLE_eventHandler.c **** *******************************************************************************
 738:.\Generated_Source\PSoC4/BLE_eventHandler.c **** 
 739:.\Generated_Source\PSoC4/BLE_eventHandler.c **** Summary:
 740:.\Generated_Source\PSoC4/BLE_eventHandler.c ****  Handles the Read Response event from BLE stack.
 741:.\Generated_Source\PSoC4/BLE_eventHandler.c **** 
 742:.\Generated_Source\PSoC4/BLE_eventHandler.c **** Parameters:
 743:.\Generated_Source\PSoC4/BLE_eventHandler.c ****  CYBLE_GATTC_READ_RSP_PARAM_T * eventParam - event parameter
 744:.\Generated_Source\PSoC4/BLE_eventHandler.c **** 
 745:.\Generated_Source\PSoC4/BLE_eventHandler.c **** Return:
 746:.\Generated_Source\PSoC4/BLE_eventHandler.c ****  None
 747:.\Generated_Source\PSoC4/BLE_eventHandler.c **** 
 748:.\Generated_Source\PSoC4/BLE_eventHandler.c **** ******************************************************************************/
 749:.\Generated_Source\PSoC4/BLE_eventHandler.c **** static void CyBle_ReadResponseEventHandler(CYBLE_GATTC_READ_RSP_PARAM_T *eventParam)
 750:.\Generated_Source\PSoC4/BLE_eventHandler.c **** {
 134              		.loc 1 750 0
 135              		.cfi_startproc
 136 0000 80B5     		push	{r7, lr}
 137              		.cfi_def_cfa_offset 8
 138              		.cfi_offset 7, -8
 139              		.cfi_offset 14, -4
 140 0002 82B0     		sub	sp, sp, #8
 141              		.cfi_def_cfa_offset 16
 142 0004 00AF     		add	r7, sp, #0
 143              		.cfi_def_cfa_register 7
 144 0006 7860     		str	r0, [r7, #4]
 751:.\Generated_Source\PSoC4/BLE_eventHandler.c **** #ifdef CYBLE_ANS_CLIENT
 752:.\Generated_Source\PSoC4/BLE_eventHandler.c ****     CyBle_AnscReadResponseEventHandler(eventParam);
 753:.\Generated_Source\PSoC4/BLE_eventHandler.c **** #endif /* CYBLE_ANS_CLIENT */
 754:.\Generated_Source\PSoC4/BLE_eventHandler.c **** #ifdef CYBLE_BAS_CLIENT
 755:.\Generated_Source\PSoC4/BLE_eventHandler.c ****     if((cyBle_eventHandlerFlag & CYBLE_CALLBACK) != 0u)
 756:.\Generated_Source\PSoC4/BLE_eventHandler.c ****     {
 757:.\Generated_Source\PSoC4/BLE_eventHandler.c ****         CyBle_BascReadResponseEventHandler(eventParam);
 758:.\Generated_Source\PSoC4/BLE_eventHandler.c ****     }
 759:.\Generated_Source\PSoC4/BLE_eventHandler.c **** #endif /* CYBLE_BAS_CLIENT */
 760:.\Generated_Source\PSoC4/BLE_eventHandler.c **** #ifdef CYBLE_BLS_CLIENT
 761:.\Generated_Source\PSoC4/BLE_eventHandler.c ****     if((cyBle_eventHandlerFlag & CYBLE_CALLBACK) != 0u)
 762:.\Generated_Source\PSoC4/BLE_eventHandler.c ****     {
 763:.\Generated_Source\PSoC4/BLE_eventHandler.c ****         CyBle_BlscReadResponseEventHandler(eventParam);
 764:.\Generated_Source\PSoC4/BLE_eventHandler.c ****     }
 765:.\Generated_Source\PSoC4/BLE_eventHandler.c **** #endif /* CYBLE_BLS_CLIENT */
 766:.\Generated_Source\PSoC4/BLE_eventHandler.c **** #ifdef CYBLE_CGMS_CLIENT
 767:.\Generated_Source\PSoC4/BLE_eventHandler.c ****     if((cyBle_eventHandlerFlag & CYBLE_CALLBACK) != 0u)
 768:.\Generated_Source\PSoC4/BLE_eventHandler.c ****     {
ARM GAS  C:\Users\ADMINI~1\AppData\Local\Temp\ccJUBmf3.s 			page 17


 769:.\Generated_Source\PSoC4/BLE_eventHandler.c ****         CyBle_CgmscReadResponseEventHandler(eventParam);
 770:.\Generated_Source\PSoC4/BLE_eventHandler.c ****     }
 771:.\Generated_Source\PSoC4/BLE_eventHandler.c **** #endif /* CYBLE_CGMS_CLIENT */
 772:.\Generated_Source\PSoC4/BLE_eventHandler.c **** #ifdef CYBLE_CPS_CLIENT
 773:.\Generated_Source\PSoC4/BLE_eventHandler.c ****     if((cyBle_eventHandlerFlag & CYBLE_CALLBACK) != 0u)
 774:.\Generated_Source\PSoC4/BLE_eventHandler.c ****     {
 775:.\Generated_Source\PSoC4/BLE_eventHandler.c ****         CyBle_CpscReadResponseEventHandler(eventParam);
 776:.\Generated_Source\PSoC4/BLE_eventHandler.c ****     }
 777:.\Generated_Source\PSoC4/BLE_eventHandler.c **** #endif /* CYBLE_CPS_CLIENT */
 778:.\Generated_Source\PSoC4/BLE_eventHandler.c **** #ifdef CYBLE_CSCS_CLIENT
 779:.\Generated_Source\PSoC4/BLE_eventHandler.c ****     if((cyBle_eventHandlerFlag & CYBLE_CALLBACK) != 0u)
 780:.\Generated_Source\PSoC4/BLE_eventHandler.c ****     {
 781:.\Generated_Source\PSoC4/BLE_eventHandler.c ****         CyBle_CscscReadResponseEventHandler(eventParam);
 782:.\Generated_Source\PSoC4/BLE_eventHandler.c ****     }
 783:.\Generated_Source\PSoC4/BLE_eventHandler.c **** #endif /* CYBLE_CSCS_CLIENT */
 784:.\Generated_Source\PSoC4/BLE_eventHandler.c **** #ifdef CYBLE_CTS_CLIENT
 785:.\Generated_Source\PSoC4/BLE_eventHandler.c ****     if((cyBle_eventHandlerFlag & CYBLE_CALLBACK) != 0u)
 786:.\Generated_Source\PSoC4/BLE_eventHandler.c ****     {
 787:.\Generated_Source\PSoC4/BLE_eventHandler.c ****         CyBle_CtscReadResponseEventHandler(eventParam);
 788:.\Generated_Source\PSoC4/BLE_eventHandler.c ****     }
 789:.\Generated_Source\PSoC4/BLE_eventHandler.c **** #endif /* CYBLE_BAS_CLIENT */
 790:.\Generated_Source\PSoC4/BLE_eventHandler.c **** #ifdef CYBLE_DIS_CLIENT
 791:.\Generated_Source\PSoC4/BLE_eventHandler.c ****     if((cyBle_eventHandlerFlag & CYBLE_CALLBACK) != 0u)
 792:.\Generated_Source\PSoC4/BLE_eventHandler.c ****     {
 793:.\Generated_Source\PSoC4/BLE_eventHandler.c ****         CyBle_DiscReadResponseEventHandler(eventParam);
 794:.\Generated_Source\PSoC4/BLE_eventHandler.c ****     }
 795:.\Generated_Source\PSoC4/BLE_eventHandler.c **** #endif /* CYBLE_DIS_CLIENT */
 796:.\Generated_Source\PSoC4/BLE_eventHandler.c **** #ifdef CYBLE_GLS_CLIENT
 797:.\Generated_Source\PSoC4/BLE_eventHandler.c ****     if((cyBle_eventHandlerFlag & CYBLE_CALLBACK) != 0u)
 798:.\Generated_Source\PSoC4/BLE_eventHandler.c ****     {
 799:.\Generated_Source\PSoC4/BLE_eventHandler.c ****         CyBle_GlscReadResponseEventHandler(eventParam);
 800:.\Generated_Source\PSoC4/BLE_eventHandler.c ****     }
 801:.\Generated_Source\PSoC4/BLE_eventHandler.c **** #endif /* CYBLE_GLS_CLIENT */
 802:.\Generated_Source\PSoC4/BLE_eventHandler.c **** #ifdef CYBLE_HIDS_CLIENT
 803:.\Generated_Source\PSoC4/BLE_eventHandler.c ****     if((cyBle_eventHandlerFlag & CYBLE_CALLBACK) != 0u)
 804:.\Generated_Source\PSoC4/BLE_eventHandler.c ****     {
 805:.\Generated_Source\PSoC4/BLE_eventHandler.c ****         CyBle_HidscReadResponseEventHandler(eventParam);
 806:.\Generated_Source\PSoC4/BLE_eventHandler.c ****     }
 807:.\Generated_Source\PSoC4/BLE_eventHandler.c **** #endif /* CYBLE_HIDS_CLIENT */
 808:.\Generated_Source\PSoC4/BLE_eventHandler.c **** #ifdef CYBLE_HRS_CLIENT
 809:.\Generated_Source\PSoC4/BLE_eventHandler.c ****     if((cyBle_eventHandlerFlag & CYBLE_CALLBACK) != 0u)
 810:.\Generated_Source\PSoC4/BLE_eventHandler.c ****     {
 811:.\Generated_Source\PSoC4/BLE_eventHandler.c ****         CyBle_HrscReadResponseEventHandler(eventParam);
 812:.\Generated_Source\PSoC4/BLE_eventHandler.c ****     }
 813:.\Generated_Source\PSoC4/BLE_eventHandler.c **** #endif /* CYBLE_HRS_CLIENT */
 814:.\Generated_Source\PSoC4/BLE_eventHandler.c **** #ifdef CYBLE_HTS_CLIENT
 815:.\Generated_Source\PSoC4/BLE_eventHandler.c ****     if((cyBle_eventHandlerFlag & CYBLE_CALLBACK) != 0u)
 816:.\Generated_Source\PSoC4/BLE_eventHandler.c ****     {
 817:.\Generated_Source\PSoC4/BLE_eventHandler.c ****         CyBle_HtscReadResponseEventHandler(eventParam);
 818:.\Generated_Source\PSoC4/BLE_eventHandler.c ****     }
 819:.\Generated_Source\PSoC4/BLE_eventHandler.c **** #endif /* CYBLE_HTS_CLIENT */
 820:.\Generated_Source\PSoC4/BLE_eventHandler.c **** #ifdef CYBLE_LLS_CLIENT
 821:.\Generated_Source\PSoC4/BLE_eventHandler.c ****     if((cyBle_eventHandlerFlag & CYBLE_CALLBACK) != 0u)
 822:.\Generated_Source\PSoC4/BLE_eventHandler.c ****     {
 823:.\Generated_Source\PSoC4/BLE_eventHandler.c ****         CyBle_LlscReadResponseEventHandler(eventParam);
 824:.\Generated_Source\PSoC4/BLE_eventHandler.c ****     }
 825:.\Generated_Source\PSoC4/BLE_eventHandler.c **** #endif /* CYBLE_LLS_CLIENT */
ARM GAS  C:\Users\ADMINI~1\AppData\Local\Temp\ccJUBmf3.s 			page 18


 826:.\Generated_Source\PSoC4/BLE_eventHandler.c **** #ifdef CYBLE_LNS_CLIENT
 827:.\Generated_Source\PSoC4/BLE_eventHandler.c ****     if((cyBle_eventHandlerFlag & CYBLE_CALLBACK) != 0u)
 828:.\Generated_Source\PSoC4/BLE_eventHandler.c ****     {
 829:.\Generated_Source\PSoC4/BLE_eventHandler.c ****         CyBle_LnscReadResponseEventHandler(eventParam);
 830:.\Generated_Source\PSoC4/BLE_eventHandler.c ****     }
 831:.\Generated_Source\PSoC4/BLE_eventHandler.c **** #endif /* CYBLE_LNS_CLIENT */
 832:.\Generated_Source\PSoC4/BLE_eventHandler.c **** #ifdef CYBLE_NDCS_CLIENT
 833:.\Generated_Source\PSoC4/BLE_eventHandler.c ****     if((cyBle_eventHandlerFlag & CYBLE_CALLBACK) != 0u)
 834:.\Generated_Source\PSoC4/BLE_eventHandler.c ****     {
 835:.\Generated_Source\PSoC4/BLE_eventHandler.c ****         CyBle_NdcscReadResponseEventHandler(eventParam);
 836:.\Generated_Source\PSoC4/BLE_eventHandler.c ****     }
 837:.\Generated_Source\PSoC4/BLE_eventHandler.c **** #endif /* CYBLE_NDCS_CLIENT */
 838:.\Generated_Source\PSoC4/BLE_eventHandler.c **** #ifdef CYBLE_PASS_CLIENT
 839:.\Generated_Source\PSoC4/BLE_eventHandler.c ****     if((cyBle_eventHandlerFlag & CYBLE_CALLBACK) != 0u)
 840:.\Generated_Source\PSoC4/BLE_eventHandler.c ****     {
 841:.\Generated_Source\PSoC4/BLE_eventHandler.c ****         CyBle_PasscReadResponseEventHandler(eventParam);
 842:.\Generated_Source\PSoC4/BLE_eventHandler.c ****     }
 843:.\Generated_Source\PSoC4/BLE_eventHandler.c **** #endif /* CYBLE_PASS_CLIENT */
 844:.\Generated_Source\PSoC4/BLE_eventHandler.c **** #ifdef CYBLE_RSCS_CLIENT
 845:.\Generated_Source\PSoC4/BLE_eventHandler.c ****     if((cyBle_eventHandlerFlag & CYBLE_CALLBACK) != 0u)
 846:.\Generated_Source\PSoC4/BLE_eventHandler.c ****     {
 847:.\Generated_Source\PSoC4/BLE_eventHandler.c ****         CyBle_RscscReadResponseEventHandler(eventParam);
 848:.\Generated_Source\PSoC4/BLE_eventHandler.c ****     }
 849:.\Generated_Source\PSoC4/BLE_eventHandler.c **** #endif /* CYBLE_RSCS_CLIENT */
 850:.\Generated_Source\PSoC4/BLE_eventHandler.c **** #ifdef CYBLE_RTUS_CLIENT
 851:.\Generated_Source\PSoC4/BLE_eventHandler.c ****     if((cyBle_eventHandlerFlag & CYBLE_CALLBACK) != 0u)
 852:.\Generated_Source\PSoC4/BLE_eventHandler.c ****     {
 853:.\Generated_Source\PSoC4/BLE_eventHandler.c ****         CyBle_RtuscReadResponseEventHandler(eventParam);
 854:.\Generated_Source\PSoC4/BLE_eventHandler.c ****     }
 855:.\Generated_Source\PSoC4/BLE_eventHandler.c **** #endif /* CYBLE_RTUS_CLIENT */
 856:.\Generated_Source\PSoC4/BLE_eventHandler.c **** #ifdef CYBLE_SCPS_CLIENT
 857:.\Generated_Source\PSoC4/BLE_eventHandler.c ****     if((cyBle_eventHandlerFlag & CYBLE_CALLBACK) != 0u)
 858:.\Generated_Source\PSoC4/BLE_eventHandler.c ****     {
 859:.\Generated_Source\PSoC4/BLE_eventHandler.c ****         CyBle_ScpscReadResponseEventHandler(eventParam);
 860:.\Generated_Source\PSoC4/BLE_eventHandler.c ****     }
 861:.\Generated_Source\PSoC4/BLE_eventHandler.c **** #endif /* CYBLE_SCPS_CLIENT */
 862:.\Generated_Source\PSoC4/BLE_eventHandler.c **** #ifdef CYBLE_TPS_CLIENT
 863:.\Generated_Source\PSoC4/BLE_eventHandler.c ****     if((cyBle_eventHandlerFlag & CYBLE_CALLBACK) != 0u)
 864:.\Generated_Source\PSoC4/BLE_eventHandler.c ****     {
 865:.\Generated_Source\PSoC4/BLE_eventHandler.c ****         CyBle_TpscReadResponseEventHandler(eventParam);
 866:.\Generated_Source\PSoC4/BLE_eventHandler.c ****     }
 867:.\Generated_Source\PSoC4/BLE_eventHandler.c **** #endif /* CYBLE_TPS_CLIENT */
 868:.\Generated_Source\PSoC4/BLE_eventHandler.c **** #ifdef CYBLE_UDS_CLIENT
 869:.\Generated_Source\PSoC4/BLE_eventHandler.c ****     if((cyBle_eventHandlerFlag & CYBLE_CALLBACK) != 0u)
 870:.\Generated_Source\PSoC4/BLE_eventHandler.c ****     {
 871:.\Generated_Source\PSoC4/BLE_eventHandler.c ****         CyBle_UdscReadResponseEventHandler(eventParam);
 872:.\Generated_Source\PSoC4/BLE_eventHandler.c ****     }
 873:.\Generated_Source\PSoC4/BLE_eventHandler.c **** #endif /* CYBLE_UDS_CLIENT */
 874:.\Generated_Source\PSoC4/BLE_eventHandler.c **** }
 145              		.loc 1 874 0
 146 0008 BD46     		mov	sp, r7
 147 000a 02B0     		add	sp, sp, #8
 148              		@ sp needed
 149 000c 80BD     		pop	{r7, pc}
 150              		.cfi_endproc
 151              	.LFE5:
 152              		.size	CyBle_ReadResponseEventHandler, .-CyBle_ReadResponseEventHandler
ARM GAS  C:\Users\ADMINI~1\AppData\Local\Temp\ccJUBmf3.s 			page 19


 153              		.section	.text.CyBle_GattDisconnectEventHandler,"ax",%progbits
 154              		.align	2
 155              		.code	16
 156              		.thumb_func
 157              		.type	CyBle_GattDisconnectEventHandler, %function
 158              	CyBle_GattDisconnectEventHandler:
 159              	.LFB6:
 875:.\Generated_Source\PSoC4/BLE_eventHandler.c **** #endif /* CYBLE_GATT_ROLE_CLIENT */
 876:.\Generated_Source\PSoC4/BLE_eventHandler.c **** 
 877:.\Generated_Source\PSoC4/BLE_eventHandler.c **** 
 878:.\Generated_Source\PSoC4/BLE_eventHandler.c **** /****************************************************************************** 
 879:.\Generated_Source\PSoC4/BLE_eventHandler.c **** ##Function Name: CyBle_DisconnectEventHandler
 880:.\Generated_Source\PSoC4/BLE_eventHandler.c **** *******************************************************************************
 881:.\Generated_Source\PSoC4/BLE_eventHandler.c **** 
 882:.\Generated_Source\PSoC4/BLE_eventHandler.c **** Summary:
 883:.\Generated_Source\PSoC4/BLE_eventHandler.c ****  Handles the GATT Disconnection event from the BLE stack.
 884:.\Generated_Source\PSoC4/BLE_eventHandler.c **** 
 885:.\Generated_Source\PSoC4/BLE_eventHandler.c **** Parameters:
 886:.\Generated_Source\PSoC4/BLE_eventHandler.c ****  None
 887:.\Generated_Source\PSoC4/BLE_eventHandler.c **** 
 888:.\Generated_Source\PSoC4/BLE_eventHandler.c **** Return:
 889:.\Generated_Source\PSoC4/BLE_eventHandler.c ****  None
 890:.\Generated_Source\PSoC4/BLE_eventHandler.c **** 
 891:.\Generated_Source\PSoC4/BLE_eventHandler.c **** ******************************************************************************/
 892:.\Generated_Source\PSoC4/BLE_eventHandler.c **** static void CyBle_GattDisconnectEventHandler(void)
 893:.\Generated_Source\PSoC4/BLE_eventHandler.c **** {
 160              		.loc 1 893 0
 161              		.cfi_startproc
 162 0000 80B5     		push	{r7, lr}
 163              		.cfi_def_cfa_offset 8
 164              		.cfi_offset 7, -8
 165              		.cfi_offset 14, -4
 166 0002 00AF     		add	r7, sp, #0
 167              		.cfi_def_cfa_register 7
 894:.\Generated_Source\PSoC4/BLE_eventHandler.c ****     cyBle_connHandle.attId = 0u;
 168              		.loc 1 894 0
 169 0004 094B     		ldr	r3, .L8
 170 0006 0022     		mov	r2, #0
 171 0008 5A70     		strb	r2, [r3, #1]
 895:.\Generated_Source\PSoC4/BLE_eventHandler.c ****     cyBle_connHandle.bdHandle = 0u;
 172              		.loc 1 895 0
 173 000a 084B     		ldr	r3, .L8
 174 000c 0022     		mov	r2, #0
 175 000e 1A70     		strb	r2, [r3]
 896:.\Generated_Source\PSoC4/BLE_eventHandler.c ****     
 897:.\Generated_Source\PSoC4/BLE_eventHandler.c ****     #if (CYBLE_GATT_ROLE_CLIENT)
 898:.\Generated_Source\PSoC4/BLE_eventHandler.c ****         if(CYBLE_CLIENT_STATE_DISCOVERED == CyBle_GetClientState())
 176              		.loc 1 898 0
 177 0010 074B     		ldr	r3, .L8+4
 178 0012 1B78     		ldrb	r3, [r3]
 179 0014 052B     		cmp	r3, #5
 180 0016 03D1     		bne	.L6
 899:.\Generated_Source\PSoC4/BLE_eventHandler.c ****         {
 900:.\Generated_Source\PSoC4/BLE_eventHandler.c ****             CyBle_SetClientState(CYBLE_CLIENT_STATE_DISCONNECTED_DISCOVERED);
 181              		.loc 1 900 0
 182 0018 054B     		ldr	r3, .L8+4
 183 001a 0722     		mov	r2, #7
ARM GAS  C:\Users\ADMINI~1\AppData\Local\Temp\ccJUBmf3.s 			page 20


 184 001c 1A70     		strb	r2, [r3]
 185 001e 02E0     		b	.L5
 186              	.L6:
 901:.\Generated_Source\PSoC4/BLE_eventHandler.c ****         }
 902:.\Generated_Source\PSoC4/BLE_eventHandler.c ****         else
 903:.\Generated_Source\PSoC4/BLE_eventHandler.c ****         {
 904:.\Generated_Source\PSoC4/BLE_eventHandler.c ****             CyBle_SetClientState(CYBLE_CLIENT_STATE_DISCONNECTED);
 187              		.loc 1 904 0
 188 0020 034B     		ldr	r3, .L8+4
 189 0022 0822     		mov	r2, #8
 190 0024 1A70     		strb	r2, [r3]
 191              	.L5:
 905:.\Generated_Source\PSoC4/BLE_eventHandler.c ****         }
 906:.\Generated_Source\PSoC4/BLE_eventHandler.c ****     #endif /* CYBLE_GATT_ROLE_CLIENT */
 907:.\Generated_Source\PSoC4/BLE_eventHandler.c ****         
 908:.\Generated_Source\PSoC4/BLE_eventHandler.c ****     #ifdef CYBLE_CPS_SERVER
 909:.\Generated_Source\PSoC4/BLE_eventHandler.c ****         #if CYBLE_GAP_ROLE_BROADCASTER
 910:.\Generated_Source\PSoC4/BLE_eventHandler.c ****             CyBle_CpssDisconnectEventHandler();
 911:.\Generated_Source\PSoC4/BLE_eventHandler.c ****         #endif /* CYBLE_GAP_ROLE_BROADCASTER */
 912:.\Generated_Source\PSoC4/BLE_eventHandler.c ****     #endif /* CYBLE_CPS_SERVER */
 913:.\Generated_Source\PSoC4/BLE_eventHandler.c **** 
 914:.\Generated_Source\PSoC4/BLE_eventHandler.c ****     #ifdef CYBLE_CPS_CLIENT
 915:.\Generated_Source\PSoC4/BLE_eventHandler.c ****         CyBle_CpscDisconnectEventHandler();
 916:.\Generated_Source\PSoC4/BLE_eventHandler.c ****     #endif /* CYBLE_CPS_CLIENT */
 917:.\Generated_Source\PSoC4/BLE_eventHandler.c **** 
 918:.\Generated_Source\PSoC4/BLE_eventHandler.c ****     #ifdef CYBLE_IAS_SERVER
 919:.\Generated_Source\PSoC4/BLE_eventHandler.c ****         CyBle_IassDisconnectEventHandler();
 920:.\Generated_Source\PSoC4/BLE_eventHandler.c ****     #endif /* CYBLE_IAS_SERVER */
 921:.\Generated_Source\PSoC4/BLE_eventHandler.c ****     
 922:.\Generated_Source\PSoC4/BLE_eventHandler.c ****     #ifdef CYBLE_GLS_SERVER
 923:.\Generated_Source\PSoC4/BLE_eventHandler.c ****         CyBle_GlsInit();
 924:.\Generated_Source\PSoC4/BLE_eventHandler.c ****     #endif /* CYBLE_GLS_SERVER */
 925:.\Generated_Source\PSoC4/BLE_eventHandler.c ****     
 926:.\Generated_Source\PSoC4/BLE_eventHandler.c ****     #ifdef CYBLE_LNS_SERVER
 927:.\Generated_Source\PSoC4/BLE_eventHandler.c ****         CyBle_LnsInit();
 928:.\Generated_Source\PSoC4/BLE_eventHandler.c ****     #endif /* CYBLE_LNS_SERVER */
 929:.\Generated_Source\PSoC4/BLE_eventHandler.c ****     
 930:.\Generated_Source\PSoC4/BLE_eventHandler.c ****     #ifdef CYBLE_UDS_SERVER
 931:.\Generated_Source\PSoC4/BLE_eventHandler.c ****         CyBle_UdsInit();
 932:.\Generated_Source\PSoC4/BLE_eventHandler.c ****     #endif /* CYBLE_UDS_SERVER */
 933:.\Generated_Source\PSoC4/BLE_eventHandler.c **** }
 192              		.loc 1 933 0
 193 0026 BD46     		mov	sp, r7
 194              		@ sp needed
 195 0028 80BD     		pop	{r7, pc}
 196              	.L9:
 197 002a C046     		.align	2
 198              	.L8:
 199 002c 00000000 		.word	cyBle_connHandle
 200 0030 00000000 		.word	cyBle_clientState
 201              		.cfi_endproc
 202              	.LFE6:
 203              		.size	CyBle_GattDisconnectEventHandler, .-CyBle_GattDisconnectEventHandler
 204              		.section	.text.CyBle_TimeOutEventHandler,"ax",%progbits
 205              		.align	2
 206              		.code	16
 207              		.thumb_func
ARM GAS  C:\Users\ADMINI~1\AppData\Local\Temp\ccJUBmf3.s 			page 21


 208              		.type	CyBle_TimeOutEventHandler, %function
 209              	CyBle_TimeOutEventHandler:
 210              	.LFB7:
 934:.\Generated_Source\PSoC4/BLE_eventHandler.c **** 
 935:.\Generated_Source\PSoC4/BLE_eventHandler.c **** 
 936:.\Generated_Source\PSoC4/BLE_eventHandler.c **** /****************************************************************************** 
 937:.\Generated_Source\PSoC4/BLE_eventHandler.c **** ##Function Name: CyBle_TimeOutEventHandler
 938:.\Generated_Source\PSoC4/BLE_eventHandler.c **** *******************************************************************************
 939:.\Generated_Source\PSoC4/BLE_eventHandler.c **** 
 940:.\Generated_Source\PSoC4/BLE_eventHandler.c **** Summary:
 941:.\Generated_Source\PSoC4/BLE_eventHandler.c ****  Handles the CYBLE_EVT_TIMEOUT event from the BLE stack.
 942:.\Generated_Source\PSoC4/BLE_eventHandler.c **** 
 943:.\Generated_Source\PSoC4/BLE_eventHandler.c **** Parameters:
 944:.\Generated_Source\PSoC4/BLE_eventHandler.c ****  *eventParam - The pointer to a structure of type CYBLE_TO_REASON_CODE_T.
 945:.\Generated_Source\PSoC4/BLE_eventHandler.c **** 
 946:.\Generated_Source\PSoC4/BLE_eventHandler.c **** Return:
 947:.\Generated_Source\PSoC4/BLE_eventHandler.c ****  None
 948:.\Generated_Source\PSoC4/BLE_eventHandler.c **** 
 949:.\Generated_Source\PSoC4/BLE_eventHandler.c **** ******************************************************************************/
 950:.\Generated_Source\PSoC4/BLE_eventHandler.c **** static void CyBle_TimeOutEventHandler(const CYBLE_TO_REASON_CODE_T *eventParam)
 951:.\Generated_Source\PSoC4/BLE_eventHandler.c **** {
 211              		.loc 1 951 0
 212              		.cfi_startproc
 213 0000 80B5     		push	{r7, lr}
 214              		.cfi_def_cfa_offset 8
 215              		.cfi_offset 7, -8
 216              		.cfi_offset 14, -4
 217 0002 82B0     		sub	sp, sp, #8
 218              		.cfi_def_cfa_offset 16
 219 0004 00AF     		add	r7, sp, #0
 220              		.cfi_def_cfa_register 7
 221 0006 7860     		str	r0, [r7, #4]
 952:.\Generated_Source\PSoC4/BLE_eventHandler.c ****     if(*eventParam == CYBLE_GATT_RSP_TO)
 222              		.loc 1 952 0
 223 0008 7B68     		ldr	r3, [r7, #4]
 224 000a 1B78     		ldrb	r3, [r3]
 225 000c 032B     		cmp	r3, #3
 226 000e 3ED1     		bne	.L11
 953:.\Generated_Source\PSoC4/BLE_eventHandler.c ****     {
 954:.\Generated_Source\PSoC4/BLE_eventHandler.c ****     #if (CYBLE_GATT_ROLE_CLIENT)
 955:.\Generated_Source\PSoC4/BLE_eventHandler.c ****         if(0u != (cyBle_eventHandlerFlag & CYBLE_AUTO_DISCOVERY))
 227              		.loc 1 955 0
 228 0010 254B     		ldr	r3, .L20
 229 0012 1B78     		ldrb	r3, [r3]
 230 0014 DBB2     		uxtb	r3, r3
 231 0016 1A1C     		mov	r2, r3
 232 0018 0223     		mov	r3, #2
 233 001a 1340     		and	r3, r2
 234 001c 37D0     		beq	.L11
 956:.\Generated_Source\PSoC4/BLE_eventHandler.c ****         {
 957:.\Generated_Source\PSoC4/BLE_eventHandler.c ****             switch(CyBle_GetClientState())
 235              		.loc 1 957 0
 236 001e 234B     		ldr	r3, .L20+4
 237 0020 1B78     		ldrb	r3, [r3]
 238 0022 022B     		cmp	r3, #2
 239 0024 10D0     		beq	.L13
 240 0026 02DC     		bgt	.L14
ARM GAS  C:\Users\ADMINI~1\AppData\Local\Temp\ccJUBmf3.s 			page 22


 241 0028 012B     		cmp	r3, #1
 242 002a 05D0     		beq	.L15
 958:.\Generated_Source\PSoC4/BLE_eventHandler.c ****             {
 959:.\Generated_Source\PSoC4/BLE_eventHandler.c ****                 case CYBLE_CLIENT_STATE_SRVC_DISCOVERING:
 960:.\Generated_Source\PSoC4/BLE_eventHandler.c ****                     CyBle_ApplCallback(CYBLE_EVT_GATTC_SRVC_DISCOVERY_FAILED, NULL);
 961:.\Generated_Source\PSoC4/BLE_eventHandler.c ****                     break;
 962:.\Generated_Source\PSoC4/BLE_eventHandler.c ****                 case CYBLE_CLIENT_STATE_INCL_DISCOVERING:
 963:.\Generated_Source\PSoC4/BLE_eventHandler.c ****                     CyBle_ApplCallback(CYBLE_EVT_GATTC_INCL_DISCOVERY_FAILED, NULL);
 964:.\Generated_Source\PSoC4/BLE_eventHandler.c ****                     break;
 965:.\Generated_Source\PSoC4/BLE_eventHandler.c ****                 case CYBLE_CLIENT_STATE_CHAR_DISCOVERING:
 966:.\Generated_Source\PSoC4/BLE_eventHandler.c ****                     CyBle_ApplCallback(CYBLE_EVT_GATTC_CHAR_DISCOVERY_FAILED, NULL);
 967:.\Generated_Source\PSoC4/BLE_eventHandler.c ****                     break;
 968:.\Generated_Source\PSoC4/BLE_eventHandler.c ****                 case CYBLE_CLIENT_STATE_DESCR_DISCOVERING:
 969:.\Generated_Source\PSoC4/BLE_eventHandler.c ****                     CyBle_ApplCallback(CYBLE_EVT_GATTC_DESCR_DISCOVERY_FAILED, NULL);
 970:.\Generated_Source\PSoC4/BLE_eventHandler.c ****                     break;
 971:.\Generated_Source\PSoC4/BLE_eventHandler.c ****                 default:        /* Other states should not be set in Auto discovery mode */
 972:.\Generated_Source\PSoC4/BLE_eventHandler.c ****                     break;
 243              		.loc 1 972 0
 244 002c 24E0     		b	.L18
 245              	.L14:
 957:.\Generated_Source\PSoC4/BLE_eventHandler.c ****             switch(CyBle_GetClientState())
 246              		.loc 1 957 0
 247 002e 032B     		cmp	r3, #3
 248 0030 12D0     		beq	.L16
 249 0032 042B     		cmp	r3, #4
 250 0034 18D0     		beq	.L17
 251              		.loc 1 972 0
 252 0036 1FE0     		b	.L18
 253              	.L15:
 960:.\Generated_Source\PSoC4/BLE_eventHandler.c ****                     CyBle_ApplCallback(CYBLE_EVT_GATTC_SRVC_DISCOVERY_FAILED, NULL);
 254              		.loc 1 960 0
 255 0038 1D4B     		ldr	r3, .L20+8
 256 003a 1B68     		ldr	r3, [r3]
 257 003c 0822     		mov	r2, #8
 258 003e FF32     		add	r2, r2, #255
 259 0040 101C     		mov	r0, r2
 260 0042 0021     		mov	r1, #0
 261 0044 9847     		blx	r3
 961:.\Generated_Source\PSoC4/BLE_eventHandler.c ****                     break;
 262              		.loc 1 961 0
 263 0046 17E0     		b	.L18
 264              	.L13:
 963:.\Generated_Source\PSoC4/BLE_eventHandler.c ****                     CyBle_ApplCallback(CYBLE_EVT_GATTC_INCL_DISCOVERY_FAILED, NULL);
 265              		.loc 1 963 0
 266 0048 194B     		ldr	r3, .L20+8
 267 004a 1B68     		ldr	r3, [r3]
 268 004c 8422     		mov	r2, #132
 269 004e 5200     		lsl	r2, r2, #1
 270 0050 101C     		mov	r0, r2
 271 0052 0021     		mov	r1, #0
 272 0054 9847     		blx	r3
 964:.\Generated_Source\PSoC4/BLE_eventHandler.c ****                     break;
 273              		.loc 1 964 0
 274 0056 0FE0     		b	.L18
 275              	.L16:
 966:.\Generated_Source\PSoC4/BLE_eventHandler.c ****                     CyBle_ApplCallback(CYBLE_EVT_GATTC_CHAR_DISCOVERY_FAILED, NULL);
 276              		.loc 1 966 0
ARM GAS  C:\Users\ADMINI~1\AppData\Local\Temp\ccJUBmf3.s 			page 23


 277 0058 154B     		ldr	r3, .L20+8
 278 005a 1B68     		ldr	r3, [r3]
 279 005c 0A22     		mov	r2, #10
 280 005e FF32     		add	r2, r2, #255
 281 0060 101C     		mov	r0, r2
 282 0062 0021     		mov	r1, #0
 283 0064 9847     		blx	r3
 967:.\Generated_Source\PSoC4/BLE_eventHandler.c ****                     break;
 284              		.loc 1 967 0
 285 0066 07E0     		b	.L18
 286              	.L17:
 969:.\Generated_Source\PSoC4/BLE_eventHandler.c ****                     CyBle_ApplCallback(CYBLE_EVT_GATTC_DESCR_DISCOVERY_FAILED, NULL);
 287              		.loc 1 969 0
 288 0068 114B     		ldr	r3, .L20+8
 289 006a 1B68     		ldr	r3, [r3]
 290 006c 8522     		mov	r2, #133
 291 006e 5200     		lsl	r2, r2, #1
 292 0070 101C     		mov	r0, r2
 293 0072 0021     		mov	r1, #0
 294 0074 9847     		blx	r3
 970:.\Generated_Source\PSoC4/BLE_eventHandler.c ****                     break;
 295              		.loc 1 970 0
 296 0076 C046     		mov	r8, r8
 297              	.L18:
 973:.\Generated_Source\PSoC4/BLE_eventHandler.c ****             }
 974:.\Generated_Source\PSoC4/BLE_eventHandler.c ****             cyBle_eventHandlerFlag &= (uint8)~CYBLE_AUTO_DISCOVERY;
 298              		.loc 1 974 0
 299 0078 0B4B     		ldr	r3, .L20
 300 007a 1B78     		ldrb	r3, [r3]
 301 007c DBB2     		uxtb	r3, r3
 302 007e 0222     		mov	r2, #2
 303 0080 9343     		bic	r3, r2
 304 0082 DAB2     		uxtb	r2, r3
 305 0084 084B     		ldr	r3, .L20
 306 0086 1A70     		strb	r2, [r3]
 975:.\Generated_Source\PSoC4/BLE_eventHandler.c ****             CyBle_SetClientState(CYBLE_CLIENT_STATE_CONNECTED);
 307              		.loc 1 975 0
 308 0088 084B     		ldr	r3, .L20+4
 309 008a 0022     		mov	r2, #0
 310 008c 1A70     		strb	r2, [r3]
 311              	.L11:
 976:.\Generated_Source\PSoC4/BLE_eventHandler.c ****         }
 977:.\Generated_Source\PSoC4/BLE_eventHandler.c ****     #endif /* CYBLE_GATT_ROLE_CLIENT */
 978:.\Generated_Source\PSoC4/BLE_eventHandler.c ****     #ifdef CYBLE_CPS_SERVER
 979:.\Generated_Source\PSoC4/BLE_eventHandler.c ****         CyBle_CpssTimeOutEventHandler();
 980:.\Generated_Source\PSoC4/BLE_eventHandler.c ****     #endif /* CYBLE_CPS_SERVER */
 981:.\Generated_Source\PSoC4/BLE_eventHandler.c ****     }
 982:.\Generated_Source\PSoC4/BLE_eventHandler.c ****     
 983:.\Generated_Source\PSoC4/BLE_eventHandler.c ****     /* Connection procedure timeout */
 984:.\Generated_Source\PSoC4/BLE_eventHandler.c ****     if(*eventParam == CYBLE_GENERIC_TO)
 312              		.loc 1 984 0
 313 008e 7B68     		ldr	r3, [r7, #4]
 314 0090 1B78     		ldrb	r3, [r3]
 315 0092 042B     		cmp	r3, #4
 316 0094 05D1     		bne	.L10
 985:.\Generated_Source\PSoC4/BLE_eventHandler.c ****     {
 986:.\Generated_Source\PSoC4/BLE_eventHandler.c ****     #if(CYBLE_GAP_ROLE_CENTRAL)
ARM GAS  C:\Users\ADMINI~1\AppData\Local\Temp\ccJUBmf3.s 			page 24


 987:.\Generated_Source\PSoC4/BLE_eventHandler.c ****         if(CYBLE_STATE_CONNECTING == CyBle_GetState())
 317              		.loc 1 987 0
 318 0096 074B     		ldr	r3, .L20+12
 319 0098 1B78     		ldrb	r3, [r3]
 320 009a 042B     		cmp	r3, #4
 321 009c 01D1     		bne	.L10
 988:.\Generated_Source\PSoC4/BLE_eventHandler.c ****         {
 989:.\Generated_Source\PSoC4/BLE_eventHandler.c ****             (void)CyBle_GapcCancelDeviceConnection();
 322              		.loc 1 989 0
 323 009e FFF7FEFF 		bl	CyBle_GapcCancelDeviceConnection
 324              	.L10:
 990:.\Generated_Source\PSoC4/BLE_eventHandler.c ****         }
 991:.\Generated_Source\PSoC4/BLE_eventHandler.c ****     #endif /* CYBLE_GAP_ROLE_CENTRAL */
 992:.\Generated_Source\PSoC4/BLE_eventHandler.c ****     }
 993:.\Generated_Source\PSoC4/BLE_eventHandler.c **** }
 325              		.loc 1 993 0
 326 00a2 BD46     		mov	sp, r7
 327 00a4 02B0     		add	sp, sp, #8
 328              		@ sp needed
 329 00a6 80BD     		pop	{r7, pc}
 330              	.L21:
 331              		.align	2
 332              	.L20:
 333 00a8 00000000 		.word	cyBle_eventHandlerFlag
 334 00ac 00000000 		.word	cyBle_clientState
 335 00b0 00000000 		.word	CyBle_ApplCallback
 336 00b4 00000000 		.word	cyBle_state
 337              		.cfi_endproc
 338              	.LFE7:
 339              		.size	CyBle_TimeOutEventHandler, .-CyBle_TimeOutEventHandler
 340              		.section	.text.CyBle_GattConnectReqHandler,"ax",%progbits
 341              		.align	2
 342              		.code	16
 343              		.thumb_func
 344              		.type	CyBle_GattConnectReqHandler, %function
 345              	CyBle_GattConnectReqHandler:
 346              	.LFB8:
 994:.\Generated_Source\PSoC4/BLE_eventHandler.c **** 
 995:.\Generated_Source\PSoC4/BLE_eventHandler.c **** 
 996:.\Generated_Source\PSoC4/BLE_eventHandler.c **** /****************************************************************************** 
 997:.\Generated_Source\PSoC4/BLE_eventHandler.c **** ##Function Name: CyBle_GattConnectReqHandler
 998:.\Generated_Source\PSoC4/BLE_eventHandler.c **** *******************************************************************************
 999:.\Generated_Source\PSoC4/BLE_eventHandler.c **** 
1000:.\Generated_Source\PSoC4/BLE_eventHandler.c **** Summary:
1001:.\Generated_Source\PSoC4/BLE_eventHandler.c ****  Handles the GATT connect event from the BLE stack.
1002:.\Generated_Source\PSoC4/BLE_eventHandler.c **** 
1003:.\Generated_Source\PSoC4/BLE_eventHandler.c **** Parameters:
1004:.\Generated_Source\PSoC4/BLE_eventHandler.c ****  None
1005:.\Generated_Source\PSoC4/BLE_eventHandler.c **** 
1006:.\Generated_Source\PSoC4/BLE_eventHandler.c **** Return:
1007:.\Generated_Source\PSoC4/BLE_eventHandler.c ****  None
1008:.\Generated_Source\PSoC4/BLE_eventHandler.c **** 
1009:.\Generated_Source\PSoC4/BLE_eventHandler.c **** ******************************************************************************/
1010:.\Generated_Source\PSoC4/BLE_eventHandler.c **** static void CyBle_GattConnectReqHandler(void)
1011:.\Generated_Source\PSoC4/BLE_eventHandler.c **** {
 347              		.loc 1 1011 0
 348              		.cfi_startproc
ARM GAS  C:\Users\ADMINI~1\AppData\Local\Temp\ccJUBmf3.s 			page 25


 349 0000 80B5     		push	{r7, lr}
 350              		.cfi_def_cfa_offset 8
 351              		.cfi_offset 7, -8
 352              		.cfi_offset 14, -4
 353 0002 00AF     		add	r7, sp, #0
 354              		.cfi_def_cfa_register 7
1012:.\Generated_Source\PSoC4/BLE_eventHandler.c ****     #ifdef CYBLE_CPS_SERVER
1013:.\Generated_Source\PSoC4/BLE_eventHandler.c ****         CyBle_CpssConnectEventHandler();
1014:.\Generated_Source\PSoC4/BLE_eventHandler.c ****     #endif /* CYBLE_CPS_SERVER */
1015:.\Generated_Source\PSoC4/BLE_eventHandler.c ****     
1016:.\Generated_Source\PSoC4/BLE_eventHandler.c ****     #ifdef CYBLE_CSCS_SERVER
1017:.\Generated_Source\PSoC4/BLE_eventHandler.c ****             CyBle_CscsInit();
1018:.\Generated_Source\PSoC4/BLE_eventHandler.c ****     #endif /* CYBLE_CSCS_SERVER */
1019:.\Generated_Source\PSoC4/BLE_eventHandler.c ****     
1020:.\Generated_Source\PSoC4/BLE_eventHandler.c ****     #ifdef CYBLE_LLS_SERVER
1021:.\Generated_Source\PSoC4/BLE_eventHandler.c ****         CyBle_LlssConnectEventHandler();
1022:.\Generated_Source\PSoC4/BLE_eventHandler.c ****     #endif /* CYBLE_LLS_SERVER */
1023:.\Generated_Source\PSoC4/BLE_eventHandler.c ****     
1024:.\Generated_Source\PSoC4/BLE_eventHandler.c ****     #ifdef CYBLE_HIDS_SERVER
1025:.\Generated_Source\PSoC4/BLE_eventHandler.c ****         CyBle_HidssOnDeviceConnected();
1026:.\Generated_Source\PSoC4/BLE_eventHandler.c ****     #endif /* CYBLE_HIDS_SERVER */
1027:.\Generated_Source\PSoC4/BLE_eventHandler.c **** 
1028:.\Generated_Source\PSoC4/BLE_eventHandler.c ****     #ifdef CYBLE_RSCS_SERVER
1029:.\Generated_Source\PSoC4/BLE_eventHandler.c ****         CyBle_RscsInit();
1030:.\Generated_Source\PSoC4/BLE_eventHandler.c ****     #endif /* CYBLE_RSCS_SERVER */
1031:.\Generated_Source\PSoC4/BLE_eventHandler.c **** }
 355              		.loc 1 1031 0
 356 0004 BD46     		mov	sp, r7
 357              		@ sp needed
 358 0006 80BD     		pop	{r7, pc}
 359              		.cfi_endproc
 360              	.LFE8:
 361              		.size	CyBle_GattConnectReqHandler, .-CyBle_GattConnectReqHandler
 362              		.section	.text.CyBle_IsDeviceAddressValid,"ax",%progbits
 363              		.align	2
 364              		.code	16
 365              		.thumb_func
 366              		.type	CyBle_IsDeviceAddressValid, %function
 367              	CyBle_IsDeviceAddressValid:
 368              	.LFB9:
1032:.\Generated_Source\PSoC4/BLE_eventHandler.c **** 
1033:.\Generated_Source\PSoC4/BLE_eventHandler.c **** 
1034:.\Generated_Source\PSoC4/BLE_eventHandler.c **** #if (CYBLE_GATT_ROLE_SERVER || CYBLE_GATT_ROLE_CLIENT)
1035:.\Generated_Source\PSoC4/BLE_eventHandler.c **** 
1036:.\Generated_Source\PSoC4/BLE_eventHandler.c **** /****************************************************************************** 
1037:.\Generated_Source\PSoC4/BLE_eventHandler.c **** ##Function Name: CyBle_IsDeviceAddressValid
1038:.\Generated_Source\PSoC4/BLE_eventHandler.c **** *******************************************************************************
1039:.\Generated_Source\PSoC4/BLE_eventHandler.c **** 
1040:.\Generated_Source\PSoC4/BLE_eventHandler.c **** Summary:
1041:.\Generated_Source\PSoC4/BLE_eventHandler.c ****  This function verifies that BLE public address has been programmed to SFLASH 
1042:.\Generated_Source\PSoC4/BLE_eventHandler.c ****  during manufacture.
1043:.\Generated_Source\PSoC4/BLE_eventHandler.c **** 
1044:.\Generated_Source\PSoC4/BLE_eventHandler.c **** Parameters:
1045:.\Generated_Source\PSoC4/BLE_eventHandler.c ****  CYBLE_GAP_BD_ADDR_T *sflashDeviceAddress: the pointer to the BD address of 
1046:.\Generated_Source\PSoC4/BLE_eventHandler.c ****                                            type CYBLE_GAP_BD_ADDR_T. 
1047:.\Generated_Source\PSoC4/BLE_eventHandler.c **** 
1048:.\Generated_Source\PSoC4/BLE_eventHandler.c **** Return:
ARM GAS  C:\Users\ADMINI~1\AppData\Local\Temp\ccJUBmf3.s 			page 26


1049:.\Generated_Source\PSoC4/BLE_eventHandler.c ****  Non zero value when a device address differs from the default SFLASH content.
1050:.\Generated_Source\PSoC4/BLE_eventHandler.c **** 
1051:.\Generated_Source\PSoC4/BLE_eventHandler.c **** ******************************************************************************/
1052:.\Generated_Source\PSoC4/BLE_eventHandler.c **** static uint8 CyBle_IsDeviceAddressValid(const CYBLE_GAP_BD_ADDR_T *sflashDeviceAddress)
1053:.\Generated_Source\PSoC4/BLE_eventHandler.c **** {
 369              		.loc 1 1053 0
 370              		.cfi_startproc
 371 0000 80B5     		push	{r7, lr}
 372              		.cfi_def_cfa_offset 8
 373              		.cfi_offset 7, -8
 374              		.cfi_offset 14, -4
 375 0002 84B0     		sub	sp, sp, #16
 376              		.cfi_def_cfa_offset 24
 377 0004 00AF     		add	r7, sp, #0
 378              		.cfi_def_cfa_register 7
 379 0006 7860     		str	r0, [r7, #4]
1054:.\Generated_Source\PSoC4/BLE_eventHandler.c ****     uint8 i;
1055:.\Generated_Source\PSoC4/BLE_eventHandler.c ****     uint8 sflashAddressValid = 0u;
 380              		.loc 1 1055 0
 381 0008 3B1C     		mov	r3, r7
 382 000a 0E33     		add	r3, r3, #14
 383 000c 0022     		mov	r2, #0
 384 000e 1A70     		strb	r2, [r3]
1056:.\Generated_Source\PSoC4/BLE_eventHandler.c ****     
1057:.\Generated_Source\PSoC4/BLE_eventHandler.c ****     if(sflashDeviceAddress -> type == CYBLE_GAP_ADDR_TYPE_PUBLIC)  
 385              		.loc 1 1057 0
 386 0010 7B68     		ldr	r3, [r7, #4]
 387 0012 9B79     		ldrb	r3, [r3, #6]
 388 0014 002B     		cmp	r3, #0
 389 0016 1CD1     		bne	.L24
1058:.\Generated_Source\PSoC4/BLE_eventHandler.c ****     {
1059:.\Generated_Source\PSoC4/BLE_eventHandler.c ****         for(i = 0u; i < CYBLE_GAP_BD_ADDR_SIZE; i++)
 390              		.loc 1 1059 0
 391 0018 3B1C     		mov	r3, r7
 392 001a 0F33     		add	r3, r3, #15
 393 001c 0022     		mov	r2, #0
 394 001e 1A70     		strb	r2, [r3]
 395 0020 12E0     		b	.L25
 396              	.L27:
1060:.\Generated_Source\PSoC4/BLE_eventHandler.c ****         {
1061:.\Generated_Source\PSoC4/BLE_eventHandler.c ****             if(sflashDeviceAddress->bdAddr[i] != 0u)
 397              		.loc 1 1061 0
 398 0022 3B1C     		mov	r3, r7
 399 0024 0F33     		add	r3, r3, #15
 400 0026 1B78     		ldrb	r3, [r3]
 401 0028 7A68     		ldr	r2, [r7, #4]
 402 002a D35C     		ldrb	r3, [r2, r3]
 403 002c 002B     		cmp	r3, #0
 404 002e 04D0     		beq	.L26
1062:.\Generated_Source\PSoC4/BLE_eventHandler.c ****             {
1063:.\Generated_Source\PSoC4/BLE_eventHandler.c ****                 sflashAddressValid = 1u;
 405              		.loc 1 1063 0
 406 0030 3B1C     		mov	r3, r7
 407 0032 0E33     		add	r3, r3, #14
 408 0034 0122     		mov	r2, #1
 409 0036 1A70     		strb	r2, [r3]
1064:.\Generated_Source\PSoC4/BLE_eventHandler.c ****                 break;
ARM GAS  C:\Users\ADMINI~1\AppData\Local\Temp\ccJUBmf3.s 			page 27


 410              		.loc 1 1064 0
 411 0038 0BE0     		b	.L24
 412              	.L26:
1059:.\Generated_Source\PSoC4/BLE_eventHandler.c ****         for(i = 0u; i < CYBLE_GAP_BD_ADDR_SIZE; i++)
 413              		.loc 1 1059 0
 414 003a 3B1C     		mov	r3, r7
 415 003c 0F33     		add	r3, r3, #15
 416 003e 1A78     		ldrb	r2, [r3]
 417 0040 3B1C     		mov	r3, r7
 418 0042 0F33     		add	r3, r3, #15
 419 0044 0132     		add	r2, r2, #1
 420 0046 1A70     		strb	r2, [r3]
 421              	.L25:
1059:.\Generated_Source\PSoC4/BLE_eventHandler.c ****         for(i = 0u; i < CYBLE_GAP_BD_ADDR_SIZE; i++)
 422              		.loc 1 1059 0 is_stmt 0 discriminator 1
 423 0048 3B1C     		mov	r3, r7
 424 004a 0F33     		add	r3, r3, #15
 425 004c 1B78     		ldrb	r3, [r3]
 426 004e 052B     		cmp	r3, #5
 427 0050 E7D9     		bls	.L27
 428              	.L24:
1065:.\Generated_Source\PSoC4/BLE_eventHandler.c ****             }
1066:.\Generated_Source\PSoC4/BLE_eventHandler.c ****         }
1067:.\Generated_Source\PSoC4/BLE_eventHandler.c ****     }
1068:.\Generated_Source\PSoC4/BLE_eventHandler.c ****     return (sflashAddressValid);
 429              		.loc 1 1068 0 is_stmt 1
 430 0052 3B1C     		mov	r3, r7
 431 0054 0E33     		add	r3, r3, #14
 432 0056 1B78     		ldrb	r3, [r3]
1069:.\Generated_Source\PSoC4/BLE_eventHandler.c **** }
 433              		.loc 1 1069 0
 434 0058 181C     		mov	r0, r3
 435 005a BD46     		mov	sp, r7
 436 005c 04B0     		add	sp, sp, #16
 437              		@ sp needed
 438 005e 80BD     		pop	{r7, pc}
 439              		.cfi_endproc
 440              	.LFE9:
 441              		.size	CyBle_IsDeviceAddressValid, .-CyBle_IsDeviceAddressValid
 442              		.section	.text.CyBle_L2Cap_ConnParamUpdateRspEventHandler,"ax",%progbits
 443              		.align	2
 444              		.code	16
 445              		.thumb_func
 446              		.type	CyBle_L2Cap_ConnParamUpdateRspEventHandler, %function
 447              	CyBle_L2Cap_ConnParamUpdateRspEventHandler:
 448              	.LFB10:
1070:.\Generated_Source\PSoC4/BLE_eventHandler.c **** #endif /* CYBLE_GATT_ROLE_SERVER || CYBLE_GATT_ROLE_CLIENT */
1071:.\Generated_Source\PSoC4/BLE_eventHandler.c **** 
1072:.\Generated_Source\PSoC4/BLE_eventHandler.c **** 
1073:.\Generated_Source\PSoC4/BLE_eventHandler.c **** /****************************************************************************** 
1074:.\Generated_Source\PSoC4/BLE_eventHandler.c **** ##Function Name: CyBle_L2Cap_ConnParamUpdateRspHandler
1075:.\Generated_Source\PSoC4/BLE_eventHandler.c **** *******************************************************************************
1076:.\Generated_Source\PSoC4/BLE_eventHandler.c **** 
1077:.\Generated_Source\PSoC4/BLE_eventHandler.c **** Summary:
1078:.\Generated_Source\PSoC4/BLE_eventHandler.c ****  Handles the L2CAP connection parameter response event from
1079:.\Generated_Source\PSoC4/BLE_eventHandler.c ****  the BLE stack.
1080:.\Generated_Source\PSoC4/BLE_eventHandler.c **** 
ARM GAS  C:\Users\ADMINI~1\AppData\Local\Temp\ccJUBmf3.s 			page 28


1081:.\Generated_Source\PSoC4/BLE_eventHandler.c **** Parameters:
1082:.\Generated_Source\PSoC4/BLE_eventHandler.c ****  uint16 response:
1083:.\Generated_Source\PSoC4/BLE_eventHandler.c ****      * Accepted = 0x0000
1084:.\Generated_Source\PSoC4/BLE_eventHandler.c ****      * Rejected = 0x0001
1085:.\Generated_Source\PSoC4/BLE_eventHandler.c **** 
1086:.\Generated_Source\PSoC4/BLE_eventHandler.c **** Return:
1087:.\Generated_Source\PSoC4/BLE_eventHandler.c ****  None
1088:.\Generated_Source\PSoC4/BLE_eventHandler.c **** 
1089:.\Generated_Source\PSoC4/BLE_eventHandler.c **** ******************************************************************************/
1090:.\Generated_Source\PSoC4/BLE_eventHandler.c **** static void CyBle_L2Cap_ConnParamUpdateRspEventHandler(uint16 response)
1091:.\Generated_Source\PSoC4/BLE_eventHandler.c **** {
 449              		.loc 1 1091 0
 450              		.cfi_startproc
 451 0000 80B5     		push	{r7, lr}
 452              		.cfi_def_cfa_offset 8
 453              		.cfi_offset 7, -8
 454              		.cfi_offset 14, -4
 455 0002 82B0     		sub	sp, sp, #8
 456              		.cfi_def_cfa_offset 16
 457 0004 00AF     		add	r7, sp, #0
 458              		.cfi_def_cfa_register 7
 459 0006 021C     		mov	r2, r0
 460 0008 BB1D     		add	r3, r7, #6
 461 000a 1A80     		strh	r2, [r3]
1092:.\Generated_Source\PSoC4/BLE_eventHandler.c ****     #ifdef CYBLE_CPS_SERVER
1093:.\Generated_Source\PSoC4/BLE_eventHandler.c ****         CyBle_CpssConnParamUpdateRspEventHandler(response);
1094:.\Generated_Source\PSoC4/BLE_eventHandler.c ****     #endif /* CYBLE_CPS_SERVER */
1095:.\Generated_Source\PSoC4/BLE_eventHandler.c ****     
1096:.\Generated_Source\PSoC4/BLE_eventHandler.c ****     /* Unreferenced variable warning workaround */
1097:.\Generated_Source\PSoC4/BLE_eventHandler.c ****     if(response != 0u)
1098:.\Generated_Source\PSoC4/BLE_eventHandler.c ****     {
1099:.\Generated_Source\PSoC4/BLE_eventHandler.c ****     }
1100:.\Generated_Source\PSoC4/BLE_eventHandler.c **** }
 462              		.loc 1 1100 0
 463 000c BD46     		mov	sp, r7
 464 000e 02B0     		add	sp, sp, #8
 465              		@ sp needed
 466 0010 80BD     		pop	{r7, pc}
 467              		.cfi_endproc
 468              	.LFE10:
 469              		.size	CyBle_L2Cap_ConnParamUpdateRspEventHandler, .-CyBle_L2Cap_ConnParamUpdateRspEventHandler
 470 0012 C046     		.section	.text.CyBle_GapConnUpdateCompleteEventHandler,"ax",%progbits
 471              		.align	2
 472              		.code	16
 473              		.thumb_func
 474              		.type	CyBle_GapConnUpdateCompleteEventHandler, %function
 475              	CyBle_GapConnUpdateCompleteEventHandler:
 476              	.LFB11:
1101:.\Generated_Source\PSoC4/BLE_eventHandler.c **** 
1102:.\Generated_Source\PSoC4/BLE_eventHandler.c **** 
1103:.\Generated_Source\PSoC4/BLE_eventHandler.c **** /****************************************************************************** 
1104:.\Generated_Source\PSoC4/BLE_eventHandler.c **** ##Function Name: CyBle_GapConnUpdateCompleteEventHandler
1105:.\Generated_Source\PSoC4/BLE_eventHandler.c **** *******************************************************************************
1106:.\Generated_Source\PSoC4/BLE_eventHandler.c **** 
1107:.\Generated_Source\PSoC4/BLE_eventHandler.c **** Summary:
1108:.\Generated_Source\PSoC4/BLE_eventHandler.c ****  Handles the CYBLE_EVT_GAP_CONNECTION_UPDATE_COMPLETE event from
1109:.\Generated_Source\PSoC4/BLE_eventHandler.c ****  the BLE stack.
ARM GAS  C:\Users\ADMINI~1\AppData\Local\Temp\ccJUBmf3.s 			page 29


1110:.\Generated_Source\PSoC4/BLE_eventHandler.c **** 
1111:.\Generated_Source\PSoC4/BLE_eventHandler.c **** Parameters:
1112:.\Generated_Source\PSoC4/BLE_eventHandler.c ****  *eventParam: The pointer to the data structure specified by the event.
1113:.\Generated_Source\PSoC4/BLE_eventHandler.c **** 
1114:.\Generated_Source\PSoC4/BLE_eventHandler.c **** Return:
1115:.\Generated_Source\PSoC4/BLE_eventHandler.c ****  None
1116:.\Generated_Source\PSoC4/BLE_eventHandler.c **** 
1117:.\Generated_Source\PSoC4/BLE_eventHandler.c **** ******************************************************************************/
1118:.\Generated_Source\PSoC4/BLE_eventHandler.c **** static void CyBle_GapConnUpdateCompleteEventHandler(const CYBLE_GAP_CONN_PARAM_UPDATED_IN_CONTROLLE
1119:.\Generated_Source\PSoC4/BLE_eventHandler.c **** {
 477              		.loc 1 1119 0
 478              		.cfi_startproc
 479 0000 80B5     		push	{r7, lr}
 480              		.cfi_def_cfa_offset 8
 481              		.cfi_offset 7, -8
 482              		.cfi_offset 14, -4
 483 0002 82B0     		sub	sp, sp, #8
 484              		.cfi_def_cfa_offset 16
 485 0004 00AF     		add	r7, sp, #0
 486              		.cfi_def_cfa_register 7
 487 0006 7860     		str	r0, [r7, #4]
1120:.\Generated_Source\PSoC4/BLE_eventHandler.c ****     #ifdef CYBLE_CPS_SERVER
1121:.\Generated_Source\PSoC4/BLE_eventHandler.c ****         CyBle_CpssConnUpdateCompleteEventHandler(eventParam);
1122:.\Generated_Source\PSoC4/BLE_eventHandler.c ****     #endif /* CYBLE_CPS_SERVER */
1123:.\Generated_Source\PSoC4/BLE_eventHandler.c ****     
1124:.\Generated_Source\PSoC4/BLE_eventHandler.c ****     /* Unreferenced variable warning workaround */
1125:.\Generated_Source\PSoC4/BLE_eventHandler.c ****     if(eventParam != 0u)
1126:.\Generated_Source\PSoC4/BLE_eventHandler.c ****     {
1127:.\Generated_Source\PSoC4/BLE_eventHandler.c ****     }
1128:.\Generated_Source\PSoC4/BLE_eventHandler.c **** }
 488              		.loc 1 1128 0
 489 0008 BD46     		mov	sp, r7
 490 000a 02B0     		add	sp, sp, #8
 491              		@ sp needed
 492 000c 80BD     		pop	{r7, pc}
 493              		.cfi_endproc
 494              	.LFE11:
 495              		.size	CyBle_GapConnUpdateCompleteEventHandler, .-CyBle_GapConnUpdateCompleteEventHandler
 496              		.section	.text.CyBle_EventHandler,"ax",%progbits
 497              		.align	2
 498              		.global	CyBle_EventHandler
 499              		.code	16
 500              		.thumb_func
 501              		.type	CyBle_EventHandler, %function
 502              	CyBle_EventHandler:
 503              	.LFB12:
1129:.\Generated_Source\PSoC4/BLE_eventHandler.c **** 
1130:.\Generated_Source\PSoC4/BLE_eventHandler.c **** 
1131:.\Generated_Source\PSoC4/BLE_eventHandler.c **** /****************************************************************************** 
1132:.\Generated_Source\PSoC4/BLE_eventHandler.c **** ##Function Name: CyBle_EventHandler
1133:.\Generated_Source\PSoC4/BLE_eventHandler.c **** *******************************************************************************
1134:.\Generated_Source\PSoC4/BLE_eventHandler.c **** 
1135:.\Generated_Source\PSoC4/BLE_eventHandler.c **** Summary:
1136:.\Generated_Source\PSoC4/BLE_eventHandler.c ****  Handles the events from the BLE stack
1137:.\Generated_Source\PSoC4/BLE_eventHandler.c **** 
1138:.\Generated_Source\PSoC4/BLE_eventHandler.c **** Parameters:
1139:.\Generated_Source\PSoC4/BLE_eventHandler.c ****  eventCode:    the event code
ARM GAS  C:\Users\ADMINI~1\AppData\Local\Temp\ccJUBmf3.s 			page 30


1140:.\Generated_Source\PSoC4/BLE_eventHandler.c ****  *eventParam:  the event parameters
1141:.\Generated_Source\PSoC4/BLE_eventHandler.c **** 
1142:.\Generated_Source\PSoC4/BLE_eventHandler.c **** Return:
1143:.\Generated_Source\PSoC4/BLE_eventHandler.c ****  None.
1144:.\Generated_Source\PSoC4/BLE_eventHandler.c **** 
1145:.\Generated_Source\PSoC4/BLE_eventHandler.c **** ******************************************************************************/
1146:.\Generated_Source\PSoC4/BLE_eventHandler.c **** void CyBle_EventHandler(uint8 eventCode, void *eventParam)
1147:.\Generated_Source\PSoC4/BLE_eventHandler.c **** {
 504              		.loc 1 1147 0
 505              		.cfi_startproc
 506 0000 80B5     		push	{r7, lr}
 507              		.cfi_def_cfa_offset 8
 508              		.cfi_offset 7, -8
 509              		.cfi_offset 14, -4
 510 0002 84B0     		sub	sp, sp, #16
 511              		.cfi_def_cfa_offset 24
 512 0004 00AF     		add	r7, sp, #0
 513              		.cfi_def_cfa_register 7
 514 0006 021C     		mov	r2, r0
 515 0008 3960     		str	r1, [r7]
 516 000a FB1D     		add	r3, r7, #7
 517 000c 1A70     		strb	r2, [r3]
1148:.\Generated_Source\PSoC4/BLE_eventHandler.c ****     cyBle_eventHandlerFlag |= CYBLE_CALLBACK;
 518              		.loc 1 1148 0
 519 000e A74B     		ldr	r3, .L69
 520 0010 1B78     		ldrb	r3, [r3]
 521 0012 DBB2     		uxtb	r3, r3
 522 0014 0122     		mov	r2, #1
 523 0016 1343     		orr	r3, r2
 524 0018 DAB2     		uxtb	r2, r3
 525 001a A44B     		ldr	r3, .L69
 526 001c 1A70     		strb	r2, [r3]
1149:.\Generated_Source\PSoC4/BLE_eventHandler.c **** 
1150:.\Generated_Source\PSoC4/BLE_eventHandler.c ****     /* Common Profile event handling */
1151:.\Generated_Source\PSoC4/BLE_eventHandler.c ****     switch(eventCode)
 527              		.loc 1 1151 0
 528 001e FB1D     		add	r3, r7, #7
 529 0020 1B78     		ldrb	r3, [r3]
 530 0022 712B     		cmp	r3, #113
 531 0024 00D9     		bls	.LCB436
 532 0026 25E1     		b	.L68	@long jump
 533              	.LCB436:
 534 0028 9A00     		lsl	r2, r3, #2
 535 002a A14B     		ldr	r3, .L69+4
 536 002c D318     		add	r3, r2, r3
 537 002e 1B68     		ldr	r3, [r3]
 538 0030 9F46     		mov	pc, r3
 539              		.section	.rodata
 540              		.align	2
 541              	.L34:
 542 0000 74020000 		.word	.L68
 543 0004 32000000 		.word	.L33
 544 0008 98000000 		.word	.L35
 545 000c 74020000 		.word	.L68
 546 0010 74020000 		.word	.L68
 547 0014 A2000000 		.word	.L36
 548 0018 74020000 		.word	.L68
ARM GAS  C:\Users\ADMINI~1\AppData\Local\Temp\ccJUBmf3.s 			page 31


 549 001c 74020000 		.word	.L68
 550 0020 74020000 		.word	.L68
 551 0024 74020000 		.word	.L68
 552 0028 74020000 		.word	.L68
 553 002c 74020000 		.word	.L68
 554 0030 74020000 		.word	.L68
 555 0034 74020000 		.word	.L68
 556 0038 74020000 		.word	.L68
 557 003c 74020000 		.word	.L68
 558 0040 74020000 		.word	.L68
 559 0044 74020000 		.word	.L68
 560 0048 74020000 		.word	.L68
 561 004c 74020000 		.word	.L68
 562 0050 74020000 		.word	.L68
 563 0054 74020000 		.word	.L68
 564 0058 74020000 		.word	.L68
 565 005c 74020000 		.word	.L68
 566 0060 74020000 		.word	.L68
 567 0064 74020000 		.word	.L68
 568 0068 74020000 		.word	.L68
 569 006c 74020000 		.word	.L68
 570 0070 74020000 		.word	.L68
 571 0074 74020000 		.word	.L68
 572 0078 74020000 		.word	.L68
 573 007c 74020000 		.word	.L68
 574 0080 74020000 		.word	.L68
 575 0084 AC000000 		.word	.L38
 576 0088 74020000 		.word	.L68
 577 008c 74020000 		.word	.L68
 578 0090 74020000 		.word	.L68
 579 0094 74020000 		.word	.L68
 580 0098 74020000 		.word	.L68
 581 009c E4000000 		.word	.L39
 582 00a0 00010000 		.word	.L40
 583 00a4 74020000 		.word	.L68
 584 00a8 DA000000 		.word	.L41
 585 00ac 08010000 		.word	.L42
 586 00b0 74020000 		.word	.L68
 587 00b4 74020000 		.word	.L68
 588 00b8 74020000 		.word	.L68
 589 00bc 74020000 		.word	.L68
 590 00c0 74020000 		.word	.L68
 591 00c4 74020000 		.word	.L68
 592 00c8 74020000 		.word	.L68
 593 00cc 74020000 		.word	.L68
 594 00d0 74020000 		.word	.L68
 595 00d4 74020000 		.word	.L68
 596 00d8 74020000 		.word	.L68
 597 00dc 74020000 		.word	.L68
 598 00e0 74020000 		.word	.L68
 599 00e4 74020000 		.word	.L68
 600 00e8 74020000 		.word	.L68
 601 00ec 74020000 		.word	.L68
 602 00f0 74020000 		.word	.L68
 603 00f4 74020000 		.word	.L68
 604 00f8 74020000 		.word	.L68
 605 00fc 74020000 		.word	.L68
ARM GAS  C:\Users\ADMINI~1\AppData\Local\Temp\ccJUBmf3.s 			page 32


 606 0100 22020000 		.word	.L43
 607 0104 A2010000 		.word	.L44
 608 0108 C2010000 		.word	.L45
 609 010c C8010000 		.word	.L46
 610 0110 74020000 		.word	.L68
 611 0114 04020000 		.word	.L47
 612 0118 0E020000 		.word	.L48
 613 011c 18020000 		.word	.L49
 614 0120 74020000 		.word	.L68
 615 0124 60020000 		.word	.L50
 616 0128 74020000 		.word	.L68
 617 012c 74020000 		.word	.L68
 618 0130 74020000 		.word	.L68
 619 0134 6A020000 		.word	.L51
 620 0138 74020000 		.word	.L68
 621 013c 74020000 		.word	.L68
 622 0140 74020000 		.word	.L68
 623 0144 74020000 		.word	.L68
 624 0148 2C020000 		.word	.L52
 625 014c 36020000 		.word	.L53
 626 0150 74020000 		.word	.L68
 627 0154 74020000 		.word	.L68
 628 0158 74020000 		.word	.L68
 629 015c 74020000 		.word	.L68
 630 0160 74020000 		.word	.L68
 631 0164 74020000 		.word	.L68
 632 0168 74020000 		.word	.L68
 633 016c 74020000 		.word	.L68
 634 0170 74020000 		.word	.L68
 635 0174 74020000 		.word	.L68
 636 0178 74020000 		.word	.L68
 637 017c 74020000 		.word	.L68
 638 0180 74020000 		.word	.L68
 639 0184 74020000 		.word	.L68
 640 0188 74020000 		.word	.L68
 641 018c 74020000 		.word	.L68
 642 0190 74020000 		.word	.L68
 643 0194 74020000 		.word	.L68
 644 0198 74020000 		.word	.L68
 645 019c 74020000 		.word	.L68
 646 01a0 74020000 		.word	.L68
 647 01a4 74020000 		.word	.L68
 648 01a8 74020000 		.word	.L68
 649 01ac 74020000 		.word	.L68
 650 01b0 74020000 		.word	.L68
 651 01b4 74020000 		.word	.L68
 652 01b8 74020000 		.word	.L68
 653 01bc 74020000 		.word	.L68
 654 01c0 74020000 		.word	.L68
 655 01c4 96010000 		.word	.L54
 656              		.section	.text.CyBle_EventHandler
 657              	.L33:
 658              	.LBB2:
1152:.\Generated_Source\PSoC4/BLE_eventHandler.c ****     {
1153:.\Generated_Source\PSoC4/BLE_eventHandler.c ****         /**********************************************************
1154:.\Generated_Source\PSoC4/BLE_eventHandler.c ****         ##General events
1155:.\Generated_Source\PSoC4/BLE_eventHandler.c ****         ***********************************************************/
ARM GAS  C:\Users\ADMINI~1\AppData\Local\Temp\ccJUBmf3.s 			page 33


1156:.\Generated_Source\PSoC4/BLE_eventHandler.c ****         case CYBLE_EVT_STACK_ON:
1157:.\Generated_Source\PSoC4/BLE_eventHandler.c ****         #if(CYBLE_MODE_PROFILE)
1158:.\Generated_Source\PSoC4/BLE_eventHandler.c ****         {
1159:.\Generated_Source\PSoC4/BLE_eventHandler.c ****             CYBLE_BLESS_PWR_IN_DB_T bleSsPowerLevel;
1160:.\Generated_Source\PSoC4/BLE_eventHandler.c ****             
1161:.\Generated_Source\PSoC4/BLE_eventHandler.c ****             /* Set Tx Power Level for advertising and connection channels */
1162:.\Generated_Source\PSoC4/BLE_eventHandler.c ****             bleSsPowerLevel.blePwrLevelInDbm = CYBLE_TX_POWER_LEVEL;
 659              		.loc 1 1162 0
 660 0032 3B1C     		mov	r3, r7
 661 0034 0C33     		add	r3, r3, #12
 662 0036 0722     		mov	r2, #7
 663 0038 1A70     		strb	r2, [r3]
1163:.\Generated_Source\PSoC4/BLE_eventHandler.c ****             bleSsPowerLevel.bleSsChId = CYBLE_LL_ADV_CH_TYPE;
 664              		.loc 1 1163 0
 665 003a 3B1C     		mov	r3, r7
 666 003c 0C33     		add	r3, r3, #12
 667 003e 0022     		mov	r2, #0
 668 0040 5A70     		strb	r2, [r3, #1]
1164:.\Generated_Source\PSoC4/BLE_eventHandler.c ****             (void) CyBle_SetTxPowerLevel (&bleSsPowerLevel);
 669              		.loc 1 1164 0
 670 0042 3B1C     		mov	r3, r7
 671 0044 0C33     		add	r3, r3, #12
 672 0046 181C     		mov	r0, r3
 673 0048 FFF7FEFF 		bl	CyBle_SetTxPowerLevel
1165:.\Generated_Source\PSoC4/BLE_eventHandler.c ****             bleSsPowerLevel.blePwrLevelInDbm = CYBLE_TX_POWER_LEVEL;
 674              		.loc 1 1165 0
 675 004c 3B1C     		mov	r3, r7
 676 004e 0C33     		add	r3, r3, #12
 677 0050 0722     		mov	r2, #7
 678 0052 1A70     		strb	r2, [r3]
1166:.\Generated_Source\PSoC4/BLE_eventHandler.c ****             bleSsPowerLevel.bleSsChId = CYBLE_LL_CONN_CH_TYPE;
 679              		.loc 1 1166 0
 680 0054 3B1C     		mov	r3, r7
 681 0056 0C33     		add	r3, r3, #12
 682 0058 0122     		mov	r2, #1
 683 005a 5A70     		strb	r2, [r3, #1]
1167:.\Generated_Source\PSoC4/BLE_eventHandler.c ****             (void) CyBle_SetTxPowerLevel (&bleSsPowerLevel);
 684              		.loc 1 1167 0
 685 005c 3B1C     		mov	r3, r7
 686 005e 0C33     		add	r3, r3, #12
 687 0060 181C     		mov	r0, r3
 688 0062 FFF7FEFF 		bl	CyBle_SetTxPowerLevel
 689              	.LBE2:
1168:.\Generated_Source\PSoC4/BLE_eventHandler.c ****         }
1169:.\Generated_Source\PSoC4/BLE_eventHandler.c ****         #endif /* CYBLE_MODE_PROFILE */
1170:.\Generated_Source\PSoC4/BLE_eventHandler.c ****         #if (CYBLE_GATT_ROLE_SERVER || CYBLE_GATT_ROLE_CLIENT)
1171:.\Generated_Source\PSoC4/BLE_eventHandler.c ****             /* Set device Address  */
1172:.\Generated_Source\PSoC4/BLE_eventHandler.c ****             if(CyBle_IsDeviceAddressValid(cyBle_sflashDeviceAddress) != 0u)
 690              		.loc 1 1172 0
 691 0066 934B     		ldr	r3, .L69+8
 692 0068 1B68     		ldr	r3, [r3]
 693 006a 181C     		mov	r0, r3
 694 006c FFF7FEFF 		bl	CyBle_IsDeviceAddressValid
 695 0070 031C     		mov	r3, r0
 696 0072 002B     		cmp	r3, #0
 697 0074 05D0     		beq	.L55
1173:.\Generated_Source\PSoC4/BLE_eventHandler.c ****             {
ARM GAS  C:\Users\ADMINI~1\AppData\Local\Temp\ccJUBmf3.s 			page 34


1174:.\Generated_Source\PSoC4/BLE_eventHandler.c ****                 (void) CyBle_SetDeviceAddress(cyBle_sflashDeviceAddress);
 698              		.loc 1 1174 0
 699 0076 8F4B     		ldr	r3, .L69+8
 700 0078 1B68     		ldr	r3, [r3]
 701 007a 181C     		mov	r0, r3
 702 007c FFF7FEFF 		bl	CyBle_SetDeviceAddress
 703 0080 03E0     		b	.L56
 704              	.L55:
1175:.\Generated_Source\PSoC4/BLE_eventHandler.c ****                 #if(CYBLE_GAP_ROLE_PERIPHERAL || CYBLE_GAP_ROLE_BROADCASTER)
1176:.\Generated_Source\PSoC4/BLE_eventHandler.c ****                     CyBle_ChangeAdDeviceAddress(cyBle_sflashDeviceAddress, 0u);
1177:.\Generated_Source\PSoC4/BLE_eventHandler.c ****                     CyBle_ChangeAdDeviceAddress(cyBle_sflashDeviceAddress, 1u);
1178:.\Generated_Source\PSoC4/BLE_eventHandler.c ****                 #endif /* CYBLE_GAP_ROLE_PERIPHERAL || CYBLE_GAP_ROLE_BROADCASTER */    
1179:.\Generated_Source\PSoC4/BLE_eventHandler.c ****             }
1180:.\Generated_Source\PSoC4/BLE_eventHandler.c ****             else
1181:.\Generated_Source\PSoC4/BLE_eventHandler.c ****             {
1182:.\Generated_Source\PSoC4/BLE_eventHandler.c ****             #if (SILICON_GENERATED_DEVICE_ADDRESS != 0u)
1183:.\Generated_Source\PSoC4/BLE_eventHandler.c ****                 cyBle_deviceAddress.bdAddr[0] = CYBLE_SFLASH_DIE_X_REG;
1184:.\Generated_Source\PSoC4/BLE_eventHandler.c ****                 cyBle_deviceAddress.bdAddr[1] = CYBLE_SFLASH_DIE_Y_REG;
1185:.\Generated_Source\PSoC4/BLE_eventHandler.c ****                 cyBle_deviceAddress.bdAddr[2] = CYBLE_SFLASH_DIE_WAFER_REG;
1186:.\Generated_Source\PSoC4/BLE_eventHandler.c ****             #endif /* SILICON_GENERATED_DEVICE_ADDRESS != 0u */
1187:.\Generated_Source\PSoC4/BLE_eventHandler.c ****                 (void) CyBle_SetDeviceAddress(&cyBle_deviceAddress);
 705              		.loc 1 1187 0
 706 0082 8D4B     		ldr	r3, .L69+12
 707 0084 181C     		mov	r0, r3
 708 0086 FFF7FEFF 		bl	CyBle_SetDeviceAddress
 709              	.L56:
1188:.\Generated_Source\PSoC4/BLE_eventHandler.c ****                 #if(CYBLE_GAP_ROLE_PERIPHERAL || CYBLE_GAP_ROLE_BROADCASTER)
1189:.\Generated_Source\PSoC4/BLE_eventHandler.c ****                     CyBle_ChangeAdDeviceAddress(&cyBle_deviceAddress, 0u);
1190:.\Generated_Source\PSoC4/BLE_eventHandler.c ****                     CyBle_ChangeAdDeviceAddress(&cyBle_deviceAddress, 1u);
1191:.\Generated_Source\PSoC4/BLE_eventHandler.c ****                 #endif /* CYBLE_GAP_ROLE_PERIPHERAL || CYBLE_GAP_ROLE_BROADCASTER */    
1192:.\Generated_Source\PSoC4/BLE_eventHandler.c ****             }
1193:.\Generated_Source\PSoC4/BLE_eventHandler.c ****             /* Set device IO Capability  */
1194:.\Generated_Source\PSoC4/BLE_eventHandler.c ****             (void) CyBle_GapSetIoCap(CYBLE_IO_CAPABILITY);    
 710              		.loc 1 1194 0
 711 008a 0320     		mov	r0, #3
 712 008c FFF7FEFF 		bl	CyBle_GapSetIoCap
1195:.\Generated_Source\PSoC4/BLE_eventHandler.c ****         #endif /* CYBLE_GATT_ROLE_SERVER || CYBLE_GATT_ROLE_CLIENT */
1196:.\Generated_Source\PSoC4/BLE_eventHandler.c ****             CyBle_SetState(CYBLE_STATE_DISCONNECTED);
 713              		.loc 1 1196 0
 714 0090 8A4B     		ldr	r3, .L69+16
 715 0092 0522     		mov	r2, #5
 716 0094 1A70     		strb	r2, [r3]
1197:.\Generated_Source\PSoC4/BLE_eventHandler.c ****             break;
 717              		.loc 1 1197 0
 718 0096 EEE0     		b	.L57
 719              	.L35:
1198:.\Generated_Source\PSoC4/BLE_eventHandler.c ****         case CYBLE_EVT_TIMEOUT:
1199:.\Generated_Source\PSoC4/BLE_eventHandler.c ****             CyBle_TimeOutEventHandler((CYBLE_TO_REASON_CODE_T *)eventParam);
 720              		.loc 1 1199 0
 721 0098 3B68     		ldr	r3, [r7]
 722 009a 181C     		mov	r0, r3
 723 009c FFF7FEFF 		bl	CyBle_TimeOutEventHandler
1200:.\Generated_Source\PSoC4/BLE_eventHandler.c ****             break;
 724              		.loc 1 1200 0
 725 00a0 E9E0     		b	.L57
 726              	.L36:
1201:.\Generated_Source\PSoC4/BLE_eventHandler.c ****     	case CYBLE_EVT_STACK_BUSY_STATUS:
ARM GAS  C:\Users\ADMINI~1\AppData\Local\Temp\ccJUBmf3.s 			page 35


1202:.\Generated_Source\PSoC4/BLE_eventHandler.c ****             cyBle_busyStatus = *(uint8 *)eventParam;
 727              		.loc 1 1202 0
 728 00a2 3B68     		ldr	r3, [r7]
 729 00a4 1A78     		ldrb	r2, [r3]
 730 00a6 864B     		ldr	r3, .L69+20
 731 00a8 1A70     		strb	r2, [r3]
1203:.\Generated_Source\PSoC4/BLE_eventHandler.c ****             break;
 732              		.loc 1 1203 0
 733 00aa E4E0     		b	.L57
 734              	.L38:
1204:.\Generated_Source\PSoC4/BLE_eventHandler.c **** 
1205:.\Generated_Source\PSoC4/BLE_eventHandler.c ****         /**********************************************************
1206:.\Generated_Source\PSoC4/BLE_eventHandler.c ****         ##GAP events
1207:.\Generated_Source\PSoC4/BLE_eventHandler.c ****         ***********************************************************/
1208:.\Generated_Source\PSoC4/BLE_eventHandler.c ****         case CYBLE_EVT_GAP_AUTH_REQ:
1209:.\Generated_Source\PSoC4/BLE_eventHandler.c ****         #if(CYBLE_MODE_PROFILE)
1210:.\Generated_Source\PSoC4/BLE_eventHandler.c ****             if(0u == (cyBle_eventHandlerFlag & CYBLE_DISABLE_AUTOMATIC_AUTH))
 735              		.loc 1 1210 0
 736 00ac 7F4B     		ldr	r3, .L69
 737 00ae 1B78     		ldrb	r3, [r3]
 738 00b0 DBB2     		uxtb	r3, r3
 739 00b2 1A1C     		mov	r2, r3
 740 00b4 2023     		mov	r3, #32
 741 00b6 1340     		and	r3, r2
 742 00b8 0ED1     		bne	.L58
1211:.\Generated_Source\PSoC4/BLE_eventHandler.c ****             {
1212:.\Generated_Source\PSoC4/BLE_eventHandler.c ****                 /* If the responding device does not support pairing then the responding 
1213:.\Generated_Source\PSoC4/BLE_eventHandler.c ****                    device shall respond using the Pairing Failed message with the error 
1214:.\Generated_Source\PSoC4/BLE_eventHandler.c ****                    code "Pairing Not Supported" otherwise it responds with a Pairing 
1215:.\Generated_Source\PSoC4/BLE_eventHandler.c ****                    Response message.
1216:.\Generated_Source\PSoC4/BLE_eventHandler.c ****                 */
1217:.\Generated_Source\PSoC4/BLE_eventHandler.c ****                 if(cyBle_authInfo.security == (CYBLE_GAP_SEC_MODE_1 | CYBLE_GAP_SEC_LEVEL_1))
 743              		.loc 1 1217 0
 744 00ba 824B     		ldr	r3, .L69+24
 745 00bc 1B78     		ldrb	r3, [r3]
 746 00be 102B     		cmp	r3, #16
 747 00c0 02D1     		bne	.L59
1218:.\Generated_Source\PSoC4/BLE_eventHandler.c ****                 {
1219:.\Generated_Source\PSoC4/BLE_eventHandler.c ****                     cyBle_authInfo.authErr = CYBLE_GAP_AUTH_ERROR_PAIRING_NOT_SUPPORTED;
 748              		.loc 1 1219 0
 749 00c2 804B     		ldr	r3, .L69+24
 750 00c4 0522     		mov	r2, #5
 751 00c6 DA70     		strb	r2, [r3, #3]
 752              	.L59:
1220:.\Generated_Source\PSoC4/BLE_eventHandler.c ****                 }    
1221:.\Generated_Source\PSoC4/BLE_eventHandler.c ****             #if(CYBLE_GAP_ROLE_PERIPHERAL)
1222:.\Generated_Source\PSoC4/BLE_eventHandler.c ****                 (void)CyBle_GappAuthReqReply(cyBle_connHandle.bdHandle, &cyBle_authInfo);
1223:.\Generated_Source\PSoC4/BLE_eventHandler.c ****             #endif /* CYBLE_GAP_ROLE_PERIPHERAL */
1224:.\Generated_Source\PSoC4/BLE_eventHandler.c ****             #if (CYBLE_GAP_ROLE_CENTRAL)
1225:.\Generated_Source\PSoC4/BLE_eventHandler.c ****                 (void)CyBle_GapAuthReq(cyBle_connHandle.bdHandle, &cyBle_authInfo);
 753              		.loc 1 1225 0
 754 00c8 7F4B     		ldr	r3, .L69+28
 755 00ca 1A78     		ldrb	r2, [r3]
 756 00cc 7D4B     		ldr	r3, .L69+24
 757 00ce 101C     		mov	r0, r2
 758 00d0 191C     		mov	r1, r3
 759 00d2 FFF7FEFF 		bl	CyBle_GapAuthReq
ARM GAS  C:\Users\ADMINI~1\AppData\Local\Temp\ccJUBmf3.s 			page 36


1226:.\Generated_Source\PSoC4/BLE_eventHandler.c ****             #endif /* CYBLE_GAP_ROLE_CENTRAL */
1227:.\Generated_Source\PSoC4/BLE_eventHandler.c ****             }
1228:.\Generated_Source\PSoC4/BLE_eventHandler.c ****         #endif /* CYBLE_MODE_PROFILE */
1229:.\Generated_Source\PSoC4/BLE_eventHandler.c ****             break;
 760              		.loc 1 1229 0
 761 00d6 CEE0     		b	.L57
 762              	.L58:
 763 00d8 CDE0     		b	.L57
 764              	.L41:
1230:.\Generated_Source\PSoC4/BLE_eventHandler.c **** 
1231:.\Generated_Source\PSoC4/BLE_eventHandler.c ****         case CYBLE_EVT_GAP_CONNECTION_UPDATE_COMPLETE:
1232:.\Generated_Source\PSoC4/BLE_eventHandler.c ****             CyBle_GapConnUpdateCompleteEventHandler((const CYBLE_GAP_CONN_PARAM_UPDATED_IN_CONTROLL
 765              		.loc 1 1232 0
 766 00da 3B68     		ldr	r3, [r7]
 767 00dc 181C     		mov	r0, r3
 768 00de FFF7FEFF 		bl	CyBle_GapConnUpdateCompleteEventHandler
1233:.\Generated_Source\PSoC4/BLE_eventHandler.c ****             break;
 769              		.loc 1 1233 0
 770 00e2 C8E0     		b	.L57
 771              	.L39:
1234:.\Generated_Source\PSoC4/BLE_eventHandler.c ****             
1235:.\Generated_Source\PSoC4/BLE_eventHandler.c ****         case CYBLE_EVT_GAP_DEVICE_CONNECTED:
1236:.\Generated_Source\PSoC4/BLE_eventHandler.c ****             CyBle_GapConnUpdateCompleteEventHandler((const CYBLE_GAP_CONN_PARAM_UPDATED_IN_CONTROLL
 772              		.loc 1 1236 0
 773 00e4 3B68     		ldr	r3, [r7]
 774 00e6 181C     		mov	r0, r3
 775 00e8 FFF7FEFF 		bl	CyBle_GapConnUpdateCompleteEventHandler
1237:.\Generated_Source\PSoC4/BLE_eventHandler.c ****             #if(CYBLE_GAP_ROLE_CENTRAL)
1238:.\Generated_Source\PSoC4/BLE_eventHandler.c ****                 if(cyBle_connectingTimeout != 0u)
 776              		.loc 1 1238 0
 777 00ec 774B     		ldr	r3, .L69+32
 778 00ee 1B88     		ldrh	r3, [r3]
 779 00f0 002B     		cmp	r3, #0
 780 00f2 01D0     		beq	.L60
1239:.\Generated_Source\PSoC4/BLE_eventHandler.c ****                 {
1240:.\Generated_Source\PSoC4/BLE_eventHandler.c ****                    (void)CyBle_StopTimer();
 781              		.loc 1 1240 0
 782 00f4 FFF7FEFF 		bl	CyBle_StopTimer
 783              	.L60:
1241:.\Generated_Source\PSoC4/BLE_eventHandler.c ****                 }
1242:.\Generated_Source\PSoC4/BLE_eventHandler.c ****             #endif /* CYBLE_GAP_ROLE_CENTRAL */
1243:.\Generated_Source\PSoC4/BLE_eventHandler.c ****             CyBle_SetState(CYBLE_STATE_CONNECTED);
 784              		.loc 1 1243 0
 785 00f8 704B     		ldr	r3, .L69+16
 786 00fa 0222     		mov	r2, #2
 787 00fc 1A70     		strb	r2, [r3]
1244:.\Generated_Source\PSoC4/BLE_eventHandler.c ****             break;
 788              		.loc 1 1244 0
 789 00fe BAE0     		b	.L57
 790              	.L40:
1245:.\Generated_Source\PSoC4/BLE_eventHandler.c **** 
1246:.\Generated_Source\PSoC4/BLE_eventHandler.c ****         case CYBLE_EVT_GAP_DEVICE_DISCONNECTED:
1247:.\Generated_Source\PSoC4/BLE_eventHandler.c ****             CyBle_SetState(CYBLE_STATE_DISCONNECTED);
 791              		.loc 1 1247 0
 792 0100 6E4B     		ldr	r3, .L69+16
 793 0102 0522     		mov	r2, #5
 794 0104 1A70     		strb	r2, [r3]
ARM GAS  C:\Users\ADMINI~1\AppData\Local\Temp\ccJUBmf3.s 			page 37


1248:.\Generated_Source\PSoC4/BLE_eventHandler.c ****             break;
 795              		.loc 1 1248 0
 796 0106 B6E0     		b	.L57
 797              	.L42:
1249:.\Generated_Source\PSoC4/BLE_eventHandler.c ****         #if(CYBLE_GAP_ROLE_PERIPHERAL || CYBLE_GAP_ROLE_BROADCASTER)
1250:.\Generated_Source\PSoC4/BLE_eventHandler.c ****             
1251:.\Generated_Source\PSoC4/BLE_eventHandler.c ****         case CYBLE_EVT_GAPP_ADVERTISEMENT_START_STOP:
1252:.\Generated_Source\PSoC4/BLE_eventHandler.c ****             #ifdef CYBLE_CPS_SERVER
1253:.\Generated_Source\PSoC4/BLE_eventHandler.c ****                 #if(CYBLE_GAP_ROLE_BROADCASTER)
1254:.\Generated_Source\PSoC4/BLE_eventHandler.c ****                     CyBle_CpssAdvertisementStartStopEventHandler();
1255:.\Generated_Source\PSoC4/BLE_eventHandler.c ****                 #endif /* CYBLE_GAP_ROLE_BROADCASTER */
1256:.\Generated_Source\PSoC4/BLE_eventHandler.c ****             #endif /* CYBLE_CPS_SERVER */
1257:.\Generated_Source\PSoC4/BLE_eventHandler.c ****             
1258:.\Generated_Source\PSoC4/BLE_eventHandler.c ****             if((CYBLE_STATE_CONNECTED != CyBle_GetState()) && ((cyBle_eventHandlerFlag & CYBLE_CALL
1259:.\Generated_Source\PSoC4/BLE_eventHandler.c ****             {
1260:.\Generated_Source\PSoC4/BLE_eventHandler.c ****                 /* After CyBle_GappStartAdvertisement first event indicates that advertising has be
1261:.\Generated_Source\PSoC4/BLE_eventHandler.c ****                 if(0u != (cyBle_eventHandlerFlag & CYBLE_START_FLAG))
1262:.\Generated_Source\PSoC4/BLE_eventHandler.c ****                 {
1263:.\Generated_Source\PSoC4/BLE_eventHandler.c ****                     CyBle_SetState(CYBLE_STATE_ADVERTISING);
1264:.\Generated_Source\PSoC4/BLE_eventHandler.c ****                     cyBle_eventHandlerFlag &= (uint8)~CYBLE_START_FLAG;
1265:.\Generated_Source\PSoC4/BLE_eventHandler.c ****                 }
1266:.\Generated_Source\PSoC4/BLE_eventHandler.c ****                 /* When application initiated stop advertisement */
1267:.\Generated_Source\PSoC4/BLE_eventHandler.c ****                 else if(0u != (cyBle_eventHandlerFlag & CYBLE_STOP_FLAG))
1268:.\Generated_Source\PSoC4/BLE_eventHandler.c ****                 {
1269:.\Generated_Source\PSoC4/BLE_eventHandler.c ****                     CyBle_SetState(CYBLE_STATE_DISCONNECTED);  
1270:.\Generated_Source\PSoC4/BLE_eventHandler.c ****                     cyBle_eventHandlerFlag &= (uint8)~CYBLE_STOP_FLAG;
1271:.\Generated_Source\PSoC4/BLE_eventHandler.c ****                 }
1272:.\Generated_Source\PSoC4/BLE_eventHandler.c ****                 else /* Following event indicates that advertising has been stopped */
1273:.\Generated_Source\PSoC4/BLE_eventHandler.c ****                 {
1274:.\Generated_Source\PSoC4/BLE_eventHandler.c ****                     if(CYBLE_STATE_ADVERTISING == CyBle_GetState())
1275:.\Generated_Source\PSoC4/BLE_eventHandler.c ****                     {
1276:.\Generated_Source\PSoC4/BLE_eventHandler.c ****                         CyBle_SetState(CYBLE_STATE_DISCONNECTED);
1277:.\Generated_Source\PSoC4/BLE_eventHandler.c ****                     #if (CYBLE_SLOW_ADV_ENABLED != 0u)
1278:.\Generated_Source\PSoC4/BLE_eventHandler.c ****                         if(cyBle_advertisingIntervalType == CYBLE_ADVERTISING_FAST)
1279:.\Generated_Source\PSoC4/BLE_eventHandler.c ****                         {
1280:.\Generated_Source\PSoC4/BLE_eventHandler.c ****                             /* When fast advertising time out occur: Start slow advertising */
1281:.\Generated_Source\PSoC4/BLE_eventHandler.c ****                             if(CYBLE_ERROR_OK == CyBle_GappStartAdvertisement(CYBLE_ADVERTISING_SLO
1282:.\Generated_Source\PSoC4/BLE_eventHandler.c ****                             {
1283:.\Generated_Source\PSoC4/BLE_eventHandler.c ****                                 CyBle_SetState(CYBLE_STATE_ADVERTISING);
1284:.\Generated_Source\PSoC4/BLE_eventHandler.c ****                             }
1285:.\Generated_Source\PSoC4/BLE_eventHandler.c ****                         }
1286:.\Generated_Source\PSoC4/BLE_eventHandler.c ****                     #endif /* CYBLE_SLOW_ADV_ENABLED */
1287:.\Generated_Source\PSoC4/BLE_eventHandler.c ****                     }
1288:.\Generated_Source\PSoC4/BLE_eventHandler.c ****                 }
1289:.\Generated_Source\PSoC4/BLE_eventHandler.c ****             }
1290:.\Generated_Source\PSoC4/BLE_eventHandler.c ****             break;
1291:.\Generated_Source\PSoC4/BLE_eventHandler.c ****         #endif /* CYBLE_GAP_ROLE_PERIPHERAL || CYBLE_GAP_ROLE_BROADCASTER */
1292:.\Generated_Source\PSoC4/BLE_eventHandler.c ****         
1293:.\Generated_Source\PSoC4/BLE_eventHandler.c ****         #if(CYBLE_GAP_ROLE_CENTRAL || CYBLE_GAP_ROLE_OBSERVER)    
1294:.\Generated_Source\PSoC4/BLE_eventHandler.c ****         case CYBLE_EVT_GAPC_SCAN_START_STOP:
1295:.\Generated_Source\PSoC4/BLE_eventHandler.c ****             #ifdef CYBLE_CPS_CLIENT
1296:.\Generated_Source\PSoC4/BLE_eventHandler.c ****                 CyBle_CpscScanStartStopEventHandler();
1297:.\Generated_Source\PSoC4/BLE_eventHandler.c ****             #endif /* CYBLE_CPS_CLIENT */
1298:.\Generated_Source\PSoC4/BLE_eventHandler.c ****             
1299:.\Generated_Source\PSoC4/BLE_eventHandler.c ****             if((CYBLE_STATE_CONNECTED != CyBle_GetState()) && ((cyBle_eventHandlerFlag & CYBLE_CALL
 798              		.loc 1 1299 0
 799 0108 6C4B     		ldr	r3, .L69+16
ARM GAS  C:\Users\ADMINI~1\AppData\Local\Temp\ccJUBmf3.s 			page 38


 800 010a 1B78     		ldrb	r3, [r3]
 801 010c 022B     		cmp	r3, #2
 802 010e 41D0     		beq	.L61
 803              		.loc 1 1299 0 is_stmt 0 discriminator 1
 804 0110 664B     		ldr	r3, .L69
 805 0112 1B78     		ldrb	r3, [r3]
 806 0114 DBB2     		uxtb	r3, r3
 807 0116 1A1C     		mov	r2, r3
 808 0118 0123     		mov	r3, #1
 809 011a 1340     		and	r3, r2
 810 011c 3AD0     		beq	.L61
1300:.\Generated_Source\PSoC4/BLE_eventHandler.c ****             {
1301:.\Generated_Source\PSoC4/BLE_eventHandler.c ****                 /* After CyBle_GapcStartScan first event indicates that scanning has been started *
1302:.\Generated_Source\PSoC4/BLE_eventHandler.c ****                 if(0u != (cyBle_eventHandlerFlag & CYBLE_START_FLAG))
 811              		.loc 1 1302 0 is_stmt 1
 812 011e 634B     		ldr	r3, .L69
 813 0120 1B78     		ldrb	r3, [r3]
 814 0122 DBB2     		uxtb	r3, r3
 815 0124 1A1C     		mov	r2, r3
 816 0126 0423     		mov	r3, #4
 817 0128 1340     		and	r3, r2
 818 012a 0BD0     		beq	.L62
1303:.\Generated_Source\PSoC4/BLE_eventHandler.c ****                 {
1304:.\Generated_Source\PSoC4/BLE_eventHandler.c ****                     CyBle_SetState(CYBLE_STATE_SCANNING);
 819              		.loc 1 1304 0
 820 012c 634B     		ldr	r3, .L69+16
 821 012e 0322     		mov	r2, #3
 822 0130 1A70     		strb	r2, [r3]
1305:.\Generated_Source\PSoC4/BLE_eventHandler.c ****                     cyBle_eventHandlerFlag &= (uint8)~CYBLE_START_FLAG;
 823              		.loc 1 1305 0
 824 0132 5E4B     		ldr	r3, .L69
 825 0134 1B78     		ldrb	r3, [r3]
 826 0136 DBB2     		uxtb	r3, r3
 827 0138 0422     		mov	r2, #4
 828 013a 9343     		bic	r3, r2
 829 013c DAB2     		uxtb	r2, r3
 830 013e 5B4B     		ldr	r3, .L69
 831 0140 1A70     		strb	r2, [r3]
 832 0142 27E0     		b	.L61
 833              	.L62:
1306:.\Generated_Source\PSoC4/BLE_eventHandler.c ****                 }
1307:.\Generated_Source\PSoC4/BLE_eventHandler.c ****                 /* When application initiated stop scanning */
1308:.\Generated_Source\PSoC4/BLE_eventHandler.c ****                 else if(0u != (cyBle_eventHandlerFlag & CYBLE_STOP_FLAG))
 834              		.loc 1 1308 0
 835 0144 594B     		ldr	r3, .L69
 836 0146 1B78     		ldrb	r3, [r3]
 837 0148 DBB2     		uxtb	r3, r3
 838 014a 1A1C     		mov	r2, r3
 839 014c 0823     		mov	r3, #8
 840 014e 1340     		and	r3, r2
 841 0150 0BD0     		beq	.L63
1309:.\Generated_Source\PSoC4/BLE_eventHandler.c ****                 {
1310:.\Generated_Source\PSoC4/BLE_eventHandler.c ****                     CyBle_SetState(CYBLE_STATE_DISCONNECTED);  
 842              		.loc 1 1310 0
 843 0152 5A4B     		ldr	r3, .L69+16
 844 0154 0522     		mov	r2, #5
 845 0156 1A70     		strb	r2, [r3]
ARM GAS  C:\Users\ADMINI~1\AppData\Local\Temp\ccJUBmf3.s 			page 39


1311:.\Generated_Source\PSoC4/BLE_eventHandler.c ****                     cyBle_eventHandlerFlag &= (uint8)~CYBLE_STOP_FLAG;
 846              		.loc 1 1311 0
 847 0158 544B     		ldr	r3, .L69
 848 015a 1B78     		ldrb	r3, [r3]
 849 015c DBB2     		uxtb	r3, r3
 850 015e 0822     		mov	r2, #8
 851 0160 9343     		bic	r3, r2
 852 0162 DAB2     		uxtb	r2, r3
 853 0164 514B     		ldr	r3, .L69
 854 0166 1A70     		strb	r2, [r3]
 855 0168 14E0     		b	.L61
 856              	.L63:
1312:.\Generated_Source\PSoC4/BLE_eventHandler.c ****                 }
1313:.\Generated_Source\PSoC4/BLE_eventHandler.c ****                 else /* Following event indicates that scanning has been stopped by stack */
1314:.\Generated_Source\PSoC4/BLE_eventHandler.c ****                 {
1315:.\Generated_Source\PSoC4/BLE_eventHandler.c ****                     if(CYBLE_STATE_SCANNING == CyBle_GetState())
 857              		.loc 1 1315 0
 858 016a 544B     		ldr	r3, .L69+16
 859 016c 1B78     		ldrb	r3, [r3]
 860 016e 032B     		cmp	r3, #3
 861 0170 10D1     		bne	.L61
1316:.\Generated_Source\PSoC4/BLE_eventHandler.c ****                     {
1317:.\Generated_Source\PSoC4/BLE_eventHandler.c ****                         CyBle_SetState(CYBLE_STATE_DISCONNECTED);  
 862              		.loc 1 1317 0
 863 0172 524B     		ldr	r3, .L69+16
 864 0174 0522     		mov	r2, #5
 865 0176 1A70     		strb	r2, [r3]
1318:.\Generated_Source\PSoC4/BLE_eventHandler.c ****                     #if (CYBLE_SLOW_SCAN_ENABLED != 0u)
1319:.\Generated_Source\PSoC4/BLE_eventHandler.c ****                         if(cyBle_scanningIntervalType == CYBLE_SCANNING_FAST)
 866              		.loc 1 1319 0
 867 0178 554B     		ldr	r3, .L69+36
 868 017a 1B78     		ldrb	r3, [r3]
 869 017c 002B     		cmp	r3, #0
 870 017e 09D1     		bne	.L61
1320:.\Generated_Source\PSoC4/BLE_eventHandler.c ****                         {
1321:.\Generated_Source\PSoC4/BLE_eventHandler.c ****                             /* When fast scanning time out occur: Start slow scanning */
1322:.\Generated_Source\PSoC4/BLE_eventHandler.c ****                             if(CYBLE_ERROR_OK == CyBle_GapcStartScan(CYBLE_SCANNING_SLOW))
 871              		.loc 1 1322 0
 872 0180 0120     		mov	r0, #1
 873 0182 FFF7FEFF 		bl	CyBle_GapcStartScan
 874 0186 031C     		mov	r3, r0
 875 0188 002B     		cmp	r3, #0
 876 018a 03D1     		bne	.L61
1323:.\Generated_Source\PSoC4/BLE_eventHandler.c ****                             {
1324:.\Generated_Source\PSoC4/BLE_eventHandler.c ****                                 CyBle_SetState(CYBLE_STATE_SCANNING);
 877              		.loc 1 1324 0
 878 018c 4B4B     		ldr	r3, .L69+16
 879 018e 0322     		mov	r2, #3
 880 0190 1A70     		strb	r2, [r3]
1325:.\Generated_Source\PSoC4/BLE_eventHandler.c ****                             }
1326:.\Generated_Source\PSoC4/BLE_eventHandler.c ****                         }
1327:.\Generated_Source\PSoC4/BLE_eventHandler.c ****                     #endif /* CYBLE_SLOW_ADV_ENABLED */
1328:.\Generated_Source\PSoC4/BLE_eventHandler.c ****                     }
1329:.\Generated_Source\PSoC4/BLE_eventHandler.c ****                 }
1330:.\Generated_Source\PSoC4/BLE_eventHandler.c ****             }
1331:.\Generated_Source\PSoC4/BLE_eventHandler.c ****             break;
 881              		.loc 1 1331 0
ARM GAS  C:\Users\ADMINI~1\AppData\Local\Temp\ccJUBmf3.s 			page 40


 882 0192 70E0     		b	.L57
 883              	.L61:
 884 0194 6FE0     		b	.L57
 885              	.L54:
1332:.\Generated_Source\PSoC4/BLE_eventHandler.c ****         #endif /* CYBLE_GAP_ROLE_CENTRAL || CYBLE_GAP_ROLE_OBSERVER */
1333:.\Generated_Source\PSoC4/BLE_eventHandler.c **** 
1334:.\Generated_Source\PSoC4/BLE_eventHandler.c ****         /**********************************************************
1335:.\Generated_Source\PSoC4/BLE_eventHandler.c ****         ##L2AP events 
1336:.\Generated_Source\PSoC4/BLE_eventHandler.c ****         ***********************************************************/
1337:.\Generated_Source\PSoC4/BLE_eventHandler.c ****         case CYBLE_EVT_L2CAP_CONN_PARAM_UPDATE_RSP:
1338:.\Generated_Source\PSoC4/BLE_eventHandler.c ****             CyBle_L2Cap_ConnParamUpdateRspEventHandler(*(uint16 *)eventParam);
 886              		.loc 1 1338 0
 887 0196 3B68     		ldr	r3, [r7]
 888 0198 1B88     		ldrh	r3, [r3]
 889 019a 181C     		mov	r0, r3
 890 019c FFF7FEFF 		bl	CyBle_L2Cap_ConnParamUpdateRspEventHandler
1339:.\Generated_Source\PSoC4/BLE_eventHandler.c ****             break;
 891              		.loc 1 1339 0
 892 01a0 69E0     		b	.L57
 893              	.L44:
1340:.\Generated_Source\PSoC4/BLE_eventHandler.c ****         
1341:.\Generated_Source\PSoC4/BLE_eventHandler.c ****         /**********************************************************
1342:.\Generated_Source\PSoC4/BLE_eventHandler.c ****         ##GATT events
1343:.\Generated_Source\PSoC4/BLE_eventHandler.c ****         ***********************************************************/        
1344:.\Generated_Source\PSoC4/BLE_eventHandler.c ****         case CYBLE_EVT_GATT_CONNECT_IND:
1345:.\Generated_Source\PSoC4/BLE_eventHandler.c ****             cyBle_connHandle = *(CYBLE_CONN_HANDLE_T *)eventParam;
 894              		.loc 1 1345 0
 895 01a2 494A     		ldr	r2, .L69+28
 896 01a4 3B68     		ldr	r3, [r7]
 897 01a6 111C     		mov	r1, r2
 898 01a8 1A1C     		mov	r2, r3
 899 01aa 0223     		mov	r3, #2
 900 01ac 081C     		mov	r0, r1
 901 01ae 111C     		mov	r1, r2
 902 01b0 1A1C     		mov	r2, r3
 903 01b2 FFF7FEFF 		bl	memcpy
1346:.\Generated_Source\PSoC4/BLE_eventHandler.c ****             
1347:.\Generated_Source\PSoC4/BLE_eventHandler.c ****         #if((CYBLE_GATT_ROLE_SERVER) && (CYBLE_GATT_DB_CCCD_COUNT != 0u))
1348:.\Generated_Source\PSoC4/BLE_eventHandler.c ****             /* Init CCCD values in RAM */
1349:.\Generated_Source\PSoC4/BLE_eventHandler.c ****         	(void) memcpy (cyBle_attValuesCCCD, cyBle_attValuesCCCDFlashMemory[cyBle_connHandle.bdHand
1350:.\Generated_Source\PSoC4/BLE_eventHandler.c ****                             CYBLE_GATT_DB_CCCD_COUNT);
1351:.\Generated_Source\PSoC4/BLE_eventHandler.c ****         #endif /* CYBLE_GATT_ROLE_SERVER */
1352:.\Generated_Source\PSoC4/BLE_eventHandler.c ****         
1353:.\Generated_Source\PSoC4/BLE_eventHandler.c ****         #if (CYBLE_GATT_ROLE_CLIENT)
1354:.\Generated_Source\PSoC4/BLE_eventHandler.c ****             CyBle_SetClientState(CYBLE_CLIENT_STATE_CONNECTED);
 904              		.loc 1 1354 0
 905 01b6 474B     		ldr	r3, .L69+40
 906 01b8 0022     		mov	r2, #0
 907 01ba 1A70     		strb	r2, [r3]
1355:.\Generated_Source\PSoC4/BLE_eventHandler.c ****         #endif /* CYBLE_GATT_ROLE_CLIENT */
1356:.\Generated_Source\PSoC4/BLE_eventHandler.c ****         
1357:.\Generated_Source\PSoC4/BLE_eventHandler.c ****             CyBle_GattConnectReqHandler();
 908              		.loc 1 1357 0
 909 01bc FFF7FEFF 		bl	CyBle_GattConnectReqHandler
1358:.\Generated_Source\PSoC4/BLE_eventHandler.c ****             break;
 910              		.loc 1 1358 0
 911 01c0 59E0     		b	.L57
ARM GAS  C:\Users\ADMINI~1\AppData\Local\Temp\ccJUBmf3.s 			page 41


 912              	.L45:
1359:.\Generated_Source\PSoC4/BLE_eventHandler.c **** 
1360:.\Generated_Source\PSoC4/BLE_eventHandler.c ****         case CYBLE_EVT_GATT_DISCONNECT_IND:
1361:.\Generated_Source\PSoC4/BLE_eventHandler.c ****             CyBle_GattDisconnectEventHandler();
 913              		.loc 1 1361 0
 914 01c2 FFF7FEFF 		bl	CyBle_GattDisconnectEventHandler
1362:.\Generated_Source\PSoC4/BLE_eventHandler.c ****             break;
 915              		.loc 1 1362 0
 916 01c6 56E0     		b	.L57
 917              	.L46:
 918              	.LBB3:
1363:.\Generated_Source\PSoC4/BLE_eventHandler.c **** 
1364:.\Generated_Source\PSoC4/BLE_eventHandler.c ****     #if((CYBLE_GATT_ROLE_SERVER) || (CYBLE_GATT_ROLE_CLIENT))
1365:.\Generated_Source\PSoC4/BLE_eventHandler.c ****         case CYBLE_EVT_GATTS_XCNHG_MTU_REQ:
1366:.\Generated_Source\PSoC4/BLE_eventHandler.c ****             {
1367:.\Generated_Source\PSoC4/BLE_eventHandler.c ****                 uint16 cyBle_mtuSize;
1368:.\Generated_Source\PSoC4/BLE_eventHandler.c ****                 if(CYBLE_GATT_MTU > ((CYBLE_GATT_XCHG_MTU_PARAM_T *)eventParam)->mtu)
 919              		.loc 1 1368 0
 920 01c8 3B68     		ldr	r3, [r7]
 921 01ca 5B88     		ldrh	r3, [r3, #2]
 922 01cc 162B     		cmp	r3, #22
 923 01ce 05D8     		bhi	.L64
1369:.\Generated_Source\PSoC4/BLE_eventHandler.c ****                 {
1370:.\Generated_Source\PSoC4/BLE_eventHandler.c ****                     cyBle_mtuSize = ((CYBLE_GATT_XCHG_MTU_PARAM_T *)eventParam)->mtu;
 924              		.loc 1 1370 0
 925 01d0 3B1C     		mov	r3, r7
 926 01d2 0E33     		add	r3, r3, #14
 927 01d4 3A68     		ldr	r2, [r7]
 928 01d6 5288     		ldrh	r2, [r2, #2]
 929 01d8 1A80     		strh	r2, [r3]
 930 01da 03E0     		b	.L65
 931              	.L64:
1371:.\Generated_Source\PSoC4/BLE_eventHandler.c ****                 }
1372:.\Generated_Source\PSoC4/BLE_eventHandler.c ****                 else
1373:.\Generated_Source\PSoC4/BLE_eventHandler.c ****                 {
1374:.\Generated_Source\PSoC4/BLE_eventHandler.c ****                     cyBle_mtuSize = CYBLE_GATT_MTU;
 932              		.loc 1 1374 0
 933 01dc 3B1C     		mov	r3, r7
 934 01de 0E33     		add	r3, r3, #14
 935 01e0 1722     		mov	r2, #23
 936 01e2 1A80     		strh	r2, [r3]
 937              	.L65:
1375:.\Generated_Source\PSoC4/BLE_eventHandler.c ****                 }
1376:.\Generated_Source\PSoC4/BLE_eventHandler.c ****                 (void)CyBle_GattsExchangeMtuRsp(((CYBLE_GATT_XCHG_MTU_PARAM_T *)eventParam)->connHa
 938              		.loc 1 1376 0
 939 01e4 3B68     		ldr	r3, [r7]
 940 01e6 3A1C     		mov	r2, r7
 941 01e8 0E32     		add	r2, r2, #14
 942 01ea 1288     		ldrh	r2, [r2]
 943 01ec 1988     		ldrh	r1, [r3]
 944 01ee 0023     		mov	r3, #0
 945 01f0 0904     		lsl	r1, r1, #16
 946 01f2 090C     		lsr	r1, r1, #16
 947 01f4 1B0C     		lsr	r3, r3, #16
 948 01f6 1B04     		lsl	r3, r3, #16
 949 01f8 0B43     		orr	r3, r1
 950 01fa 181C     		mov	r0, r3
ARM GAS  C:\Users\ADMINI~1\AppData\Local\Temp\ccJUBmf3.s 			page 42


 951 01fc 111C     		mov	r1, r2
 952 01fe FFF7FEFF 		bl	CyBle_GattsExchangeMtuRsp
 953              	.LBE3:
1377:.\Generated_Source\PSoC4/BLE_eventHandler.c ****             }
1378:.\Generated_Source\PSoC4/BLE_eventHandler.c ****             break;
 954              		.loc 1 1378 0
 955 0202 38E0     		b	.L57
 956              	.L47:
1379:.\Generated_Source\PSoC4/BLE_eventHandler.c ****     #endif /* CYBLE_GATT_ROLE_SERVER || CYBLE_GATT_ROLE_CLIENT */
1380:.\Generated_Source\PSoC4/BLE_eventHandler.c ****     
1381:.\Generated_Source\PSoC4/BLE_eventHandler.c ****     #if (CYBLE_GATT_ROLE_CLIENT)
1382:.\Generated_Source\PSoC4/BLE_eventHandler.c ****         case CYBLE_EVT_GAPC_SCAN_PROGRESS_RESULT:
1383:.\Generated_Source\PSoC4/BLE_eventHandler.c ****         #ifdef CYBLE_CPS_CLIENT
1384:.\Generated_Source\PSoC4/BLE_eventHandler.c ****                 CyBle_CpscScanProcessEventHandler((CYBLE_GAPC_ADV_REPORT_T *)eventParam);
1385:.\Generated_Source\PSoC4/BLE_eventHandler.c ****         #endif /* CYBLE_CPS_CLIENT */
1386:.\Generated_Source\PSoC4/BLE_eventHandler.c ****             break;
1387:.\Generated_Source\PSoC4/BLE_eventHandler.c ****     #endif /* CYBLE_GATT_ROLE_CLIENT */
1388:.\Generated_Source\PSoC4/BLE_eventHandler.c **** 
1389:.\Generated_Source\PSoC4/BLE_eventHandler.c ****     #if(CYBLE_GATT_ROLE_SERVER)
1390:.\Generated_Source\PSoC4/BLE_eventHandler.c ****         case CYBLE_EVT_GATTS_WRITE_REQ:
1391:.\Generated_Source\PSoC4/BLE_eventHandler.c ****             CyBle_WriteReqHandler((CYBLE_GATTS_WRITE_REQ_PARAM_T *)eventParam);
1392:.\Generated_Source\PSoC4/BLE_eventHandler.c ****             break;
1393:.\Generated_Source\PSoC4/BLE_eventHandler.c **** 
1394:.\Generated_Source\PSoC4/BLE_eventHandler.c ****         case CYBLE_EVT_GATTS_WRITE_CMD_REQ:
1395:.\Generated_Source\PSoC4/BLE_eventHandler.c ****         #ifdef CYBLE_IAS_SERVER
1396:.\Generated_Source\PSoC4/BLE_eventHandler.c ****             if((cyBle_eventHandlerFlag & CYBLE_CALLBACK) != 0u)
1397:.\Generated_Source\PSoC4/BLE_eventHandler.c ****             {
1398:.\Generated_Source\PSoC4/BLE_eventHandler.c ****                 (void)CyBle_IassWriteCmdEventHandler((CYBLE_GATTS_WRITE_REQ_PARAM_T *)eventParam);
1399:.\Generated_Source\PSoC4/BLE_eventHandler.c ****             }
1400:.\Generated_Source\PSoC4/BLE_eventHandler.c ****         #endif /* CYBLE_IAS_SERVER */
1401:.\Generated_Source\PSoC4/BLE_eventHandler.c ****         #ifdef CYBLE_HIDS_SERVER
1402:.\Generated_Source\PSoC4/BLE_eventHandler.c ****             if((cyBle_eventHandlerFlag & CYBLE_CALLBACK) != 0u)
1403:.\Generated_Source\PSoC4/BLE_eventHandler.c ****             {
1404:.\Generated_Source\PSoC4/BLE_eventHandler.c ****                 (void)CyBle_HidssWriteEventHandler((CYBLE_GATTS_WRITE_REQ_PARAM_T *)eventParam);
1405:.\Generated_Source\PSoC4/BLE_eventHandler.c ****             }
1406:.\Generated_Source\PSoC4/BLE_eventHandler.c ****         #endif /* CYBLE_HIDS_SERVER */
1407:.\Generated_Source\PSoC4/BLE_eventHandler.c ****         #ifdef CYBLE_PASS_SERVER
1408:.\Generated_Source\PSoC4/BLE_eventHandler.c ****             if((cyBle_eventHandlerFlag & CYBLE_CALLBACK) != 0u)
1409:.\Generated_Source\PSoC4/BLE_eventHandler.c ****             {
1410:.\Generated_Source\PSoC4/BLE_eventHandler.c ****                 (void)CyBle_PasssWriteCmdEventHandler((CYBLE_GATTS_WRITE_REQ_PARAM_T *)eventParam);
1411:.\Generated_Source\PSoC4/BLE_eventHandler.c ****             }
1412:.\Generated_Source\PSoC4/BLE_eventHandler.c ****         #endif /* CYBLE_PASS_SERVER */
1413:.\Generated_Source\PSoC4/BLE_eventHandler.c ****         #ifdef CYBLE_RTUS_SERVER
1414:.\Generated_Source\PSoC4/BLE_eventHandler.c ****             if((cyBle_eventHandlerFlag & CYBLE_CALLBACK) != 0u)
1415:.\Generated_Source\PSoC4/BLE_eventHandler.c ****             {
1416:.\Generated_Source\PSoC4/BLE_eventHandler.c ****                 (void)CyBle_RtussWriteCmdEventHandler((CYBLE_GATTS_WRITE_REQ_PARAM_T *)eventParam);
1417:.\Generated_Source\PSoC4/BLE_eventHandler.c ****             }
1418:.\Generated_Source\PSoC4/BLE_eventHandler.c ****         #endif /* CYBLE_RTUS_SERVER */
1419:.\Generated_Source\PSoC4/BLE_eventHandler.c ****         #ifdef CYBLE_SCPS_SERVER
1420:.\Generated_Source\PSoC4/BLE_eventHandler.c ****             if((cyBle_eventHandlerFlag & CYBLE_CALLBACK) != 0u)
1421:.\Generated_Source\PSoC4/BLE_eventHandler.c ****             {
1422:.\Generated_Source\PSoC4/BLE_eventHandler.c ****                 (void)CyBle_ScpssWriteEventHandler((CYBLE_GATTS_WRITE_REQ_PARAM_T *)eventParam);
1423:.\Generated_Source\PSoC4/BLE_eventHandler.c ****             }
1424:.\Generated_Source\PSoC4/BLE_eventHandler.c ****         #endif /* CYBLE_SCPS_SERVER */
1425:.\Generated_Source\PSoC4/BLE_eventHandler.c ****             break;
1426:.\Generated_Source\PSoC4/BLE_eventHandler.c ****             
1427:.\Generated_Source\PSoC4/BLE_eventHandler.c ****         case CYBLE_EVT_GATTS_HANDLE_VALUE_CNF:
ARM GAS  C:\Users\ADMINI~1\AppData\Local\Temp\ccJUBmf3.s 			page 43


1428:.\Generated_Source\PSoC4/BLE_eventHandler.c ****             CyBle_ValueConfirmation((CYBLE_CONN_HANDLE_T *)eventParam);
1429:.\Generated_Source\PSoC4/BLE_eventHandler.c ****             break;
1430:.\Generated_Source\PSoC4/BLE_eventHandler.c ****             
1431:.\Generated_Source\PSoC4/BLE_eventHandler.c ****     #endif /* CYBLE_GATT_ROLE_SERVER */
1432:.\Generated_Source\PSoC4/BLE_eventHandler.c **** 
1433:.\Generated_Source\PSoC4/BLE_eventHandler.c ****     #if (CYBLE_GATT_ROLE_CLIENT)
1434:.\Generated_Source\PSoC4/BLE_eventHandler.c ****         
1435:.\Generated_Source\PSoC4/BLE_eventHandler.c ****         case CYBLE_EVT_GATTC_READ_BY_GROUP_TYPE_RSP:
1436:.\Generated_Source\PSoC4/BLE_eventHandler.c ****             CyBle_ReadByGroupEventHandler((CYBLE_GATTC_READ_BY_GRP_RSP_PARAM_T *)eventParam);
 957              		.loc 1 1436 0
 958 0204 3B68     		ldr	r3, [r7]
 959 0206 181C     		mov	r0, r3
 960 0208 FFF7FEFF 		bl	CyBle_ReadByGroupEventHandler
1437:.\Generated_Source\PSoC4/BLE_eventHandler.c ****             break;
 961              		.loc 1 1437 0
 962 020c 33E0     		b	.L57
 963              	.L48:
1438:.\Generated_Source\PSoC4/BLE_eventHandler.c **** 
1439:.\Generated_Source\PSoC4/BLE_eventHandler.c ****         case CYBLE_EVT_GATTC_READ_BY_TYPE_RSP:
1440:.\Generated_Source\PSoC4/BLE_eventHandler.c ****             CyBle_ReadByTypeEventHandler((CYBLE_GATTC_READ_BY_TYPE_RSP_PARAM_T *)eventParam);
 964              		.loc 1 1440 0
 965 020e 3B68     		ldr	r3, [r7]
 966 0210 181C     		mov	r0, r3
 967 0212 FFF7FEFF 		bl	CyBle_ReadByTypeEventHandler
1441:.\Generated_Source\PSoC4/BLE_eventHandler.c ****             break;
 968              		.loc 1 1441 0
 969 0216 2EE0     		b	.L57
 970              	.L49:
1442:.\Generated_Source\PSoC4/BLE_eventHandler.c **** 
1443:.\Generated_Source\PSoC4/BLE_eventHandler.c ****         case CYBLE_EVT_GATTC_FIND_INFO_RSP:
1444:.\Generated_Source\PSoC4/BLE_eventHandler.c ****             CyBle_FindInfoEventHandler((CYBLE_GATTC_FIND_INFO_RSP_PARAM_T *)eventParam);
 971              		.loc 1 1444 0
 972 0218 3B68     		ldr	r3, [r7]
 973 021a 181C     		mov	r0, r3
 974 021c FFF7FEFF 		bl	CyBle_FindInfoEventHandler
1445:.\Generated_Source\PSoC4/BLE_eventHandler.c ****             break;
 975              		.loc 1 1445 0
 976 0220 29E0     		b	.L57
 977              	.L43:
1446:.\Generated_Source\PSoC4/BLE_eventHandler.c **** 
1447:.\Generated_Source\PSoC4/BLE_eventHandler.c ****         case CYBLE_EVT_GATTC_ERROR_RSP:
1448:.\Generated_Source\PSoC4/BLE_eventHandler.c ****             CyBle_ErrorResponseEventHandler((CYBLE_GATTC_ERR_RSP_PARAM_T *)eventParam);
 978              		.loc 1 1448 0
 979 0222 3B68     		ldr	r3, [r7]
 980 0224 181C     		mov	r0, r3
 981 0226 FFF7FEFF 		bl	CyBle_ErrorResponseEventHandler
1449:.\Generated_Source\PSoC4/BLE_eventHandler.c ****             break;
 982              		.loc 1 1449 0
 983 022a 24E0     		b	.L57
 984              	.L52:
1450:.\Generated_Source\PSoC4/BLE_eventHandler.c **** 
1451:.\Generated_Source\PSoC4/BLE_eventHandler.c ****         case CYBLE_EVT_GATTC_HANDLE_VALUE_NTF:
1452:.\Generated_Source\PSoC4/BLE_eventHandler.c ****             CyBle_NotificationEventHandler((CYBLE_GATTC_HANDLE_VALUE_NTF_PARAM_T *)eventParam);
 985              		.loc 1 1452 0
 986 022c 3B68     		ldr	r3, [r7]
 987 022e 181C     		mov	r0, r3
 988 0230 FFF7FEFF 		bl	CyBle_NotificationEventHandler
ARM GAS  C:\Users\ADMINI~1\AppData\Local\Temp\ccJUBmf3.s 			page 44


1453:.\Generated_Source\PSoC4/BLE_eventHandler.c ****             break;
 989              		.loc 1 1453 0
 990 0234 1FE0     		b	.L57
 991              	.L53:
1454:.\Generated_Source\PSoC4/BLE_eventHandler.c **** 
1455:.\Generated_Source\PSoC4/BLE_eventHandler.c ****         case CYBLE_EVT_GATTC_HANDLE_VALUE_IND:
1456:.\Generated_Source\PSoC4/BLE_eventHandler.c ****             CyBle_GattcIndicationEventHandler((CYBLE_GATTC_HANDLE_VALUE_IND_PARAM_T *)eventParam);
 992              		.loc 1 1456 0
 993 0236 3B68     		ldr	r3, [r7]
 994 0238 181C     		mov	r0, r3
 995 023a FFF7FEFF 		bl	CyBle_GattcIndicationEventHandler
1457:.\Generated_Source\PSoC4/BLE_eventHandler.c ****             CyBle_IndicationEventHandler((CYBLE_GATTC_HANDLE_VALUE_IND_PARAM_T *)eventParam);
 996              		.loc 1 1457 0
 997 023e 3B68     		ldr	r3, [r7]
 998 0240 181C     		mov	r0, r3
 999 0242 FFF7FEFF 		bl	CyBle_IndicationEventHandler
1458:.\Generated_Source\PSoC4/BLE_eventHandler.c ****         
1459:.\Generated_Source\PSoC4/BLE_eventHandler.c ****             /* Respond with a Handle Value Confirmation when request handled */
1460:.\Generated_Source\PSoC4/BLE_eventHandler.c ****             if((cyBle_eventHandlerFlag & CYBLE_CALLBACK) == 0u)
 1000              		.loc 1 1460 0
 1001 0246 194B     		ldr	r3, .L69
 1002 0248 1B78     		ldrb	r3, [r3]
 1003 024a DBB2     		uxtb	r3, r3
 1004 024c 1A1C     		mov	r2, r3
 1005 024e 0123     		mov	r3, #1
 1006 0250 1340     		and	r3, r2
 1007 0252 04D1     		bne	.L66
1461:.\Generated_Source\PSoC4/BLE_eventHandler.c ****             {
1462:.\Generated_Source\PSoC4/BLE_eventHandler.c ****                 (void)CyBle_GattcConfirmation(((CYBLE_GATTC_HANDLE_VALUE_IND_PARAM_T *)eventParam)-
 1008              		.loc 1 1462 0
 1009 0254 3B68     		ldr	r3, [r7]
 1010 0256 1868     		ldr	r0, [r3]
 1011 0258 FFF7FEFF 		bl	CyBle_GattcConfirmation
1463:.\Generated_Source\PSoC4/BLE_eventHandler.c ****             }
1464:.\Generated_Source\PSoC4/BLE_eventHandler.c ****             break;
 1012              		.loc 1 1464 0
 1013 025c 0BE0     		b	.L57
 1014              	.L66:
 1015 025e 0AE0     		b	.L57
 1016              	.L50:
1465:.\Generated_Source\PSoC4/BLE_eventHandler.c ****         
1466:.\Generated_Source\PSoC4/BLE_eventHandler.c ****         case CYBLE_EVT_GATTC_READ_RSP:
1467:.\Generated_Source\PSoC4/BLE_eventHandler.c ****             CyBle_ReadResponseEventHandler((CYBLE_GATTC_READ_RSP_PARAM_T *)eventParam);
 1017              		.loc 1 1467 0
 1018 0260 3B68     		ldr	r3, [r7]
 1019 0262 181C     		mov	r0, r3
 1020 0264 FFF7FEFF 		bl	CyBle_ReadResponseEventHandler
1468:.\Generated_Source\PSoC4/BLE_eventHandler.c ****             break;
 1021              		.loc 1 1468 0
 1022 0268 05E0     		b	.L57
 1023              	.L51:
1469:.\Generated_Source\PSoC4/BLE_eventHandler.c **** 
1470:.\Generated_Source\PSoC4/BLE_eventHandler.c ****         case CYBLE_EVT_GATTC_WRITE_RSP:
1471:.\Generated_Source\PSoC4/BLE_eventHandler.c ****             CyBle_GattcWriteResponseEventHandler((CYBLE_CONN_HANDLE_T *)eventParam);
 1024              		.loc 1 1471 0
 1025 026a 3B68     		ldr	r3, [r7]
 1026 026c 181C     		mov	r0, r3
ARM GAS  C:\Users\ADMINI~1\AppData\Local\Temp\ccJUBmf3.s 			page 45


 1027 026e FFF7FEFF 		bl	CyBle_GattcWriteResponseEventHandler
1472:.\Generated_Source\PSoC4/BLE_eventHandler.c ****             break;
 1028              		.loc 1 1472 0
 1029 0272 00E0     		b	.L57
 1030              	.L68:
1473:.\Generated_Source\PSoC4/BLE_eventHandler.c ****             
1474:.\Generated_Source\PSoC4/BLE_eventHandler.c ****     #endif /* CYBLE_GATT_ROLE_CLIENT */
1475:.\Generated_Source\PSoC4/BLE_eventHandler.c **** 
1476:.\Generated_Source\PSoC4/BLE_eventHandler.c ****     #if((CYBLE_GAP_ROLE_PERIPHERAL || CYBLE_GAP_ROLE_CENTRAL) && (CYBLE_BONDING_REQUIREMENT == CYBL
1477:.\Generated_Source\PSoC4/BLE_eventHandler.c **** 
1478:.\Generated_Source\PSoC4/BLE_eventHandler.c ****         case CYBLE_EVT_PENDING_FLASH_WRITE:
1479:.\Generated_Source\PSoC4/BLE_eventHandler.c ****             cyBle_pendingFlashWrite |= CYBLE_PENDING_STACK_FLASH_WRITE_BIT;
1480:.\Generated_Source\PSoC4/BLE_eventHandler.c ****             break;
1481:.\Generated_Source\PSoC4/BLE_eventHandler.c ****         
1482:.\Generated_Source\PSoC4/BLE_eventHandler.c ****     #endif  /* (CYBLE_BONDING_REQUIREMENT == CYBLE_BONDING_YES) */
1483:.\Generated_Source\PSoC4/BLE_eventHandler.c ****     
1484:.\Generated_Source\PSoC4/BLE_eventHandler.c ****         default:
1485:.\Generated_Source\PSoC4/BLE_eventHandler.c ****             break;
 1031              		.loc 1 1485 0
 1032 0274 C046     		mov	r8, r8
 1033              	.L57:
1486:.\Generated_Source\PSoC4/BLE_eventHandler.c ****     }
1487:.\Generated_Source\PSoC4/BLE_eventHandler.c **** 
1488:.\Generated_Source\PSoC4/BLE_eventHandler.c ****     if(0u != (cyBle_eventHandlerFlag & (CYBLE_CALLBACK | CYBLE_ENABLE_ALL_EVENTS))) 
 1034              		.loc 1 1488 0
 1035 0276 0D4B     		ldr	r3, .L69
 1036 0278 1B78     		ldrb	r3, [r3]
 1037 027a DBB2     		uxtb	r3, r3
 1038 027c 1A1C     		mov	r2, r3
 1039 027e 1123     		mov	r3, #17
 1040 0280 1340     		and	r3, r2
 1041 0282 0FD0     		beq	.L31
1489:.\Generated_Source\PSoC4/BLE_eventHandler.c ****     {
1490:.\Generated_Source\PSoC4/BLE_eventHandler.c ****         cyBle_eventHandlerFlag &= (uint8)~CYBLE_CALLBACK;
 1042              		.loc 1 1490 0
 1043 0284 094B     		ldr	r3, .L69
 1044 0286 1B78     		ldrb	r3, [r3]
 1045 0288 DBB2     		uxtb	r3, r3
 1046 028a 0122     		mov	r2, #1
 1047 028c 9343     		bic	r3, r2
 1048 028e DAB2     		uxtb	r2, r3
 1049 0290 064B     		ldr	r3, .L69
 1050 0292 1A70     		strb	r2, [r3]
1491:.\Generated_Source\PSoC4/BLE_eventHandler.c ****         CyBle_ApplCallback((uint32)eventCode, eventParam);
 1051              		.loc 1 1491 0
 1052 0294 104B     		ldr	r3, .L69+44
 1053 0296 1B68     		ldr	r3, [r3]
 1054 0298 FA1D     		add	r2, r7, #7
 1055 029a 1178     		ldrb	r1, [r2]
 1056 029c 3A68     		ldr	r2, [r7]
 1057 029e 081C     		mov	r0, r1
 1058 02a0 111C     		mov	r1, r2
 1059 02a2 9847     		blx	r3
 1060              	.L31:
1492:.\Generated_Source\PSoC4/BLE_eventHandler.c ****     }
1493:.\Generated_Source\PSoC4/BLE_eventHandler.c **** 
1494:.\Generated_Source\PSoC4/BLE_eventHandler.c **** }
ARM GAS  C:\Users\ADMINI~1\AppData\Local\Temp\ccJUBmf3.s 			page 46


 1061              		.loc 1 1494 0
 1062 02a4 BD46     		mov	sp, r7
 1063 02a6 04B0     		add	sp, sp, #16
 1064              		@ sp needed
 1065 02a8 80BD     		pop	{r7, pc}
 1066              	.L70:
 1067 02aa C046     		.align	2
 1068              	.L69:
 1069 02ac 00000000 		.word	cyBle_eventHandlerFlag
 1070 02b0 00000000 		.word	.L34
 1071 02b4 00000000 		.word	cyBle_sflashDeviceAddress
 1072 02b8 00000000 		.word	cyBle_deviceAddress
 1073 02bc 00000000 		.word	cyBle_state
 1074 02c0 00000000 		.word	cyBle_busyStatus
 1075 02c4 00000000 		.word	cyBle_authInfo
 1076 02c8 00000000 		.word	cyBle_connHandle
 1077 02cc 00000000 		.word	cyBle_connectingTimeout
 1078 02d0 00000000 		.word	cyBle_scanningIntervalType
 1079 02d4 00000000 		.word	cyBle_clientState
 1080 02d8 00000000 		.word	CyBle_ApplCallback
 1081              		.cfi_endproc
 1082              	.LFE12:
 1083              		.size	CyBle_EventHandler, .-CyBle_EventHandler
 1084              		.section	.text.CyBle_ReadByGroupEventHandler,"ax",%progbits
 1085              		.align	2
 1086              		.global	CyBle_ReadByGroupEventHandler
 1087              		.code	16
 1088              		.thumb_func
 1089              		.type	CyBle_ReadByGroupEventHandler, %function
 1090              	CyBle_ReadByGroupEventHandler:
 1091              	.LFB13:
1495:.\Generated_Source\PSoC4/BLE_eventHandler.c **** 
1496:.\Generated_Source\PSoC4/BLE_eventHandler.c **** 
1497:.\Generated_Source\PSoC4/BLE_eventHandler.c **** #if (CYBLE_GATT_ROLE_CLIENT)
1498:.\Generated_Source\PSoC4/BLE_eventHandler.c **** 
1499:.\Generated_Source\PSoC4/BLE_eventHandler.c **** 
1500:.\Generated_Source\PSoC4/BLE_eventHandler.c **** /****************************************************************************** 
1501:.\Generated_Source\PSoC4/BLE_eventHandler.c **** ##Function Name: CyBle_ReadByGroupEventHandler
1502:.\Generated_Source\PSoC4/BLE_eventHandler.c **** *******************************************************************************
1503:.\Generated_Source\PSoC4/BLE_eventHandler.c **** 
1504:.\Generated_Source\PSoC4/BLE_eventHandler.c **** Summary:
1505:.\Generated_Source\PSoC4/BLE_eventHandler.c ****  Handles the Read By Group Response Event during an automatic server discovery
1506:.\Generated_Source\PSoC4/BLE_eventHandler.c ****  process.
1507:.\Generated_Source\PSoC4/BLE_eventHandler.c **** 
1508:.\Generated_Source\PSoC4/BLE_eventHandler.c **** Parameters:
1509:.\Generated_Source\PSoC4/BLE_eventHandler.c ****  CYBLE_GATT_READ_BY_GRP_RSP_PARAM_T *eventParam:  the event parameters for a Read By Group Response
1510:.\Generated_Source\PSoC4/BLE_eventHandler.c **** 
1511:.\Generated_Source\PSoC4/BLE_eventHandler.c **** Return:
1512:.\Generated_Source\PSoC4/BLE_eventHandler.c ****  None
1513:.\Generated_Source\PSoC4/BLE_eventHandler.c **** 
1514:.\Generated_Source\PSoC4/BLE_eventHandler.c **** ******************************************************************************/
1515:.\Generated_Source\PSoC4/BLE_eventHandler.c **** void CyBle_ReadByGroupEventHandler(CYBLE_GATTC_READ_BY_GRP_RSP_PARAM_T *eventParam)
1516:.\Generated_Source\PSoC4/BLE_eventHandler.c **** {
 1092              		.loc 1 1516 0
 1093              		.cfi_startproc
 1094 0000 80B5     		push	{r7, lr}
 1095              		.cfi_def_cfa_offset 8
ARM GAS  C:\Users\ADMINI~1\AppData\Local\Temp\ccJUBmf3.s 			page 47


 1096              		.cfi_offset 7, -8
 1097              		.cfi_offset 14, -4
 1098 0002 86B0     		sub	sp, sp, #24
 1099              		.cfi_def_cfa_offset 32
 1100 0004 00AF     		add	r7, sp, #0
 1101              		.cfi_def_cfa_register 7
 1102 0006 7860     		str	r0, [r7, #4]
1517:.\Generated_Source\PSoC4/BLE_eventHandler.c ****     uint8 j;
1518:.\Generated_Source\PSoC4/BLE_eventHandler.c ****     uint16 dataLength;
1519:.\Generated_Source\PSoC4/BLE_eventHandler.c ****     uint16 attrLength;
1520:.\Generated_Source\PSoC4/BLE_eventHandler.c ****     uint16 i;
1521:.\Generated_Source\PSoC4/BLE_eventHandler.c ****     CYBLE_DISC_SRVC_INFO_T* discSrvcInfo = NULL;
 1103              		.loc 1 1521 0
 1104 0008 0023     		mov	r3, #0
 1105 000a 3B61     		str	r3, [r7, #16]
1522:.\Generated_Source\PSoC4/BLE_eventHandler.c ****     uint8 flag;
1523:.\Generated_Source\PSoC4/BLE_eventHandler.c ****     if((CYBLE_CLIENT_STATE_SRVC_DISCOVERING == CyBle_GetClientState()) &&
 1106              		.loc 1 1523 0
 1107 000c 754B     		ldr	r3, .L84
 1108 000e 1B78     		ldrb	r3, [r3]
 1109 0010 012B     		cmp	r3, #1
 1110 0012 00D0     		beq	.LCB881
 1111 0014 E2E0     		b	.L71	@long jump
 1112              	.LCB881:
1524:.\Generated_Source\PSoC4/BLE_eventHandler.c ****         (0u != (cyBle_eventHandlerFlag & CYBLE_AUTO_DISCOVERY)))
 1113              		.loc 1 1524 0 discriminator 1
 1114 0016 744B     		ldr	r3, .L84+4
 1115 0018 1B78     		ldrb	r3, [r3]
 1116 001a DBB2     		uxtb	r3, r3
 1117 001c 1A1C     		mov	r2, r3
 1118 001e 0223     		mov	r3, #2
 1119 0020 1340     		and	r3, r2
1523:.\Generated_Source\PSoC4/BLE_eventHandler.c ****     if((CYBLE_CLIENT_STATE_SRVC_DISCOVERING == CyBle_GetClientState()) &&
 1120              		.loc 1 1523 0 discriminator 1
 1121 0022 00D1     		bne	.LCB889
 1122 0024 DAE0     		b	.L71	@long jump
 1123              	.LCB889:
1525:.\Generated_Source\PSoC4/BLE_eventHandler.c ****     {
1526:.\Generated_Source\PSoC4/BLE_eventHandler.c ****         dataLength = eventParam->attrData.length;
 1124              		.loc 1 1526 0
 1125 0026 3B1C     		mov	r3, r7
 1126 0028 0C33     		add	r3, r3, #12
 1127 002a 7A68     		ldr	r2, [r7, #4]
 1128 002c 1289     		ldrh	r2, [r2, #8]
 1129 002e 1A80     		strh	r2, [r3]
1527:.\Generated_Source\PSoC4/BLE_eventHandler.c **** 
1528:.\Generated_Source\PSoC4/BLE_eventHandler.c ****         if((dataLength == CYBLE_DISC_SRVC_INFO_LEN) || (dataLength == CYBLE_DISC_SRVC_INFO_128_LEN)
 1130              		.loc 1 1528 0
 1131 0030 3B1C     		mov	r3, r7
 1132 0032 0C33     		add	r3, r3, #12
 1133 0034 1B88     		ldrh	r3, [r3]
 1134 0036 062B     		cmp	r3, #6
 1135 0038 05D0     		beq	.L73
 1136              		.loc 1 1528 0 is_stmt 0 discriminator 1
 1137 003a 3B1C     		mov	r3, r7
 1138 003c 0C33     		add	r3, r3, #12
 1139 003e 1B88     		ldrh	r3, [r3]
ARM GAS  C:\Users\ADMINI~1\AppData\Local\Temp\ccJUBmf3.s 			page 48


 1140 0040 142B     		cmp	r3, #20
 1141 0042 00D0     		beq	.LCB904
 1142 0044 C3E0     		b	.L74	@long jump
 1143              	.LCB904:
 1144              	.L73:
1529:.\Generated_Source\PSoC4/BLE_eventHandler.c ****         {
1530:.\Generated_Source\PSoC4/BLE_eventHandler.c ****             attrLength = eventParam->attrData.attrLen;
 1145              		.loc 1 1530 0 is_stmt 1
 1146 0046 3B1C     		mov	r3, r7
 1147 0048 0A33     		add	r3, r3, #10
 1148 004a 7A68     		ldr	r2, [r7, #4]
 1149 004c 5289     		ldrh	r2, [r2, #10]
 1150 004e 1A80     		strh	r2, [r3]
1531:.\Generated_Source\PSoC4/BLE_eventHandler.c **** 
1532:.\Generated_Source\PSoC4/BLE_eventHandler.c ****             for(i = 0u; i < attrLength; i += dataLength)
 1151              		.loc 1 1532 0
 1152 0050 3B1C     		mov	r3, r7
 1153 0052 1433     		add	r3, r3, #20
 1154 0054 0022     		mov	r2, #0
 1155 0056 1A80     		strh	r2, [r3]
 1156 0058 85E0     		b	.L75
 1157              	.L82:
1533:.\Generated_Source\PSoC4/BLE_eventHandler.c ****             {
1534:.\Generated_Source\PSoC4/BLE_eventHandler.c ****                 discSrvcInfo = (CYBLE_DISC_SRVC_INFO_T*)(eventParam->attrData.attrValue + i);
 1158              		.loc 1 1534 0
 1159 005a 7B68     		ldr	r3, [r7, #4]
 1160 005c 5A68     		ldr	r2, [r3, #4]
 1161 005e 3B1C     		mov	r3, r7
 1162 0060 1433     		add	r3, r3, #20
 1163 0062 1B88     		ldrh	r3, [r3]
 1164 0064 D318     		add	r3, r2, r3
 1165 0066 3B61     		str	r3, [r7, #16]
1535:.\Generated_Source\PSoC4/BLE_eventHandler.c **** 
1536:.\Generated_Source\PSoC4/BLE_eventHandler.c ****                 if(dataLength == CYBLE_DISC_SRVC_INFO_LEN)
 1166              		.loc 1 1536 0
 1167 0068 3B1C     		mov	r3, r7
 1168 006a 0C33     		add	r3, r3, #12
 1169 006c 1B88     		ldrh	r3, [r3]
 1170 006e 062B     		cmp	r3, #6
 1171 0070 00D0     		beq	.LCB930
 1172 0072 6EE0     		b	.L76	@long jump
 1173              	.LCB930:
1537:.\Generated_Source\PSoC4/BLE_eventHandler.c ****                 {
1538:.\Generated_Source\PSoC4/BLE_eventHandler.c ****                     flag = 0u;
 1174              		.loc 1 1538 0
 1175 0074 3B1C     		mov	r3, r7
 1176 0076 0F33     		add	r3, r3, #15
 1177 0078 0022     		mov	r2, #0
 1178 007a 1A70     		strb	r2, [r3]
1539:.\Generated_Source\PSoC4/BLE_eventHandler.c **** 					for(j = 0u; (j < (uint8) CYBLE_SRVI_COUNT) && (flag == 0u); j++)
 1179              		.loc 1 1539 0
 1180 007c 3B1C     		mov	r3, r7
 1181 007e 1733     		add	r3, r3, #23
 1182 0080 0022     		mov	r2, #0
 1183 0082 1A70     		strb	r2, [r3]
 1184 0084 5BE0     		b	.L77
 1185              	.L81:
ARM GAS  C:\Users\ADMINI~1\AppData\Local\Temp\ccJUBmf3.s 			page 49


1540:.\Generated_Source\PSoC4/BLE_eventHandler.c ****                     {
1541:.\Generated_Source\PSoC4/BLE_eventHandler.c ****                         if(cyBle_serverInfo[j].uuid == discSrvcInfo->uuid)
 1186              		.loc 1 1541 0
 1187 0086 3B1C     		mov	r3, r7
 1188 0088 1733     		add	r3, r3, #23
 1189 008a 1A78     		ldrb	r2, [r3]
 1190 008c 5749     		ldr	r1, .L84+8
 1191 008e 131C     		mov	r3, r2
 1192 0090 5B00     		lsl	r3, r3, #1
 1193 0092 9B18     		add	r3, r3, r2
 1194 0094 5B00     		lsl	r3, r3, #1
 1195 0096 CB18     		add	r3, r1, r3
 1196 0098 9A88     		ldrh	r2, [r3, #4]
 1197 009a 3B69     		ldr	r3, [r7, #16]
 1198 009c 9B88     		ldrh	r3, [r3, #4]
 1199 009e 9A42     		cmp	r2, r3
 1200 00a0 46D1     		bne	.L78
1542:.\Generated_Source\PSoC4/BLE_eventHandler.c ****                         {
1543:.\Generated_Source\PSoC4/BLE_eventHandler.c ****                             if(cyBle_serverInfo[j].range.startHandle == CYBLE_GATT_INVALID_ATTR_HAN
 1201              		.loc 1 1543 0
 1202 00a2 3B1C     		mov	r3, r7
 1203 00a4 1733     		add	r3, r3, #23
 1204 00a6 1A78     		ldrb	r2, [r3]
 1205 00a8 5049     		ldr	r1, .L84+8
 1206 00aa 131C     		mov	r3, r2
 1207 00ac 5B00     		lsl	r3, r3, #1
 1208 00ae 9B18     		add	r3, r3, r2
 1209 00b0 5B00     		lsl	r3, r3, #1
 1210 00b2 5B5A     		ldrh	r3, [r3, r1]
 1211 00b4 002B     		cmp	r3, #0
 1212 00b6 1AD1     		bne	.L79
1544:.\Generated_Source\PSoC4/BLE_eventHandler.c ****                             {
1545:.\Generated_Source\PSoC4/BLE_eventHandler.c ****                                 cyBle_serverInfo[j].range = discSrvcInfo->range;
 1213              		.loc 1 1545 0
 1214 00b8 3B1C     		mov	r3, r7
 1215 00ba 1733     		add	r3, r3, #23
 1216 00bc 1A78     		ldrb	r2, [r3]
 1217 00be 4B49     		ldr	r1, .L84+8
 1218 00c0 131C     		mov	r3, r2
 1219 00c2 5B00     		lsl	r3, r3, #1
 1220 00c4 9B18     		add	r3, r3, r2
 1221 00c6 5B00     		lsl	r3, r3, #1
 1222 00c8 3A69     		ldr	r2, [r7, #16]
 1223 00ca C918     		add	r1, r1, r3
 1224 00cc 0423     		mov	r3, #4
 1225 00ce 081C     		mov	r0, r1
 1226 00d0 111C     		mov	r1, r2
 1227 00d2 1A1C     		mov	r2, r3
 1228 00d4 FFF7FEFF 		bl	memcpy
1546:.\Generated_Source\PSoC4/BLE_eventHandler.c ****                                 cyBle_disCount++;
 1229              		.loc 1 1546 0
 1230 00d8 454B     		ldr	r3, .L84+12
 1231 00da 1B78     		ldrb	r3, [r3]
 1232 00dc 0133     		add	r3, r3, #1
 1233 00de DAB2     		uxtb	r2, r3
 1234 00e0 434B     		ldr	r3, .L84+12
 1235 00e2 1A70     		strb	r2, [r3]
ARM GAS  C:\Users\ADMINI~1\AppData\Local\Temp\ccJUBmf3.s 			page 50


1547:.\Generated_Source\PSoC4/BLE_eventHandler.c ****                                 flag = 1u;
 1236              		.loc 1 1547 0
 1237 00e4 3B1C     		mov	r3, r7
 1238 00e6 0F33     		add	r3, r3, #15
 1239 00e8 0122     		mov	r2, #1
 1240 00ea 1A70     		strb	r2, [r3]
 1241 00ec 20E0     		b	.L78
 1242              	.L79:
1548:.\Generated_Source\PSoC4/BLE_eventHandler.c ****                             }
1549:.\Generated_Source\PSoC4/BLE_eventHandler.c ****                             else    /* Duplication of service */
1550:.\Generated_Source\PSoC4/BLE_eventHandler.c ****                             {
1551:.\Generated_Source\PSoC4/BLE_eventHandler.c ****                                 /* For multiple service support next service has the same uuid */
1552:.\Generated_Source\PSoC4/BLE_eventHandler.c ****                                 if((j >= (CYBLE_SRVI_COUNT - 1u)) || 
 1243              		.loc 1 1552 0
 1244 00ee 3B1C     		mov	r3, r7
 1245 00f0 1733     		add	r3, r3, #23
 1246 00f2 1B78     		ldrb	r3, [r3]
 1247 00f4 002B     		cmp	r3, #0
 1248 00f6 0ED1     		bne	.L80
1553:.\Generated_Source\PSoC4/BLE_eventHandler.c ****                                    (cyBle_serverInfo[j + 1u].uuid != discSrvcInfo->uuid))
 1249              		.loc 1 1553 0 discriminator 1
 1250 00f8 3B1C     		mov	r3, r7
 1251 00fa 1733     		add	r3, r3, #23
 1252 00fc 1B78     		ldrb	r3, [r3]
 1253 00fe 5A1C     		add	r2, r3, #1
 1254 0100 3A49     		ldr	r1, .L84+8
 1255 0102 131C     		mov	r3, r2
 1256 0104 5B00     		lsl	r3, r3, #1
 1257 0106 9B18     		add	r3, r3, r2
 1258 0108 5B00     		lsl	r3, r3, #1
 1259 010a CB18     		add	r3, r1, r3
 1260 010c 9A88     		ldrh	r2, [r3, #4]
 1261 010e 3B69     		ldr	r3, [r7, #16]
 1262 0110 9B88     		ldrh	r3, [r3, #4]
1552:.\Generated_Source\PSoC4/BLE_eventHandler.c ****                                 if((j >= (CYBLE_SRVI_COUNT - 1u)) || 
 1263              		.loc 1 1552 0 discriminator 1
 1264 0112 9A42     		cmp	r2, r3
 1265 0114 0CD0     		beq	.L78
 1266              	.L80:
1554:.\Generated_Source\PSoC4/BLE_eventHandler.c ****                                 {
1555:.\Generated_Source\PSoC4/BLE_eventHandler.c ****                                     CyBle_ApplCallback(CYBLE_EVT_GATTC_SRVC_DUPLICATION, &discSrvcI
 1267              		.loc 1 1555 0
 1268 0116 374B     		ldr	r3, .L84+16
 1269 0118 1B68     		ldr	r3, [r3]
 1270 011a 3A69     		ldr	r2, [r7, #16]
 1271 011c 0432     		add	r2, r2, #4
 1272 011e 0C21     		mov	r1, #12
 1273 0120 FF31     		add	r1, r1, #255
 1274 0122 081C     		mov	r0, r1
 1275 0124 111C     		mov	r1, r2
 1276 0126 9847     		blx	r3
1556:.\Generated_Source\PSoC4/BLE_eventHandler.c ****                                     flag = 1u;
 1277              		.loc 1 1556 0
 1278 0128 3B1C     		mov	r3, r7
 1279 012a 0F33     		add	r3, r3, #15
 1280 012c 0122     		mov	r2, #1
 1281 012e 1A70     		strb	r2, [r3]
ARM GAS  C:\Users\ADMINI~1\AppData\Local\Temp\ccJUBmf3.s 			page 51


 1282              	.L78:
1539:.\Generated_Source\PSoC4/BLE_eventHandler.c **** 					for(j = 0u; (j < (uint8) CYBLE_SRVI_COUNT) && (flag == 0u); j++)
 1283              		.loc 1 1539 0
 1284 0130 3B1C     		mov	r3, r7
 1285 0132 1733     		add	r3, r3, #23
 1286 0134 1A78     		ldrb	r2, [r3]
 1287 0136 3B1C     		mov	r3, r7
 1288 0138 1733     		add	r3, r3, #23
 1289 013a 0132     		add	r2, r2, #1
 1290 013c 1A70     		strb	r2, [r3]
 1291              	.L77:
1539:.\Generated_Source\PSoC4/BLE_eventHandler.c **** 					for(j = 0u; (j < (uint8) CYBLE_SRVI_COUNT) && (flag == 0u); j++)
 1292              		.loc 1 1539 0 is_stmt 0 discriminator 1
 1293 013e 3B1C     		mov	r3, r7
 1294 0140 1733     		add	r3, r3, #23
 1295 0142 1B78     		ldrb	r3, [r3]
 1296 0144 012B     		cmp	r3, #1
 1297 0146 04D8     		bhi	.L76
1539:.\Generated_Source\PSoC4/BLE_eventHandler.c **** 					for(j = 0u; (j < (uint8) CYBLE_SRVI_COUNT) && (flag == 0u); j++)
 1298              		.loc 1 1539 0 discriminator 2
 1299 0148 3B1C     		mov	r3, r7
 1300 014a 0F33     		add	r3, r3, #15
 1301 014c 1B78     		ldrb	r3, [r3]
 1302 014e 002B     		cmp	r3, #0
 1303 0150 99D0     		beq	.L81
 1304              	.L76:
1532:.\Generated_Source\PSoC4/BLE_eventHandler.c ****             for(i = 0u; i < attrLength; i += dataLength)
 1305              		.loc 1 1532 0 is_stmt 1
 1306 0152 3B1C     		mov	r3, r7
 1307 0154 1433     		add	r3, r3, #20
 1308 0156 391C     		mov	r1, r7
 1309 0158 1431     		add	r1, r1, #20
 1310 015a 3A1C     		mov	r2, r7
 1311 015c 0C32     		add	r2, r2, #12
 1312 015e 0988     		ldrh	r1, [r1]
 1313 0160 1288     		ldrh	r2, [r2]
 1314 0162 8A18     		add	r2, r1, r2
 1315 0164 1A80     		strh	r2, [r3]
 1316              	.L75:
1532:.\Generated_Source\PSoC4/BLE_eventHandler.c ****             for(i = 0u; i < attrLength; i += dataLength)
 1317              		.loc 1 1532 0 is_stmt 0 discriminator 1
 1318 0166 3A1C     		mov	r2, r7
 1319 0168 1432     		add	r2, r2, #20
 1320 016a 3B1C     		mov	r3, r7
 1321 016c 0A33     		add	r3, r3, #10
 1322 016e 1288     		ldrh	r2, [r2]
 1323 0170 1B88     		ldrh	r3, [r3]
 1324 0172 9A42     		cmp	r2, r3
 1325 0174 00D2     		bcs	.LCB1072
 1326 0176 70E7     		b	.L82	@long jump
 1327              	.LCB1072:
1557:.\Generated_Source\PSoC4/BLE_eventHandler.c ****                                 }
1558:.\Generated_Source\PSoC4/BLE_eventHandler.c ****                             }
1559:.\Generated_Source\PSoC4/BLE_eventHandler.c ****                         }
1560:.\Generated_Source\PSoC4/BLE_eventHandler.c ****                     }
1561:.\Generated_Source\PSoC4/BLE_eventHandler.c ****                 }
1562:.\Generated_Source\PSoC4/BLE_eventHandler.c ****             }
ARM GAS  C:\Users\ADMINI~1\AppData\Local\Temp\ccJUBmf3.s 			page 52


1563:.\Generated_Source\PSoC4/BLE_eventHandler.c **** 
1564:.\Generated_Source\PSoC4/BLE_eventHandler.c ****             if((discSrvcInfo != NULL) && (discSrvcInfo->range.endHandle == CYBLE_GATT_ATTR_HANDLE_E
 1328              		.loc 1 1564 0 is_stmt 1
 1329 0178 3B69     		ldr	r3, [r7, #16]
 1330 017a 002B     		cmp	r3, #0
 1331 017c 1ED0     		beq	.L83
 1332              		.loc 1 1564 0 is_stmt 0 discriminator 1
 1333 017e 3B69     		ldr	r3, [r7, #16]
 1334 0180 5A88     		ldrh	r2, [r3, #2]
 1335 0182 1D4B     		ldr	r3, .L84+20
 1336 0184 9A42     		cmp	r2, r3
 1337 0186 19D1     		bne	.L83
1565:.\Generated_Source\PSoC4/BLE_eventHandler.c ****             {
1566:.\Generated_Source\PSoC4/BLE_eventHandler.c ****             #if(CYBLE_STACK_MODE_DEBUG)
1567:.\Generated_Source\PSoC4/BLE_eventHandler.c ****                 CyBle_ApplCallback(CYBLE_EVT_GATTC_SRVC_DISCOVERY_COMPLETE, NULL);
1568:.\Generated_Source\PSoC4/BLE_eventHandler.c ****             #endif /* CYBLE_STACK_MODE_DEBUG */   
1569:.\Generated_Source\PSoC4/BLE_eventHandler.c ****                 CyBle_SetClientState(CYBLE_CLIENT_STATE_INCL_DISCOVERING);
 1338              		.loc 1 1569 0 is_stmt 1
 1339 0188 164B     		ldr	r3, .L84
 1340 018a 0222     		mov	r2, #2
 1341 018c 1A70     		strb	r2, [r3]
1570:.\Generated_Source\PSoC4/BLE_eventHandler.c ****                 cyBle_disCount = 0u;
 1342              		.loc 1 1570 0
 1343 018e 184B     		ldr	r3, .L84+12
 1344 0190 0022     		mov	r2, #0
 1345 0192 1A70     		strb	r2, [r3]
1571:.\Generated_Source\PSoC4/BLE_eventHandler.c ****                 if(CYBLE_ERROR_OK != CyBle_NextInclDiscovery())
 1346              		.loc 1 1571 0
 1347 0194 FFF7FEFF 		bl	CyBle_NextInclDiscovery
 1348 0198 031C     		mov	r3, r0
 1349 019a 002B     		cmp	r3, #0
 1350 019c 0ED0     		beq	.L83
1572:.\Generated_Source\PSoC4/BLE_eventHandler.c ****                 {
1573:.\Generated_Source\PSoC4/BLE_eventHandler.c ****                     CyBle_ApplCallback(CYBLE_EVT_GATTC_INCL_DISCOVERY_FAILED, NULL);
 1351              		.loc 1 1573 0
 1352 019e 154B     		ldr	r3, .L84+16
 1353 01a0 1B68     		ldr	r3, [r3]
 1354 01a2 8422     		mov	r2, #132
 1355 01a4 5200     		lsl	r2, r2, #1
 1356 01a6 101C     		mov	r0, r2
 1357 01a8 0021     		mov	r1, #0
 1358 01aa 9847     		blx	r3
1574:.\Generated_Source\PSoC4/BLE_eventHandler.c ****                     cyBle_eventHandlerFlag &= (uint8)~CYBLE_AUTO_DISCOVERY;
 1359              		.loc 1 1574 0
 1360 01ac 0E4B     		ldr	r3, .L84+4
 1361 01ae 1B78     		ldrb	r3, [r3]
 1362 01b0 DBB2     		uxtb	r3, r3
 1363 01b2 0222     		mov	r2, #2
 1364 01b4 9343     		bic	r3, r2
 1365 01b6 DAB2     		uxtb	r2, r3
 1366 01b8 0B4B     		ldr	r3, .L84+4
 1367 01ba 1A70     		strb	r2, [r3]
 1368              	.L83:
1575:.\Generated_Source\PSoC4/BLE_eventHandler.c ****                 }
1576:.\Generated_Source\PSoC4/BLE_eventHandler.c ****             }
1577:.\Generated_Source\PSoC4/BLE_eventHandler.c ****             cyBle_eventHandlerFlag &= (uint8)~CYBLE_CALLBACK;
 1369              		.loc 1 1577 0
ARM GAS  C:\Users\ADMINI~1\AppData\Local\Temp\ccJUBmf3.s 			page 53


 1370 01bc 0A4B     		ldr	r3, .L84+4
 1371 01be 1B78     		ldrb	r3, [r3]
 1372 01c0 DBB2     		uxtb	r3, r3
 1373 01c2 0122     		mov	r2, #1
 1374 01c4 9343     		bic	r3, r2
 1375 01c6 DAB2     		uxtb	r2, r3
 1376 01c8 074B     		ldr	r3, .L84+4
 1377 01ca 1A70     		strb	r2, [r3]
 1378 01cc 06E0     		b	.L71
 1379              	.L74:
1578:.\Generated_Source\PSoC4/BLE_eventHandler.c ****         }
1579:.\Generated_Source\PSoC4/BLE_eventHandler.c ****         else
1580:.\Generated_Source\PSoC4/BLE_eventHandler.c ****         {
1581:.\Generated_Source\PSoC4/BLE_eventHandler.c ****             CyBle_ApplCallback(CYBLE_EVT_GATTC_SRVC_DISCOVERY_FAILED, NULL);
 1380              		.loc 1 1581 0
 1381 01ce 094B     		ldr	r3, .L84+16
 1382 01d0 1B68     		ldr	r3, [r3]
 1383 01d2 0822     		mov	r2, #8
 1384 01d4 FF32     		add	r2, r2, #255
 1385 01d6 101C     		mov	r0, r2
 1386 01d8 0021     		mov	r1, #0
 1387 01da 9847     		blx	r3
 1388              	.L71:
1582:.\Generated_Source\PSoC4/BLE_eventHandler.c ****         }
1583:.\Generated_Source\PSoC4/BLE_eventHandler.c ****     }
1584:.\Generated_Source\PSoC4/BLE_eventHandler.c **** }
 1389              		.loc 1 1584 0
 1390 01dc BD46     		mov	sp, r7
 1391 01de 06B0     		add	sp, sp, #24
 1392              		@ sp needed
 1393 01e0 80BD     		pop	{r7, pc}
 1394              	.L85:
 1395 01e2 C046     		.align	2
 1396              	.L84:
 1397 01e4 00000000 		.word	cyBle_clientState
 1398 01e8 00000000 		.word	cyBle_eventHandlerFlag
 1399 01ec 00000000 		.word	cyBle_serverInfo
 1400 01f0 00000000 		.word	cyBle_disCount
 1401 01f4 00000000 		.word	CyBle_ApplCallback
 1402 01f8 FFFF0000 		.word	65535
 1403              		.cfi_endproc
 1404              	.LFE13:
 1405              		.size	CyBle_ReadByGroupEventHandler, .-CyBle_ReadByGroupEventHandler
 1406              		.section	.text.CyBle_NextInclDiscovery,"ax",%progbits
 1407              		.align	2
 1408              		.global	CyBle_NextInclDiscovery
 1409              		.code	16
 1410              		.thumb_func
 1411              		.type	CyBle_NextInclDiscovery, %function
 1412              	CyBle_NextInclDiscovery:
 1413              	.LFB14:
1585:.\Generated_Source\PSoC4/BLE_eventHandler.c **** 
1586:.\Generated_Source\PSoC4/BLE_eventHandler.c **** 
1587:.\Generated_Source\PSoC4/BLE_eventHandler.c **** /****************************************************************************** 
1588:.\Generated_Source\PSoC4/BLE_eventHandler.c **** ##Function Name: CyBle_NextInclDiscovery
1589:.\Generated_Source\PSoC4/BLE_eventHandler.c **** *******************************************************************************
1590:.\Generated_Source\PSoC4/BLE_eventHandler.c **** 
ARM GAS  C:\Users\ADMINI~1\AppData\Local\Temp\ccJUBmf3.s 			page 54


1591:.\Generated_Source\PSoC4/BLE_eventHandler.c **** Summary:
1592:.\Generated_Source\PSoC4/BLE_eventHandler.c ****  Looks for the included services in the current service (pointed by
1593:.\Generated_Source\PSoC4/BLE_eventHandler.c ****   cyBle_disCount). If the current service handle range is invalid (any of start
1594:.\Generated_Source\PSoC4/BLE_eventHandler.c ****   or end handle is invalid), then increment the cyBle_disCount and check
1595:.\Generated_Source\PSoC4/BLE_eventHandler.c ****   the next service range and does so until a valid range is caught or the end of
1596:.\Generated_Source\PSoC4/BLE_eventHandler.c ****   the service set is reached.
1597:.\Generated_Source\PSoC4/BLE_eventHandler.c **** 
1598:.\Generated_Source\PSoC4/BLE_eventHandler.c **** Parameters:
1599:.\Generated_Source\PSoC4/BLE_eventHandler.c ****  None
1600:.\Generated_Source\PSoC4/BLE_eventHandler.c **** 
1601:.\Generated_Source\PSoC4/BLE_eventHandler.c **** Return:
1602:.\Generated_Source\PSoC4/BLE_eventHandler.c ****  uint16 apiResult - may be either:
1603:.\Generated_Source\PSoC4/BLE_eventHandler.c ****          - CYBLE_DESCR_DISC_DONE when there are no more descriptors.
1604:.\Generated_Source\PSoC4/BLE_eventHandler.c ****          - result of the CyBle_GattcDiscoverAllCharacteristicDescriptors().
1605:.\Generated_Source\PSoC4/BLE_eventHandler.c **** 
1606:.\Generated_Source\PSoC4/BLE_eventHandler.c **** ******************************************************************************/
1607:.\Generated_Source\PSoC4/BLE_eventHandler.c **** CYBLE_API_RESULT_T CyBle_NextInclDiscovery(void)
1608:.\Generated_Source\PSoC4/BLE_eventHandler.c **** {
 1414              		.loc 1 1608 0
 1415              		.cfi_startproc
 1416 0000 90B5     		push	{r4, r7, lr}
 1417              		.cfi_def_cfa_offset 12
 1418              		.cfi_offset 4, -12
 1419              		.cfi_offset 7, -8
 1420              		.cfi_offset 14, -4
 1421 0002 83B0     		sub	sp, sp, #12
 1422              		.cfi_def_cfa_offset 24
 1423 0004 00AF     		add	r7, sp, #0
 1424              		.cfi_def_cfa_register 7
1609:.\Generated_Source\PSoC4/BLE_eventHandler.c ****     CYBLE_API_RESULT_T apiResult;
1610:.\Generated_Source\PSoC4/BLE_eventHandler.c **** 
