ARM GAS  C:\Users\ADMINI~1\AppData\Local\Temp\ccLvs5Ow.s 			page 1


   1              		.cpu cortex-m0
   2              		.fpu softvfp
   3              		.eabi_attribute 20, 1
   4              		.eabi_attribute 21, 1
   5              		.eabi_attribute 23, 3
   6              		.eabi_attribute 24, 1
   7              		.eabi_attribute 25, 1
   8              		.eabi_attribute 26, 1
   9              		.eabi_attribute 30, 6
  10              		.eabi_attribute 34, 0
  11              		.eabi_attribute 18, 4
  12              		.code	16
  13              		.file	"UART_SPI_UART_INT.c"
  14              		.text
  15              	.Ltext0:
  16              		.cfi_sections	.debug_frame
  17              		.section	.text.UART_SPI_UART_ISR,"ax",%progbits
  18              		.align	2
  19              		.global	UART_SPI_UART_ISR
  20              		.code	16
  21              		.thumb_func
  22              		.type	UART_SPI_UART_ISR, %function
  23              	UART_SPI_UART_ISR:
  24              	.LFB2:
  25              		.file 1 ".\\Generated_Source\\PSoC4\\UART_SPI_UART_INT.c"
   1:.\Generated_Source\PSoC4/UART_SPI_UART_INT.c **** /*******************************************************************************
   2:.\Generated_Source\PSoC4/UART_SPI_UART_INT.c **** * File Name: UART_SPI_UART_INT.c
   3:.\Generated_Source\PSoC4/UART_SPI_UART_INT.c **** * Version 2.0
   4:.\Generated_Source\PSoC4/UART_SPI_UART_INT.c **** *
   5:.\Generated_Source\PSoC4/UART_SPI_UART_INT.c **** * Description:
   6:.\Generated_Source\PSoC4/UART_SPI_UART_INT.c **** *  This file provides the source code to the Interrupt Service Routine for
   7:.\Generated_Source\PSoC4/UART_SPI_UART_INT.c **** *  the SCB Component in SPI and UART modes.
   8:.\Generated_Source\PSoC4/UART_SPI_UART_INT.c **** *
   9:.\Generated_Source\PSoC4/UART_SPI_UART_INT.c **** * Note:
  10:.\Generated_Source\PSoC4/UART_SPI_UART_INT.c **** *
  11:.\Generated_Source\PSoC4/UART_SPI_UART_INT.c **** ********************************************************************************
  12:.\Generated_Source\PSoC4/UART_SPI_UART_INT.c **** * Copyright 2013-2014, Cypress Semiconductor Corporation.  All rights reserved.
  13:.\Generated_Source\PSoC4/UART_SPI_UART_INT.c **** * You may use this file only in accordance with the license, terms, conditions,
  14:.\Generated_Source\PSoC4/UART_SPI_UART_INT.c **** * disclaimers, and limitations in the end user license agreement accompanying
  15:.\Generated_Source\PSoC4/UART_SPI_UART_INT.c **** * the software package with which this file was provided.
  16:.\Generated_Source\PSoC4/UART_SPI_UART_INT.c **** *******************************************************************************/
  17:.\Generated_Source\PSoC4/UART_SPI_UART_INT.c **** 
  18:.\Generated_Source\PSoC4/UART_SPI_UART_INT.c **** #include "UART_PVT.h"
  19:.\Generated_Source\PSoC4/UART_SPI_UART_INT.c **** #include "UART_SPI_UART_PVT.h"
  20:.\Generated_Source\PSoC4/UART_SPI_UART_INT.c **** 
  21:.\Generated_Source\PSoC4/UART_SPI_UART_INT.c **** 
  22:.\Generated_Source\PSoC4/UART_SPI_UART_INT.c **** /*******************************************************************************
  23:.\Generated_Source\PSoC4/UART_SPI_UART_INT.c **** * Function Name: UART_SPI_UART_ISR
  24:.\Generated_Source\PSoC4/UART_SPI_UART_INT.c **** ********************************************************************************
  25:.\Generated_Source\PSoC4/UART_SPI_UART_INT.c **** *
  26:.\Generated_Source\PSoC4/UART_SPI_UART_INT.c **** * Summary:
  27:.\Generated_Source\PSoC4/UART_SPI_UART_INT.c **** *  Handles the Interrupt Service Routine for the SCB SPI or UART modes.
  28:.\Generated_Source\PSoC4/UART_SPI_UART_INT.c **** *
  29:.\Generated_Source\PSoC4/UART_SPI_UART_INT.c **** * Parameters:
  30:.\Generated_Source\PSoC4/UART_SPI_UART_INT.c **** *  None
  31:.\Generated_Source\PSoC4/UART_SPI_UART_INT.c **** *
  32:.\Generated_Source\PSoC4/UART_SPI_UART_INT.c **** * Return:
ARM GAS  C:\Users\ADMINI~1\AppData\Local\Temp\ccLvs5Ow.s 			page 2


  33:.\Generated_Source\PSoC4/UART_SPI_UART_INT.c **** *  None
  34:.\Generated_Source\PSoC4/UART_SPI_UART_INT.c **** *
  35:.\Generated_Source\PSoC4/UART_SPI_UART_INT.c **** *******************************************************************************/
  36:.\Generated_Source\PSoC4/UART_SPI_UART_INT.c **** CY_ISR(UART_SPI_UART_ISR)
  37:.\Generated_Source\PSoC4/UART_SPI_UART_INT.c **** {
  26              		.loc 1 37 0
  27              		.cfi_startproc
  28 0000 80B5     		push	{r7, lr}
  29              		.cfi_def_cfa_offset 8
  30              		.cfi_offset 7, -8
  31              		.cfi_offset 14, -4
  32 0002 84B0     		sub	sp, sp, #16
  33              		.cfi_def_cfa_offset 24
  34 0004 00AF     		add	r7, sp, #0
  35              		.cfi_def_cfa_register 7
  38:.\Generated_Source\PSoC4/UART_SPI_UART_INT.c **** #if(UART_INTERNAL_RX_SW_BUFFER_CONST)
  39:.\Generated_Source\PSoC4/UART_SPI_UART_INT.c ****     uint32 locHead;
  40:.\Generated_Source\PSoC4/UART_SPI_UART_INT.c ****     uint32 dataRx;
  41:.\Generated_Source\PSoC4/UART_SPI_UART_INT.c **** #endif /* (UART_INTERNAL_RX_SW_BUFFER_CONST) */
  42:.\Generated_Source\PSoC4/UART_SPI_UART_INT.c **** 
  43:.\Generated_Source\PSoC4/UART_SPI_UART_INT.c **** #if(UART_INTERNAL_TX_SW_BUFFER_CONST)
  44:.\Generated_Source\PSoC4/UART_SPI_UART_INT.c ****     uint32 locTail;
  45:.\Generated_Source\PSoC4/UART_SPI_UART_INT.c **** #endif /* (UART_INTERNAL_TX_SW_BUFFER_CONST) */
  46:.\Generated_Source\PSoC4/UART_SPI_UART_INT.c **** 
  47:.\Generated_Source\PSoC4/UART_SPI_UART_INT.c ****     if(NULL != UART_customIntrHandler)
  36              		.loc 1 47 0
  37 0006 344B     		ldr	r3, .L14
  38 0008 1B68     		ldr	r3, [r3]
  39 000a 002B     		cmp	r3, #0
  40 000c 02D0     		beq	.L2
  48:.\Generated_Source\PSoC4/UART_SPI_UART_INT.c ****     {
  49:.\Generated_Source\PSoC4/UART_SPI_UART_INT.c ****         UART_customIntrHandler();
  41              		.loc 1 49 0
  42 000e 324B     		ldr	r3, .L14
  43 0010 1B68     		ldr	r3, [r3]
  44 0012 9847     		blx	r3
  45              	.L2:
  50:.\Generated_Source\PSoC4/UART_SPI_UART_INT.c ****     }
  51:.\Generated_Source\PSoC4/UART_SPI_UART_INT.c **** 
  52:.\Generated_Source\PSoC4/UART_SPI_UART_INT.c ****     #if(UART_CHECK_SPI_WAKE_ENABLE)
  53:.\Generated_Source\PSoC4/UART_SPI_UART_INT.c ****     {
  54:.\Generated_Source\PSoC4/UART_SPI_UART_INT.c ****         /* Clear SPI wakeup source */
  55:.\Generated_Source\PSoC4/UART_SPI_UART_INT.c ****         UART_ClearSpiExtClkInterruptSource(UART_INTR_SPI_EC_WAKE_UP);
  56:.\Generated_Source\PSoC4/UART_SPI_UART_INT.c ****     }
  57:.\Generated_Source\PSoC4/UART_SPI_UART_INT.c ****     #endif
  58:.\Generated_Source\PSoC4/UART_SPI_UART_INT.c **** 
  59:.\Generated_Source\PSoC4/UART_SPI_UART_INT.c ****     #if(UART_CHECK_RX_SW_BUFFER)
  60:.\Generated_Source\PSoC4/UART_SPI_UART_INT.c ****     {
  61:.\Generated_Source\PSoC4/UART_SPI_UART_INT.c ****         if(UART_CHECK_INTR_RX_MASKED(UART_INTR_RX_NOT_EMPTY))
  46              		.loc 1 61 0
  47 0014 314B     		ldr	r3, .L14+4
  48 0016 1A68     		ldr	r2, [r3]
  49 0018 0423     		mov	r3, #4
  50 001a 1340     		and	r3, r2
  51 001c 27D0     		beq	.L3
  62:.\Generated_Source\PSoC4/UART_SPI_UART_INT.c ****         {
  63:.\Generated_Source\PSoC4/UART_SPI_UART_INT.c ****             while(0u != UART_GET_RX_FIFO_ENTRIES)
ARM GAS  C:\Users\ADMINI~1\AppData\Local\Temp\ccLvs5Ow.s 			page 3


  52              		.loc 1 63 0
  53 001e 1EE0     		b	.L4
  54              	.L7:
  64:.\Generated_Source\PSoC4/UART_SPI_UART_INT.c ****             {
  65:.\Generated_Source\PSoC4/UART_SPI_UART_INT.c ****                 /* Get data from RX FIFO */
  66:.\Generated_Source\PSoC4/UART_SPI_UART_INT.c ****                 dataRx = UART_RX_FIFO_RD_REG;
  55              		.loc 1 66 0
  56 0020 2F4B     		ldr	r3, .L14+8
  57 0022 1B68     		ldr	r3, [r3]
  58 0024 7B60     		str	r3, [r7, #4]
  67:.\Generated_Source\PSoC4/UART_SPI_UART_INT.c **** 
  68:.\Generated_Source\PSoC4/UART_SPI_UART_INT.c ****                 /* Move local head index */
  69:.\Generated_Source\PSoC4/UART_SPI_UART_INT.c ****                 locHead = (UART_rxBufferHead + 1u);
  59              		.loc 1 69 0
  60 0026 2F4B     		ldr	r3, .L14+12
  61 0028 1B68     		ldr	r3, [r3]
  62 002a 0133     		add	r3, r3, #1
  63 002c FB60     		str	r3, [r7, #12]
  70:.\Generated_Source\PSoC4/UART_SPI_UART_INT.c **** 
  71:.\Generated_Source\PSoC4/UART_SPI_UART_INT.c ****                 /* Adjust local head index */
  72:.\Generated_Source\PSoC4/UART_SPI_UART_INT.c ****                 if(UART_RX_BUFFER_SIZE == locHead)
  64              		.loc 1 72 0
  65 002e FA68     		ldr	r2, [r7, #12]
  66 0030 2D4B     		ldr	r3, .L14+16
  67 0032 9A42     		cmp	r2, r3
  68 0034 01D1     		bne	.L5
  73:.\Generated_Source\PSoC4/UART_SPI_UART_INT.c ****                 {
  74:.\Generated_Source\PSoC4/UART_SPI_UART_INT.c ****                     locHead = 0u;
  69              		.loc 1 74 0
  70 0036 0023     		mov	r3, #0
  71 0038 FB60     		str	r3, [r7, #12]
  72              	.L5:
  75:.\Generated_Source\PSoC4/UART_SPI_UART_INT.c ****                 }
  76:.\Generated_Source\PSoC4/UART_SPI_UART_INT.c **** 
  77:.\Generated_Source\PSoC4/UART_SPI_UART_INT.c ****                 if(locHead == UART_rxBufferTail)
  73              		.loc 1 77 0
  74 003a 2C4B     		ldr	r3, .L14+20
  75 003c 1B68     		ldr	r3, [r3]
  76 003e FA68     		ldr	r2, [r7, #12]
  77 0040 9A42     		cmp	r2, r3
  78 0042 03D1     		bne	.L6
  78:.\Generated_Source\PSoC4/UART_SPI_UART_INT.c ****                 {
  79:.\Generated_Source\PSoC4/UART_SPI_UART_INT.c ****                     /* Overflow: through away new data */
  80:.\Generated_Source\PSoC4/UART_SPI_UART_INT.c ****                     UART_rxBufferOverflow = (uint8) UART_INTR_RX_OVERFLOW;
  79              		.loc 1 80 0
  80 0044 2A4B     		ldr	r3, .L14+24
  81 0046 2022     		mov	r2, #32
  82 0048 1A70     		strb	r2, [r3]
  83 004a 08E0     		b	.L4
  84              	.L6:
  81:.\Generated_Source\PSoC4/UART_SPI_UART_INT.c ****                 }
  82:.\Generated_Source\PSoC4/UART_SPI_UART_INT.c ****                 else
  83:.\Generated_Source\PSoC4/UART_SPI_UART_INT.c ****                 {
  84:.\Generated_Source\PSoC4/UART_SPI_UART_INT.c ****                     /* Store received data */
  85:.\Generated_Source\PSoC4/UART_SPI_UART_INT.c ****                     UART_PutWordInRxBuffer(locHead, dataRx);
  85              		.loc 1 85 0
  86 004c 7B68     		ldr	r3, [r7, #4]
ARM GAS  C:\Users\ADMINI~1\AppData\Local\Temp\ccLvs5Ow.s 			page 4


  87 004e DAB2     		uxtb	r2, r3
  88 0050 2849     		ldr	r1, .L14+28
  89 0052 FB68     		ldr	r3, [r7, #12]
  90 0054 CB18     		add	r3, r1, r3
  91 0056 1A70     		strb	r2, [r3]
  86:.\Generated_Source\PSoC4/UART_SPI_UART_INT.c **** 
  87:.\Generated_Source\PSoC4/UART_SPI_UART_INT.c ****                     /* Move head index */
  88:.\Generated_Source\PSoC4/UART_SPI_UART_INT.c ****                     UART_rxBufferHead = locHead;
  92              		.loc 1 88 0
  93 0058 224B     		ldr	r3, .L14+12
  94 005a FA68     		ldr	r2, [r7, #12]
  95 005c 1A60     		str	r2, [r3]
  96              	.L4:
  63:.\Generated_Source\PSoC4/UART_SPI_UART_INT.c ****             while(0u != UART_GET_RX_FIFO_ENTRIES)
  97              		.loc 1 63 0 discriminator 1
  98 005e 264B     		ldr	r3, .L14+32
  99 0060 1A68     		ldr	r2, [r3]
 100 0062 1F23     		mov	r3, #31
 101 0064 1340     		and	r3, r2
 102 0066 DBD1     		bne	.L7
  89:.\Generated_Source\PSoC4/UART_SPI_UART_INT.c ****                 }
  90:.\Generated_Source\PSoC4/UART_SPI_UART_INT.c ****             }
  91:.\Generated_Source\PSoC4/UART_SPI_UART_INT.c **** 
  92:.\Generated_Source\PSoC4/UART_SPI_UART_INT.c ****             UART_ClearRxInterruptSource(UART_INTR_RX_NOT_EMPTY);
 103              		.loc 1 92 0
 104 0068 244B     		ldr	r3, .L14+36
 105 006a 0422     		mov	r2, #4
 106 006c 1A60     		str	r2, [r3]
 107              	.L3:
  93:.\Generated_Source\PSoC4/UART_SPI_UART_INT.c ****         }
  94:.\Generated_Source\PSoC4/UART_SPI_UART_INT.c ****     }
  95:.\Generated_Source\PSoC4/UART_SPI_UART_INT.c ****     #endif
  96:.\Generated_Source\PSoC4/UART_SPI_UART_INT.c **** 
  97:.\Generated_Source\PSoC4/UART_SPI_UART_INT.c **** 
  98:.\Generated_Source\PSoC4/UART_SPI_UART_INT.c ****     #if(UART_CHECK_TX_SW_BUFFER)
  99:.\Generated_Source\PSoC4/UART_SPI_UART_INT.c ****     {
 100:.\Generated_Source\PSoC4/UART_SPI_UART_INT.c ****         if(UART_CHECK_INTR_TX_MASKED(UART_INTR_TX_NOT_FULL))
 108              		.loc 1 100 0
 109 006e 244B     		ldr	r3, .L14+40
 110 0070 1A68     		ldr	r2, [r3]
 111 0072 0223     		mov	r3, #2
 112 0074 1340     		and	r3, r2
 113 0076 2CD0     		beq	.L1
 101:.\Generated_Source\PSoC4/UART_SPI_UART_INT.c ****         {
 102:.\Generated_Source\PSoC4/UART_SPI_UART_INT.c ****             /* Put data into TX FIFO */
 103:.\Generated_Source\PSoC4/UART_SPI_UART_INT.c ****             while(UART_SPI_UART_FIFO_SIZE != UART_GET_TX_FIFO_ENTRIES)
 114              		.loc 1 103 0
 115 0078 22E0     		b	.L9
 116              	.L13:
 104:.\Generated_Source\PSoC4/UART_SPI_UART_INT.c ****             {
 105:.\Generated_Source\PSoC4/UART_SPI_UART_INT.c ****                 /* Check for room in TX software buffer */
 106:.\Generated_Source\PSoC4/UART_SPI_UART_INT.c ****                 if(UART_txBufferHead != UART_txBufferTail)
 117              		.loc 1 106 0
 118 007a 224B     		ldr	r3, .L14+44
 119 007c 1A68     		ldr	r2, [r3]
 120 007e 224B     		ldr	r3, .L14+48
 121 0080 1B68     		ldr	r3, [r3]
ARM GAS  C:\Users\ADMINI~1\AppData\Local\Temp\ccLvs5Ow.s 			page 5


 122 0082 9A42     		cmp	r2, r3
 123 0084 15D0     		beq	.L10
 107:.\Generated_Source\PSoC4/UART_SPI_UART_INT.c ****                 {
 108:.\Generated_Source\PSoC4/UART_SPI_UART_INT.c ****                     /* Move local tail index */
 109:.\Generated_Source\PSoC4/UART_SPI_UART_INT.c ****                     locTail = (UART_txBufferTail + 1u);
 124              		.loc 1 109 0
 125 0086 204B     		ldr	r3, .L14+48
 126 0088 1B68     		ldr	r3, [r3]
 127 008a 0133     		add	r3, r3, #1
 128 008c BB60     		str	r3, [r7, #8]
 110:.\Generated_Source\PSoC4/UART_SPI_UART_INT.c **** 
 111:.\Generated_Source\PSoC4/UART_SPI_UART_INT.c ****                     /* Adjust local tail index */
 112:.\Generated_Source\PSoC4/UART_SPI_UART_INT.c ****                     if(UART_TX_BUFFER_SIZE == locTail)
 129              		.loc 1 112 0
 130 008e BA68     		ldr	r2, [r7, #8]
 131 0090 8023     		mov	r3, #128
 132 0092 DB00     		lsl	r3, r3, #3
 133 0094 9A42     		cmp	r2, r3
 134 0096 01D1     		bne	.L11
 113:.\Generated_Source\PSoC4/UART_SPI_UART_INT.c ****                     {
 114:.\Generated_Source\PSoC4/UART_SPI_UART_INT.c ****                         locTail = 0u;
 135              		.loc 1 114 0
 136 0098 0023     		mov	r3, #0
 137 009a BB60     		str	r3, [r7, #8]
 138              	.L11:
 115:.\Generated_Source\PSoC4/UART_SPI_UART_INT.c ****                     }
 116:.\Generated_Source\PSoC4/UART_SPI_UART_INT.c **** 
 117:.\Generated_Source\PSoC4/UART_SPI_UART_INT.c ****                     /* Put data into TX FIFO */
 118:.\Generated_Source\PSoC4/UART_SPI_UART_INT.c ****                     UART_TX_FIFO_WR_REG = UART_GetWordFromTxBuffer(locTail);
 139              		.loc 1 118 0
 140 009c 1B4B     		ldr	r3, .L14+52
 141 009e 1C49     		ldr	r1, .L14+56
 142 00a0 BA68     		ldr	r2, [r7, #8]
 143 00a2 8A18     		add	r2, r1, r2
 144 00a4 1278     		ldrb	r2, [r2]
 145 00a6 D2B2     		uxtb	r2, r2
 146 00a8 1A60     		str	r2, [r3]
 119:.\Generated_Source\PSoC4/UART_SPI_UART_INT.c **** 
 120:.\Generated_Source\PSoC4/UART_SPI_UART_INT.c ****                     /* Move tail index */
 121:.\Generated_Source\PSoC4/UART_SPI_UART_INT.c ****                     UART_txBufferTail = locTail;
 147              		.loc 1 121 0
 148 00aa 174B     		ldr	r3, .L14+48
 149 00ac BA68     		ldr	r2, [r7, #8]
 150 00ae 1A60     		str	r2, [r3]
 151 00b0 06E0     		b	.L9
 152              	.L10:
 122:.\Generated_Source\PSoC4/UART_SPI_UART_INT.c ****                 }
 123:.\Generated_Source\PSoC4/UART_SPI_UART_INT.c ****                 else
 124:.\Generated_Source\PSoC4/UART_SPI_UART_INT.c ****                 {
 125:.\Generated_Source\PSoC4/UART_SPI_UART_INT.c ****                     /* TX software buffer is empty: complete transfer */
 126:.\Generated_Source\PSoC4/UART_SPI_UART_INT.c ****                     UART_DISABLE_INTR_TX(UART_INTR_TX_NOT_FULL);
 153              		.loc 1 126 0
 154 00b2 184B     		ldr	r3, .L14+60
 155 00b4 174A     		ldr	r2, .L14+60
 156 00b6 1268     		ldr	r2, [r2]
 157 00b8 0221     		mov	r1, #2
 158 00ba 8A43     		bic	r2, r1
ARM GAS  C:\Users\ADMINI~1\AppData\Local\Temp\ccLvs5Ow.s 			page 6


 159 00bc 1A60     		str	r2, [r3]
 127:.\Generated_Source\PSoC4/UART_SPI_UART_INT.c ****                     break;
 160              		.loc 1 127 0
 161 00be 05E0     		b	.L12
 162              	.L9:
 103:.\Generated_Source\PSoC4/UART_SPI_UART_INT.c ****             while(UART_SPI_UART_FIFO_SIZE != UART_GET_TX_FIFO_ENTRIES)
 163              		.loc 1 103 0 discriminator 1
 164 00c0 154B     		ldr	r3, .L14+64
 165 00c2 1A68     		ldr	r2, [r3]
 166 00c4 1F23     		mov	r3, #31
 167 00c6 1340     		and	r3, r2
 168 00c8 082B     		cmp	r3, #8
 169 00ca D6D1     		bne	.L13
 170              	.L12:
 128:.\Generated_Source\PSoC4/UART_SPI_UART_INT.c ****                 }
 129:.\Generated_Source\PSoC4/UART_SPI_UART_INT.c ****             }
 130:.\Generated_Source\PSoC4/UART_SPI_UART_INT.c **** 
 131:.\Generated_Source\PSoC4/UART_SPI_UART_INT.c ****             UART_ClearTxInterruptSource(UART_INTR_TX_NOT_FULL);
 171              		.loc 1 131 0
 172 00cc 134B     		ldr	r3, .L14+68
 173 00ce 0222     		mov	r2, #2
 174 00d0 1A60     		str	r2, [r3]
 175              	.L1:
 132:.\Generated_Source\PSoC4/UART_SPI_UART_INT.c ****         }
 133:.\Generated_Source\PSoC4/UART_SPI_UART_INT.c ****     }
 134:.\Generated_Source\PSoC4/UART_SPI_UART_INT.c ****     #endif
 135:.\Generated_Source\PSoC4/UART_SPI_UART_INT.c **** }
 176              		.loc 1 135 0
 177 00d2 BD46     		mov	sp, r7
 178 00d4 04B0     		add	sp, sp, #16
 179              		@ sp needed
 180 00d6 80BD     		pop	{r7, pc}
 181              	.L15:
 182              		.align	2
 183              	.L14:
 184 00d8 00000000 		.word	UART_customIntrHandler
 185 00dc CC0F2440 		.word	1076105164
 186 00e0 40032440 		.word	1076101952
 187 00e4 00000000 		.word	UART_rxBufferHead
 188 00e8 01040000 		.word	1025
 189 00ec 00000000 		.word	UART_rxBufferTail
 190 00f0 00000000 		.word	UART_rxBufferOverflow
 191 00f4 00000000 		.word	UART_rxBufferInternal
 192 00f8 08032440 		.word	1076101896
 193 00fc C00F2440 		.word	1076105152
 194 0100 8C0F2440 		.word	1076105100
 195 0104 00000000 		.word	UART_txBufferHead
 196 0108 00000000 		.word	UART_txBufferTail
 197 010c 40022440 		.word	1076101696
 198 0110 00000000 		.word	UART_txBufferInternal
 199 0114 880F2440 		.word	1076105096
 200 0118 08022440 		.word	1076101640
 201 011c 800F2440 		.word	1076105088
 202              		.cfi_endproc
 203              	.LFE2:
 204              		.size	UART_SPI_UART_ISR, .-UART_SPI_UART_ISR
 205              		.text
ARM GAS  C:\Users\ADMINI~1\AppData\Local\Temp\ccLvs5Ow.s 			page 7


 206              	.Letext0:
 207              		.file 2 "Generated_Source\\PSoC4/cytypes.h"
 208              		.file 3 ".\\Generated_Source\\PSoC4\\UART_PVT.h"
 209              		.file 4 ".\\Generated_Source\\PSoC4\\UART_SPI_UART_PVT.h"
