ARM GAS  C:\Users\ADMINI~1\AppData\Local\Temp\ccNiCx8y.s 			page 1


   1              		.cpu cortex-m0
   2              		.fpu softvfp
   3              		.eabi_attribute 20, 1
   4              		.eabi_attribute 21, 1
   5              		.eabi_attribute 23, 3
   6              		.eabi_attribute 24, 1
   7              		.eabi_attribute 25, 1
   8              		.eabi_attribute 26, 1
   9              		.eabi_attribute 30, 6
  10              		.eabi_attribute 34, 0
  11              		.eabi_attribute 18, 4
  12              		.code	16
  13              		.file	"UART_SPI_UART.c"
  14              		.text
  15              	.Ltext0:
  16              		.cfi_sections	.debug_frame
  17              		.comm	UART_rxBufferHead,4,4
  18              		.comm	UART_rxBufferTail,4,4
  19              		.comm	UART_rxBufferOverflow,1,1
  20              		.comm	UART_txBufferHead,4,4
  21              		.comm	UART_txBufferTail,4,4
  22              		.comm	UART_rxBufferInternal,1025,4
  23              		.comm	UART_txBufferInternal,1024,4
  24              		.section	.text.UART_SpiUartReadRxData,"ax",%progbits
  25              		.align	2
  26              		.global	UART_SpiUartReadRxData
  27              		.code	16
  28              		.thumb_func
  29              		.type	UART_SpiUartReadRxData, %function
  30              	UART_SpiUartReadRxData:
  31              	.LFB2:
  32              		.file 1 ".\\Generated_Source\\PSoC4\\UART_SPI_UART.c"
   1:.\Generated_Source\PSoC4/UART_SPI_UART.c **** /*******************************************************************************
   2:.\Generated_Source\PSoC4/UART_SPI_UART.c **** * File Name: UART_SPI_UART.c
   3:.\Generated_Source\PSoC4/UART_SPI_UART.c **** * Version 2.0
   4:.\Generated_Source\PSoC4/UART_SPI_UART.c **** *
   5:.\Generated_Source\PSoC4/UART_SPI_UART.c **** * Description:
   6:.\Generated_Source\PSoC4/UART_SPI_UART.c **** *  This file provides the source code to the API for the SCB Component in
   7:.\Generated_Source\PSoC4/UART_SPI_UART.c **** *  SPI and UART modes.
   8:.\Generated_Source\PSoC4/UART_SPI_UART.c **** *
   9:.\Generated_Source\PSoC4/UART_SPI_UART.c **** * Note:
  10:.\Generated_Source\PSoC4/UART_SPI_UART.c **** *
  11:.\Generated_Source\PSoC4/UART_SPI_UART.c **** *******************************************************************************
  12:.\Generated_Source\PSoC4/UART_SPI_UART.c **** * Copyright 2013-2014, Cypress Semiconductor Corporation.  All rights reserved.
  13:.\Generated_Source\PSoC4/UART_SPI_UART.c **** * You may use this file only in accordance with the license, terms, conditions,
  14:.\Generated_Source\PSoC4/UART_SPI_UART.c **** * disclaimers, and limitations in the end user license agreement accompanying
  15:.\Generated_Source\PSoC4/UART_SPI_UART.c **** * the software package with which this file was provided.
  16:.\Generated_Source\PSoC4/UART_SPI_UART.c **** *******************************************************************************/
  17:.\Generated_Source\PSoC4/UART_SPI_UART.c **** 
  18:.\Generated_Source\PSoC4/UART_SPI_UART.c **** #include "UART_PVT.h"
  19:.\Generated_Source\PSoC4/UART_SPI_UART.c **** #include "UART_SPI_UART_PVT.h"
  20:.\Generated_Source\PSoC4/UART_SPI_UART.c **** 
  21:.\Generated_Source\PSoC4/UART_SPI_UART.c **** /***************************************
  22:.\Generated_Source\PSoC4/UART_SPI_UART.c **** *        SPI/UART Private Vars
  23:.\Generated_Source\PSoC4/UART_SPI_UART.c **** ***************************************/
  24:.\Generated_Source\PSoC4/UART_SPI_UART.c **** 
  25:.\Generated_Source\PSoC4/UART_SPI_UART.c **** #if(UART_INTERNAL_RX_SW_BUFFER_CONST)
ARM GAS  C:\Users\ADMINI~1\AppData\Local\Temp\ccNiCx8y.s 			page 2


  26:.\Generated_Source\PSoC4/UART_SPI_UART.c ****     volatile uint32 UART_rxBufferHead;
  27:.\Generated_Source\PSoC4/UART_SPI_UART.c ****     volatile uint32 UART_rxBufferTail;
  28:.\Generated_Source\PSoC4/UART_SPI_UART.c ****     volatile uint8  UART_rxBufferOverflow;
  29:.\Generated_Source\PSoC4/UART_SPI_UART.c **** #endif /* (UART_INTERNAL_RX_SW_BUFFER_CONST) */
  30:.\Generated_Source\PSoC4/UART_SPI_UART.c **** 
  31:.\Generated_Source\PSoC4/UART_SPI_UART.c **** #if(UART_INTERNAL_TX_SW_BUFFER_CONST)
  32:.\Generated_Source\PSoC4/UART_SPI_UART.c ****     volatile uint32 UART_txBufferHead;
  33:.\Generated_Source\PSoC4/UART_SPI_UART.c ****     volatile uint32 UART_txBufferTail;
  34:.\Generated_Source\PSoC4/UART_SPI_UART.c **** #endif /* (UART_INTERNAL_TX_SW_BUFFER_CONST) */
  35:.\Generated_Source\PSoC4/UART_SPI_UART.c **** 
  36:.\Generated_Source\PSoC4/UART_SPI_UART.c **** #if(UART_INTERNAL_RX_SW_BUFFER)
  37:.\Generated_Source\PSoC4/UART_SPI_UART.c ****     /* Add one element to the buffer to receive full packet. One byte in receive buffer is always e
  38:.\Generated_Source\PSoC4/UART_SPI_UART.c ****     volatile uint8 UART_rxBufferInternal[UART_RX_BUFFER_SIZE];
  39:.\Generated_Source\PSoC4/UART_SPI_UART.c **** #endif /* (UART_INTERNAL_RX_SW_BUFFER) */
  40:.\Generated_Source\PSoC4/UART_SPI_UART.c **** 
  41:.\Generated_Source\PSoC4/UART_SPI_UART.c **** #if(UART_INTERNAL_TX_SW_BUFFER)
  42:.\Generated_Source\PSoC4/UART_SPI_UART.c ****     volatile uint8 UART_txBufferInternal[UART_TX_BUFFER_SIZE];
  43:.\Generated_Source\PSoC4/UART_SPI_UART.c **** #endif /* (UART_INTERNAL_TX_SW_BUFFER) */
  44:.\Generated_Source\PSoC4/UART_SPI_UART.c **** 
  45:.\Generated_Source\PSoC4/UART_SPI_UART.c **** 
  46:.\Generated_Source\PSoC4/UART_SPI_UART.c **** #if(UART_RX_DIRECTION)
  47:.\Generated_Source\PSoC4/UART_SPI_UART.c **** 
  48:.\Generated_Source\PSoC4/UART_SPI_UART.c ****     /*******************************************************************************
  49:.\Generated_Source\PSoC4/UART_SPI_UART.c ****     * Function Name: UART_SpiUartReadRxData
  50:.\Generated_Source\PSoC4/UART_SPI_UART.c ****     ********************************************************************************
  51:.\Generated_Source\PSoC4/UART_SPI_UART.c ****     *
  52:.\Generated_Source\PSoC4/UART_SPI_UART.c ****     * Summary:
  53:.\Generated_Source\PSoC4/UART_SPI_UART.c ****     *  Retrieves the next data element from the receive buffer.
  54:.\Generated_Source\PSoC4/UART_SPI_UART.c ****     *   - RX software buffer is disabled: Returns data element retrieved from
  55:.\Generated_Source\PSoC4/UART_SPI_UART.c ****     *     RX FIFO. Undefined data will be returned if the RX FIFO is empty.
  56:.\Generated_Source\PSoC4/UART_SPI_UART.c ****     *   - RX software buffer is enabled: Returns data element from the software
  57:.\Generated_Source\PSoC4/UART_SPI_UART.c ****     *     receive buffer. Zero value is returned if the software receive buffer
  58:.\Generated_Source\PSoC4/UART_SPI_UART.c ****     *     is empty.
  59:.\Generated_Source\PSoC4/UART_SPI_UART.c ****     *
  60:.\Generated_Source\PSoC4/UART_SPI_UART.c ****     * Parameters:
  61:.\Generated_Source\PSoC4/UART_SPI_UART.c ****     *  None
  62:.\Generated_Source\PSoC4/UART_SPI_UART.c ****     *
  63:.\Generated_Source\PSoC4/UART_SPI_UART.c ****     * Return:
  64:.\Generated_Source\PSoC4/UART_SPI_UART.c ****     *  Next data element from the receive buffer.
  65:.\Generated_Source\PSoC4/UART_SPI_UART.c ****     *
  66:.\Generated_Source\PSoC4/UART_SPI_UART.c ****     * Global Variables:
  67:.\Generated_Source\PSoC4/UART_SPI_UART.c ****     *  Look into UART_SpiInit for description.
  68:.\Generated_Source\PSoC4/UART_SPI_UART.c ****     *
  69:.\Generated_Source\PSoC4/UART_SPI_UART.c ****     *******************************************************************************/
  70:.\Generated_Source\PSoC4/UART_SPI_UART.c ****     uint32 UART_SpiUartReadRxData(void)
  71:.\Generated_Source\PSoC4/UART_SPI_UART.c ****     {
  33              		.loc 1 71 0
  34              		.cfi_startproc
  35 0000 80B5     		push	{r7, lr}
  36              		.cfi_def_cfa_offset 8
  37              		.cfi_offset 7, -8
  38              		.cfi_offset 14, -4
  39 0002 82B0     		sub	sp, sp, #8
  40              		.cfi_def_cfa_offset 16
  41 0004 00AF     		add	r7, sp, #0
  42              		.cfi_def_cfa_register 7
  72:.\Generated_Source\PSoC4/UART_SPI_UART.c ****         uint32 rxData = 0u;
ARM GAS  C:\Users\ADMINI~1\AppData\Local\Temp\ccNiCx8y.s 			page 3


  43              		.loc 1 72 0
  44 0006 0023     		mov	r3, #0
  45 0008 7B60     		str	r3, [r7, #4]
  73:.\Generated_Source\PSoC4/UART_SPI_UART.c **** 
  74:.\Generated_Source\PSoC4/UART_SPI_UART.c ****         #if(UART_INTERNAL_RX_SW_BUFFER_CONST)
  75:.\Generated_Source\PSoC4/UART_SPI_UART.c ****             uint32 locTail;
  76:.\Generated_Source\PSoC4/UART_SPI_UART.c ****         #endif /* (UART_INTERNAL_RX_SW_BUFFER_CONST) */
  77:.\Generated_Source\PSoC4/UART_SPI_UART.c **** 
  78:.\Generated_Source\PSoC4/UART_SPI_UART.c ****         #if(UART_CHECK_RX_SW_BUFFER)
  79:.\Generated_Source\PSoC4/UART_SPI_UART.c ****         {
  80:.\Generated_Source\PSoC4/UART_SPI_UART.c ****             if(UART_rxBufferHead != UART_rxBufferTail)
  46              		.loc 1 80 0
  47 000a 0F4B     		ldr	r3, .L5
  48 000c 1A68     		ldr	r2, [r3]
  49 000e 0F4B     		ldr	r3, .L5+4
  50 0010 1B68     		ldr	r3, [r3]
  51 0012 9A42     		cmp	r2, r3
  52 0014 12D0     		beq	.L2
  81:.\Generated_Source\PSoC4/UART_SPI_UART.c ****             {
  82:.\Generated_Source\PSoC4/UART_SPI_UART.c ****                 /* There is data in RX software buffer */
  83:.\Generated_Source\PSoC4/UART_SPI_UART.c **** 
  84:.\Generated_Source\PSoC4/UART_SPI_UART.c ****                 /* Calculate index to read from */
  85:.\Generated_Source\PSoC4/UART_SPI_UART.c ****                 locTail = (UART_rxBufferTail + 1u);
  53              		.loc 1 85 0
  54 0016 0D4B     		ldr	r3, .L5+4
  55 0018 1B68     		ldr	r3, [r3]
  56 001a 0133     		add	r3, r3, #1
  57 001c 3B60     		str	r3, [r7]
  86:.\Generated_Source\PSoC4/UART_SPI_UART.c **** 
  87:.\Generated_Source\PSoC4/UART_SPI_UART.c ****                 if(UART_RX_BUFFER_SIZE == locTail)
  58              		.loc 1 87 0
  59 001e 3B68     		ldr	r3, [r7]
  60 0020 0B4A     		ldr	r2, .L5+8
  61 0022 9342     		cmp	r3, r2
  62 0024 01D1     		bne	.L3
  88:.\Generated_Source\PSoC4/UART_SPI_UART.c ****                 {
  89:.\Generated_Source\PSoC4/UART_SPI_UART.c ****                     locTail = 0u;
  63              		.loc 1 89 0
  64 0026 0023     		mov	r3, #0
  65 0028 3B60     		str	r3, [r7]
  66              	.L3:
  90:.\Generated_Source\PSoC4/UART_SPI_UART.c ****                 }
  91:.\Generated_Source\PSoC4/UART_SPI_UART.c **** 
  92:.\Generated_Source\PSoC4/UART_SPI_UART.c ****                 /* Get data from RX software buffer */
  93:.\Generated_Source\PSoC4/UART_SPI_UART.c ****                 rxData = UART_GetWordFromRxBuffer(locTail);
  67              		.loc 1 93 0
  68 002a 0A4A     		ldr	r2, .L5+12
  69 002c 3B68     		ldr	r3, [r7]
  70 002e D318     		add	r3, r2, r3
  71 0030 1B78     		ldrb	r3, [r3]
  72 0032 DBB2     		uxtb	r3, r3
  73 0034 7B60     		str	r3, [r7, #4]
  94:.\Generated_Source\PSoC4/UART_SPI_UART.c **** 
  95:.\Generated_Source\PSoC4/UART_SPI_UART.c ****                 /* Change index in the buffer */
  96:.\Generated_Source\PSoC4/UART_SPI_UART.c ****                 UART_rxBufferTail = locTail;
  74              		.loc 1 96 0
  75 0036 054B     		ldr	r3, .L5+4
ARM GAS  C:\Users\ADMINI~1\AppData\Local\Temp\ccNiCx8y.s 			page 4


  76 0038 3A68     		ldr	r2, [r7]
  77 003a 1A60     		str	r2, [r3]
  78              	.L2:
  97:.\Generated_Source\PSoC4/UART_SPI_UART.c ****             }
  98:.\Generated_Source\PSoC4/UART_SPI_UART.c ****         }
  99:.\Generated_Source\PSoC4/UART_SPI_UART.c ****         #else
 100:.\Generated_Source\PSoC4/UART_SPI_UART.c ****         {
 101:.\Generated_Source\PSoC4/UART_SPI_UART.c ****             rxData = UART_RX_FIFO_RD_REG; /* Read data from RX FIFO */
 102:.\Generated_Source\PSoC4/UART_SPI_UART.c ****         }
 103:.\Generated_Source\PSoC4/UART_SPI_UART.c ****         #endif
 104:.\Generated_Source\PSoC4/UART_SPI_UART.c **** 
 105:.\Generated_Source\PSoC4/UART_SPI_UART.c ****         return(rxData);
  79              		.loc 1 105 0
  80 003c 7B68     		ldr	r3, [r7, #4]
 106:.\Generated_Source\PSoC4/UART_SPI_UART.c ****     }
  81              		.loc 1 106 0
  82 003e 181C     		mov	r0, r3
  83 0040 BD46     		mov	sp, r7
  84 0042 02B0     		add	sp, sp, #8
  85              		@ sp needed
  86 0044 80BD     		pop	{r7, pc}
  87              	.L6:
  88 0046 C046     		.align	2
  89              	.L5:
  90 0048 00000000 		.word	UART_rxBufferHead
  91 004c 00000000 		.word	UART_rxBufferTail
  92 0050 01040000 		.word	1025
  93 0054 00000000 		.word	UART_rxBufferInternal
  94              		.cfi_endproc
  95              	.LFE2:
  96              		.size	UART_SpiUartReadRxData, .-UART_SpiUartReadRxData
  97              		.section	.text.UART_SpiUartGetRxBufferSize,"ax",%progbits
  98              		.align	2
  99              		.global	UART_SpiUartGetRxBufferSize
 100              		.code	16
 101              		.thumb_func
 102              		.type	UART_SpiUartGetRxBufferSize, %function
 103              	UART_SpiUartGetRxBufferSize:
 104              	.LFB3:
 107:.\Generated_Source\PSoC4/UART_SPI_UART.c **** 
 108:.\Generated_Source\PSoC4/UART_SPI_UART.c **** 
 109:.\Generated_Source\PSoC4/UART_SPI_UART.c ****     /*******************************************************************************
 110:.\Generated_Source\PSoC4/UART_SPI_UART.c ****     * Function Name: UART_SpiUartGetRxBufferSize
 111:.\Generated_Source\PSoC4/UART_SPI_UART.c ****     ********************************************************************************
 112:.\Generated_Source\PSoC4/UART_SPI_UART.c ****     *
 113:.\Generated_Source\PSoC4/UART_SPI_UART.c ****     * Summary:
 114:.\Generated_Source\PSoC4/UART_SPI_UART.c ****     *  Returns the number of received data elements in the receive buffer.
 115:.\Generated_Source\PSoC4/UART_SPI_UART.c ****     *   - RX software buffer disabled: returns the number of used entries in
 116:.\Generated_Source\PSoC4/UART_SPI_UART.c ****     *     RX FIFO.
 117:.\Generated_Source\PSoC4/UART_SPI_UART.c ****     *   - RX software buffer enabled: returns the number of elements which were
 118:.\Generated_Source\PSoC4/UART_SPI_UART.c ****     *     placed in the receive buffer. This does not include the hardware RX FIFO.
 119:.\Generated_Source\PSoC4/UART_SPI_UART.c ****     *
 120:.\Generated_Source\PSoC4/UART_SPI_UART.c ****     * Parameters:
 121:.\Generated_Source\PSoC4/UART_SPI_UART.c ****     *  None
 122:.\Generated_Source\PSoC4/UART_SPI_UART.c ****     *
 123:.\Generated_Source\PSoC4/UART_SPI_UART.c ****     * Return:
 124:.\Generated_Source\PSoC4/UART_SPI_UART.c ****     *  Number of received data elements
ARM GAS  C:\Users\ADMINI~1\AppData\Local\Temp\ccNiCx8y.s 			page 5


 125:.\Generated_Source\PSoC4/UART_SPI_UART.c ****     *
 126:.\Generated_Source\PSoC4/UART_SPI_UART.c ****     *******************************************************************************/
 127:.\Generated_Source\PSoC4/UART_SPI_UART.c ****     uint32 UART_SpiUartGetRxBufferSize(void)
 128:.\Generated_Source\PSoC4/UART_SPI_UART.c ****     {
 105              		.loc 1 128 0
 106              		.cfi_startproc
 107 0000 80B5     		push	{r7, lr}
 108              		.cfi_def_cfa_offset 8
 109              		.cfi_offset 7, -8
 110              		.cfi_offset 14, -4
 111 0002 82B0     		sub	sp, sp, #8
 112              		.cfi_def_cfa_offset 16
 113 0004 00AF     		add	r7, sp, #0
 114              		.cfi_def_cfa_register 7
 129:.\Generated_Source\PSoC4/UART_SPI_UART.c ****         uint32 size;
 130:.\Generated_Source\PSoC4/UART_SPI_UART.c ****         #if(UART_INTERNAL_RX_SW_BUFFER_CONST)
 131:.\Generated_Source\PSoC4/UART_SPI_UART.c ****             uint32 locHead;
 132:.\Generated_Source\PSoC4/UART_SPI_UART.c ****         #endif /* (UART_INTERNAL_RX_SW_BUFFER_CONST) */
 133:.\Generated_Source\PSoC4/UART_SPI_UART.c **** 
 134:.\Generated_Source\PSoC4/UART_SPI_UART.c ****         #if(UART_CHECK_RX_SW_BUFFER)
 135:.\Generated_Source\PSoC4/UART_SPI_UART.c ****         {
 136:.\Generated_Source\PSoC4/UART_SPI_UART.c ****             locHead = UART_rxBufferHead;
 115              		.loc 1 136 0
 116 0006 0D4B     		ldr	r3, .L11
 117 0008 1B68     		ldr	r3, [r3]
 118 000a 3B60     		str	r3, [r7]
 137:.\Generated_Source\PSoC4/UART_SPI_UART.c **** 
 138:.\Generated_Source\PSoC4/UART_SPI_UART.c ****             if(locHead >= UART_rxBufferTail)
 119              		.loc 1 138 0
 120 000c 0C4B     		ldr	r3, .L11+4
 121 000e 1B68     		ldr	r3, [r3]
 122 0010 3A68     		ldr	r2, [r7]
 123 0012 9A42     		cmp	r2, r3
 124 0014 05D3     		bcc	.L8
 139:.\Generated_Source\PSoC4/UART_SPI_UART.c ****             {
 140:.\Generated_Source\PSoC4/UART_SPI_UART.c ****                 size = (locHead - UART_rxBufferTail);
 125              		.loc 1 140 0
 126 0016 0A4B     		ldr	r3, .L11+4
 127 0018 1B68     		ldr	r3, [r3]
 128 001a 3A68     		ldr	r2, [r7]
 129 001c D31A     		sub	r3, r2, r3
 130 001e 7B60     		str	r3, [r7, #4]
 131 0020 07E0     		b	.L9
 132              	.L8:
 141:.\Generated_Source\PSoC4/UART_SPI_UART.c ****             }
 142:.\Generated_Source\PSoC4/UART_SPI_UART.c ****             else
 143:.\Generated_Source\PSoC4/UART_SPI_UART.c ****             {
 144:.\Generated_Source\PSoC4/UART_SPI_UART.c ****                 size = (locHead + (UART_RX_BUFFER_SIZE - UART_rxBufferTail));
 133              		.loc 1 144 0
 134 0022 074B     		ldr	r3, .L11+4
 135 0024 1B68     		ldr	r3, [r3]
 136 0026 3A68     		ldr	r2, [r7]
 137 0028 D31A     		sub	r3, r2, r3
 138 002a 064A     		ldr	r2, .L11+8
 139 002c 9446     		mov	ip, r2
 140 002e 6344     		add	r3, r3, ip
 141 0030 7B60     		str	r3, [r7, #4]
ARM GAS  C:\Users\ADMINI~1\AppData\Local\Temp\ccNiCx8y.s 			page 6


 142              	.L9:
 145:.\Generated_Source\PSoC4/UART_SPI_UART.c ****             }
 146:.\Generated_Source\PSoC4/UART_SPI_UART.c ****         }
 147:.\Generated_Source\PSoC4/UART_SPI_UART.c ****         #else
 148:.\Generated_Source\PSoC4/UART_SPI_UART.c ****         {
 149:.\Generated_Source\PSoC4/UART_SPI_UART.c ****             size = UART_GET_RX_FIFO_ENTRIES;
 150:.\Generated_Source\PSoC4/UART_SPI_UART.c ****         }
 151:.\Generated_Source\PSoC4/UART_SPI_UART.c ****         #endif
 152:.\Generated_Source\PSoC4/UART_SPI_UART.c **** 
 153:.\Generated_Source\PSoC4/UART_SPI_UART.c ****         return(size);
 143              		.loc 1 153 0
 144 0032 7B68     		ldr	r3, [r7, #4]
 154:.\Generated_Source\PSoC4/UART_SPI_UART.c ****     }
 145              		.loc 1 154 0
 146 0034 181C     		mov	r0, r3
 147 0036 BD46     		mov	sp, r7
 148 0038 02B0     		add	sp, sp, #8
 149              		@ sp needed
 150 003a 80BD     		pop	{r7, pc}
 151              	.L12:
 152              		.align	2
 153              	.L11:
 154 003c 00000000 		.word	UART_rxBufferHead
 155 0040 00000000 		.word	UART_rxBufferTail
 156 0044 01040000 		.word	1025
 157              		.cfi_endproc
 158              	.LFE3:
 159              		.size	UART_SpiUartGetRxBufferSize, .-UART_SpiUartGetRxBufferSize
 160              		.section	.text.UART_SpiUartClearRxBuffer,"ax",%progbits
 161              		.align	2
 162              		.global	UART_SpiUartClearRxBuffer
 163              		.code	16
 164              		.thumb_func
 165              		.type	UART_SpiUartClearRxBuffer, %function
 166              	UART_SpiUartClearRxBuffer:
 167              	.LFB4:
 155:.\Generated_Source\PSoC4/UART_SPI_UART.c **** 
 156:.\Generated_Source\PSoC4/UART_SPI_UART.c **** 
 157:.\Generated_Source\PSoC4/UART_SPI_UART.c ****     /*******************************************************************************
 158:.\Generated_Source\PSoC4/UART_SPI_UART.c ****     * Function Name: UART_SpiUartClearRxBuffer
 159:.\Generated_Source\PSoC4/UART_SPI_UART.c ****     ********************************************************************************
 160:.\Generated_Source\PSoC4/UART_SPI_UART.c ****     *
 161:.\Generated_Source\PSoC4/UART_SPI_UART.c ****     * Summary:
 162:.\Generated_Source\PSoC4/UART_SPI_UART.c ****     *  Clears the receive buffer and RX FIFO.
 163:.\Generated_Source\PSoC4/UART_SPI_UART.c ****     *
 164:.\Generated_Source\PSoC4/UART_SPI_UART.c ****     * Parameters:
 165:.\Generated_Source\PSoC4/UART_SPI_UART.c ****     *  None
 166:.\Generated_Source\PSoC4/UART_SPI_UART.c ****     *
 167:.\Generated_Source\PSoC4/UART_SPI_UART.c ****     * Return:
 168:.\Generated_Source\PSoC4/UART_SPI_UART.c ****     *  None
 169:.\Generated_Source\PSoC4/UART_SPI_UART.c ****     *
 170:.\Generated_Source\PSoC4/UART_SPI_UART.c ****     *******************************************************************************/
 171:.\Generated_Source\PSoC4/UART_SPI_UART.c ****     void UART_SpiUartClearRxBuffer(void)
 172:.\Generated_Source\PSoC4/UART_SPI_UART.c ****     {
 168              		.loc 1 172 0
 169              		.cfi_startproc
 170 0000 80B5     		push	{r7, lr}
ARM GAS  C:\Users\ADMINI~1\AppData\Local\Temp\ccNiCx8y.s 			page 7


 171              		.cfi_def_cfa_offset 8
 172              		.cfi_offset 7, -8
 173              		.cfi_offset 14, -4
 174 0002 82B0     		sub	sp, sp, #8
 175              		.cfi_def_cfa_offset 16
 176 0004 00AF     		add	r7, sp, #0
 177              		.cfi_def_cfa_register 7
 173:.\Generated_Source\PSoC4/UART_SPI_UART.c ****         #if(UART_INTERNAL_RX_SW_BUFFER_CONST)
 174:.\Generated_Source\PSoC4/UART_SPI_UART.c ****             uint32 intSourceMask;
 175:.\Generated_Source\PSoC4/UART_SPI_UART.c ****         #endif /* (UART_INTERNAL_RX_SW_BUFFER_CONST) */
 176:.\Generated_Source\PSoC4/UART_SPI_UART.c **** 
 177:.\Generated_Source\PSoC4/UART_SPI_UART.c ****         #if(UART_CHECK_RX_SW_BUFFER)
 178:.\Generated_Source\PSoC4/UART_SPI_UART.c ****         {
 179:.\Generated_Source\PSoC4/UART_SPI_UART.c ****             intSourceMask = UART_SpiUartDisableIntRx();
 178              		.loc 1 179 0
 179 0006 FFF7FEFF 		bl	UART_SpiUartDisableIntRx
 180 000a 031C     		mov	r3, r0
 181 000c 7B60     		str	r3, [r7, #4]
 180:.\Generated_Source\PSoC4/UART_SPI_UART.c **** 
 181:.\Generated_Source\PSoC4/UART_SPI_UART.c ****             UART_CLEAR_RX_FIFO;
 182              		.loc 1 181 0
 183 000e 0E4B     		ldr	r3, .L14
 184 0010 0D4A     		ldr	r2, .L14
 185 0012 1268     		ldr	r2, [r2]
 186 0014 8021     		mov	r1, #128
 187 0016 4902     		lsl	r1, r1, #9
 188 0018 0A43     		orr	r2, r1
 189 001a 1A60     		str	r2, [r3]
 190 001c 0A4B     		ldr	r3, .L14
 191 001e 0A4A     		ldr	r2, .L14
 192 0020 1268     		ldr	r2, [r2]
 193 0022 0A49     		ldr	r1, .L14+4
 194 0024 0A40     		and	r2, r1
 195 0026 1A60     		str	r2, [r3]
 182:.\Generated_Source\PSoC4/UART_SPI_UART.c **** 
 183:.\Generated_Source\PSoC4/UART_SPI_UART.c ****             /* Flush RX software buffer */
 184:.\Generated_Source\PSoC4/UART_SPI_UART.c ****             UART_rxBufferHead     = UART_rxBufferTail;
 196              		.loc 1 184 0
 197 0028 094B     		ldr	r3, .L14+8
 198 002a 1A68     		ldr	r2, [r3]
 199 002c 094B     		ldr	r3, .L14+12
 200 002e 1A60     		str	r2, [r3]
 185:.\Generated_Source\PSoC4/UART_SPI_UART.c ****             UART_rxBufferOverflow = 0u;
 201              		.loc 1 185 0
 202 0030 094B     		ldr	r3, .L14+16
 203 0032 0022     		mov	r2, #0
 204 0034 1A70     		strb	r2, [r3]
 186:.\Generated_Source\PSoC4/UART_SPI_UART.c **** 
 187:.\Generated_Source\PSoC4/UART_SPI_UART.c ****             /* End RX transfer */
 188:.\Generated_Source\PSoC4/UART_SPI_UART.c ****             UART_ClearRxInterruptSource(UART_INTR_RX_ALL);
 205              		.loc 1 188 0
 206 0036 094B     		ldr	r3, .L14+20
 207 0038 094A     		ldr	r2, .L14+24
 208 003a 1A60     		str	r2, [r3]
 189:.\Generated_Source\PSoC4/UART_SPI_UART.c **** 
 190:.\Generated_Source\PSoC4/UART_SPI_UART.c ****             UART_SpiUartEnableIntRx(intSourceMask);
 209              		.loc 1 190 0
ARM GAS  C:\Users\ADMINI~1\AppData\Local\Temp\ccNiCx8y.s 			page 8


 210 003c 094B     		ldr	r3, .L14+28
 211 003e 7A68     		ldr	r2, [r7, #4]
 212 0040 1A60     		str	r2, [r3]
 191:.\Generated_Source\PSoC4/UART_SPI_UART.c ****         }
 192:.\Generated_Source\PSoC4/UART_SPI_UART.c ****         #else
 193:.\Generated_Source\PSoC4/UART_SPI_UART.c ****         {
 194:.\Generated_Source\PSoC4/UART_SPI_UART.c ****             UART_CLEAR_RX_FIFO;
 195:.\Generated_Source\PSoC4/UART_SPI_UART.c ****         }
 196:.\Generated_Source\PSoC4/UART_SPI_UART.c ****         #endif
 197:.\Generated_Source\PSoC4/UART_SPI_UART.c ****     }
 213              		.loc 1 197 0
 214 0042 BD46     		mov	sp, r7
 215 0044 02B0     		add	sp, sp, #8
 216              		@ sp needed
 217 0046 80BD     		pop	{r7, pc}
 218              	.L15:
 219              		.align	2
 220              	.L14:
 221 0048 04032440 		.word	1076101892
 222 004c FFFFFEFF 		.word	-65537
 223 0050 00000000 		.word	UART_rxBufferTail
 224 0054 00000000 		.word	UART_rxBufferHead
 225 0058 00000000 		.word	UART_rxBufferOverflow
 226 005c C00F2440 		.word	1076105152
 227 0060 ED0F0000 		.word	4077
 228 0064 C80F2440 		.word	1076105160
 229              		.cfi_endproc
 230              	.LFE4:
 231              		.size	UART_SpiUartClearRxBuffer, .-UART_SpiUartClearRxBuffer
 232              		.section	.text.UART_SpiUartWriteTxData,"ax",%progbits
 233              		.align	2
 234              		.global	UART_SpiUartWriteTxData
 235              		.code	16
 236              		.thumb_func
 237              		.type	UART_SpiUartWriteTxData, %function
 238              	UART_SpiUartWriteTxData:
 239              	.LFB5:
 198:.\Generated_Source\PSoC4/UART_SPI_UART.c **** 
 199:.\Generated_Source\PSoC4/UART_SPI_UART.c **** #endif /* (UART_RX_DIRECTION) */
 200:.\Generated_Source\PSoC4/UART_SPI_UART.c **** 
 201:.\Generated_Source\PSoC4/UART_SPI_UART.c **** 
 202:.\Generated_Source\PSoC4/UART_SPI_UART.c **** #if(UART_TX_DIRECTION)
 203:.\Generated_Source\PSoC4/UART_SPI_UART.c **** 
 204:.\Generated_Source\PSoC4/UART_SPI_UART.c ****     /*******************************************************************************
 205:.\Generated_Source\PSoC4/UART_SPI_UART.c ****     * Function Name: UART_SpiUartWriteTxData
 206:.\Generated_Source\PSoC4/UART_SPI_UART.c ****     ********************************************************************************
 207:.\Generated_Source\PSoC4/UART_SPI_UART.c ****     *
 208:.\Generated_Source\PSoC4/UART_SPI_UART.c ****     * Summary:
 209:.\Generated_Source\PSoC4/UART_SPI_UART.c ****     *  Places a data entry into the transmit buffer to be sent at the next available
 210:.\Generated_Source\PSoC4/UART_SPI_UART.c ****     *  bus time.
 211:.\Generated_Source\PSoC4/UART_SPI_UART.c ****     *  This function is blocking and waits until there is space available to put the
 212:.\Generated_Source\PSoC4/UART_SPI_UART.c ****     *  requested data in the transmit buffer.
 213:.\Generated_Source\PSoC4/UART_SPI_UART.c ****     *
 214:.\Generated_Source\PSoC4/UART_SPI_UART.c ****     * Parameters:
 215:.\Generated_Source\PSoC4/UART_SPI_UART.c ****     *  txDataByte: the data to be transmitted.
 216:.\Generated_Source\PSoC4/UART_SPI_UART.c ****     *
 217:.\Generated_Source\PSoC4/UART_SPI_UART.c ****     * Return:
ARM GAS  C:\Users\ADMINI~1\AppData\Local\Temp\ccNiCx8y.s 			page 9


 218:.\Generated_Source\PSoC4/UART_SPI_UART.c ****     *  None
 219:.\Generated_Source\PSoC4/UART_SPI_UART.c ****     *
 220:.\Generated_Source\PSoC4/UART_SPI_UART.c ****     *******************************************************************************/
 221:.\Generated_Source\PSoC4/UART_SPI_UART.c ****     void UART_SpiUartWriteTxData(uint32 txData)
 222:.\Generated_Source\PSoC4/UART_SPI_UART.c ****     {
 240              		.loc 1 222 0
 241              		.cfi_startproc
 242 0000 80B5     		push	{r7, lr}
 243              		.cfi_def_cfa_offset 8
 244              		.cfi_offset 7, -8
 245              		.cfi_offset 14, -4
 246 0002 84B0     		sub	sp, sp, #16
 247              		.cfi_def_cfa_offset 24
 248 0004 00AF     		add	r7, sp, #0
 249              		.cfi_def_cfa_register 7
 250 0006 7860     		str	r0, [r7, #4]
 223:.\Generated_Source\PSoC4/UART_SPI_UART.c ****         #if(UART_INTERNAL_TX_SW_BUFFER_CONST)
 224:.\Generated_Source\PSoC4/UART_SPI_UART.c ****             uint32 locHead;
 225:.\Generated_Source\PSoC4/UART_SPI_UART.c ****             uint32 intSourceMask;
 226:.\Generated_Source\PSoC4/UART_SPI_UART.c ****         #endif /* (UART_INTERNAL_TX_SW_BUFFER_CONST) */
 227:.\Generated_Source\PSoC4/UART_SPI_UART.c **** 
 228:.\Generated_Source\PSoC4/UART_SPI_UART.c ****         #if(UART_CHECK_TX_SW_BUFFER)
 229:.\Generated_Source\PSoC4/UART_SPI_UART.c ****         {
 230:.\Generated_Source\PSoC4/UART_SPI_UART.c ****             /* Head index to put data */
 231:.\Generated_Source\PSoC4/UART_SPI_UART.c ****             locHead = (UART_txBufferHead + 1u);
 251              		.loc 1 231 0
 252 0008 1D4B     		ldr	r3, .L21
 253 000a 1B68     		ldr	r3, [r3]
 254 000c 0133     		add	r3, r3, #1
 255 000e FB60     		str	r3, [r7, #12]
 232:.\Generated_Source\PSoC4/UART_SPI_UART.c **** 
 233:.\Generated_Source\PSoC4/UART_SPI_UART.c ****             /* Adjust TX software buffer index */
 234:.\Generated_Source\PSoC4/UART_SPI_UART.c ****             if(UART_TX_BUFFER_SIZE == locHead)
 256              		.loc 1 234 0
 257 0010 FA68     		ldr	r2, [r7, #12]
 258 0012 8023     		mov	r3, #128
 259 0014 DB00     		lsl	r3, r3, #3
 260 0016 9A42     		cmp	r2, r3
 261 0018 01D1     		bne	.L17
 235:.\Generated_Source\PSoC4/UART_SPI_UART.c ****             {
 236:.\Generated_Source\PSoC4/UART_SPI_UART.c ****                 locHead = 0u;
 262              		.loc 1 236 0
 263 001a 0023     		mov	r3, #0
 264 001c FB60     		str	r3, [r7, #12]
 265              	.L17:
 237:.\Generated_Source\PSoC4/UART_SPI_UART.c ****             }
 238:.\Generated_Source\PSoC4/UART_SPI_UART.c **** 
 239:.\Generated_Source\PSoC4/UART_SPI_UART.c ****             while(locHead == UART_txBufferTail)
 266              		.loc 1 239 0
 267 001e C046     		mov	r8, r8
 268              	.L18:
 269              		.loc 1 239 0 is_stmt 0 discriminator 1
 270 0020 184B     		ldr	r3, .L21+4
 271 0022 1B68     		ldr	r3, [r3]
 272 0024 FA68     		ldr	r2, [r7, #12]
 273 0026 9A42     		cmp	r2, r3
 274 0028 FAD0     		beq	.L18
ARM GAS  C:\Users\ADMINI~1\AppData\Local\Temp\ccNiCx8y.s 			page 10


 240:.\Generated_Source\PSoC4/UART_SPI_UART.c ****             {
 241:.\Generated_Source\PSoC4/UART_SPI_UART.c ****                 /* Wait for space in TX software buffer */
 242:.\Generated_Source\PSoC4/UART_SPI_UART.c ****             }
 243:.\Generated_Source\PSoC4/UART_SPI_UART.c **** 
 244:.\Generated_Source\PSoC4/UART_SPI_UART.c ****             /* TX software buffer has at least one room */
 245:.\Generated_Source\PSoC4/UART_SPI_UART.c **** 
 246:.\Generated_Source\PSoC4/UART_SPI_UART.c ****             if((UART_txBufferHead == UART_txBufferTail) &&
 275              		.loc 1 246 0 is_stmt 1
 276 002a 154B     		ldr	r3, .L21
 277 002c 1A68     		ldr	r2, [r3]
 278 002e 154B     		ldr	r3, .L21+4
 279 0030 1B68     		ldr	r3, [r3]
 280 0032 9A42     		cmp	r2, r3
 281 0034 09D1     		bne	.L19
 247:.\Generated_Source\PSoC4/UART_SPI_UART.c ****                (UART_SPI_UART_FIFO_SIZE != UART_GET_TX_FIFO_ENTRIES))
 282              		.loc 1 247 0 discriminator 1
 283 0036 144B     		ldr	r3, .L21+8
 284 0038 1B68     		ldr	r3, [r3]
 285 003a 1F22     		mov	r2, #31
 286 003c 1340     		and	r3, r2
 246:.\Generated_Source\PSoC4/UART_SPI_UART.c ****                (UART_SPI_UART_FIFO_SIZE != UART_GET_TX_FIFO_ENTRIES))
 287              		.loc 1 246 0 discriminator 1
 288 003e 082B     		cmp	r3, #8
 289 0040 03D0     		beq	.L19
 248:.\Generated_Source\PSoC4/UART_SPI_UART.c ****             {
 249:.\Generated_Source\PSoC4/UART_SPI_UART.c ****                 /* TX software buffer is empty: put data directly in TX FIFO */
 250:.\Generated_Source\PSoC4/UART_SPI_UART.c ****                 UART_TX_FIFO_WR_REG = txData;
 290              		.loc 1 250 0
 291 0042 124B     		ldr	r3, .L21+12
 292 0044 7A68     		ldr	r2, [r7, #4]
 293 0046 1A60     		str	r2, [r3]
 294 0048 16E0     		b	.L16
 295              	.L19:
 251:.\Generated_Source\PSoC4/UART_SPI_UART.c ****             }
 252:.\Generated_Source\PSoC4/UART_SPI_UART.c ****             /* Put data in TX software buffer */
 253:.\Generated_Source\PSoC4/UART_SPI_UART.c ****             else
 254:.\Generated_Source\PSoC4/UART_SPI_UART.c ****             {
 255:.\Generated_Source\PSoC4/UART_SPI_UART.c ****                 /* Clear old status of INTR_TX_NOT_FULL. It sets at the end of transfer when TX FIF
 256:.\Generated_Source\PSoC4/UART_SPI_UART.c ****                 UART_ClearTxInterruptSource(UART_INTR_TX_NOT_FULL);
 296              		.loc 1 256 0
 297 004a 114B     		ldr	r3, .L21+16
 298 004c 0222     		mov	r2, #2
 299 004e 1A60     		str	r2, [r3]
 257:.\Generated_Source\PSoC4/UART_SPI_UART.c **** 
 258:.\Generated_Source\PSoC4/UART_SPI_UART.c ****                 UART_PutWordInTxBuffer(locHead, txData);
 300              		.loc 1 258 0
 301 0050 7B68     		ldr	r3, [r7, #4]
 302 0052 D9B2     		uxtb	r1, r3
 303 0054 0F4A     		ldr	r2, .L21+20
 304 0056 FB68     		ldr	r3, [r7, #12]
 305 0058 D318     		add	r3, r2, r3
 306 005a 0A1C     		add	r2, r1, #0
 307 005c 1A70     		strb	r2, [r3]
 259:.\Generated_Source\PSoC4/UART_SPI_UART.c **** 
 260:.\Generated_Source\PSoC4/UART_SPI_UART.c ****                 UART_txBufferHead = locHead;
 308              		.loc 1 260 0
 309 005e 084B     		ldr	r3, .L21
ARM GAS  C:\Users\ADMINI~1\AppData\Local\Temp\ccNiCx8y.s 			page 11


 310 0060 FA68     		ldr	r2, [r7, #12]
 311 0062 1A60     		str	r2, [r3]
 261:.\Generated_Source\PSoC4/UART_SPI_UART.c **** 
 262:.\Generated_Source\PSoC4/UART_SPI_UART.c ****                 /* Enable interrupt to transmit */
 263:.\Generated_Source\PSoC4/UART_SPI_UART.c ****                 intSourceMask  = UART_INTR_TX_NOT_FULL;
 312              		.loc 1 263 0
 313 0064 0223     		mov	r3, #2
 314 0066 BB60     		str	r3, [r7, #8]
 264:.\Generated_Source\PSoC4/UART_SPI_UART.c ****                 intSourceMask |= UART_GetTxInterruptMode();
 315              		.loc 1 264 0
 316 0068 0B4B     		ldr	r3, .L21+24
 317 006a 1B68     		ldr	r3, [r3]
 318 006c BA68     		ldr	r2, [r7, #8]
 319 006e 1343     		orr	r3, r2
 320 0070 BB60     		str	r3, [r7, #8]
 265:.\Generated_Source\PSoC4/UART_SPI_UART.c ****                 UART_SpiUartEnableIntTx(intSourceMask);
 321              		.loc 1 265 0
 322 0072 094B     		ldr	r3, .L21+24
 323 0074 BA68     		ldr	r2, [r7, #8]
 324 0076 1A60     		str	r2, [r3]
 325              	.L16:
 266:.\Generated_Source\PSoC4/UART_SPI_UART.c ****             }
 267:.\Generated_Source\PSoC4/UART_SPI_UART.c ****         }
 268:.\Generated_Source\PSoC4/UART_SPI_UART.c ****         #else
 269:.\Generated_Source\PSoC4/UART_SPI_UART.c ****         {
 270:.\Generated_Source\PSoC4/UART_SPI_UART.c ****             while(UART_SPI_UART_FIFO_SIZE == UART_GET_TX_FIFO_ENTRIES)
 271:.\Generated_Source\PSoC4/UART_SPI_UART.c ****             {
 272:.\Generated_Source\PSoC4/UART_SPI_UART.c ****                 /* Block while TX FIFO is FULL */
 273:.\Generated_Source\PSoC4/UART_SPI_UART.c ****             }
 274:.\Generated_Source\PSoC4/UART_SPI_UART.c **** 
 275:.\Generated_Source\PSoC4/UART_SPI_UART.c ****             UART_TX_FIFO_WR_REG = txData;
 276:.\Generated_Source\PSoC4/UART_SPI_UART.c ****         }
 277:.\Generated_Source\PSoC4/UART_SPI_UART.c ****         #endif
 278:.\Generated_Source\PSoC4/UART_SPI_UART.c ****     }
 326              		.loc 1 278 0
 327 0078 BD46     		mov	sp, r7
 328 007a 04B0     		add	sp, sp, #16
 329              		@ sp needed
 330 007c 80BD     		pop	{r7, pc}
 331              	.L22:
 332 007e C046     		.align	2
 333              	.L21:
 334 0080 00000000 		.word	UART_txBufferHead
 335 0084 00000000 		.word	UART_txBufferTail
 336 0088 08022440 		.word	1076101640
 337 008c 40022440 		.word	1076101696
 338 0090 800F2440 		.word	1076105088
 339 0094 00000000 		.word	UART_txBufferInternal
 340 0098 880F2440 		.word	1076105096
 341              		.cfi_endproc
 342              	.LFE5:
 343              		.size	UART_SpiUartWriteTxData, .-UART_SpiUartWriteTxData
 344              		.section	.text.UART_SpiUartPutArray,"ax",%progbits
 345              		.align	2
 346              		.global	UART_SpiUartPutArray
 347              		.code	16
 348              		.thumb_func
ARM GAS  C:\Users\ADMINI~1\AppData\Local\Temp\ccNiCx8y.s 			page 12


 349              		.type	UART_SpiUartPutArray, %function
 350              	UART_SpiUartPutArray:
 351              	.LFB6:
 279:.\Generated_Source\PSoC4/UART_SPI_UART.c **** 
 280:.\Generated_Source\PSoC4/UART_SPI_UART.c **** 
 281:.\Generated_Source\PSoC4/UART_SPI_UART.c ****     /*******************************************************************************
 282:.\Generated_Source\PSoC4/UART_SPI_UART.c ****     * Function Name: UART_SpiUartPutArray
 283:.\Generated_Source\PSoC4/UART_SPI_UART.c ****     ********************************************************************************
 284:.\Generated_Source\PSoC4/UART_SPI_UART.c ****     *
 285:.\Generated_Source\PSoC4/UART_SPI_UART.c ****     * Summary:
 286:.\Generated_Source\PSoC4/UART_SPI_UART.c ****     *  Places an array of data into the transmit buffer to be sent.
 287:.\Generated_Source\PSoC4/UART_SPI_UART.c ****     *  This function is blocking and waits until there is a space available to put
 288:.\Generated_Source\PSoC4/UART_SPI_UART.c ****     *  all the requested data in the transmit buffer. The array size can be greater
 289:.\Generated_Source\PSoC4/UART_SPI_UART.c ****     *  than transmit buffer size.
 290:.\Generated_Source\PSoC4/UART_SPI_UART.c ****     *
 291:.\Generated_Source\PSoC4/UART_SPI_UART.c ****     * Parameters:
 292:.\Generated_Source\PSoC4/UART_SPI_UART.c ****     *  wrBuf:  pointer to an array with data to be placed in transmit buffer.
 293:.\Generated_Source\PSoC4/UART_SPI_UART.c ****     *  count:  number of data elements to be placed in the transmit buffer.
 294:.\Generated_Source\PSoC4/UART_SPI_UART.c ****     *
 295:.\Generated_Source\PSoC4/UART_SPI_UART.c ****     * Return:
 296:.\Generated_Source\PSoC4/UART_SPI_UART.c ****     *  None
 297:.\Generated_Source\PSoC4/UART_SPI_UART.c ****     *
 298:.\Generated_Source\PSoC4/UART_SPI_UART.c ****     *******************************************************************************/
 299:.\Generated_Source\PSoC4/UART_SPI_UART.c ****     void UART_SpiUartPutArray(const uint8 wrBuf[], uint32 count)
 300:.\Generated_Source\PSoC4/UART_SPI_UART.c ****     {
 352              		.loc 1 300 0
 353              		.cfi_startproc
 354 0000 80B5     		push	{r7, lr}
 355              		.cfi_def_cfa_offset 8
 356              		.cfi_offset 7, -8
 357              		.cfi_offset 14, -4
 358 0002 84B0     		sub	sp, sp, #16
 359              		.cfi_def_cfa_offset 24
 360 0004 00AF     		add	r7, sp, #0
 361              		.cfi_def_cfa_register 7
 362 0006 7860     		str	r0, [r7, #4]
 363 0008 3960     		str	r1, [r7]
 301:.\Generated_Source\PSoC4/UART_SPI_UART.c ****         uint32 i;
 302:.\Generated_Source\PSoC4/UART_SPI_UART.c **** 
 303:.\Generated_Source\PSoC4/UART_SPI_UART.c ****         for(i=0u; i < count; i++)
 364              		.loc 1 303 0
 365 000a 0023     		mov	r3, #0
 366 000c FB60     		str	r3, [r7, #12]
 367 000e 09E0     		b	.L24
 368              	.L25:
 304:.\Generated_Source\PSoC4/UART_SPI_UART.c ****         {
 305:.\Generated_Source\PSoC4/UART_SPI_UART.c ****             UART_SpiUartWriteTxData((uint32) wrBuf[i]);
 369              		.loc 1 305 0 discriminator 3
 370 0010 7A68     		ldr	r2, [r7, #4]
 371 0012 FB68     		ldr	r3, [r7, #12]
 372 0014 D318     		add	r3, r2, r3
 373 0016 1B78     		ldrb	r3, [r3]
 374 0018 181C     		mov	r0, r3
 375 001a FFF7FEFF 		bl	UART_SpiUartWriteTxData
 303:.\Generated_Source\PSoC4/UART_SPI_UART.c ****         {
 376              		.loc 1 303 0 discriminator 3
 377 001e FB68     		ldr	r3, [r7, #12]
ARM GAS  C:\Users\ADMINI~1\AppData\Local\Temp\ccNiCx8y.s 			page 13


 378 0020 0133     		add	r3, r3, #1
 379 0022 FB60     		str	r3, [r7, #12]
 380              	.L24:
 303:.\Generated_Source\PSoC4/UART_SPI_UART.c ****         {
 381              		.loc 1 303 0 is_stmt 0 discriminator 1
 382 0024 FA68     		ldr	r2, [r7, #12]
 383 0026 3B68     		ldr	r3, [r7]
 384 0028 9A42     		cmp	r2, r3
 385 002a F1D3     		bcc	.L25
 306:.\Generated_Source\PSoC4/UART_SPI_UART.c ****         }
 307:.\Generated_Source\PSoC4/UART_SPI_UART.c ****     }
 386              		.loc 1 307 0 is_stmt 1
 387 002c BD46     		mov	sp, r7
 388 002e 04B0     		add	sp, sp, #16
 389              		@ sp needed
 390 0030 80BD     		pop	{r7, pc}
 391              		.cfi_endproc
 392              	.LFE6:
 393              		.size	UART_SpiUartPutArray, .-UART_SpiUartPutArray
 394 0032 C046     		.section	.text.UART_SpiUartGetTxBufferSize,"ax",%progbits
 395              		.align	2
 396              		.global	UART_SpiUartGetTxBufferSize
 397              		.code	16
 398              		.thumb_func
 399              		.type	UART_SpiUartGetTxBufferSize, %function
 400              	UART_SpiUartGetTxBufferSize:
 401              	.LFB7:
 308:.\Generated_Source\PSoC4/UART_SPI_UART.c **** 
 309:.\Generated_Source\PSoC4/UART_SPI_UART.c **** 
 310:.\Generated_Source\PSoC4/UART_SPI_UART.c ****     /*******************************************************************************
 311:.\Generated_Source\PSoC4/UART_SPI_UART.c ****     * Function Name: UART_SpiUartGetTxBufferSize
 312:.\Generated_Source\PSoC4/UART_SPI_UART.c ****     ********************************************************************************
 313:.\Generated_Source\PSoC4/UART_SPI_UART.c ****     *
 314:.\Generated_Source\PSoC4/UART_SPI_UART.c ****     * Summary:
 315:.\Generated_Source\PSoC4/UART_SPI_UART.c ****     * Returns the number of elements currently in the transmit buffer.
 316:.\Generated_Source\PSoC4/UART_SPI_UART.c ****     *  - TX software buffer is disabled: returns the number of used entries in
 317:.\Generated_Source\PSoC4/UART_SPI_UART.c ****     *    TX FIFO.
 318:.\Generated_Source\PSoC4/UART_SPI_UART.c ****     *  - TX software buffer is enabled: returns the number of elements currently
 319:.\Generated_Source\PSoC4/UART_SPI_UART.c ****     *    used in the transmit buffer. This number does not include used entries in
 320:.\Generated_Source\PSoC4/UART_SPI_UART.c ****     *    the TX FIFO. The transmit buffer size is zero until the TX FIFO is
 321:.\Generated_Source\PSoC4/UART_SPI_UART.c ****     *    not full.
 322:.\Generated_Source\PSoC4/UART_SPI_UART.c ****     *
 323:.\Generated_Source\PSoC4/UART_SPI_UART.c ****     * Parameters:
 324:.\Generated_Source\PSoC4/UART_SPI_UART.c ****     *  None
 325:.\Generated_Source\PSoC4/UART_SPI_UART.c ****     *
 326:.\Generated_Source\PSoC4/UART_SPI_UART.c ****     * Return:
 327:.\Generated_Source\PSoC4/UART_SPI_UART.c ****     *  Number of data elements ready to transmit.
 328:.\Generated_Source\PSoC4/UART_SPI_UART.c ****     *
 329:.\Generated_Source\PSoC4/UART_SPI_UART.c ****     *******************************************************************************/
 330:.\Generated_Source\PSoC4/UART_SPI_UART.c ****     uint32 UART_SpiUartGetTxBufferSize(void)
 331:.\Generated_Source\PSoC4/UART_SPI_UART.c ****     {
 402              		.loc 1 331 0
 403              		.cfi_startproc
 404 0000 80B5     		push	{r7, lr}
 405              		.cfi_def_cfa_offset 8
 406              		.cfi_offset 7, -8
 407              		.cfi_offset 14, -4
ARM GAS  C:\Users\ADMINI~1\AppData\Local\Temp\ccNiCx8y.s 			page 14


 408 0002 82B0     		sub	sp, sp, #8
 409              		.cfi_def_cfa_offset 16
 410 0004 00AF     		add	r7, sp, #0
 411              		.cfi_def_cfa_register 7
 332:.\Generated_Source\PSoC4/UART_SPI_UART.c ****         uint32 size;
 333:.\Generated_Source\PSoC4/UART_SPI_UART.c ****         #if(UART_INTERNAL_TX_SW_BUFFER_CONST)
 334:.\Generated_Source\PSoC4/UART_SPI_UART.c ****             uint32 locTail;
 335:.\Generated_Source\PSoC4/UART_SPI_UART.c ****         #endif /* (UART_INTERNAL_TX_SW_BUFFER_CONST) */
 336:.\Generated_Source\PSoC4/UART_SPI_UART.c **** 
 337:.\Generated_Source\PSoC4/UART_SPI_UART.c ****         #if(UART_CHECK_TX_SW_BUFFER)
 338:.\Generated_Source\PSoC4/UART_SPI_UART.c ****         {
 339:.\Generated_Source\PSoC4/UART_SPI_UART.c ****             /* Get current Tail index */
 340:.\Generated_Source\PSoC4/UART_SPI_UART.c ****             locTail = UART_txBufferTail;
 412              		.loc 1 340 0
 413 0006 0E4B     		ldr	r3, .L30
 414 0008 1B68     		ldr	r3, [r3]
 415 000a 3B60     		str	r3, [r7]
 341:.\Generated_Source\PSoC4/UART_SPI_UART.c **** 
 342:.\Generated_Source\PSoC4/UART_SPI_UART.c ****             if(UART_txBufferHead >= locTail)
 416              		.loc 1 342 0
 417 000c 0D4B     		ldr	r3, .L30+4
 418 000e 1A68     		ldr	r2, [r3]
 419 0010 3B68     		ldr	r3, [r7]
 420 0012 9A42     		cmp	r2, r3
 421 0014 05D3     		bcc	.L27
 343:.\Generated_Source\PSoC4/UART_SPI_UART.c ****             {
 344:.\Generated_Source\PSoC4/UART_SPI_UART.c ****                 size = (UART_txBufferHead - locTail);
 422              		.loc 1 344 0
 423 0016 0B4B     		ldr	r3, .L30+4
 424 0018 1A68     		ldr	r2, [r3]
 425 001a 3B68     		ldr	r3, [r7]
 426 001c D31A     		sub	r3, r2, r3
 427 001e 7B60     		str	r3, [r7, #4]
 428 0020 08E0     		b	.L28
 429              	.L27:
 345:.\Generated_Source\PSoC4/UART_SPI_UART.c ****             }
 346:.\Generated_Source\PSoC4/UART_SPI_UART.c ****             else
 347:.\Generated_Source\PSoC4/UART_SPI_UART.c ****             {
 348:.\Generated_Source\PSoC4/UART_SPI_UART.c ****                 size = (UART_txBufferHead + (UART_TX_BUFFER_SIZE - locTail));
 430              		.loc 1 348 0
 431 0022 084B     		ldr	r3, .L30+4
 432 0024 1A68     		ldr	r2, [r3]
 433 0026 3B68     		ldr	r3, [r7]
 434 0028 D31A     		sub	r3, r2, r3
 435 002a 8022     		mov	r2, #128
 436 002c D200     		lsl	r2, r2, #3
 437 002e 9446     		mov	ip, r2
 438 0030 6344     		add	r3, r3, ip
 439 0032 7B60     		str	r3, [r7, #4]
 440              	.L28:
 349:.\Generated_Source\PSoC4/UART_SPI_UART.c ****             }
 350:.\Generated_Source\PSoC4/UART_SPI_UART.c ****         }
 351:.\Generated_Source\PSoC4/UART_SPI_UART.c ****         #else
 352:.\Generated_Source\PSoC4/UART_SPI_UART.c ****         {
 353:.\Generated_Source\PSoC4/UART_SPI_UART.c ****             size = UART_GET_TX_FIFO_ENTRIES;
 354:.\Generated_Source\PSoC4/UART_SPI_UART.c ****         }
 355:.\Generated_Source\PSoC4/UART_SPI_UART.c ****         #endif
ARM GAS  C:\Users\ADMINI~1\AppData\Local\Temp\ccNiCx8y.s 			page 15


 356:.\Generated_Source\PSoC4/UART_SPI_UART.c **** 
 357:.\Generated_Source\PSoC4/UART_SPI_UART.c ****         return(size);
 441              		.loc 1 357 0
 442 0034 7B68     		ldr	r3, [r7, #4]
 358:.\Generated_Source\PSoC4/UART_SPI_UART.c ****     }
 443              		.loc 1 358 0
 444 0036 181C     		mov	r0, r3
 445 0038 BD46     		mov	sp, r7
 446 003a 02B0     		add	sp, sp, #8
 447              		@ sp needed
 448 003c 80BD     		pop	{r7, pc}
 449              	.L31:
 450 003e C046     		.align	2
 451              	.L30:
 452 0040 00000000 		.word	UART_txBufferTail
 453 0044 00000000 		.word	UART_txBufferHead
 454              		.cfi_endproc
 455              	.LFE7:
 456              		.size	UART_SpiUartGetTxBufferSize, .-UART_SpiUartGetTxBufferSize
 457              		.section	.text.UART_SpiUartClearTxBuffer,"ax",%progbits
 458              		.align	2
 459              		.global	UART_SpiUartClearTxBuffer
 460              		.code	16
 461              		.thumb_func
 462              		.type	UART_SpiUartClearTxBuffer, %function
 463              	UART_SpiUartClearTxBuffer:
 464              	.LFB8:
 359:.\Generated_Source\PSoC4/UART_SPI_UART.c **** 
 360:.\Generated_Source\PSoC4/UART_SPI_UART.c **** 
 361:.\Generated_Source\PSoC4/UART_SPI_UART.c ****     /*******************************************************************************
 362:.\Generated_Source\PSoC4/UART_SPI_UART.c ****     * Function Name: UART_SpiUartClearTxBuffer
 363:.\Generated_Source\PSoC4/UART_SPI_UART.c ****     ********************************************************************************
 364:.\Generated_Source\PSoC4/UART_SPI_UART.c ****     *
 365:.\Generated_Source\PSoC4/UART_SPI_UART.c ****     * Summary:
 366:.\Generated_Source\PSoC4/UART_SPI_UART.c ****     *  Clears the transmit buffer and TX FIFO.
 367:.\Generated_Source\PSoC4/UART_SPI_UART.c ****     *
 368:.\Generated_Source\PSoC4/UART_SPI_UART.c ****     * Parameters:
 369:.\Generated_Source\PSoC4/UART_SPI_UART.c ****     *  None
 370:.\Generated_Source\PSoC4/UART_SPI_UART.c ****     *
 371:.\Generated_Source\PSoC4/UART_SPI_UART.c ****     * Return:
 372:.\Generated_Source\PSoC4/UART_SPI_UART.c ****     *  None
 373:.\Generated_Source\PSoC4/UART_SPI_UART.c ****     *
 374:.\Generated_Source\PSoC4/UART_SPI_UART.c ****     *******************************************************************************/
 375:.\Generated_Source\PSoC4/UART_SPI_UART.c ****     void UART_SpiUartClearTxBuffer(void)
 376:.\Generated_Source\PSoC4/UART_SPI_UART.c ****     {
 465              		.loc 1 376 0
 466              		.cfi_startproc
 467 0000 80B5     		push	{r7, lr}
 468              		.cfi_def_cfa_offset 8
 469              		.cfi_offset 7, -8
 470              		.cfi_offset 14, -4
 471 0002 82B0     		sub	sp, sp, #8
 472              		.cfi_def_cfa_offset 16
 473 0004 00AF     		add	r7, sp, #0
 474              		.cfi_def_cfa_register 7
 377:.\Generated_Source\PSoC4/UART_SPI_UART.c ****         #if(UART_INTERNAL_TX_SW_BUFFER_CONST)
 378:.\Generated_Source\PSoC4/UART_SPI_UART.c ****             uint32 intSourceMask;
ARM GAS  C:\Users\ADMINI~1\AppData\Local\Temp\ccNiCx8y.s 			page 16


 379:.\Generated_Source\PSoC4/UART_SPI_UART.c ****         #endif /* (UART_INTERNAL_TX_SW_BUFFER_CONST) */
 380:.\Generated_Source\PSoC4/UART_SPI_UART.c **** 
 381:.\Generated_Source\PSoC4/UART_SPI_UART.c ****         #if(UART_CHECK_TX_SW_BUFFER)
 382:.\Generated_Source\PSoC4/UART_SPI_UART.c ****         {
 383:.\Generated_Source\PSoC4/UART_SPI_UART.c ****             intSourceMask = UART_SpiUartDisableIntTx();
 475              		.loc 1 383 0
 476 0006 FFF7FEFF 		bl	UART_SpiUartDisableIntTx
 477 000a 031C     		mov	r3, r0
 478 000c 7B60     		str	r3, [r7, #4]
 384:.\Generated_Source\PSoC4/UART_SPI_UART.c **** 
 385:.\Generated_Source\PSoC4/UART_SPI_UART.c ****             UART_CLEAR_TX_FIFO;
 479              		.loc 1 385 0
 480 000e 0D4B     		ldr	r3, .L33
 481 0010 0C4A     		ldr	r2, .L33
 482 0012 1268     		ldr	r2, [r2]
 483 0014 8021     		mov	r1, #128
 484 0016 4902     		lsl	r1, r1, #9
 485 0018 0A43     		orr	r2, r1
 486 001a 1A60     		str	r2, [r3]
 487 001c 094B     		ldr	r3, .L33
 488 001e 094A     		ldr	r2, .L33
 489 0020 1268     		ldr	r2, [r2]
 490 0022 0949     		ldr	r1, .L33+4
 491 0024 0A40     		and	r2, r1
 492 0026 1A60     		str	r2, [r3]
 386:.\Generated_Source\PSoC4/UART_SPI_UART.c **** 
 387:.\Generated_Source\PSoC4/UART_SPI_UART.c ****             /* Flush TX software buffer */
 388:.\Generated_Source\PSoC4/UART_SPI_UART.c ****             UART_txBufferHead = UART_txBufferTail;
 493              		.loc 1 388 0
 494 0028 084B     		ldr	r3, .L33+8
 495 002a 1A68     		ldr	r2, [r3]
 496 002c 084B     		ldr	r3, .L33+12
 497 002e 1A60     		str	r2, [r3]
 389:.\Generated_Source\PSoC4/UART_SPI_UART.c **** 
 390:.\Generated_Source\PSoC4/UART_SPI_UART.c ****             /* End TX transfer if it is in progress */
 391:.\Generated_Source\PSoC4/UART_SPI_UART.c ****             intSourceMask &= (uint32) ~UART_INTR_TX_NOT_FULL;
 498              		.loc 1 391 0
 499 0030 7B68     		ldr	r3, [r7, #4]
 500 0032 0222     		mov	r2, #2
 501 0034 9343     		bic	r3, r2
 502 0036 7B60     		str	r3, [r7, #4]
 392:.\Generated_Source\PSoC4/UART_SPI_UART.c **** 
 393:.\Generated_Source\PSoC4/UART_SPI_UART.c ****             UART_SpiUartEnableIntTx(intSourceMask);
 503              		.loc 1 393 0
 504 0038 064B     		ldr	r3, .L33+16
 505 003a 7A68     		ldr	r2, [r7, #4]
 506 003c 1A60     		str	r2, [r3]
 394:.\Generated_Source\PSoC4/UART_SPI_UART.c ****         }
 395:.\Generated_Source\PSoC4/UART_SPI_UART.c ****         #else
 396:.\Generated_Source\PSoC4/UART_SPI_UART.c ****         {
 397:.\Generated_Source\PSoC4/UART_SPI_UART.c ****             UART_CLEAR_TX_FIFO;
 398:.\Generated_Source\PSoC4/UART_SPI_UART.c ****         }
 399:.\Generated_Source\PSoC4/UART_SPI_UART.c ****         #endif
 400:.\Generated_Source\PSoC4/UART_SPI_UART.c ****     }
 507              		.loc 1 400 0
 508 003e BD46     		mov	sp, r7
 509 0040 02B0     		add	sp, sp, #8
ARM GAS  C:\Users\ADMINI~1\AppData\Local\Temp\ccNiCx8y.s 			page 17


 510              		@ sp needed
 511 0042 80BD     		pop	{r7, pc}
 512              	.L34:
 513              		.align	2
 514              	.L33:
 515 0044 04022440 		.word	1076101636
 516 0048 FFFFFEFF 		.word	-65537
 517 004c 00000000 		.word	UART_txBufferTail
 518 0050 00000000 		.word	UART_txBufferHead
 519 0054 880F2440 		.word	1076105096
 520              		.cfi_endproc
 521              	.LFE8:
 522              		.size	UART_SpiUartClearTxBuffer, .-UART_SpiUartClearTxBuffer
 523              		.section	.text.UART_SpiUartDisableIntRx,"ax",%progbits
 524              		.align	2
 525              		.global	UART_SpiUartDisableIntRx
 526              		.code	16
 527              		.thumb_func
 528              		.type	UART_SpiUartDisableIntRx, %function
 529              	UART_SpiUartDisableIntRx:
 530              	.LFB9:
 401:.\Generated_Source\PSoC4/UART_SPI_UART.c **** 
 402:.\Generated_Source\PSoC4/UART_SPI_UART.c **** #endif /* (UART_TX_DIRECTION) */
 403:.\Generated_Source\PSoC4/UART_SPI_UART.c **** 
 404:.\Generated_Source\PSoC4/UART_SPI_UART.c **** 
 405:.\Generated_Source\PSoC4/UART_SPI_UART.c **** /*******************************************************************************
 406:.\Generated_Source\PSoC4/UART_SPI_UART.c **** * Function Name: UART_SpiUartDisableIntRx
 407:.\Generated_Source\PSoC4/UART_SPI_UART.c **** ********************************************************************************
 408:.\Generated_Source\PSoC4/UART_SPI_UART.c **** *
 409:.\Generated_Source\PSoC4/UART_SPI_UART.c **** * Summary:
 410:.\Generated_Source\PSoC4/UART_SPI_UART.c **** *  Disables the RX interrupt sources.
 411:.\Generated_Source\PSoC4/UART_SPI_UART.c **** *
 412:.\Generated_Source\PSoC4/UART_SPI_UART.c **** * Parameters:
 413:.\Generated_Source\PSoC4/UART_SPI_UART.c **** *  None
 414:.\Generated_Source\PSoC4/UART_SPI_UART.c **** *
 415:.\Generated_Source\PSoC4/UART_SPI_UART.c **** * Return:
 416:.\Generated_Source\PSoC4/UART_SPI_UART.c **** *  Returns the RX interrupt sources enabled before the function call.
 417:.\Generated_Source\PSoC4/UART_SPI_UART.c **** *
 418:.\Generated_Source\PSoC4/UART_SPI_UART.c **** *******************************************************************************/
 419:.\Generated_Source\PSoC4/UART_SPI_UART.c **** uint32 UART_SpiUartDisableIntRx(void)
 420:.\Generated_Source\PSoC4/UART_SPI_UART.c **** {
 531              		.loc 1 420 0
 532              		.cfi_startproc
 533 0000 80B5     		push	{r7, lr}
 534              		.cfi_def_cfa_offset 8
 535              		.cfi_offset 7, -8
 536              		.cfi_offset 14, -4
 537 0002 82B0     		sub	sp, sp, #8
 538              		.cfi_def_cfa_offset 16
 539 0004 00AF     		add	r7, sp, #0
 540              		.cfi_def_cfa_register 7
 421:.\Generated_Source\PSoC4/UART_SPI_UART.c ****     uint32 intSource;
 422:.\Generated_Source\PSoC4/UART_SPI_UART.c **** 
 423:.\Generated_Source\PSoC4/UART_SPI_UART.c ****     intSource = UART_GetRxInterruptMode();
 541              		.loc 1 423 0
 542 0006 054B     		ldr	r3, .L37
 543 0008 1B68     		ldr	r3, [r3]
ARM GAS  C:\Users\ADMINI~1\AppData\Local\Temp\ccNiCx8y.s 			page 18


 544 000a 7B60     		str	r3, [r7, #4]
 424:.\Generated_Source\PSoC4/UART_SPI_UART.c **** 
 425:.\Generated_Source\PSoC4/UART_SPI_UART.c ****     UART_SetRxInterruptMode(UART_NO_INTR_SOURCES);
 545              		.loc 1 425 0
 546 000c 034B     		ldr	r3, .L37
 547 000e 0022     		mov	r2, #0
 548 0010 1A60     		str	r2, [r3]
 426:.\Generated_Source\PSoC4/UART_SPI_UART.c **** 
 427:.\Generated_Source\PSoC4/UART_SPI_UART.c ****     return(intSource);
 549              		.loc 1 427 0
 550 0012 7B68     		ldr	r3, [r7, #4]
 428:.\Generated_Source\PSoC4/UART_SPI_UART.c **** }
 551              		.loc 1 428 0
 552 0014 181C     		mov	r0, r3
 553 0016 BD46     		mov	sp, r7
 554 0018 02B0     		add	sp, sp, #8
 555              		@ sp needed
 556 001a 80BD     		pop	{r7, pc}
 557              	.L38:
 558              		.align	2
 559              	.L37:
 560 001c C80F2440 		.word	1076105160
 561              		.cfi_endproc
 562              	.LFE9:
 563              		.size	UART_SpiUartDisableIntRx, .-UART_SpiUartDisableIntRx
 564              		.section	.text.UART_SpiUartDisableIntTx,"ax",%progbits
 565              		.align	2
 566              		.global	UART_SpiUartDisableIntTx
 567              		.code	16
 568              		.thumb_func
 569              		.type	UART_SpiUartDisableIntTx, %function
 570              	UART_SpiUartDisableIntTx:
 571              	.LFB10:
 429:.\Generated_Source\PSoC4/UART_SPI_UART.c **** 
 430:.\Generated_Source\PSoC4/UART_SPI_UART.c **** 
 431:.\Generated_Source\PSoC4/UART_SPI_UART.c **** /*******************************************************************************
 432:.\Generated_Source\PSoC4/UART_SPI_UART.c **** * Function Name: UART_SpiUartDisableIntTx
 433:.\Generated_Source\PSoC4/UART_SPI_UART.c **** ********************************************************************************
 434:.\Generated_Source\PSoC4/UART_SPI_UART.c **** *
 435:.\Generated_Source\PSoC4/UART_SPI_UART.c **** * Summary:
 436:.\Generated_Source\PSoC4/UART_SPI_UART.c **** *  Disables TX interrupt sources.
 437:.\Generated_Source\PSoC4/UART_SPI_UART.c **** *
 438:.\Generated_Source\PSoC4/UART_SPI_UART.c **** * Parameters:
 439:.\Generated_Source\PSoC4/UART_SPI_UART.c **** *  None
 440:.\Generated_Source\PSoC4/UART_SPI_UART.c **** *
 441:.\Generated_Source\PSoC4/UART_SPI_UART.c **** * Return:
 442:.\Generated_Source\PSoC4/UART_SPI_UART.c **** *  Returns TX interrupt sources enabled before function call.
 443:.\Generated_Source\PSoC4/UART_SPI_UART.c **** *
 444:.\Generated_Source\PSoC4/UART_SPI_UART.c **** *******************************************************************************/
 445:.\Generated_Source\PSoC4/UART_SPI_UART.c **** uint32 UART_SpiUartDisableIntTx(void)
 446:.\Generated_Source\PSoC4/UART_SPI_UART.c **** {
 572              		.loc 1 446 0
 573              		.cfi_startproc
 574 0000 80B5     		push	{r7, lr}
 575              		.cfi_def_cfa_offset 8
 576              		.cfi_offset 7, -8
 577              		.cfi_offset 14, -4
ARM GAS  C:\Users\ADMINI~1\AppData\Local\Temp\ccNiCx8y.s 			page 19


 578 0002 82B0     		sub	sp, sp, #8
 579              		.cfi_def_cfa_offset 16
 580 0004 00AF     		add	r7, sp, #0
 581              		.cfi_def_cfa_register 7
 447:.\Generated_Source\PSoC4/UART_SPI_UART.c ****     uint32 intSourceMask;
 448:.\Generated_Source\PSoC4/UART_SPI_UART.c **** 
 449:.\Generated_Source\PSoC4/UART_SPI_UART.c ****     intSourceMask = UART_GetTxInterruptMode();
 582              		.loc 1 449 0
 583 0006 054B     		ldr	r3, .L41
 584 0008 1B68     		ldr	r3, [r3]
 585 000a 7B60     		str	r3, [r7, #4]
 450:.\Generated_Source\PSoC4/UART_SPI_UART.c **** 
 451:.\Generated_Source\PSoC4/UART_SPI_UART.c ****     UART_SetTxInterruptMode(UART_NO_INTR_SOURCES);
 586              		.loc 1 451 0
 587 000c 034B     		ldr	r3, .L41
 588 000e 0022     		mov	r2, #0
 589 0010 1A60     		str	r2, [r3]
 452:.\Generated_Source\PSoC4/UART_SPI_UART.c **** 
 453:.\Generated_Source\PSoC4/UART_SPI_UART.c ****     return(intSourceMask);
 590              		.loc 1 453 0
 591 0012 7B68     		ldr	r3, [r7, #4]
 454:.\Generated_Source\PSoC4/UART_SPI_UART.c **** }
 592              		.loc 1 454 0
 593 0014 181C     		mov	r0, r3
 594 0016 BD46     		mov	sp, r7
 595 0018 02B0     		add	sp, sp, #8
 596              		@ sp needed
 597 001a 80BD     		pop	{r7, pc}
 598              	.L42:
 599              		.align	2
 600              	.L41:
 601 001c 880F2440 		.word	1076105096
 602              		.cfi_endproc
 603              	.LFE10:
 604              		.size	UART_SpiUartDisableIntTx, .-UART_SpiUartDisableIntTx
 605              		.text
 606              	.Letext0:
 607              		.file 2 "Generated_Source\\PSoC4/cytypes.h"
